{
  "contractName": "Base",
  "abi": [
    {
      "inputs": [
        {
          "internalType": "address",
          "name": "_storageAddress",
          "type": "address"
        }
      ],
      "payable": false,
      "stateMutability": "nonpayable",
      "type": "constructor"
    },
    {
      "constant": true,
      "inputs": [],
      "name": "eternalStorage",
      "outputs": [
        {
          "internalType": "contract EternalStorageInterface",
          "name": "",
          "type": "address"
        }
      ],
      "payable": false,
      "stateMutability": "view",
      "type": "function"
    }
  ],
  "bytecode": "0x608060405260008060006101000a81548173ffffffffffffffffffffffffffffffffffffffff021916908373ffffffffffffffffffffffffffffffffffffffff16021790555034801561005157600080fd5b506040516101a33803806101a38339818101604052602081101561007457600080fd5b8101908080519060200190929190505050806000806101000a81548173ffffffffffffffffffffffffffffffffffffffff021916908373ffffffffffffffffffffffffffffffffffffffff1602179055505060cf806100d46000396000f3fe6080604052348015600f57600080fd5b506004361060285760003560e01c806398ff9c5414602d575b600080fd5b60336075565b604051808273ffffffffffffffffffffffffffffffffffffffff1673ffffffffffffffffffffffffffffffffffffffff16815260200191505060405180910390f35b6000809054906101000a900473ffffffffffffffffffffffffffffffffffffffff168156fea265627a7a723158208ee1af8af8f977f2e9c2d2eb447744616da5f6415b0284377f8f2d78c79798d264736f6c63430005100032",
  "source": "// pragma solidity ^0.4.14;\r\npragma solidity ^0.5.16;\r\n\r\nimport \"../interface/EternalStorageInterface.sol\";\r\n\r\n/*\r\n * @title Base settings / modifiers for BitBrackets Contracts.\r\n *\r\n * @author Douglas Molina <doug.molina@bitbrackets.io>\r\n * @author Guillermo Salazar <guillermo@bitbrackets.io>\r\n * @author Daniel Tutila <daniel@bitbrackets.io>\r\n */\r\ncontract Base {\r\n\r\n    EternalStorageInterface public eternalStorage = EternalStorageInterface(0);\r\n\r\n    /**\r\n    * @dev Throws if called by any account other than the owner.\r\n    */\r\n    modifier onlyOwner() {\r\n        roleCheck(\"owner\", msg.sender);\r\n        _;\r\n    }\r\n\r\n    /**\r\n    * @dev Modifier to scope access to admins\r\n    */\r\n    modifier onlyAdmin() {\r\n        // roleCheck(\"admin\", msg.sender);\r\n        require(roleHas(\"admin\",msg.sender),\r\n         \"Only Admin\" );\r\n        _;\r\n    }\r\n\r\n    /**\r\n    * @dev Modifier to scope access to admins\r\n    */\r\n    modifier onlySuperUser() {\r\n        require(\r\n            roleHas(\"owner\", msg.sender) == true ||\r\n            roleHas(\"admin\", msg.sender) == true,\r\n            \"Only super User\"\r\n        );\r\n        _;\r\n    }\r\n\r\n    /**\r\n    * @dev Reverts if the address doesn't have this role\r\n    */\r\n    modifier onlyRole(string memory _role) {\r\n        roleCheck(_role, msg.sender);\r\n        _;\r\n    }\r\n\r\n    modifier onlyAllowedContract() {\r\n        require(eternalStorage.getBool(keccak256(abi.encodePacked(\"contract.valid\", msg.sender))), \"Only registred contract\" );\r\n        _;\r\n    }\r\n\r\n    \r\n    /*** Constructor **********/\r\n   \r\n    /// @dev Set the main Storage address\r\n    constructor(address _storageAddress) public {\r\n        // Update the contract address\r\n        eternalStorage = EternalStorageInterface(_storageAddress);\r\n    }\r\n\r\n    /*** Role Utilities */\r\n\r\n    /**\r\n    * @dev Check if an address has this role\r\n    * @return bool\r\n    */\r\n    function roleHas(string memory _role, address _address) internal view returns (bool) {\r\n        return eternalStorage.getBool(keccak256(abi.encodePacked(\"access.role\", _role, _address)));\r\n    }\r\n\r\n    \r\n     /**\r\n    * @dev Check if an address has this role, reverts if it doesn't\r\n    */\r\n    function roleCheck(string memory _role, address _address) internal view {\r\n        require(roleHas(_role, _address) == true, \"Not have acces\");\r\n    }\r\n\r\n    function _msgSender() internal view returns (address payable) {\r\n        return msg.sender;\r\n    }\r\n\r\n    function _msgData() internal view returns (bytes memory) {\r\n        this; // silence state mutability warning without generating bytecode - see https://github.com/ethereum/solidity/issues/2691\r\n        return msg.data;\r\n    }\r\n\r\n    function compareString(string memory _string1, string memory _string2) internal pure returns(bool) {\r\n        if(bytes(_string1).length != bytes(_string2).length) {\r\n            return false;\r\n        } else {\r\n            return keccak256(abi.encodePacked(_string1)) == keccak256(abi.encodePacked(_string2));\r\n        }\r\n    }\r\n    \r\n}",
  "sourcePath": "D:\\projects\\degenics\\degenics-smart-contract\\contracts\\common\\Base.sol",
  "compiler": {
    "name": "solc",
    "version": "0.5.16+commit.9c3226ce.Emscripten.clang"
  },
  "schemaVersion": "3.0.23",
  "updatedAt": "2021-01-03T11:29:54.971Z",
  "devdoc": {
    "methods": {
      "constructor": {
        "details": "Set the main Storage address"
      }
    }
  },
  "userdoc": {
    "methods": {}
  }
}