{
  "contractName": "DegenicsLog",
  "abi": [
    {
      "inputs": [
        {
          "internalType": "address",
          "name": "_storage",
          "type": "address"
        }
      ],
      "payable": false,
      "stateMutability": "nonpayable",
      "type": "constructor"
    },
    {
      "constant": true,
      "inputs": [],
      "name": "eternalStorage",
      "outputs": [
        {
          "internalType": "contract EternalStorageInterface",
          "name": "",
          "type": "address"
        }
      ],
      "payable": false,
      "stateMutability": "view",
      "type": "function"
    },
    {
      "constant": false,
      "inputs": [
        {
          "internalType": "bytes32",
          "name": "number",
          "type": "bytes32"
        },
        {
          "internalType": "string",
          "name": "logType",
          "type": "string"
        },
        {
          "internalType": "string",
          "name": "log",
          "type": "string"
        }
      ],
      "name": "addSpecimenLog",
      "outputs": [],
      "payable": false,
      "stateMutability": "nonpayable",
      "type": "function"
    },
    {
      "constant": false,
      "inputs": [
        {
          "internalType": "bytes32",
          "name": "number",
          "type": "bytes32"
        }
      ],
      "name": "countSpecimenLog",
      "outputs": [
        {
          "internalType": "uint256",
          "name": "",
          "type": "uint256"
        }
      ],
      "payable": false,
      "stateMutability": "nonpayable",
      "type": "function"
    },
    {
      "constant": false,
      "inputs": [
        {
          "internalType": "bytes32",
          "name": "number",
          "type": "bytes32"
        },
        {
          "internalType": "uint256",
          "name": "_index",
          "type": "uint256"
        }
      ],
      "name": "specimenLogByIndex",
      "outputs": [
        {
          "internalType": "uint256",
          "name": "index",
          "type": "uint256"
        },
        {
          "internalType": "uint256",
          "name": "time",
          "type": "uint256"
        },
        {
          "internalType": "string",
          "name": "logType",
          "type": "string"
        },
        {
          "internalType": "string",
          "name": "log",
          "type": "string"
        }
      ],
      "payable": false,
      "stateMutability": "nonpayable",
      "type": "function"
    }
  ],
  "bytecode": "0x608060405260008060006101000a81548173ffffffffffffffffffffffffffffffffffffffff021916908373ffffffffffffffffffffffffffffffffffffffff16021790555034801561005157600080fd5b5060405161140b38038061140b8339818101604052602081101561007457600080fd5b810190808051906020019092919050505080806000806101000a81548173ffffffffffffffffffffffffffffffffffffffff021916908373ffffffffffffffffffffffffffffffffffffffff1602179055505050611334806100d76000396000f3fe608060405234801561001057600080fd5b506004361061004c5760003560e01c80631080c1481461005157806362dd76bf1461017c57806372b01cc0146101be57806398ff9c541461031a575b600080fd5b6100876004803603604081101561006757600080fd5b810190808035906020019092919080359060200190929190505050610364565b604051808581526020018481526020018060200180602001838103835285818151815260200191508051906020019080838360005b838110156100d75780820151818401526020810190506100bc565b50505050905090810190601f1680156101045780820380516001836020036101000a031916815260200191505b50838103825284818151815260200191508051906020019080838360005b8381101561013d578082015181840152602081019050610122565b50505050905090810190601f16801561016a5780820380516001836020036101000a031916815260200191505b50965050505050505060405180910390f35b6101a86004803603602081101561019257600080fd5b81019080803590602001909291905050506109c8565b6040518082815260200191505060405180910390f35b610318600480360360608110156101d457600080fd5b8101908080359060200190929190803590602001906401000000008111156101fb57600080fd5b82018360208201111561020d57600080fd5b8035906020019184600183028401116401000000008311171561022f57600080fd5b91908080601f016020809104026020016040519081016040528093929190818152602001838380828437600081840152601f19601f8201169050808301925050505050505091929192908035906020019064010000000081111561029257600080fd5b8201836020820111156102a457600080fd5b803590602001918460018302840111640100000000831117156102c657600080fd5b91908080601f016020809104026020016040519081016040528093929190818152602001838380828437600081840152601f19601f820116905080830192505050505050509192919290505050610c87565b005b6103226112da565b604051808273ffffffffffffffffffffffffffffffffffffffff1673ffffffffffffffffffffffffffffffffffffffff16815260200191505060405180910390f35b6000806060803373ffffffffffffffffffffffffffffffffffffffff166000809054906101000a900473ffffffffffffffffffffffffffffffffffffffff1673ffffffffffffffffffffffffffffffffffffffff166321f8a72160405160200180807f636f6e74726163742e6164647265737300000000000000000000000000000000815250601001807f53706563696d656e0000000000000000000000000000000000000000000000008152506008019050604051602081830303815290604052805190602001206040518263ffffffff1660e01b81526004018082815260200191505060206040518083038186803b15801561046157600080fd5b505afa158015610475573d6000803e3d6000fd5b505050506040513d602081101561048b57600080fd5b810190808051906020019092919050505073ffffffffffffffffffffffffffffffffffffffff1614610525576040517f08c379a00000000000000000000000000000000000000000000000000000000081526004018080602001828103825260178152602001807f4f6e6c792072656769737472656420636f6e747261637400000000000000000081525060200191505060405180910390fd5b8493506000809054906101000a900473ffffffffffffffffffffffffffffffffffffffff1673ffffffffffffffffffffffffffffffffffffffff1663986e791a878660405160200180807f53706563696d656e2e6c6f672e7479706500000000000000000000000000000081525060110183815260200182815260200192505050604051602081830303815290604052805190602001206040518263ffffffff1660e01b81526004018082815260200191505060006040518083038186803b1580156105f057600080fd5b505afa158015610604573d6000803e3d6000fd5b505050506040513d6000823e3d601f19601f82011682018060405250602081101561062e57600080fd5b810190808051604051939291908464010000000082111561064e57600080fd5b8382019150602082018581111561066457600080fd5b825186600182028301116401000000008211171561068157600080fd5b8083526020830192505050908051906020019080838360005b838110156106b557808201518184015260208101905061069a565b50505050905090810190601f1680156106e25780820380516001836020036101000a031916815260200191505b5060405250505091506000809054906101000a900473ffffffffffffffffffffffffffffffffffffffff1673ffffffffffffffffffffffffffffffffffffffff1663986e791a878660405160200180807f53706563696d656e2e6c6f670000000000000000000000000000000000000000815250600c0183815260200182815260200192505050604051602081830303815290604052805190602001206040518263ffffffff1660e01b81526004018082815260200191505060006040518083038186803b1580156107b357600080fd5b505afa1580156107c7573d6000803e3d6000fd5b505050506040513d6000823e3d601f19601f8201168201806040525060208110156107f157600080fd5b810190808051604051939291908464010000000082111561081157600080fd5b8382019150602082018581111561082757600080fd5b825186600182028301116401000000008211171561084457600080fd5b8083526020830192505050908051906020019080838360005b8381101561087857808201518184015260208101905061085d565b50505050905090810190601f1680156108a55780820380516001836020036101000a031916815260200191505b5060405250505090506000809054906101000a900473ffffffffffffffffffffffffffffffffffffffff1673ffffffffffffffffffffffffffffffffffffffff1663bd02d0f5878660405160200180807f53706563696d656e2e6c6f672e74696d6500000000000000000000000000000081525060110183815260200182815260200192505050604051602081830303815290604052805190602001206040518263ffffffff1660e01b81526004018082815260200191505060206040518083038186803b15801561097657600080fd5b505afa15801561098a573d6000803e3d6000fd5b505050506040513d60208110156109a057600080fd5b8101908080519060200190929190505050925083838383935093509350935092959194509250565b60003373ffffffffffffffffffffffffffffffffffffffff166000809054906101000a900473ffffffffffffffffffffffffffffffffffffffff1673ffffffffffffffffffffffffffffffffffffffff166321f8a72160405160200180807f636f6e74726163742e6164647265737300000000000000000000000000000000815250601001807f53706563696d656e0000000000000000000000000000000000000000000000008152506008019050604051602081830303815290604052805190602001206040518263ffffffff1660e01b81526004018082815260200191505060206040518083038186803b158015610ac157600080fd5b505afa158015610ad5573d6000803e3d6000fd5b505050506040513d6020811015610aeb57600080fd5b810190808051906020019092919050505073ffffffffffffffffffffffffffffffffffffffff1614610b85576040517f08c379a00000000000000000000000000000000000000000000000000000000081526004018080602001828103825260178152602001807f4f6e6c792072656769737472656420636f6e747261637400000000000000000081525060200191505060405180910390fd5b6000809054906101000a900473ffffffffffffffffffffffffffffffffffffffff1673ffffffffffffffffffffffffffffffffffffffff1663bd02d0f58360405160200180807f53706563696d656e2e4c6f672e636f756e740000000000000000000000000000815250601201828152602001915050604051602081830303815290604052805190602001206040518263ffffffff1660e01b81526004018082815260200191505060206040518083038186803b158015610c4557600080fd5b505afa158015610c59573d6000803e3d6000fd5b505050506040513d6020811015610c6f57600080fd5b81019080805190602001909291905050509050919050565b3373ffffffffffffffffffffffffffffffffffffffff166000809054906101000a900473ffffffffffffffffffffffffffffffffffffffff1673ffffffffffffffffffffffffffffffffffffffff166321f8a72160405160200180807f636f6e74726163742e6164647265737300000000000000000000000000000000815250601001807f53706563696d656e0000000000000000000000000000000000000000000000008152506008019050604051602081830303815290604052805190602001206040518263ffffffff1660e01b81526004018082815260200191505060206040518083038186803b158015610d7e57600080fd5b505afa158015610d92573d6000803e3d6000fd5b505050506040513d6020811015610da857600080fd5b810190808051906020019092919050505073ffffffffffffffffffffffffffffffffffffffff1614610e42576040517f08c379a00000000000000000000000000000000000000000000000000000000081526004018080602001828103825260178152602001807f4f6e6c792072656769737472656420636f6e747261637400000000000000000081525060200191505060405180910390fd5b60008060009054906101000a900473ffffffffffffffffffffffffffffffffffffffff1673ffffffffffffffffffffffffffffffffffffffff1663adb353dc8560405160200180807f53706563696d656e2e4c6f672e636f756e7400000000000000000000000000008152506012018281526020019150506040516020818303038152906040528051906020012060016040518363ffffffff1660e01b81526004018083815260200182815260200192505050602060405180830381600087803b158015610f0f57600080fd5b505af1158015610f23573d6000803e3d6000fd5b505050506040513d6020811015610f3957600080fd5b810190808051906020019092919050505090506000809054906101000a900473ffffffffffffffffffffffffffffffffffffffff1673ffffffffffffffffffffffffffffffffffffffff16636e899550858360405160200180807f53706563696d656e2e6c6f672e747970650000000000000000000000000000008152506011018381526020018281526020019250505060405160208183030381529060405280519060200120856040518363ffffffff1660e01b81526004018083815260200180602001828103825283818151815260200191508051906020019080838360005b8381101561103657808201518184015260208101905061101b565b50505050905090810190601f1680156110635780820380516001836020036101000a031916815260200191505b509350505050600060405180830381600087803b15801561108357600080fd5b505af1158015611097573d6000803e3d6000fd5b505050506000809054906101000a900473ffffffffffffffffffffffffffffffffffffffff1673ffffffffffffffffffffffffffffffffffffffff16636e899550858360405160200180807f53706563696d656e2e6c6f670000000000000000000000000000000000000000815250600c018381526020018281526020019250505060405160208183030381529060405280519060200120846040518363ffffffff1660e01b81526004018083815260200180602001828103825283818151815260200191508051906020019080838360005b8381101561118557808201518184015260208101905061116a565b50505050905090810190601f1680156111b25780820380516001836020036101000a031916815260200191505b509350505050600060405180830381600087803b1580156111d257600080fd5b505af11580156111e6573d6000803e3d6000fd5b505050506000809054906101000a900473ffffffffffffffffffffffffffffffffffffffff1673ffffffffffffffffffffffffffffffffffffffff1663e2a4853a858360405160200180807f53706563696d656e2e6c6f672e74696d650000000000000000000000000000008152506011018381526020018281526020019250505060405160208183030381529060405280519060200120426040518363ffffffff1660e01b81526004018083815260200182815260200192505050600060405180830381600087803b1580156112bc57600080fd5b505af11580156112d0573d6000803e3d6000fd5b5050505050505050565b6000809054906101000a900473ffffffffffffffffffffffffffffffffffffffff168156fea265627a7a723158200397688bb4cd70453468085e679e68bb562825a5024df7ca0ec74f95cde4e39e64736f6c63430005100032",
  "source": "pragma solidity ^0.5.16;\r\n\r\n\r\nimport \"./common/Base.sol\";\r\n\r\ncontract DegenicsLog is Base {\r\n\r\n    modifier onlyDegenicsContract() {\r\n        require(eternalStorage.getAddress(keccak256(abi.encodePacked(\"contract.address\", \"Degenics\"))) == msg.sender, \"Only registred contract\" );\r\n        _;\r\n    }\r\n\r\n    modifier onlySpecimenContract() {\r\n        require(eternalStorage.getAddress(keccak256(abi.encodePacked(\"contract.address\", \"Specimen\"))) == msg.sender, \"Only registred contract\" );\r\n        _;\r\n    }\r\n\r\n    constructor(address _storage ) public Base(_storage) {\r\n        \r\n    }\r\n\r\n    function addSpecimenLog(bytes32 number, string memory logType, string memory log) public onlySpecimenContract {\r\n        uint index = eternalStorage.addUint(keccak256(abi.encodePacked( \"Specimen.Log.count\",number)),1);\r\n        eternalStorage.setString(keccak256(abi.encodePacked( \"Specimen.log.type\",number, index )), logType);\r\n        eternalStorage.setString(keccak256(abi.encodePacked( \"Specimen.log\",number, index )), log);\r\n        eternalStorage.setUint(keccak256(abi.encodePacked( \"Specimen.log.time\",number, index )), block.timestamp);\r\n    }\r\n\r\n    function countSpecimenLog(bytes32 number) public onlySpecimenContract returns(uint){\r\n        return eternalStorage.getUint(keccak256(abi.encodePacked( \"Specimen.Log.count\",number)));\r\n    }\r\n\r\n    function specimenLogByIndex(bytes32 number, uint _index) public onlySpecimenContract returns(uint index, \r\n        uint time, string memory logType, string memory log){\r\n        \r\n        index = _index;\r\n        logType = eternalStorage.getString(keccak256(abi.encodePacked( \"Specimen.log.type\",number, index )));\r\n        log = eternalStorage.getString(keccak256(abi.encodePacked( \"Specimen.log\",number, index )));\r\n        time = eternalStorage.getUint(keccak256(abi.encodePacked( \"Specimen.log.time\",number, index )));\r\n        return (index, time, logType, log);\r\n    }\r\n\r\n}",
  "sourcePath": "D:\\projects\\degenics\\degenics-smart-contract\\contracts\\DegenicsLog.sol",
  "compiler": {
    "name": "solc",
    "version": "0.5.16+commit.9c3226ce.Emscripten.clang"
  },
  "schemaVersion": "3.0.23",
  "updatedAt": "2020-12-30T10:53:28.125Z",
  "networkType": "ethereum",
  "devdoc": {
    "methods": {}
  },
  "userdoc": {
    "methods": {}
  }
}