{
  "contractName": "DegenicsLog",
  "abi": [
    {
      "inputs": [
        {
          "internalType": "address",
          "name": "_storage",
          "type": "address"
        }
      ],
      "payable": false,
      "stateMutability": "nonpayable",
      "type": "constructor"
    },
    {
      "constant": true,
      "inputs": [],
      "name": "eternalStorage",
      "outputs": [
        {
          "internalType": "contract EternalStorageInterface",
          "name": "",
          "type": "address"
        }
      ],
      "payable": false,
      "stateMutability": "view",
      "type": "function"
    },
    {
      "constant": false,
      "inputs": [
        {
          "internalType": "string",
          "name": "number",
          "type": "string"
        },
        {
          "internalType": "string",
          "name": "logType",
          "type": "string"
        },
        {
          "internalType": "string",
          "name": "log",
          "type": "string"
        }
      ],
      "name": "addSpecimenLog",
      "outputs": [],
      "payable": false,
      "stateMutability": "nonpayable",
      "type": "function"
    },
    {
      "constant": false,
      "inputs": [
        {
          "internalType": "string",
          "name": "number",
          "type": "string"
        }
      ],
      "name": "countSpecimenLog",
      "outputs": [
        {
          "internalType": "uint256",
          "name": "",
          "type": "uint256"
        }
      ],
      "payable": false,
      "stateMutability": "nonpayable",
      "type": "function"
    },
    {
      "constant": false,
      "inputs": [
        {
          "internalType": "string",
          "name": "number",
          "type": "string"
        },
        {
          "internalType": "uint256",
          "name": "_index",
          "type": "uint256"
        }
      ],
      "name": "specimenLogByIndex",
      "outputs": [
        {
          "internalType": "uint256",
          "name": "index",
          "type": "uint256"
        },
        {
          "internalType": "uint256",
          "name": "time",
          "type": "uint256"
        },
        {
          "internalType": "string",
          "name": "logType",
          "type": "string"
        },
        {
          "internalType": "string",
          "name": "log",
          "type": "string"
        }
      ],
      "payable": false,
      "stateMutability": "nonpayable",
      "type": "function"
    }
  ],
  "bytecode": "0x608060405260008060006101000a81548173ffffffffffffffffffffffffffffffffffffffff021916908373ffffffffffffffffffffffffffffffffffffffff16021790555034801561005157600080fd5b50604051611fea380380611fea8339818101604052602081101561007457600080fd5b810190808051906020019092919050505080806000806101000a81548173ffffffffffffffffffffffffffffffffffffffff021916908373ffffffffffffffffffffffffffffffffffffffff1602179055505050611f13806100d76000396000f3fe608060405234801561001057600080fd5b506004361061004c5760003560e01c80630e2eb2a1146100515780633c0b67331461020957806398ff9c54146102d8578063f609cabd14610322575b600080fd5b6101146004803603604081101561006757600080fd5b810190808035906020019064010000000081111561008457600080fd5b82018360208201111561009657600080fd5b803590602001918460018302840111640100000000831117156100b857600080fd5b91908080601f016020809104026020016040519081016040528093929190818152602001838380828437600081840152601f19601f8201169050808301925050505050505091929192908035906020019092919050505061050b565b604051808581526020018481526020018060200180602001838103835285818151815260200191508051906020019080838360005b83811015610164578082015181840152602081019050610149565b50505050905090810190601f1680156101915780820380516001836020036101000a031916815260200191505b50838103825284818151815260200191508051906020019080838360005b838110156101ca5780820151818401526020810190506101af565b50505050905090810190601f1680156101f75780820380516001836020036101000a031916815260200191505b50965050505050505060405180910390f35b6102c26004803603602081101561021f57600080fd5b810190808035906020019064010000000081111561023c57600080fd5b82018360208201111561024e57600080fd5b8035906020019184600183028401116401000000008311171561027057600080fd5b91908080601f016020809104026020016040519081016040528093929190818152602001838380828437600081840152601f19601f820116905080830192505050505050509192919290505050610ef0565b6040518082815260200191505060405180910390f35b6102e061149a565b604051808273ffffffffffffffffffffffffffffffffffffffff1673ffffffffffffffffffffffffffffffffffffffff16815260200191505060405180910390f35b6105096004803603606081101561033857600080fd5b810190808035906020019064010000000081111561035557600080fd5b82018360208201111561036757600080fd5b8035906020019184600183028401116401000000008311171561038957600080fd5b91908080601f016020809104026020016040519081016040528093929190818152602001838380828437600081840152601f19601f820116905080830192505050505050509192919290803590602001906401000000008111156103ec57600080fd5b8201836020820111156103fe57600080fd5b8035906020019184600183028401116401000000008311171561042057600080fd5b91908080601f016020809104026020016040519081016040528093929190818152602001838380828437600081840152601f19601f8201169050808301925050505050505091929192908035906020019064010000000081111561048357600080fd5b82018360208201111561049557600080fd5b803590602001918460018302840111640100000000831117156104b757600080fd5b91908080601f016020809104026020016040519081016040528093929190818152602001838380828437600081840152601f19601f8201169050808301925050505050505091929192905050506114bf565b005b6000806060803373ffffffffffffffffffffffffffffffffffffffff166000809054906101000a900473ffffffffffffffffffffffffffffffffffffffff1673ffffffffffffffffffffffffffffffffffffffff166321f8a72160405160200180807f636f6e74726163742e6164647265737300000000000000000000000000000000815250601001807f446567656e6963730000000000000000000000000000000000000000000000008152506008019050604051602081830303815290604052805190602001206040518263ffffffff1660e01b81526004018082815260200191505060206040518083038186803b15801561060857600080fd5b505afa15801561061c573d6000803e3d6000fd5b505050506040513d602081101561063257600080fd5b810190808051906020019092919050505073ffffffffffffffffffffffffffffffffffffffff1614806107aa57503373ffffffffffffffffffffffffffffffffffffffff166000809054906101000a900473ffffffffffffffffffffffffffffffffffffffff1673ffffffffffffffffffffffffffffffffffffffff166321f8a72160405160200180807f636f6e74726163742e6164647265737300000000000000000000000000000000815250601001807f53706563696d656e0000000000000000000000000000000000000000000000008152506008019050604051602081830303815290604052805190602001206040518263ffffffff1660e01b81526004018082815260200191505060206040518083038186803b15801561075757600080fd5b505afa15801561076b573d6000803e3d6000fd5b505050506040513d602081101561078157600080fd5b810190808051906020019092919050505073ffffffffffffffffffffffffffffffffffffffff16145b806108fa57503373ffffffffffffffffffffffffffffffffffffffff166000809054906101000a900473ffffffffffffffffffffffffffffffffffffffff1673ffffffffffffffffffffffffffffffffffffffff166321f8a72160405160200180807f636f6e74726163742e6164647265737300000000000000000000000000000000815250601001807f53706563696d656e547261636b696e67000000000000000000000000000000008152506010019050604051602081830303815290604052805190602001206040518263ffffffff1660e01b81526004018082815260200191505060206040518083038186803b1580156108a757600080fd5b505afa1580156108bb573d6000803e3d6000fd5b505050506040513d60208110156108d157600080fd5b810190808051906020019092919050505073ffffffffffffffffffffffffffffffffffffffff16145b61096c576040517f08c379a00000000000000000000000000000000000000000000000000000000081526004018080602001828103825260178152602001807f4f6e6c792072656769737472656420636f6e747261637400000000000000000081525060200191505060405180910390fd5b8493506000809054906101000a900473ffffffffffffffffffffffffffffffffffffffff1673ffffffffffffffffffffffffffffffffffffffff1663986e791a878660405160200180807f53706563696d656e2e6c6f672e7479706500000000000000000000000000000081525060110183805190602001908083835b60208310610a0c57805182526020820191506020810190506020830392506109e9565b6001836020036101000a03801982511681845116808217855250505050505090500182815260200192505050604051602081830303815290604052805190602001206040518263ffffffff1660e01b81526004018082815260200191505060006040518083038186803b158015610a8257600080fd5b505afa158015610a96573d6000803e3d6000fd5b505050506040513d6000823e3d601f19601f820116820180604052506020811015610ac057600080fd5b8101908080516040519392919084640100000000821115610ae057600080fd5b83820191506020820185811115610af657600080fd5b8251866001820283011164010000000082111715610b1357600080fd5b8083526020830192505050908051906020019080838360005b83811015610b47578082015181840152602081019050610b2c565b50505050905090810190601f168015610b745780820380516001836020036101000a031916815260200191505b5060405250505091506000809054906101000a900473ffffffffffffffffffffffffffffffffffffffff1673ffffffffffffffffffffffffffffffffffffffff1663986e791a878660405160200180807f53706563696d656e2e6c6f670000000000000000000000000000000000000000815250600c0183805190602001908083835b60208310610c1a5780518252602082019150602081019050602083039250610bf7565b6001836020036101000a03801982511681845116808217855250505050505090500182815260200192505050604051602081830303815290604052805190602001206040518263ffffffff1660e01b81526004018082815260200191505060006040518083038186803b158015610c9057600080fd5b505afa158015610ca4573d6000803e3d6000fd5b505050506040513d6000823e3d601f19601f820116820180604052506020811015610cce57600080fd5b8101908080516040519392919084640100000000821115610cee57600080fd5b83820191506020820185811115610d0457600080fd5b8251866001820283011164010000000082111715610d2157600080fd5b8083526020830192505050908051906020019080838360005b83811015610d55578082015181840152602081019050610d3a565b50505050905090810190601f168015610d825780820380516001836020036101000a031916815260200191505b5060405250505090506000809054906101000a900473ffffffffffffffffffffffffffffffffffffffff1673ffffffffffffffffffffffffffffffffffffffff1663bd02d0f5878660405160200180807f53706563696d656e2e6c6f672e74696d6500000000000000000000000000000081525060110183805190602001908083835b60208310610e285780518252602082019150602081019050602083039250610e05565b6001836020036101000a03801982511681845116808217855250505050505090500182815260200192505050604051602081830303815290604052805190602001206040518263ffffffff1660e01b81526004018082815260200191505060206040518083038186803b158015610e9e57600080fd5b505afa158015610eb2573d6000803e3d6000fd5b505050506040513d6020811015610ec857600080fd5b8101908080519060200190929190505050925083838383935093509350935092959194509250565b60003373ffffffffffffffffffffffffffffffffffffffff166000809054906101000a900473ffffffffffffffffffffffffffffffffffffffff1673ffffffffffffffffffffffffffffffffffffffff166321f8a72160405160200180807f636f6e74726163742e6164647265737300000000000000000000000000000000815250601001807f446567656e6963730000000000000000000000000000000000000000000000008152506008019050604051602081830303815290604052805190602001206040518263ffffffff1660e01b81526004018082815260200191505060206040518083038186803b158015610fe957600080fd5b505afa158015610ffd573d6000803e3d6000fd5b505050506040513d602081101561101357600080fd5b810190808051906020019092919050505073ffffffffffffffffffffffffffffffffffffffff16148061118b57503373ffffffffffffffffffffffffffffffffffffffff166000809054906101000a900473ffffffffffffffffffffffffffffffffffffffff1673ffffffffffffffffffffffffffffffffffffffff166321f8a72160405160200180807f636f6e74726163742e6164647265737300000000000000000000000000000000815250601001807f53706563696d656e0000000000000000000000000000000000000000000000008152506008019050604051602081830303815290604052805190602001206040518263ffffffff1660e01b81526004018082815260200191505060206040518083038186803b15801561113857600080fd5b505afa15801561114c573d6000803e3d6000fd5b505050506040513d602081101561116257600080fd5b810190808051906020019092919050505073ffffffffffffffffffffffffffffffffffffffff16145b806112db57503373ffffffffffffffffffffffffffffffffffffffff166000809054906101000a900473ffffffffffffffffffffffffffffffffffffffff1673ffffffffffffffffffffffffffffffffffffffff166321f8a72160405160200180807f636f6e74726163742e6164647265737300000000000000000000000000000000815250601001807f53706563696d656e547261636b696e67000000000000000000000000000000008152506010019050604051602081830303815290604052805190602001206040518263ffffffff1660e01b81526004018082815260200191505060206040518083038186803b15801561128857600080fd5b505afa15801561129c573d6000803e3d6000fd5b505050506040513d60208110156112b257600080fd5b810190808051906020019092919050505073ffffffffffffffffffffffffffffffffffffffff16145b61134d576040517f08c379a00000000000000000000000000000000000000000000000000000000081526004018080602001828103825260178152602001807f4f6e6c792072656769737472656420636f6e747261637400000000000000000081525060200191505060405180910390fd5b6000809054906101000a900473ffffffffffffffffffffffffffffffffffffffff1673ffffffffffffffffffffffffffffffffffffffff1663bd02d0f58360405160200180807f53706563696d656e2e4c6f672e636f756e74000000000000000000000000000081525060120182805190602001908083835b602083106113e957805182526020820191506020810190506020830392506113c6565b6001836020036101000a038019825116818451168082178552505050505050905001915050604051602081830303815290604052805190602001206040518263ffffffff1660e01b81526004018082815260200191505060206040518083038186803b15801561145857600080fd5b505afa15801561146c573d6000803e3d6000fd5b505050506040513d602081101561148257600080fd5b81019080805190602001909291905050509050919050565b6000809054906101000a900473ffffffffffffffffffffffffffffffffffffffff1681565b3373ffffffffffffffffffffffffffffffffffffffff166000809054906101000a900473ffffffffffffffffffffffffffffffffffffffff1673ffffffffffffffffffffffffffffffffffffffff166321f8a72160405160200180807f636f6e74726163742e6164647265737300000000000000000000000000000000815250601001807f446567656e6963730000000000000000000000000000000000000000000000008152506008019050604051602081830303815290604052805190602001206040518263ffffffff1660e01b81526004018082815260200191505060206040518083038186803b1580156115b657600080fd5b505afa1580156115ca573d6000803e3d6000fd5b505050506040513d60208110156115e057600080fd5b810190808051906020019092919050505073ffffffffffffffffffffffffffffffffffffffff16148061175857503373ffffffffffffffffffffffffffffffffffffffff166000809054906101000a900473ffffffffffffffffffffffffffffffffffffffff1673ffffffffffffffffffffffffffffffffffffffff166321f8a72160405160200180807f636f6e74726163742e6164647265737300000000000000000000000000000000815250601001807f53706563696d656e0000000000000000000000000000000000000000000000008152506008019050604051602081830303815290604052805190602001206040518263ffffffff1660e01b81526004018082815260200191505060206040518083038186803b15801561170557600080fd5b505afa158015611719573d6000803e3d6000fd5b505050506040513d602081101561172f57600080fd5b810190808051906020019092919050505073ffffffffffffffffffffffffffffffffffffffff16145b806118a857503373ffffffffffffffffffffffffffffffffffffffff166000809054906101000a900473ffffffffffffffffffffffffffffffffffffffff1673ffffffffffffffffffffffffffffffffffffffff166321f8a72160405160200180807f636f6e74726163742e6164647265737300000000000000000000000000000000815250601001807f53706563696d656e547261636b696e67000000000000000000000000000000008152506010019050604051602081830303815290604052805190602001206040518263ffffffff1660e01b81526004018082815260200191505060206040518083038186803b15801561185557600080fd5b505afa158015611869573d6000803e3d6000fd5b505050506040513d602081101561187f57600080fd5b810190808051906020019092919050505073ffffffffffffffffffffffffffffffffffffffff16145b61191a576040517f08c379a00000000000000000000000000000000000000000000000000000000081526004018080602001828103825260178152602001807f4f6e6c792072656769737472656420636f6e747261637400000000000000000081525060200191505060405180910390fd5b60008060009054906101000a900473ffffffffffffffffffffffffffffffffffffffff1673ffffffffffffffffffffffffffffffffffffffff1663adb353dc8560405160200180807f53706563696d656e2e4c6f672e636f756e74000000000000000000000000000081525060120182805190602001908083835b602083106119b85780518252602082019150602081019050602083039250611995565b6001836020036101000a0380198251168184511680821785525050505050509050019150506040516020818303038152906040528051906020012060016040518363ffffffff1660e01b81526004018083815260200182815260200192505050602060405180830381600087803b158015611a3257600080fd5b505af1158015611a46573d6000803e3d6000fd5b505050506040513d6020811015611a5c57600080fd5b810190808051906020019092919050505090506000809054906101000a900473ffffffffffffffffffffffffffffffffffffffff1673ffffffffffffffffffffffffffffffffffffffff16636e899550858360405160200180807f53706563696d656e2e6c6f672e7479706500000000000000000000000000000081525060110183805190602001908083835b60208310611b0c5780518252602082019150602081019050602083039250611ae9565b6001836020036101000a0380198251168184511680821785525050505050509050018281526020019250505060405160208183030381529060405280519060200120856040518363ffffffff1660e01b81526004018083815260200180602001828103825283818151815260200191508051906020019080838360005b83811015611ba4578082015181840152602081019050611b89565b50505050905090810190601f168015611bd15780820380516001836020036101000a031916815260200191505b509350505050600060405180830381600087803b158015611bf157600080fd5b505af1158015611c05573d6000803e3d6000fd5b505050506000809054906101000a900473ffffffffffffffffffffffffffffffffffffffff1673ffffffffffffffffffffffffffffffffffffffff16636e899550858360405160200180807f53706563696d656e2e6c6f670000000000000000000000000000000000000000815250600c0183805190602001908083835b60208310611ca65780518252602082019150602081019050602083039250611c83565b6001836020036101000a0380198251168184511680821785525050505050509050018281526020019250505060405160208183030381529060405280519060200120846040518363ffffffff1660e01b81526004018083815260200180602001828103825283818151815260200191508051906020019080838360005b83811015611d3e578082015181840152602081019050611d23565b50505050905090810190601f168015611d6b5780820380516001836020036101000a031916815260200191505b509350505050600060405180830381600087803b158015611d8b57600080fd5b505af1158015611d9f573d6000803e3d6000fd5b505050506000809054906101000a900473ffffffffffffffffffffffffffffffffffffffff1673ffffffffffffffffffffffffffffffffffffffff1663e2a4853a858360405160200180807f53706563696d656e2e6c6f672e74696d6500000000000000000000000000000081525060110183805190602001908083835b60208310611e405780518252602082019150602081019050602083039250611e1d565b6001836020036101000a0380198251168184511680821785525050505050509050018281526020019250505060405160208183030381529060405280519060200120426040518363ffffffff1660e01b81526004018083815260200182815260200192505050600060405180830381600087803b158015611ec057600080fd5b505af1158015611ed4573d6000803e3d6000fd5b505050505050505056fea265627a7a72315820fe7af65667959d70f820c526c8538598536069283272716fc1d2fec19b83c46064736f6c63430005100032",
  "source": "pragma solidity ^0.5.16;\r\n\r\n\r\nimport \"./common/Base.sol\";\r\n\r\ncontract DegenicsLog is Base {\r\n\r\n    modifier onlyDegenicsContract() {\r\n        require(eternalStorage.getAddress(keccak256(abi.encodePacked(\"contract.address\", \"Degenics\"))) == msg.sender,\r\n            \"Only registred contract\" );\r\n        _;\r\n    }\r\n\r\n    modifier onlyAllowContract() {\r\n       require(eternalStorage.getAddress(keccak256(abi.encodePacked(\"contract.address\", \"Degenics\"))) == msg.sender ||\r\n        eternalStorage.getAddress(keccak256(abi.encodePacked(\"contract.address\", \"Specimen\"))) == msg.sender ||\r\n        eternalStorage.getAddress(keccak256(abi.encodePacked(\"contract.address\", \"SpecimenTracking\"))) == msg.sender, \"Only registred contract\" );\r\n        _;\r\n    }\r\n\r\n    constructor(address _storage ) public Base(_storage) {\r\n        \r\n    }\r\n\r\n    function addSpecimenLog(string memory number, string memory logType, string memory log) public onlyAllowContract {\r\n        uint index = eternalStorage.addUint(keccak256(abi.encodePacked( \"Specimen.Log.count\",number)),1);\r\n        eternalStorage.setString(keccak256(abi.encodePacked( \"Specimen.log.type\",number, index )), logType);\r\n        eternalStorage.setString(keccak256(abi.encodePacked( \"Specimen.log\",number, index )), log);\r\n        eternalStorage.setUint(keccak256(abi.encodePacked( \"Specimen.log.time\",number, index )), block.timestamp);\r\n    }\r\n\r\n    function countSpecimenLog(string memory number) public onlyAllowContract returns(uint){\r\n        return eternalStorage.getUint(keccak256(abi.encodePacked( \"Specimen.Log.count\",number)));\r\n    }\r\n\r\n    function specimenLogByIndex(string memory number, uint _index) public onlyAllowContract returns(uint index, \r\n        uint time, string memory logType, string memory log){\r\n        \r\n        index = _index;\r\n        logType = eternalStorage.getString(keccak256(abi.encodePacked( \"Specimen.log.type\",number, index )));\r\n        log = eternalStorage.getString(keccak256(abi.encodePacked( \"Specimen.log\",number, index )));\r\n        time = eternalStorage.getUint(keccak256(abi.encodePacked( \"Specimen.log.time\",number, index )));\r\n        return (index, time, logType, log);\r\n    }\r\n\r\n}",
  "sourcePath": "D:\\projects\\degenics\\degenics-smart-contract\\contracts\\DegenicsLog.sol",
  "compiler": {
    "name": "solc",
    "version": "0.5.16+commit.9c3226ce.Emscripten.clang"
  },
  "schemaVersion": "3.0.23",
  "updatedAt": "2021-01-13T12:48:26.960Z",
  "networkType": "ethereum",
  "devdoc": {
    "methods": {}
  },
  "userdoc": {
    "methods": {}
  }
}