{
  "contractName": "Degenics",
  "abi": [
    {
      "inputs": [
        {
          "internalType": "address",
          "name": "_storage",
          "type": "address"
        },
        {
          "internalType": "address",
          "name": "_account",
          "type": "address"
        },
        {
          "internalType": "address",
          "name": "_specimen",
          "type": "address"
        },
        {
          "internalType": "address",
          "name": "_specimenTracking",
          "type": "address"
        },
        {
          "internalType": "address",
          "name": "_location",
          "type": "address"
        }
      ],
      "payable": false,
      "stateMutability": "nonpayable",
      "type": "constructor"
    },
    {
      "anonymous": false,
      "inputs": [
        {
          "indexed": false,
          "internalType": "address",
          "name": "account",
          "type": "address"
        },
        {
          "indexed": false,
          "internalType": "string",
          "name": "name",
          "type": "string"
        },
        {
          "indexed": false,
          "internalType": "string",
          "name": "country",
          "type": "string"
        },
        {
          "indexed": false,
          "internalType": "string",
          "name": "city",
          "type": "string"
        }
      ],
      "name": "NewLab",
      "type": "event"
    },
    {
      "anonymous": false,
      "inputs": [
        {
          "indexed": false,
          "internalType": "address",
          "name": "labAccount",
          "type": "address"
        },
        {
          "indexed": false,
          "internalType": "string",
          "name": "name",
          "type": "string"
        },
        {
          "indexed": false,
          "internalType": "string",
          "name": "service",
          "type": "string"
        }
      ],
      "name": "NewService",
      "type": "event"
    },
    {
      "anonymous": false,
      "inputs": [
        {
          "indexed": false,
          "internalType": "address",
          "name": "labAccount",
          "type": "address"
        },
        {
          "indexed": false,
          "internalType": "string",
          "name": "Code",
          "type": "string"
        }
      ],
      "name": "NewSpecimen",
      "type": "event"
    },
    {
      "constant": true,
      "inputs": [],
      "name": "eternalStorage",
      "outputs": [
        {
          "internalType": "contract EternalStorageInterface",
          "name": "",
          "type": "address"
        }
      ],
      "payable": false,
      "stateMutability": "view",
      "type": "function"
    },
    {
      "constant": true,
      "inputs": [
        {
          "internalType": "string",
          "name": "country",
          "type": "string"
        },
        {
          "internalType": "string",
          "name": "city",
          "type": "string"
        }
      ],
      "name": "labCount",
      "outputs": [
        {
          "internalType": "uint256",
          "name": "",
          "type": "uint256"
        }
      ],
      "payable": false,
      "stateMutability": "view",
      "type": "function"
    },
    {
      "constant": true,
      "inputs": [
        {
          "internalType": "string",
          "name": "_country",
          "type": "string"
        },
        {
          "internalType": "string",
          "name": "_city",
          "type": "string"
        },
        {
          "internalType": "uint256",
          "name": "index",
          "type": "uint256"
        }
      ],
      "name": "labByIndex",
      "outputs": [
        {
          "internalType": "address",
          "name": "labAccount",
          "type": "address"
        },
        {
          "internalType": "string",
          "name": "name",
          "type": "string"
        },
        {
          "internalType": "string",
          "name": "country",
          "type": "string"
        },
        {
          "internalType": "string",
          "name": "city",
          "type": "string"
        },
        {
          "internalType": "string",
          "name": "additionalData",
          "type": "string"
        },
        {
          "internalType": "bool",
          "name": "active",
          "type": "bool"
        }
      ],
      "payable": false,
      "stateMutability": "view",
      "type": "function"
    },
    {
      "constant": true,
      "inputs": [
        {
          "internalType": "address",
          "name": "_account",
          "type": "address"
        }
      ],
      "name": "labByAccount",
      "outputs": [
        {
          "internalType": "address",
          "name": "labAccount",
          "type": "address"
        },
        {
          "internalType": "string",
          "name": "name",
          "type": "string"
        },
        {
          "internalType": "string",
          "name": "country",
          "type": "string"
        },
        {
          "internalType": "string",
          "name": "city",
          "type": "string"
        },
        {
          "internalType": "string",
          "name": "additionalData",
          "type": "string"
        },
        {
          "internalType": "bool",
          "name": "active",
          "type": "bool"
        }
      ],
      "payable": false,
      "stateMutability": "view",
      "type": "function"
    },
    {
      "constant": true,
      "inputs": [
        {
          "internalType": "address",
          "name": "labAccount",
          "type": "address"
        }
      ],
      "name": "serviceCount",
      "outputs": [
        {
          "internalType": "uint256",
          "name": "",
          "type": "uint256"
        }
      ],
      "payable": false,
      "stateMutability": "view",
      "type": "function"
    },
    {
      "constant": true,
      "inputs": [
        {
          "internalType": "address",
          "name": "labAccount",
          "type": "address"
        },
        {
          "internalType": "uint256",
          "name": "index",
          "type": "uint256"
        }
      ],
      "name": "serviceByIndex",
      "outputs": [
        {
          "internalType": "string",
          "name": "code",
          "type": "string"
        },
        {
          "internalType": "string",
          "name": "serviceName",
          "type": "string"
        },
        {
          "internalType": "string",
          "name": "description",
          "type": "string"
        },
        {
          "internalType": "uint256",
          "name": "price",
          "type": "uint256"
        },
        {
          "internalType": "string",
          "name": "additionalData",
          "type": "string"
        },
        {
          "internalType": "bool",
          "name": "active",
          "type": "bool"
        }
      ],
      "payable": false,
      "stateMutability": "view",
      "type": "function"
    },
    {
      "constant": false,
      "inputs": [
        {
          "internalType": "address",
          "name": "labAccount",
          "type": "address"
        },
        {
          "internalType": "string",
          "name": "serviceCode",
          "type": "string"
        }
      ],
      "name": "registerSpecimen",
      "outputs": [],
      "payable": false,
      "stateMutability": "nonpayable",
      "type": "function"
    },
    {
      "constant": true,
      "inputs": [],
      "name": "getLastNumber",
      "outputs": [
        {
          "internalType": "string",
          "name": "",
          "type": "string"
        }
      ],
      "payable": false,
      "stateMutability": "view",
      "type": "function"
    },
    {
      "constant": true,
      "inputs": [],
      "name": "specimenCount",
      "outputs": [
        {
          "internalType": "uint256",
          "name": "",
          "type": "uint256"
        }
      ],
      "payable": false,
      "stateMutability": "view",
      "type": "function"
    },
    {
      "constant": true,
      "inputs": [
        {
          "internalType": "string",
          "name": "_number",
          "type": "string"
        }
      ],
      "name": "specimenByNumber",
      "outputs": [
        {
          "internalType": "string",
          "name": "number",
          "type": "string"
        },
        {
          "internalType": "address",
          "name": "owner",
          "type": "address"
        },
        {
          "internalType": "address",
          "name": "labAccount",
          "type": "address"
        },
        {
          "internalType": "string",
          "name": "serviceCode",
          "type": "string"
        },
        {
          "internalType": "string",
          "name": "status",
          "type": "string"
        }
      ],
      "payable": false,
      "stateMutability": "view",
      "type": "function"
    },
    {
      "constant": true,
      "inputs": [
        {
          "internalType": "uint256",
          "name": "index",
          "type": "uint256"
        }
      ],
      "name": "specimenByIndex",
      "outputs": [
        {
          "internalType": "string",
          "name": "number",
          "type": "string"
        },
        {
          "internalType": "address",
          "name": "owner",
          "type": "address"
        },
        {
          "internalType": "address",
          "name": "labAccount",
          "type": "address"
        },
        {
          "internalType": "string",
          "name": "serviceCode",
          "type": "string"
        },
        {
          "internalType": "string",
          "name": "status",
          "type": "string"
        }
      ],
      "payable": false,
      "stateMutability": "view",
      "type": "function"
    },
    {
      "constant": true,
      "inputs": [
        {
          "internalType": "string",
          "name": "number",
          "type": "string"
        }
      ],
      "name": "getEscrow",
      "outputs": [
        {
          "internalType": "address",
          "name": "",
          "type": "address"
        }
      ],
      "payable": false,
      "stateMutability": "view",
      "type": "function"
    },
    {
      "constant": false,
      "inputs": [
        {
          "internalType": "string",
          "name": "number",
          "type": "string"
        },
        {
          "internalType": "string",
          "name": "remark",
          "type": "string"
        }
      ],
      "name": "sendSpecimen",
      "outputs": [],
      "payable": false,
      "stateMutability": "nonpayable",
      "type": "function"
    },
    {
      "constant": false,
      "inputs": [
        {
          "internalType": "string",
          "name": "number",
          "type": "string"
        },
        {
          "internalType": "string",
          "name": "remark",
          "type": "string"
        }
      ],
      "name": "receiveSpecimen",
      "outputs": [],
      "payable": false,
      "stateMutability": "nonpayable",
      "type": "function"
    },
    {
      "constant": false,
      "inputs": [
        {
          "internalType": "string",
          "name": "number",
          "type": "string"
        },
        {
          "internalType": "string",
          "name": "remark",
          "type": "string"
        }
      ],
      "name": "rejectSpecimen",
      "outputs": [],
      "payable": false,
      "stateMutability": "nonpayable",
      "type": "function"
    },
    {
      "constant": false,
      "inputs": [
        {
          "internalType": "string",
          "name": "number",
          "type": "string"
        },
        {
          "internalType": "string",
          "name": "file",
          "type": "string"
        },
        {
          "internalType": "string",
          "name": "remark",
          "type": "string"
        }
      ],
      "name": "analysisSucces",
      "outputs": [],
      "payable": false,
      "stateMutability": "nonpayable",
      "type": "function"
    },
    {
      "constant": true,
      "inputs": [
        {
          "internalType": "string",
          "name": "number",
          "type": "string"
        }
      ],
      "name": "getFile",
      "outputs": [
        {
          "internalType": "string",
          "name": "file",
          "type": "string"
        }
      ],
      "payable": false,
      "stateMutability": "view",
      "type": "function"
    },
    {
      "constant": false,
      "inputs": [
        {
          "internalType": "string",
          "name": "number",
          "type": "string"
        },
        {
          "internalType": "string",
          "name": "remark",
          "type": "string"
        }
      ],
      "name": "analysisFail",
      "outputs": [],
      "payable": false,
      "stateMutability": "nonpayable",
      "type": "function"
    },
    {
      "constant": false,
      "inputs": [
        {
          "internalType": "address",
          "name": "_account",
          "type": "address"
        },
        {
          "internalType": "string",
          "name": "name",
          "type": "string"
        },
        {
          "internalType": "string",
          "name": "country",
          "type": "string"
        },
        {
          "internalType": "string",
          "name": "city",
          "type": "string"
        }
      ],
      "name": "emitNewLab",
      "outputs": [],
      "payable": false,
      "stateMutability": "nonpayable",
      "type": "function"
    },
    {
      "constant": false,
      "inputs": [
        {
          "internalType": "address",
          "name": "labAccount",
          "type": "address"
        },
        {
          "internalType": "string",
          "name": "name",
          "type": "string"
        },
        {
          "internalType": "string",
          "name": "service",
          "type": "string"
        }
      ],
      "name": "emitNewService",
      "outputs": [],
      "payable": false,
      "stateMutability": "nonpayable",
      "type": "function"
    }
  ],
  "bytecode": "0x608060405260008060006101000a81548173ffffffffffffffffffffffffffffffffffffffff021916908373ffffffffffffffffffffffffffffffffffffffff16021790555034801561005157600080fd5b5060405162004c8238038062004c82833981810160405260a081101561007657600080fd5b81019080805190602001909291908051906020019092919080519060200190929190805190602001909291908051906020019092919050505084806000806101000a81548173ffffffffffffffffffffffffffffffffffffffff021916908373ffffffffffffffffffffffffffffffffffffffff1602179055505080600160006101000a81548173ffffffffffffffffffffffffffffffffffffffff021916908373ffffffffffffffffffffffffffffffffffffffff16021790555083600260006101000a81548173ffffffffffffffffffffffffffffffffffffffff021916908373ffffffffffffffffffffffffffffffffffffffff16021790555082600360006101000a81548173ffffffffffffffffffffffffffffffffffffffff021916908373ffffffffffffffffffffffffffffffffffffffff16021790555081600460006101000a81548173ffffffffffffffffffffffffffffffffffffffff021916908373ffffffffffffffffffffffffffffffffffffffff1602179055505050505050614a78806200020a6000396000f3fe608060405234801561001057600080fd5b506004361061012c5760003560e01c80639cd8f256116100ad578063dddae88411610071578063dddae884146116a8578063e0876aa8146117fa578063ed01c6661461192e578063ed3468f714611b6d578063fe02154414611cbf5761012c565b80639cd8f25614610ea6578063aa08893714610ff8578063ba3eb0e11461114a578063ca15e24a146114a1578063d97b0d3f1461168a5761012c565b8063940c0288116100f4578063940c02881461091b578063969631d51461097357806398ff9c5414610a6e578063996d5fc314610ab85780639c99c7c914610cc15761012c565b8063103ed5b31461013157806312af942e146103a357806343034f9614610515578063682c0fc11461067b578063905110d8146106fe575b600080fd5b6101ea6004803603602081101561014757600080fd5b810190808035906020019064010000000081111561016457600080fd5b82018360208201111561017657600080fd5b8035906020019184600183028401116401000000008311171561019857600080fd5b91908080601f016020809104026020016040519081016040528093929190818152602001838380828437600081840152601f19601f820116905080830192505050505050509192919290505050611d9a565b60405180806020018673ffffffffffffffffffffffffffffffffffffffff1673ffffffffffffffffffffffffffffffffffffffff1681526020018573ffffffffffffffffffffffffffffffffffffffff1673ffffffffffffffffffffffffffffffffffffffff1681526020018060200180602001848103845289818151815260200191508051906020019080838360005b8381101561029657808201518184015260208101905061027b565b50505050905090810190601f1680156102c35780820380516001836020036101000a031916815260200191505b50848103835286818151815260200191508051906020019080838360005b838110156102fc5780820151818401526020810190506102e1565b50505050905090810190601f1680156103295780820380516001836020036101000a031916815260200191505b50848103825285818151815260200191508051906020019080838360005b83811015610362578082015181840152602081019050610347565b50505050905090810190601f16801561038f5780820380516001836020036101000a031916815260200191505b509850505050505050505060405180910390f35b610513600480360360608110156103b957600080fd5b81019080803573ffffffffffffffffffffffffffffffffffffffff169060200190929190803590602001906401000000008111156103f657600080fd5b82018360208201111561040857600080fd5b8035906020019184600183028401116401000000008311171561042a57600080fd5b91908080601f016020809104026020016040519081016040528093929190818152602001838380828437600081840152601f19601f8201169050808301925050505050505091929192908035906020019064010000000081111561048d57600080fd5b82018360208201111561049f57600080fd5b803590602001918460018302840111640100000000831117156104c157600080fd5b91908080601f016020809104026020016040519081016040528093929190818152602001838380828437600081840152601f19601f820116905080830192505050505050509192919290505050612108565b005b6106656004803603604081101561052b57600080fd5b810190808035906020019064010000000081111561054857600080fd5b82018360208201111561055a57600080fd5b8035906020019184600183028401116401000000008311171561057c57600080fd5b91908080601f016020809104026020016040519081016040528093929190818152602001838380828437600081840152601f19601f820116905080830192505050505050509192919290803590602001906401000000008111156105df57600080fd5b8201836020820111156105f157600080fd5b8035906020019184600183028401116401000000008311171561061357600080fd5b91908080601f016020809104026020016040519081016040528093929190818152602001838380828437600081840152601f19601f82011690508083019250505050505050919291929050505061224a565b6040518082815260200191505060405180910390f35b6106836123ed565b6040518080602001828103825283818151815260200191508051906020019080838360005b838110156106c35780820151818401526020810190506106a8565b50505050905090810190601f1680156106f05780820380516001836020036101000a031916815260200191505b509250505060405180910390f35b61074a6004803603604081101561071457600080fd5b81019080803573ffffffffffffffffffffffffffffffffffffffff169060200190929190803590602001909291905050506124cc565b60405180806020018060200180602001878152602001806020018615151515815260200185810385528b818151815260200191508051906020019080838360005b838110156107a657808201518184015260208101905061078b565b50505050905090810190601f1680156107d35780820380516001836020036101000a031916815260200191505b5085810384528a818151815260200191508051906020019080838360005b8381101561080c5780820151818401526020810190506107f1565b50505050905090810190601f1680156108395780820380516001836020036101000a031916815260200191505b50858103835289818151815260200191508051906020019080838360005b83811015610872578082015181840152602081019050610857565b50505050905090810190601f16801561089f5780820380516001836020036101000a031916815260200191505b50858103825287818151815260200191508051906020019080838360005b838110156108d85780820151818401526020810190506108bd565b50505050905090810190601f1680156109055780820380516001836020036101000a031916815260200191505b509a505050505050505050505060405180910390f35b61095d6004803603602081101561093157600080fd5b81019080803573ffffffffffffffffffffffffffffffffffffffff1690602001909291905050506128ae565b6040518082815260200191505060405180910390f35b610a2c6004803603602081101561098957600080fd5b81019080803590602001906401000000008111156109a657600080fd5b8201836020820111156109b857600080fd5b803590602001918460018302840111640100000000831117156109da57600080fd5b91908080601f016020809104026020016040519081016040528093929190818152602001838380828437600081840152601f19601f8201169050808301925050505050505091929192905050506129e1565b604051808273ffffffffffffffffffffffffffffffffffffffff1673ffffffffffffffffffffffffffffffffffffffff16815260200191505060405180910390f35b610a76612b30565b604051808273ffffffffffffffffffffffffffffffffffffffff1673ffffffffffffffffffffffffffffffffffffffff16815260200191505060405180910390f35b610cbf60048036036080811015610ace57600080fd5b81019080803573ffffffffffffffffffffffffffffffffffffffff16906020019092919080359060200190640100000000811115610b0b57600080fd5b820183602082011115610b1d57600080fd5b80359060200191846001830284011164010000000083111715610b3f57600080fd5b91908080601f016020809104026020016040519081016040528093929190818152602001838380828437600081840152601f19601f82011690508083019250505050505050919291929080359060200190640100000000811115610ba257600080fd5b820183602082011115610bb457600080fd5b80359060200191846001830284011164010000000083111715610bd657600080fd5b91908080601f016020809104026020016040519081016040528093929190818152602001838380828437600081840152601f19601f82011690508083019250505050505050919291929080359060200190640100000000811115610c3957600080fd5b820183602082011115610c4b57600080fd5b80359060200191846001830284011164010000000083111715610c6d57600080fd5b91908080601f016020809104026020016040519081016040528093929190818152602001838380828437600081840152601f19601f820116905080830192505050505050509192919290505050612b55565b005b610ced60048036036020811015610cd757600080fd5b8101908080359060200190929190505050612d05565b60405180806020018673ffffffffffffffffffffffffffffffffffffffff1673ffffffffffffffffffffffffffffffffffffffff1681526020018573ffffffffffffffffffffffffffffffffffffffff1673ffffffffffffffffffffffffffffffffffffffff1681526020018060200180602001848103845289818151815260200191508051906020019080838360005b83811015610d99578082015181840152602081019050610d7e565b50505050905090810190601f168015610dc65780820380516001836020036101000a031916815260200191505b50848103835286818151815260200191508051906020019080838360005b83811015610dff578082015181840152602081019050610de4565b50505050905090810190601f168015610e2c5780820380516001836020036101000a031916815260200191505b50848103825285818151815260200191508051906020019080838360005b83811015610e65578082015181840152602081019050610e4a565b50505050905090810190601f168015610e925780820380516001836020036101000a031916815260200191505b509850505050505050505060405180910390f35b610ff660048036036040811015610ebc57600080fd5b8101908080359060200190640100000000811115610ed957600080fd5b820183602082011115610eeb57600080fd5b80359060200191846001830284011164010000000083111715610f0d57600080fd5b91908080601f016020809104026020016040519081016040528093929190818152602001838380828437600081840152601f19601f82011690508083019250505050505050919291929080359060200190640100000000811115610f7057600080fd5b820183602082011115610f8257600080fd5b80359060200191846001830284011164010000000083111715610fa457600080fd5b91908080601f016020809104026020016040519081016040528093929190818152602001838380828437600081840152601f19601f820116905080830192505050505050509192919290505050612f1e565b005b6111486004803603604081101561100e57600080fd5b810190808035906020019064010000000081111561102b57600080fd5b82018360208201111561103d57600080fd5b8035906020019184600183028401116401000000008311171561105f57600080fd5b91908080601f016020809104026020016040519081016040528093929190818152602001838380828437600081840152601f19601f820116905080830192505050505050509192919290803590602001906401000000008111156110c257600080fd5b8201836020820111156110d457600080fd5b803590602001918460018302840111640100000000831117156110f657600080fd5b91908080601f016020809104026020016040519081016040528093929190818152602001838380828437600081840152601f19601f820116905080830192505050505050509192919290505050613081565b005b6112a46004803603606081101561116057600080fd5b810190808035906020019064010000000081111561117d57600080fd5b82018360208201111561118f57600080fd5b803590602001918460018302840111640100000000831117156111b157600080fd5b91908080601f016020809104026020016040519081016040528093929190818152602001838380828437600081840152601f19601f8201169050808301925050505050505091929192908035906020019064010000000081111561121457600080fd5b82018360208201111561122657600080fd5b8035906020019184600183028401116401000000008311171561124857600080fd5b91908080601f016020809104026020016040519081016040528093929190818152602001838380828437600081840152601f19601f8201169050808301925050505050505091929192908035906020019092919050505061324c565b604051808773ffffffffffffffffffffffffffffffffffffffff1673ffffffffffffffffffffffffffffffffffffffff168152602001806020018060200180602001806020018615151515815260200185810385528a818151815260200191508051906020019080838360005b8381101561132c578082015181840152602081019050611311565b50505050905090810190601f1680156113595780820380516001836020036101000a031916815260200191505b50858103845289818151815260200191508051906020019080838360005b83811015611392578082015181840152602081019050611377565b50505050905090810190601f1680156113bf5780820380516001836020036101000a031916815260200191505b50858103835288818151815260200191508051906020019080838360005b838110156113f85780820151818401526020810190506113dd565b50505050905090810190601f1680156114255780820380516001836020036101000a031916815260200191505b50858103825287818151815260200191508051906020019080838360005b8381101561145e578082015181840152602081019050611443565b50505050905090810190601f16801561148b5780820380516001836020036101000a031916815260200191505b509a505050505050505050505060405180910390f35b611688600480360360608110156114b757600080fd5b81019080803590602001906401000000008111156114d457600080fd5b8201836020820111156114e657600080fd5b8035906020019184600183028401116401000000008311171561150857600080fd5b91908080601f016020809104026020016040519081016040528093929190818152602001838380828437600081840152601f19601f8201169050808301925050505050505091929192908035906020019064010000000081111561156b57600080fd5b82018360208201111561157d57600080fd5b8035906020019184600183028401116401000000008311171561159f57600080fd5b91908080601f016020809104026020016040519081016040528093929190818152602001838380828437600081840152601f19601f8201169050808301925050505050505091929192908035906020019064010000000081111561160257600080fd5b82018360208201111561161457600080fd5b8035906020019184600183028401116401000000008311171561163657600080fd5b91908080601f016020809104026020016040519081016040528093929190818152602001838380828437600081840152601f19601f82011690508083019250505050505050919291929050505061341a565b005b611692613653565b6040518082815260200191505060405180910390f35b6117f8600480360360408110156116be57600080fd5b81019080803590602001906401000000008111156116db57600080fd5b8201836020820111156116ed57600080fd5b8035906020019184600183028401116401000000008311171561170f57600080fd5b91908080601f016020809104026020016040519081016040528093929190818152602001838380828437600081840152601f19601f8201169050808301925050505050505091929192908035906020019064010000000081111561177257600080fd5b82018360208201111561178457600080fd5b803590602001918460018302840111640100000000831117156117a657600080fd5b91908080601f016020809104026020016040519081016040528093929190818152602001838380828437600081840152601f19601f820116905080830192505050505050509192919290505050613734565b005b6118b36004803603602081101561181057600080fd5b810190808035906020019064010000000081111561182d57600080fd5b82018360208201111561183f57600080fd5b8035906020019184600183028401116401000000008311171561186157600080fd5b91908080601f016020809104026020016040519081016040528093929190818152602001838380828437600081840152601f19601f820116905080830192505050505050509192919290505050613897565b6040518080602001828103825283818151815260200191508051906020019080838360005b838110156118f35780820151818401526020810190506118d8565b50505050905090810190601f1680156119205780820380516001836020036101000a031916815260200191505b509250505060405180910390f35b6119706004803603602081101561194457600080fd5b81019080803573ffffffffffffffffffffffffffffffffffffffff169060200190929190505050613a71565b604051808773ffffffffffffffffffffffffffffffffffffffff1673ffffffffffffffffffffffffffffffffffffffff168152602001806020018060200180602001806020018615151515815260200185810385528a818151815260200191508051906020019080838360005b838110156119f85780820151818401526020810190506119dd565b50505050905090810190601f168015611a255780820380516001836020036101000a031916815260200191505b50858103845289818151815260200191508051906020019080838360005b83811015611a5e578082015181840152602081019050611a43565b50505050905090810190601f168015611a8b5780820380516001836020036101000a031916815260200191505b50858103835288818151815260200191508051906020019080838360005b83811015611ac4578082015181840152602081019050611aa9565b50505050905090810190601f168015611af15780820380516001836020036101000a031916815260200191505b50858103825287818151815260200191508051906020019080838360005b83811015611b2a578082015181840152602081019050611b0f565b50505050905090810190601f168015611b575780820380516001836020036101000a031916815260200191505b509a505050505050505050505060405180910390f35b611cbd60048036036040811015611b8357600080fd5b8101908080359060200190640100000000811115611ba057600080fd5b820183602082011115611bb257600080fd5b80359060200191846001830284011164010000000083111715611bd457600080fd5b91908080601f016020809104026020016040519081016040528093929190818152602001838380828437600081840152601f19601f82011690508083019250505050505050919291929080359060200190640100000000811115611c3757600080fd5b820183602082011115611c4957600080fd5b80359060200191846001830284011164010000000083111715611c6b57600080fd5b91908080601f016020809104026020016040519081016040528093929190818152602001838380828437600081840152601f19601f820116905080830192505050505050509192919290505050613e49565b005b611d9860048036036040811015611cd557600080fd5b81019080803573ffffffffffffffffffffffffffffffffffffffff16906020019092919080359060200190640100000000811115611d1257600080fd5b820183602082011115611d2457600080fd5b80359060200191846001830284011164010000000083111715611d4657600080fd5b91908080601f016020809104026020016040519081016040528093929190818152602001838380828437600081840152601f19601f820116905080830192505050505050509192919290505050613fac565b005b6060600080606080600360009054906101000a900473ffffffffffffffffffffffffffffffffffffffff1673ffffffffffffffffffffffffffffffffffffffff1663103ed5b3876040518263ffffffff1660e01b81526004018080602001828103825283818151815260200191508051906020019080838360005b83811015611e30578082015181840152602081019050611e15565b50505050905090810190601f168015611e5d5780820380516001836020036101000a031916815260200191505b509250505060006040518083038186803b158015611e7a57600080fd5b505afa158015611e8e573d6000803e3d6000fd5b505050506040513d6000823e3d601f19601f8201168201806040525060a0811015611eb857600080fd5b8101908080516040519392919084640100000000821115611ed857600080fd5b83820191506020820185811115611eee57600080fd5b8251866001820283011164010000000082111715611f0b57600080fd5b8083526020830192505050908051906020019080838360005b83811015611f3f578082015181840152602081019050611f24565b50505050905090810190601f168015611f6c5780820380516001836020036101000a031916815260200191505b50604052602001805190602001909291908051906020019092919080516040519392919084640100000000821115611fa357600080fd5b83820191506020820185811115611fb957600080fd5b8251866001820283011164010000000082111715611fd657600080fd5b8083526020830192505050908051906020019080838360005b8381101561200a578082015181840152602081019050611fef565b50505050905090810190601f1680156120375780820380516001836020036101000a031916815260200191505b506040526020018051604051939291908464010000000082111561205a57600080fd5b8382019150602082018581111561207057600080fd5b825186600182028301116401000000008211171561208d57600080fd5b8083526020830192505050908051906020019080838360005b838110156120c15780820151818401526020810190506120a6565b50505050905090810190601f1680156120ee5780820380516001836020036101000a031916815260200191505b506040525050509450945094509450945091939590929450565b7fd9491d9a8b6f9be10814b9a1d01c06052d9a61354c5b8c6d00c53e0839661362838383604051808473ffffffffffffffffffffffffffffffffffffffff1673ffffffffffffffffffffffffffffffffffffffff1681526020018060200180602001838103835285818151815260200191508051906020019080838360005b838110156121a2578082015181840152602081019050612187565b50505050905090810190601f1680156121cf5780820380516001836020036101000a031916815260200191505b50838103825284818151815260200191508051906020019080838360005b838110156122085780820151818401526020810190506121ed565b50505050905090810190601f1680156122355780820380516001836020036101000a031916815260200191505b509550505050505060405180910390a1505050565b60008060009054906101000a900473ffffffffffffffffffffffffffffffffffffffff1673ffffffffffffffffffffffffffffffffffffffff1663bd02d0f5848460405160200180807f6c61622e6c6f636174696f6e0000000000000000000000000000000000000000815250600c0183805190602001908083835b602083106122e957805182526020820191506020810190506020830392506122c6565b6001836020036101000a03801982511681845116808217855250505050505090500182805190602001908083835b6020831061233a5780518252602082019150602081019050602083039250612317565b6001836020036101000a03801982511681845116808217855250505050505090500192505050604051602081830303815290604052805190602001206040518263ffffffff1660e01b81526004018082815260200191505060206040518083038186803b1580156123aa57600080fd5b505afa1580156123be573d6000803e3d6000fd5b505050506040513d60208110156123d457600080fd5b8101908080519060200190929190505050905092915050565b6060600560003373ffffffffffffffffffffffffffffffffffffffff1673ffffffffffffffffffffffffffffffffffffffff1681526020019081526020016000208054600181600116156101000203166002900480601f0160208091040260200160405190810160405280929190818152602001828054600181600116156101000203166002900480156124c25780601f10612497576101008083540402835291602001916124c2565b820191906000526020600020905b8154815290600101906020018083116124a557829003601f168201915b5050505050905090565b60608060606000606060006124df6145f9565b73ffffffffffffffffffffffffffffffffffffffff1663905110d889896040518363ffffffff1660e01b8152600401808373ffffffffffffffffffffffffffffffffffffffff1673ffffffffffffffffffffffffffffffffffffffff1681526020018281526020019250505060006040518083038186803b15801561256357600080fd5b505afa158015612577573d6000803e3d6000fd5b505050506040513d6000823e3d601f19601f8201168201806040525060c08110156125a157600080fd5b81019080805160405193929190846401000000008211156125c157600080fd5b838201915060208201858111156125d757600080fd5b82518660018202830111640100000000821117156125f457600080fd5b8083526020830192505050908051906020019080838360005b8381101561262857808201518184015260208101905061260d565b50505050905090810190601f1680156126555780820380516001836020036101000a031916815260200191505b506040526020018051604051939291908464010000000082111561267857600080fd5b8382019150602082018581111561268e57600080fd5b82518660018202830111640100000000821117156126ab57600080fd5b8083526020830192505050908051906020019080838360005b838110156126df5780820151818401526020810190506126c4565b50505050905090810190601f16801561270c5780820380516001836020036101000a031916815260200191505b506040526020018051604051939291908464010000000082111561272f57600080fd5b8382019150602082018581111561274557600080fd5b825186600182028301116401000000008211171561276257600080fd5b8083526020830192505050908051906020019080838360005b8381101561279657808201518184015260208101905061277b565b50505050905090810190601f1680156127c35780820380516001836020036101000a031916815260200191505b5060405260200180519060200190929190805160405193929190846401000000008211156127f057600080fd5b8382019150602082018581111561280657600080fd5b825186600182028301116401000000008211171561282357600080fd5b8083526020830192505050908051906020019080838360005b8381101561285757808201518184015260208101905061283c565b50505050905090810190601f1680156128845780820380516001836020036101000a031916815260200191505b50604052602001805190602001909291905050509550955095509550955095509295509295509295565b60008060009054906101000a900473ffffffffffffffffffffffffffffffffffffffff1673ffffffffffffffffffffffffffffffffffffffff1663bd02d0f58360405160200180807f6c61622e736572766963652e636f756e740000000000000000000000000000008152506011018273ffffffffffffffffffffffffffffffffffffffff1673ffffffffffffffffffffffffffffffffffffffff1660601b8152601401915050604051602081830303815290604052805190602001206040518263ffffffff1660e01b81526004018082815260200191505060206040518083038186803b15801561299f57600080fd5b505afa1580156129b3573d6000803e3d6000fd5b505050506040513d60208110156129c957600080fd5b81019080805190602001909291905050509050919050565b60008060009054906101000a900473ffffffffffffffffffffffffffffffffffffffff1673ffffffffffffffffffffffffffffffffffffffff166321f8a7218360405160200180807f53706563696d656e2e657363726f770000000000000000000000000000000000815250600f0182805190602001908083835b60208310612a7f5780518252602082019150602081019050602083039250612a5c565b6001836020036101000a038019825116818451168082178552505050505050905001915050604051602081830303815290604052805190602001206040518263ffffffff1660e01b81526004018082815260200191505060206040518083038186803b158015612aee57600080fd5b505afa158015612b02573d6000803e3d6000fd5b505050506040513d6020811015612b1857600080fd5b81019080805190602001909291905050509050919050565b6000809054906101000a900473ffffffffffffffffffffffffffffffffffffffff1681565b7f8ca5fb51ec76e0fba6b96a8e596d91cb678f7fef4fe4edb108915e409782107184848484604051808573ffffffffffffffffffffffffffffffffffffffff1673ffffffffffffffffffffffffffffffffffffffff168152602001806020018060200180602001848103845287818151815260200191508051906020019080838360005b83811015612bf4578082015181840152602081019050612bd9565b50505050905090810190601f168015612c215780820380516001836020036101000a031916815260200191505b50848103835286818151815260200191508051906020019080838360005b83811015612c5a578082015181840152602081019050612c3f565b50505050905090810190601f168015612c875780820380516001836020036101000a031916815260200191505b50848103825285818151815260200191508051906020019080838360005b83811015612cc0578082015181840152602081019050612ca5565b50505050905090810190601f168015612ced5780820380516001836020036101000a031916815260200191505b5097505050505050505060405180910390a150505050565b606060008060608060606000809054906101000a900473ffffffffffffffffffffffffffffffffffffffff1673ffffffffffffffffffffffffffffffffffffffff1663986e791a338960405160200180807f53706563696d656e0000000000000000000000000000000000000000000000008152506008018373ffffffffffffffffffffffffffffffffffffffff1673ffffffffffffffffffffffffffffffffffffffff1660601b815260140182815260200192505050604051602081830303815290604052805190602001206040518263ffffffff1660e01b81526004018082815260200191505060006040518083038186803b158015612e0657600080fd5b505afa158015612e1a573d6000803e3d6000fd5b505050506040513d6000823e3d601f19601f820116820180604052506020811015612e4457600080fd5b8101908080516040519392919084640100000000821115612e6457600080fd5b83820191506020820185811115612e7a57600080fd5b8251866001820283011164010000000082111715612e9757600080fd5b8083526020830192505050908051906020019080838360005b83811015612ecb578082015181840152602081019050612eb0565b50505050905090810190601f168015612ef85780820380516001836020036101000a031916815260200191505b506040525050509050612f0a81611d9a565b955095509550955095505091939590929450565b600460009054906101000a900473ffffffffffffffffffffffffffffffffffffffff1673ffffffffffffffffffffffffffffffffffffffff16639cd8f25683836040518363ffffffff1660e01b8152600401808060200180602001838103835285818151815260200191508051906020019080838360005b83811015612fb1578082015181840152602081019050612f96565b50505050905090810190601f168015612fde5780820380516001836020036101000a031916815260200191505b50838103825284818151815260200191508051906020019080838360005b83811015613017578082015181840152602081019050612ffc565b50505050905090810190601f1680156130445780820380516001836020036101000a031916815260200191505b50945050505050600060405180830381600087803b15801561306557600080fd5b505af1158015613079573d6000803e3d6000fd5b505050505050565b600460009054906101000a900473ffffffffffffffffffffffffffffffffffffffff1673ffffffffffffffffffffffffffffffffffffffff1663aa08893783836040518363ffffffff1660e01b8152600401808060200180602001838103835285818151815260200191508051906020019080838360005b838110156131145780820151818401526020810190506130f9565b50505050905090810190601f1680156131415780820380516001836020036101000a031916815260200191505b50838103825284818151815260200191508051906020019080838360005b8381101561317a57808201518184015260208101905061315f565b50505050905090810190601f1680156131a75780820380516001836020036101000a031916815260200191505b50945050505050600060405180830381600087803b1580156131c857600080fd5b505af11580156131dc573d6000803e3d6000fd5b505050506131e982614720565b73ffffffffffffffffffffffffffffffffffffffff16634bd7d0816040518163ffffffff1660e01b8152600401600060405180830381600087803b15801561323057600080fd5b505af1158015613244573d6000803e3d6000fd5b505050505050565b600060608060608060008060009054906101000a900473ffffffffffffffffffffffffffffffffffffffff1673ffffffffffffffffffffffffffffffffffffffff166321f8a7218a8a8a60405160200180807f6c61622e6c6f636174696f6e0000000000000000000000000000000000000000815250600c0184805190602001908083835b602083106132f457805182526020820191506020810190506020830392506132d1565b6001836020036101000a03801982511681845116808217855250505050505090500183805190602001908083835b602083106133455780518252602082019150602081019050602083039250613322565b6001836020036101000a0380198251168184511680821785525050505050509050018281526020019350505050604051602081830303815290604052805190602001206040518263ffffffff1660e01b81526004018082815260200191505060206040518083038186803b1580156133bc57600080fd5b505afa1580156133d0573d6000803e3d6000fd5b505050506040513d60208110156133e657600080fd5b8101908080519060200190929190505050955061340286613a71565b95509550955095509550955093975093979195509350565b600460009054906101000a900473ffffffffffffffffffffffffffffffffffffffff1673ffffffffffffffffffffffffffffffffffffffff1663ca15e24a8484846040518463ffffffff1660e01b815260040180806020018060200180602001848103845287818151815260200191508051906020019080838360005b838110156134b2578082015181840152602081019050613497565b50505050905090810190601f1680156134df5780820380516001836020036101000a031916815260200191505b50848103835286818151815260200191508051906020019080838360005b838110156135185780820151818401526020810190506134fd565b50505050905090810190601f1680156135455780820380516001836020036101000a031916815260200191505b50848103825285818151815260200191508051906020019080838360005b8381101561357e578082015181840152602081019050613563565b50505050905090810190601f1680156135ab5780820380516001836020036101000a031916815260200191505b509650505050505050600060405180830381600087803b1580156135ce57600080fd5b505af11580156135e2573d6000803e3d6000fd5b505050506135ef83614720565b73ffffffffffffffffffffffffffffffffffffffff1663f49c845a6040518163ffffffff1660e01b8152600401600060405180830381600087803b15801561363657600080fd5b505af115801561364a573d6000803e3d6000fd5b50505050505050565b6000600360009054906101000a900473ffffffffffffffffffffffffffffffffffffffff1673ffffffffffffffffffffffffffffffffffffffff16635803d619336040518263ffffffff1660e01b8152600401808273ffffffffffffffffffffffffffffffffffffffff1673ffffffffffffffffffffffffffffffffffffffff16815260200191505060206040518083038186803b1580156136f457600080fd5b505afa158015613708573d6000803e3d6000fd5b505050506040513d602081101561371e57600080fd5b8101908080519060200190929190505050905090565b600460009054906101000a900473ffffffffffffffffffffffffffffffffffffffff1673ffffffffffffffffffffffffffffffffffffffff1663dddae88483836040518363ffffffff1660e01b8152600401808060200180602001838103835285818151815260200191508051906020019080838360005b838110156137c75780820151818401526020810190506137ac565b50505050905090810190601f1680156137f45780820380516001836020036101000a031916815260200191505b50838103825284818151815260200191508051906020019080838360005b8381101561382d578082015181840152602081019050613812565b50505050905090810190601f16801561385a5780820380516001836020036101000a031916815260200191505b50945050505050600060405180830381600087803b15801561387b57600080fd5b505af115801561388f573d6000803e3d6000fd5b505050505050565b6060600460009054906101000a900473ffffffffffffffffffffffffffffffffffffffff1673ffffffffffffffffffffffffffffffffffffffff1663e0876aa8836040518263ffffffff1660e01b81526004018080602001828103825283818151815260200191508051906020019080838360005b8381101561392757808201518184015260208101905061390c565b50505050905090810190601f1680156139545780820380516001836020036101000a031916815260200191505b509250505060006040518083038186803b15801561397157600080fd5b505afa158015613985573d6000803e3d6000fd5b505050506040513d6000823e3d601f19601f8201168201806040525060208110156139af57600080fd5b81019080805160405193929190846401000000008211156139cf57600080fd5b838201915060208201858111156139e557600080fd5b8251866001820283011164010000000082111715613a0257600080fd5b8083526020830192505050908051906020019080838360005b83811015613a36578082015181840152602081019050613a1b565b50505050905090810190601f168015613a635780820380516001836020036101000a031916815260200191505b506040525050509050919050565b60006060806060806000613a836145f9565b73ffffffffffffffffffffffffffffffffffffffff1663ed01c666886040518263ffffffff1660e01b8152600401808273ffffffffffffffffffffffffffffffffffffffff1673ffffffffffffffffffffffffffffffffffffffff16815260200191505060006040518083038186803b158015613aff57600080fd5b505afa158015613b13573d6000803e3d6000fd5b505050506040513d6000823e3d601f19601f8201168201806040525060c0811015613b3d57600080fd5b810190808051906020019092919080516040519392919084640100000000821115613b6757600080fd5b83820191506020820185811115613b7d57600080fd5b8251866001820283011164010000000082111715613b9a57600080fd5b8083526020830192505050908051906020019080838360005b83811015613bce578082015181840152602081019050613bb3565b50505050905090810190601f168015613bfb5780820380516001836020036101000a031916815260200191505b5060405260200180516040519392919084640100000000821115613c1e57600080fd5b83820191506020820185811115613c3457600080fd5b8251866001820283011164010000000082111715613c5157600080fd5b8083526020830192505050908051906020019080838360005b83811015613c85578082015181840152602081019050613c6a565b50505050905090810190601f168015613cb25780820380516001836020036101000a031916815260200191505b5060405260200180516040519392919084640100000000821115613cd557600080fd5b83820191506020820185811115613ceb57600080fd5b8251866001820283011164010000000082111715613d0857600080fd5b8083526020830192505050908051906020019080838360005b83811015613d3c578082015181840152602081019050613d21565b50505050905090810190601f168015613d695780820380516001836020036101000a031916815260200191505b5060405260200180516040519392919084640100000000821115613d8c57600080fd5b83820191506020820185811115613da257600080fd5b8251866001820283011164010000000082111715613dbf57600080fd5b8083526020830192505050908051906020019080838360005b83811015613df3578082015181840152602081019050613dd8565b50505050905090810190601f168015613e205780820380516001836020036101000a031916815260200191505b506040526020018051906020019092919050505095509550955095509550955091939550919395565b600460009054906101000a900473ffffffffffffffffffffffffffffffffffffffff1673ffffffffffffffffffffffffffffffffffffffff1663ed3468f783836040518363ffffffff1660e01b8152600401808060200180602001838103835285818151815260200191508051906020019080838360005b83811015613edc578082015181840152602081019050613ec1565b50505050905090810190601f168015613f095780820380516001836020036101000a031916815260200191505b50838103825284818151815260200191508051906020019080838360005b83811015613f42578082015181840152602081019050613f27565b50505050905090810190601f168015613f6f5780820380516001836020036101000a031916815260200191505b50945050505050600060405180830381600087803b158015613f9057600080fd5b505af1158015613fa4573d6000803e3d6000fd5b505050505050565b6060600360009054906101000a900473ffffffffffffffffffffffffffffffffffffffff1673ffffffffffffffffffffffffffffffffffffffff1663a250156c3385856040518463ffffffff1660e01b8152600401808473ffffffffffffffffffffffffffffffffffffffff1673ffffffffffffffffffffffffffffffffffffffff1681526020018373ffffffffffffffffffffffffffffffffffffffff1673ffffffffffffffffffffffffffffffffffffffff16815260200180602001828103825283818151815260200191508051906020019080838360005b838110156140a2578082015181840152602081019050614087565b50505050905090810190601f1680156140cf5780820380516001836020036101000a031916815260200191505b50945050505050600060405180830381600087803b1580156140f057600080fd5b505af1158015614104573d6000803e3d6000fd5b505050506040513d6000823e3d601f19601f82011682018060405250602081101561412e57600080fd5b810190808051604051939291908464010000000082111561414e57600080fd5b8382019150602082018581111561416457600080fd5b825186600182028301116401000000008211171561418157600080fd5b8083526020830192505050908051906020019080838360005b838110156141b557808201518184015260208101905061419a565b50505050905090810190601f1680156141e25780820380516001836020036101000a031916815260200191505b506040525050509050600061437433856000809054906101000a900473ffffffffffffffffffffffffffffffffffffffff1673ffffffffffffffffffffffffffffffffffffffff1663bd02d0f5888860405160200180807f6c61622e736572766963652e70726963650000000000000000000000000000008152506011018373ffffffffffffffffffffffffffffffffffffffff1673ffffffffffffffffffffffffffffffffffffffff1660601b815260140182805190602001908083835b602083106142c457805182526020820191506020810190506020830392506142a1565b6001836020036101000a03801982511681845116808217855250505050505090500192505050604051602081830303815290604052805190602001206040518263ffffffff1660e01b81526004018082815260200191505060206040518083038186803b15801561433457600080fd5b505afa158015614348573d6000803e3d6000fd5b505050506040513d602081101561435e57600080fd5b810190808051906020019092919050505061473d565b90506000809054906101000a900473ffffffffffffffffffffffffffffffffffffffff1673ffffffffffffffffffffffffffffffffffffffff1663ca446dd98360405160200180807f53706563696d656e2e657363726f770000000000000000000000000000000000815250600f0182805190602001908083835b6020831061441257805182526020820191506020810190506020830392506143ef565b6001836020036101000a03801982511681845116808217855250505050505090500191505060405160208183030381529060405280519060200120836040518363ffffffff1660e01b8152600401808381526020018273ffffffffffffffffffffffffffffffffffffffff1673ffffffffffffffffffffffffffffffffffffffff16815260200192505050600060405180830381600087803b1580156144b757600080fd5b505af11580156144cb573d6000803e3d6000fd5b5050505081600560003373ffffffffffffffffffffffffffffffffffffffff1673ffffffffffffffffffffffffffffffffffffffff168152602001908152602001600020908051906020019061452292919061499e565b507f6f51c966b226abb2a973172a0489909f6e0729ae419cda220fb82e9bab7d43ca8484604051808373ffffffffffffffffffffffffffffffffffffffff1673ffffffffffffffffffffffffffffffffffffffff16815260200180602001828103825283818151815260200191508051906020019080838360005b838110156145b857808201518184015260208101905061459d565b50505050905090810190601f1680156145e55780820380516001836020036101000a031916815260200191505b50935050505060405180910390a150505050565b6000806000809054906101000a900473ffffffffffffffffffffffffffffffffffffffff1673ffffffffffffffffffffffffffffffffffffffff166321f8a72160405160200180807f636f6e74726163742e6164647265737300000000000000000000000000000000815250601001807f4c616200000000000000000000000000000000000000000000000000000000008152506003019050604051602081830303815290604052805190602001206040518263ffffffff1660e01b81526004018082815260200191505060206040518083038186803b1580156146dc57600080fd5b505afa1580156146f0573d6000803e3d6000fd5b505050506040513d602081101561470657600080fd5b810190808051906020019092919050505090508091505090565b60008061472c836129e1565b905060008190508092505050919050565b6000806000809054906101000a900473ffffffffffffffffffffffffffffffffffffffff1673ffffffffffffffffffffffffffffffffffffffff166321f8a72160405160200180807f636f6e74726163742e6164647265737300000000000000000000000000000000815250601001807f457363726f77466163746f727900000000000000000000000000000000000000815250600d019050604051602081830303815290604052805190602001206040518263ffffffff1660e01b81526004018082815260200191505060206040518083038186803b15801561482057600080fd5b505afa158015614834573d6000803e3d6000fd5b505050506040513d602081101561484a57600080fd5b81019080805190602001909291905050509050600073ffffffffffffffffffffffffffffffffffffffff168173ffffffffffffffffffffffffffffffffffffffff16146149955760008190508073ffffffffffffffffffffffffffffffffffffffff1663c36176508787876040518463ffffffff1660e01b8152600401808473ffffffffffffffffffffffffffffffffffffffff1673ffffffffffffffffffffffffffffffffffffffff1681526020018373ffffffffffffffffffffffffffffffffffffffff1673ffffffffffffffffffffffffffffffffffffffff1681526020018281526020019350505050602060405180830381600087803b15801561495157600080fd5b505af1158015614965573d6000803e3d6000fd5b505050506040513d602081101561497b57600080fd5b810190808051906020019092919050505092505050614997565b505b9392505050565b828054600181600116156101000203166002900490600052602060002090601f016020900481019282601f106149df57805160ff1916838001178555614a0d565b82800160010185558215614a0d579182015b82811115614a0c5782518255916020019190600101906149f1565b5b509050614a1a9190614a1e565b5090565b614a4091905b80821115614a3c576000816000905550600101614a24565b5090565b9056fea265627a7a723158204d3251169d51e244802f0f2127638f6d635f6e9df632d8c0dad52d042fca11ce64736f6c63430005100032",
  "source": "pragma solidity ^0.5.16;\r\n\r\n\r\nimport \"./common/Base.sol\";\r\nimport \"./common/SafeMath.sol\";\r\nimport \"./common/Address.sol\";\r\n\r\nimport \"./Account.sol\";\r\nimport \"./SpecimenTracking.sol\";\r\nimport \"./Specimen.sol\";\r\nimport \"./Location.sol\";\r\nimport \"./EscrowFactory.sol\";\r\nimport \"./Escrow.sol\";\r\nimport \"./Lab.sol\";\r\n\r\ncontract Degenics is Base {\r\n\r\n    Location location;\r\n    Account account;\r\n    Specimen specimen;\r\n    SpecimenTracking specimenTracking;\r\n\r\n    mapping(address => string)  private lastNumber;\r\n\r\n\r\n    event NewLab(address account, string name, string country, string city);\r\n    event NewService(address labAccount, string name, string service);\r\n    event NewSpecimen(address labAccount, string Code);\r\n\r\n    \r\n    constructor(address _storage, address _account, address _specimen, address _specimenTracking, address _location ) public Base(_storage) {\r\n        location = Location(_location);\r\n        account = Account(_account);\r\n        specimen = Specimen(_specimen);\r\n        specimenTracking = SpecimenTracking(_specimenTracking);\r\n    }\r\n\r\n    \r\n\r\n    function labCount(string memory country, string memory city) public view returns(uint){\r\n        return  eternalStorage.getUint(keccak256(abi.encodePacked(\"lab.location\",country, city)));\r\n    }\r\n\r\n    function labByIndex(string memory _country, string memory _city, uint index) public view \r\n        returns(address labAccount, string memory name, string memory country, string memory city, \r\n        string memory additionalData, bool active){\r\n        \r\n        labAccount = eternalStorage.getAddress(keccak256(abi.encodePacked(\"lab.location\", _country,_city, index)));\r\n        return labByAccount(labAccount);\r\n    }\r\n\r\n    function labByAccount(address _account) public view \r\n        returns(address labAccount, string memory name, string memory country, string memory city,\r\n        string memory additionalData, bool active){\r\n        \r\n        return getLabInstance().labByAccount(_account);\r\n    }\r\n\r\n    function serviceCount(address labAccount) public view returns(uint){\r\n        return eternalStorage.getUint(keccak256(abi.encodePacked(\"lab.service.count\", labAccount)));\r\n    }\r\n\r\n    \r\n    function serviceByIndex(address labAccount, uint index) public view \r\n    returns(string memory code, string memory serviceName, string memory description, uint price, string memory additionalData, \r\n    bool active){\r\n        \r\n        return getLabInstance().serviceByIndex(labAccount, index);\r\n    }\r\n\r\n    function registerSpecimen(address labAccount, string memory serviceCode) public {\r\n        \r\n        string memory number = specimen.registerSpecimen(msg.sender, labAccount, serviceCode);\r\n        address escrow = createEscrow(msg.sender, labAccount, eternalStorage.getUint(keccak256(abi.encodePacked(\"lab.service.price\", labAccount, serviceCode))));\r\n\r\n        eternalStorage.setAddress(keccak256(abi.encodePacked(\"Specimen.escrow\", number)),  escrow); \r\n        lastNumber[msg.sender]  = number;\r\n        emit NewSpecimen(labAccount, serviceCode);\r\n    }\r\n\r\n    function getLastNumber() public view returns(string memory){\r\n        return lastNumber[msg.sender];\r\n    }\r\n\r\n    function specimenCount() public view returns(uint){\r\n        return specimen.specimenCount(msg.sender);\r\n    }\r\n\r\n    function specimenByNumber(string memory _number) public view returns(\r\n        string memory number, address owner, address labAccount, string memory serviceCode, string memory status){  \r\n        return specimen.specimenByNumber(_number) ;\r\n    }\r\n\r\n    function specimenByIndex(uint index) public view returns(\r\n        string memory number,address owner, address labAccount, string memory serviceCode, string memory status){        \r\n        string memory number =  eternalStorage.getString(keccak256(abi.encodePacked(\"Specimen\",msg.sender, index )));   \r\n        return specimenByNumber(number);\r\n    }\r\n\r\n    function getEscrow(string memory number) public view returns(address){\r\n        return eternalStorage.getAddress(keccak256(abi.encodePacked(\"Specimen.escrow\", number))); \r\n    }\r\n\r\n    function sendSpecimen(string memory number, string memory remark) public {        \r\n        specimenTracking.sendSpecimen(number, remark);\r\n    }\r\n\r\n    function receiveSpecimen(string memory number, string memory remark) public {\r\n        specimenTracking.receiveSpecimen(number, remark);\r\n    }\r\n\r\n    function rejectSpecimen(string memory number, string memory remark) public {\r\n        specimenTracking.rejectSpecimen(number, remark);\r\n    }\r\n\r\n    function analysisSucces(string memory number, string memory file, string memory remark) public {\r\n        specimenTracking.analysisSucces(number, file, remark);\r\n        getEscrowInstance(number).forwardToSeller();\r\n    }\r\n\r\n    function getFile(string memory number) public view returns(string memory file){\r\n        return specimenTracking.getFile(number);\r\n    }\r\n\r\n    function analysisFail(string memory number, string memory remark) public {\r\n        specimenTracking.analysisFail(number, remark);\r\n        getEscrowInstance(number).refundToBuyer();\r\n    }\r\n\r\n    function escrowBalance(string memory number) internal view returns(uint){\r\n        address escrow = eternalStorage.getAddress(keccak256(abi.encodePacked(\"Specimen.escrow\", number)));\r\n        return escrow.balance;\r\n    }\r\n\r\n    function createEscrow(address buyer, address seller, uint amount) internal returns(address){\r\n       address _address = eternalStorage.getAddress(keccak256(abi.encodePacked(\"contract.address\", \"EscrowFactory\")));\r\n       if(_address != address(0)){\r\n           EscrowFactory ef = EscrowFactory(_address);\r\n           return ef.createEscrow(buyer, seller, amount);\r\n       }\r\n    }\r\n\r\n    function emitNewLab(address _account, string memory name, string memory country, string memory city)public {\r\n        emit NewLab(_account, name, country, city);\r\n    }\r\n\r\n    function emitNewService(address labAccount, string memory name, string memory service)public {\r\n        emit NewService(labAccount, name, service);\r\n    }\r\n\r\n    function getEscrowInstance(string memory number) internal returns(Escrow){\r\n        address payable escrowWallet = address(uint160(getEscrow(number)));\r\n        Escrow instance = Escrow(escrowWallet);\r\n        return instance;\r\n    }\r\n\r\n    function getLabInstance()internal view returns (Lab){\r\n        Lab lab = Lab(eternalStorage.getAddress(keccak256(abi.encodePacked(\"contract.address\", \"Lab\"))));\r\n        return lab;\r\n    }\r\n\r\n    \r\n\r\n\r\n}\r\n\r\n//host guitar cool sick provide magic enhance attend faith woman method episode",
  "sourcePath": "D:\\projects\\degenics\\degenics-smart-contract\\contracts\\Degenics.sol",
  "compiler": {
    "name": "solc",
    "version": "0.5.16+commit.9c3226ce.Emscripten.clang"
  },
  "schemaVersion": "3.0.23",
  "updatedAt": "2021-01-03T15:40:44.634Z",
  "networkType": "ethereum",
  "devdoc": {
    "methods": {}
  },
  "userdoc": {
    "methods": {}
  }
}