{
  "contractName": "Degenics",
  "abi": [
    {
      "inputs": [
        {
          "internalType": "address",
          "name": "_storage",
          "type": "address"
        },
        {
          "internalType": "address",
          "name": "_account",
          "type": "address"
        },
        {
          "internalType": "address",
          "name": "_specimen",
          "type": "address"
        },
        {
          "internalType": "address",
          "name": "_specimenTracking",
          "type": "address"
        },
        {
          "internalType": "address",
          "name": "_location",
          "type": "address"
        }
      ],
      "payable": false,
      "stateMutability": "nonpayable",
      "type": "constructor"
    },
    {
      "anonymous": false,
      "inputs": [
        {
          "indexed": false,
          "internalType": "address",
          "name": "account",
          "type": "address"
        },
        {
          "indexed": false,
          "internalType": "string",
          "name": "name",
          "type": "string"
        },
        {
          "indexed": false,
          "internalType": "string",
          "name": "country",
          "type": "string"
        },
        {
          "indexed": false,
          "internalType": "string",
          "name": "city",
          "type": "string"
        }
      ],
      "name": "NewLab",
      "type": "event"
    },
    {
      "anonymous": false,
      "inputs": [
        {
          "indexed": false,
          "internalType": "address",
          "name": "labAccount",
          "type": "address"
        },
        {
          "indexed": false,
          "internalType": "string",
          "name": "name",
          "type": "string"
        },
        {
          "indexed": false,
          "internalType": "string",
          "name": "service",
          "type": "string"
        }
      ],
      "name": "NewService",
      "type": "event"
    },
    {
      "anonymous": false,
      "inputs": [
        {
          "indexed": false,
          "internalType": "address",
          "name": "labAccount",
          "type": "address"
        },
        {
          "indexed": false,
          "internalType": "string",
          "name": "Code",
          "type": "string"
        }
      ],
      "name": "NewSpecimen",
      "type": "event"
    },
    {
      "constant": true,
      "inputs": [],
      "name": "eternalStorage",
      "outputs": [
        {
          "internalType": "contract EternalStorageInterface",
          "name": "",
          "type": "address"
        }
      ],
      "payable": false,
      "stateMutability": "view",
      "type": "function"
    },
    {
      "constant": true,
      "inputs": [
        {
          "internalType": "string",
          "name": "country",
          "type": "string"
        },
        {
          "internalType": "string",
          "name": "city",
          "type": "string"
        }
      ],
      "name": "labCount",
      "outputs": [
        {
          "internalType": "uint256",
          "name": "",
          "type": "uint256"
        }
      ],
      "payable": false,
      "stateMutability": "view",
      "type": "function"
    },
    {
      "constant": true,
      "inputs": [
        {
          "internalType": "string",
          "name": "_country",
          "type": "string"
        },
        {
          "internalType": "string",
          "name": "_city",
          "type": "string"
        },
        {
          "internalType": "uint256",
          "name": "index",
          "type": "uint256"
        }
      ],
      "name": "labByIndex",
      "outputs": [
        {
          "internalType": "address",
          "name": "labAccount",
          "type": "address"
        },
        {
          "internalType": "string",
          "name": "name",
          "type": "string"
        },
        {
          "internalType": "string",
          "name": "country",
          "type": "string"
        },
        {
          "internalType": "string",
          "name": "city",
          "type": "string"
        },
        {
          "internalType": "string",
          "name": "additionalData",
          "type": "string"
        },
        {
          "internalType": "bool",
          "name": "active",
          "type": "bool"
        }
      ],
      "payable": false,
      "stateMutability": "view",
      "type": "function"
    },
    {
      "constant": true,
      "inputs": [
        {
          "internalType": "address",
          "name": "_account",
          "type": "address"
        }
      ],
      "name": "labByAccount",
      "outputs": [
        {
          "internalType": "address",
          "name": "labAccount",
          "type": "address"
        },
        {
          "internalType": "string",
          "name": "name",
          "type": "string"
        },
        {
          "internalType": "string",
          "name": "country",
          "type": "string"
        },
        {
          "internalType": "string",
          "name": "city",
          "type": "string"
        },
        {
          "internalType": "string",
          "name": "additionalData",
          "type": "string"
        },
        {
          "internalType": "bool",
          "name": "active",
          "type": "bool"
        }
      ],
      "payable": false,
      "stateMutability": "view",
      "type": "function"
    },
    {
      "constant": true,
      "inputs": [
        {
          "internalType": "address",
          "name": "labAccount",
          "type": "address"
        }
      ],
      "name": "serviceCount",
      "outputs": [
        {
          "internalType": "uint256",
          "name": "",
          "type": "uint256"
        }
      ],
      "payable": false,
      "stateMutability": "view",
      "type": "function"
    },
    {
      "constant": true,
      "inputs": [
        {
          "internalType": "address",
          "name": "labAccount",
          "type": "address"
        },
        {
          "internalType": "uint256",
          "name": "index",
          "type": "uint256"
        }
      ],
      "name": "serviceByIndex",
      "outputs": [
        {
          "internalType": "string",
          "name": "code",
          "type": "string"
        },
        {
          "internalType": "string",
          "name": "serviceName",
          "type": "string"
        },
        {
          "internalType": "string",
          "name": "description",
          "type": "string"
        },
        {
          "internalType": "uint256",
          "name": "price",
          "type": "uint256"
        },
        {
          "internalType": "string",
          "name": "additionalData",
          "type": "string"
        },
        {
          "internalType": "bool",
          "name": "active",
          "type": "bool"
        }
      ],
      "payable": false,
      "stateMutability": "view",
      "type": "function"
    },
    {
      "constant": false,
      "inputs": [
        {
          "internalType": "address",
          "name": "labAccount",
          "type": "address"
        },
        {
          "internalType": "string",
          "name": "serviceCode",
          "type": "string"
        },
        {
          "internalType": "string",
          "name": "pubKey",
          "type": "string"
        }
      ],
      "name": "registerSpecimen",
      "outputs": [],
      "payable": false,
      "stateMutability": "nonpayable",
      "type": "function"
    },
    {
      "constant": true,
      "inputs": [],
      "name": "getLastNumber",
      "outputs": [
        {
          "internalType": "string",
          "name": "",
          "type": "string"
        }
      ],
      "payable": false,
      "stateMutability": "view",
      "type": "function"
    },
    {
      "constant": true,
      "inputs": [],
      "name": "specimenCount",
      "outputs": [
        {
          "internalType": "uint256",
          "name": "",
          "type": "uint256"
        }
      ],
      "payable": false,
      "stateMutability": "view",
      "type": "function"
    },
    {
      "constant": true,
      "inputs": [
        {
          "internalType": "string",
          "name": "_number",
          "type": "string"
        }
      ],
      "name": "specimenByNumber",
      "outputs": [
        {
          "internalType": "string",
          "name": "number",
          "type": "string"
        },
        {
          "internalType": "address",
          "name": "owner",
          "type": "address"
        },
        {
          "internalType": "address",
          "name": "labAccount",
          "type": "address"
        },
        {
          "internalType": "string",
          "name": "serviceCode",
          "type": "string"
        },
        {
          "internalType": "uint256",
          "name": "timestamp",
          "type": "uint256"
        },
        {
          "internalType": "string",
          "name": "status",
          "type": "string"
        },
        {
          "internalType": "string",
          "name": "pubkey",
          "type": "string"
        }
      ],
      "payable": false,
      "stateMutability": "view",
      "type": "function"
    },
    {
      "constant": true,
      "inputs": [
        {
          "internalType": "uint256",
          "name": "index",
          "type": "uint256"
        }
      ],
      "name": "specimenByIndex",
      "outputs": [
        {
          "internalType": "string",
          "name": "number",
          "type": "string"
        },
        {
          "internalType": "address",
          "name": "owner",
          "type": "address"
        },
        {
          "internalType": "address",
          "name": "labAccount",
          "type": "address"
        },
        {
          "internalType": "string",
          "name": "serviceCode",
          "type": "string"
        },
        {
          "internalType": "uint256",
          "name": "timestamp",
          "type": "uint256"
        },
        {
          "internalType": "string",
          "name": "status",
          "type": "string"
        },
        {
          "internalType": "string",
          "name": "pubkey",
          "type": "string"
        }
      ],
      "payable": false,
      "stateMutability": "view",
      "type": "function"
    },
    {
      "constant": true,
      "inputs": [
        {
          "internalType": "string",
          "name": "number",
          "type": "string"
        }
      ],
      "name": "getEscrow",
      "outputs": [
        {
          "internalType": "address",
          "name": "",
          "type": "address"
        }
      ],
      "payable": false,
      "stateMutability": "view",
      "type": "function"
    },
    {
      "constant": false,
      "inputs": [
        {
          "internalType": "string",
          "name": "number",
          "type": "string"
        },
        {
          "internalType": "string",
          "name": "remark",
          "type": "string"
        }
      ],
      "name": "sendSpecimen",
      "outputs": [],
      "payable": false,
      "stateMutability": "nonpayable",
      "type": "function"
    },
    {
      "constant": false,
      "inputs": [
        {
          "internalType": "string",
          "name": "number",
          "type": "string"
        },
        {
          "internalType": "string",
          "name": "remark",
          "type": "string"
        }
      ],
      "name": "receiveSpecimen",
      "outputs": [],
      "payable": false,
      "stateMutability": "nonpayable",
      "type": "function"
    },
    {
      "constant": false,
      "inputs": [
        {
          "internalType": "string",
          "name": "number",
          "type": "string"
        },
        {
          "internalType": "string",
          "name": "remark",
          "type": "string"
        }
      ],
      "name": "rejectSpecimen",
      "outputs": [],
      "payable": false,
      "stateMutability": "nonpayable",
      "type": "function"
    },
    {
      "constant": false,
      "inputs": [
        {
          "internalType": "string",
          "name": "number",
          "type": "string"
        },
        {
          "internalType": "string",
          "name": "file",
          "type": "string"
        },
        {
          "internalType": "string",
          "name": "remark",
          "type": "string"
        }
      ],
      "name": "analysisSucces",
      "outputs": [],
      "payable": false,
      "stateMutability": "nonpayable",
      "type": "function"
    },
    {
      "constant": true,
      "inputs": [
        {
          "internalType": "string",
          "name": "number",
          "type": "string"
        }
      ],
      "name": "getFile",
      "outputs": [
        {
          "internalType": "string",
          "name": "file",
          "type": "string"
        }
      ],
      "payable": false,
      "stateMutability": "view",
      "type": "function"
    },
    {
      "constant": false,
      "inputs": [
        {
          "internalType": "string",
          "name": "number",
          "type": "string"
        }
      ],
      "name": "refund",
      "outputs": [],
      "payable": false,
      "stateMutability": "nonpayable",
      "type": "function"
    },
    {
      "constant": false,
      "inputs": [
        {
          "internalType": "address",
          "name": "_account",
          "type": "address"
        },
        {
          "internalType": "string",
          "name": "name",
          "type": "string"
        },
        {
          "internalType": "string",
          "name": "country",
          "type": "string"
        },
        {
          "internalType": "string",
          "name": "city",
          "type": "string"
        }
      ],
      "name": "emitNewLab",
      "outputs": [],
      "payable": false,
      "stateMutability": "nonpayable",
      "type": "function"
    },
    {
      "constant": false,
      "inputs": [
        {
          "internalType": "address",
          "name": "labAccount",
          "type": "address"
        },
        {
          "internalType": "string",
          "name": "name",
          "type": "string"
        },
        {
          "internalType": "string",
          "name": "service",
          "type": "string"
        }
      ],
      "name": "emitNewService",
      "outputs": [],
      "payable": false,
      "stateMutability": "nonpayable",
      "type": "function"
    }
  ],
  "bytecode": "0x608060405260008060006101000a81548173ffffffffffffffffffffffffffffffffffffffff021916908373ffffffffffffffffffffffffffffffffffffffff1602179055503480156200005257600080fd5b5060405162005adc38038062005adc833981810160405260a08110156200007857600080fd5b81019080805190602001909291908051906020019092919080519060200190929190805190602001909291908051906020019092919050505084806000806101000a81548173ffffffffffffffffffffffffffffffffffffffff021916908373ffffffffffffffffffffffffffffffffffffffff1602179055505080600160006101000a81548173ffffffffffffffffffffffffffffffffffffffff021916908373ffffffffffffffffffffffffffffffffffffffff16021790555083600260006101000a81548173ffffffffffffffffffffffffffffffffffffffff021916908373ffffffffffffffffffffffffffffffffffffffff16021790555082600360006101000a81548173ffffffffffffffffffffffffffffffffffffffff021916908373ffffffffffffffffffffffffffffffffffffffff16021790555081600460006101000a81548173ffffffffffffffffffffffffffffffffffffffff021916908373ffffffffffffffffffffffffffffffffffffffff16021790555050505050506158d0806200020c6000396000f3fe608060405234801561001057600080fd5b506004361061012c5760003560e01c80639c99c7c9116100ad578063dddae88411610071578063dddae884146117ae578063e0876aa814611900578063ed01c66614611a34578063ed3468f714611c73578063fe5f2e8814611dc55761012c565b80639c99c7c914610ea65780639cd8f256146110fe578063ba3eb0e114611250578063ca15e24a146115a7578063d97b0d3f146117905761012c565b8063905110d8116100f4578063905110d8146108e3578063940c028814610b00578063969631d514610b5857806398ff9c5414610c53578063996d5fc314610c9d5761012c565b8063103ed5b31461013157806312af942e1461041657806343034f9614610588578063682c0fc1146106ee5780638280fc3a14610771575b600080fd5b6101ea6004803603602081101561014757600080fd5b810190808035906020019064010000000081111561016457600080fd5b82018360208201111561017657600080fd5b8035906020019184600183028401116401000000008311171561019857600080fd5b91908080601f016020809104026020016040519081016040528093929190818152602001838380828437600081840152601f19601f820116905080830192505050505050509192919290505050611e80565b60405180806020018873ffffffffffffffffffffffffffffffffffffffff1673ffffffffffffffffffffffffffffffffffffffff1681526020018773ffffffffffffffffffffffffffffffffffffffff1673ffffffffffffffffffffffffffffffffffffffff16815260200180602001868152602001806020018060200185810385528c818151815260200191508051906020019080838360005b838110156102a0578082015181840152602081019050610285565b50505050905090810190601f1680156102cd5780820380516001836020036101000a031916815260200191505b50858103845289818151815260200191508051906020019080838360005b838110156103065780820151818401526020810190506102eb565b50505050905090810190601f1680156103335780820380516001836020036101000a031916815260200191505b50858103835287818151815260200191508051906020019080838360005b8381101561036c578082015181840152602081019050610351565b50505050905090810190601f1680156103995780820380516001836020036101000a031916815260200191505b50858103825286818151815260200191508051906020019080838360005b838110156103d25780820151818401526020810190506103b7565b50505050905090810190601f1680156103ff5780820380516001836020036101000a031916815260200191505b509b50505050505050505050505060405180910390f35b6105866004803603606081101561042c57600080fd5b81019080803573ffffffffffffffffffffffffffffffffffffffff1690602001909291908035906020019064010000000081111561046957600080fd5b82018360208201111561047b57600080fd5b8035906020019184600183028401116401000000008311171561049d57600080fd5b91908080601f016020809104026020016040519081016040528093929190818152602001838380828437600081840152601f19601f8201169050808301925050505050505091929192908035906020019064010000000081111561050057600080fd5b82018360208201111561051257600080fd5b8035906020019184600183028401116401000000008311171561053457600080fd5b91908080601f016020809104026020016040519081016040528093929190818152602001838380828437600081840152601f19601f82011690508083019250505050505050919291929050505061240b565b005b6106d86004803603604081101561059e57600080fd5b81019080803590602001906401000000008111156105bb57600080fd5b8201836020820111156105cd57600080fd5b803590602001918460018302840111640100000000831117156105ef57600080fd5b91908080601f016020809104026020016040519081016040528093929190818152602001838380828437600081840152601f19601f8201169050808301925050505050505091929192908035906020019064010000000081111561065257600080fd5b82018360208201111561066457600080fd5b8035906020019184600183028401116401000000008311171561068657600080fd5b91908080601f016020809104026020016040519081016040528093929190818152602001838380828437600081840152601f19601f82011690508083019250505050505050919291929050505061254d565b6040518082815260200191505060405180910390f35b6106f66126f0565b6040518080602001828103825283818151815260200191508051906020019080838360005b8381101561073657808201518184015260208101905061071b565b50505050905090810190601f1680156107635780820380516001836020036101000a031916815260200191505b509250505060405180910390f35b6108e16004803603606081101561078757600080fd5b81019080803573ffffffffffffffffffffffffffffffffffffffff169060200190929190803590602001906401000000008111156107c457600080fd5b8201836020820111156107d657600080fd5b803590602001918460018302840111640100000000831117156107f857600080fd5b91908080601f016020809104026020016040519081016040528093929190818152602001838380828437600081840152601f19601f8201169050808301925050505050505091929192908035906020019064010000000081111561085b57600080fd5b82018360208201111561086d57600080fd5b8035906020019184600183028401116401000000008311171561088f57600080fd5b91908080601f016020809104026020016040519081016040528093929190818152602001838380828437600081840152601f19601f8201169050808301925050505050505091929192905050506127cf565b005b61092f600480360360408110156108f957600080fd5b81019080803573ffffffffffffffffffffffffffffffffffffffff16906020019092919080359060200190929190505050613185565b60405180806020018060200180602001878152602001806020018615151515815260200185810385528b818151815260200191508051906020019080838360005b8381101561098b578082015181840152602081019050610970565b50505050905090810190601f1680156109b85780820380516001836020036101000a031916815260200191505b5085810384528a818151815260200191508051906020019080838360005b838110156109f15780820151818401526020810190506109d6565b50505050905090810190601f168015610a1e5780820380516001836020036101000a031916815260200191505b50858103835289818151815260200191508051906020019080838360005b83811015610a57578082015181840152602081019050610a3c565b50505050905090810190601f168015610a845780820380516001836020036101000a031916815260200191505b50858103825287818151815260200191508051906020019080838360005b83811015610abd578082015181840152602081019050610aa2565b50505050905090810190601f168015610aea5780820380516001836020036101000a031916815260200191505b509a505050505050505050505060405180910390f35b610b4260048036036020811015610b1657600080fd5b81019080803573ffffffffffffffffffffffffffffffffffffffff169060200190929190505050613567565b6040518082815260200191505060405180910390f35b610c1160048036036020811015610b6e57600080fd5b8101908080359060200190640100000000811115610b8b57600080fd5b820183602082011115610b9d57600080fd5b80359060200191846001830284011164010000000083111715610bbf57600080fd5b91908080601f016020809104026020016040519081016040528093929190818152602001838380828437600081840152601f19601f82011690508083019250505050505050919291929050505061369a565b604051808273ffffffffffffffffffffffffffffffffffffffff1673ffffffffffffffffffffffffffffffffffffffff16815260200191505060405180910390f35b610c5b6137e9565b604051808273ffffffffffffffffffffffffffffffffffffffff1673ffffffffffffffffffffffffffffffffffffffff16815260200191505060405180910390f35b610ea460048036036080811015610cb357600080fd5b81019080803573ffffffffffffffffffffffffffffffffffffffff16906020019092919080359060200190640100000000811115610cf057600080fd5b820183602082011115610d0257600080fd5b80359060200191846001830284011164010000000083111715610d2457600080fd5b91908080601f016020809104026020016040519081016040528093929190818152602001838380828437600081840152601f19601f82011690508083019250505050505050919291929080359060200190640100000000811115610d8757600080fd5b820183602082011115610d9957600080fd5b80359060200191846001830284011164010000000083111715610dbb57600080fd5b91908080601f016020809104026020016040519081016040528093929190818152602001838380828437600081840152601f19601f82011690508083019250505050505050919291929080359060200190640100000000811115610e1e57600080fd5b820183602082011115610e3057600080fd5b80359060200191846001830284011164010000000083111715610e5257600080fd5b91908080601f016020809104026020016040519081016040528093929190818152602001838380828437600081840152601f19601f82011690508083019250505050505050919291929050505061380e565b005b610ed260048036036020811015610ebc57600080fd5b81019080803590602001909291905050506139be565b60405180806020018873ffffffffffffffffffffffffffffffffffffffff1673ffffffffffffffffffffffffffffffffffffffff1681526020018773ffffffffffffffffffffffffffffffffffffffff1673ffffffffffffffffffffffffffffffffffffffff16815260200180602001868152602001806020018060200185810385528c818151815260200191508051906020019080838360005b83811015610f88578082015181840152602081019050610f6d565b50505050905090810190601f168015610fb55780820380516001836020036101000a031916815260200191505b50858103845289818151815260200191508051906020019080838360005b83811015610fee578082015181840152602081019050610fd3565b50505050905090810190601f16801561101b5780820380516001836020036101000a031916815260200191505b50858103835287818151815260200191508051906020019080838360005b83811015611054578082015181840152602081019050611039565b50505050905090810190601f1680156110815780820380516001836020036101000a031916815260200191505b50858103825286818151815260200191508051906020019080838360005b838110156110ba57808201518184015260208101905061109f565b50505050905090810190601f1680156110e75780820380516001836020036101000a031916815260200191505b509b50505050505050505050505060405180910390f35b61124e6004803603604081101561111457600080fd5b810190808035906020019064010000000081111561113157600080fd5b82018360208201111561114357600080fd5b8035906020019184600183028401116401000000008311171561116557600080fd5b91908080601f016020809104026020016040519081016040528093929190818152602001838380828437600081840152601f19601f820116905080830192505050505050509192919290803590602001906401000000008111156111c857600080fd5b8201836020820111156111da57600080fd5b803590602001918460018302840111640100000000831117156111fc57600080fd5b91908080601f016020809104026020016040519081016040528093929190818152602001838380828437600081840152601f19601f820116905080830192505050505050509192919290505050613be1565b005b6113aa6004803603606081101561126657600080fd5b810190808035906020019064010000000081111561128357600080fd5b82018360208201111561129557600080fd5b803590602001918460018302840111640100000000831117156112b757600080fd5b91908080601f016020809104026020016040519081016040528093929190818152602001838380828437600081840152601f19601f8201169050808301925050505050505091929192908035906020019064010000000081111561131a57600080fd5b82018360208201111561132c57600080fd5b8035906020019184600183028401116401000000008311171561134e57600080fd5b91908080601f016020809104026020016040519081016040528093929190818152602001838380828437600081840152601f19601f82011690508083019250505050505050919291929080359060200190929190505050613d44565b604051808773ffffffffffffffffffffffffffffffffffffffff1673ffffffffffffffffffffffffffffffffffffffff168152602001806020018060200180602001806020018615151515815260200185810385528a818151815260200191508051906020019080838360005b83811015611432578082015181840152602081019050611417565b50505050905090810190601f16801561145f5780820380516001836020036101000a031916815260200191505b50858103845289818151815260200191508051906020019080838360005b8381101561149857808201518184015260208101905061147d565b50505050905090810190601f1680156114c55780820380516001836020036101000a031916815260200191505b50858103835288818151815260200191508051906020019080838360005b838110156114fe5780820151818401526020810190506114e3565b50505050905090810190601f16801561152b5780820380516001836020036101000a031916815260200191505b50858103825287818151815260200191508051906020019080838360005b83811015611564578082015181840152602081019050611549565b50505050905090810190601f1680156115915780820380516001836020036101000a031916815260200191505b509a505050505050505050505060405180910390f35b61178e600480360360608110156115bd57600080fd5b81019080803590602001906401000000008111156115da57600080fd5b8201836020820111156115ec57600080fd5b8035906020019184600183028401116401000000008311171561160e57600080fd5b91908080601f016020809104026020016040519081016040528093929190818152602001838380828437600081840152601f19601f8201169050808301925050505050505091929192908035906020019064010000000081111561167157600080fd5b82018360208201111561168357600080fd5b803590602001918460018302840111640100000000831117156116a557600080fd5b91908080601f016020809104026020016040519081016040528093929190818152602001838380828437600081840152601f19601f8201169050808301925050505050505091929192908035906020019064010000000081111561170857600080fd5b82018360208201111561171a57600080fd5b8035906020019184600183028401116401000000008311171561173c57600080fd5b91908080601f016020809104026020016040519081016040528093929190818152602001838380828437600081840152601f19601f820116905080830192505050505050509192919290505050613f12565b005b61179861430b565b6040518082815260200191505060405180910390f35b6118fe600480360360408110156117c457600080fd5b81019080803590602001906401000000008111156117e157600080fd5b8201836020820111156117f357600080fd5b8035906020019184600183028401116401000000008311171561181557600080fd5b91908080601f016020809104026020016040519081016040528093929190818152602001838380828437600081840152601f19601f8201169050808301925050505050505091929192908035906020019064010000000081111561187857600080fd5b82018360208201111561188a57600080fd5b803590602001918460018302840111640100000000831117156118ac57600080fd5b91908080601f016020809104026020016040519081016040528093929190818152602001838380828437600081840152601f19601f8201169050808301925050505050505091929192905050506143ec565b005b6119b96004803603602081101561191657600080fd5b810190808035906020019064010000000081111561193357600080fd5b82018360208201111561194557600080fd5b8035906020019184600183028401116401000000008311171561196757600080fd5b91908080601f016020809104026020016040519081016040528093929190818152602001838380828437600081840152601f19601f82011690508083019250505050505050919291929050505061454f565b6040518080602001828103825283818151815260200191508051906020019080838360005b838110156119f95780820151818401526020810190506119de565b50505050905090810190601f168015611a265780820380516001836020036101000a031916815260200191505b509250505060405180910390f35b611a7660048036036020811015611a4a57600080fd5b81019080803573ffffffffffffffffffffffffffffffffffffffff169060200190929190505050614729565b604051808773ffffffffffffffffffffffffffffffffffffffff1673ffffffffffffffffffffffffffffffffffffffff168152602001806020018060200180602001806020018615151515815260200185810385528a818151815260200191508051906020019080838360005b83811015611afe578082015181840152602081019050611ae3565b50505050905090810190601f168015611b2b5780820380516001836020036101000a031916815260200191505b50858103845289818151815260200191508051906020019080838360005b83811015611b64578082015181840152602081019050611b49565b50505050905090810190601f168015611b915780820380516001836020036101000a031916815260200191505b50858103835288818151815260200191508051906020019080838360005b83811015611bca578082015181840152602081019050611baf565b50505050905090810190601f168015611bf75780820380516001836020036101000a031916815260200191505b50858103825287818151815260200191508051906020019080838360005b83811015611c30578082015181840152602081019050611c15565b50505050905090810190601f168015611c5d5780820380516001836020036101000a031916815260200191505b509a505050505050505050505060405180910390f35b611dc360048036036040811015611c8957600080fd5b8101908080359060200190640100000000811115611ca657600080fd5b820183602082011115611cb857600080fd5b80359060200191846001830284011164010000000083111715611cda57600080fd5b91908080601f016020809104026020016040519081016040528093929190818152602001838380828437600081840152601f19601f82011690508083019250505050505050919291929080359060200190640100000000811115611d3d57600080fd5b820183602082011115611d4f57600080fd5b80359060200191846001830284011164010000000083111715611d7157600080fd5b91908080601f016020809104026020016040519081016040528093929190818152602001838380828437600081840152601f19601f820116905080830192505050505050509192919290505050614b01565b005b611e7e60048036036020811015611ddb57600080fd5b8101908080359060200190640100000000811115611df857600080fd5b820183602082011115611e0a57600080fd5b80359060200191846001830284011164010000000083111715611e2c57600080fd5b91908080601f016020809104026020016040519081016040528093929190818152602001838380828437600081840152601f19601f820116905080830192505050505050509192919290505050614d91565b005b606060008060606000606080600360009054906101000a900473ffffffffffffffffffffffffffffffffffffffff1673ffffffffffffffffffffffffffffffffffffffff1663103ed5b3896040518263ffffffff1660e01b81526004018080602001828103825283818151815260200191508051906020019080838360005b83811015611f1a578082015181840152602081019050611eff565b50505050905090810190601f168015611f475780820380516001836020036101000a031916815260200191505b509250505060006040518083038186803b158015611f6457600080fd5b505afa158015611f78573d6000803e3d6000fd5b505050506040513d6000823e3d601f19601f8201168201806040525060c0811015611fa257600080fd5b8101908080516040519392919084640100000000821115611fc257600080fd5b83820191506020820185811115611fd857600080fd5b8251866001820283011164010000000082111715611ff557600080fd5b8083526020830192505050908051906020019080838360005b8381101561202957808201518184015260208101905061200e565b50505050905090810190601f1680156120565780820380516001836020036101000a031916815260200191505b5060405260200180519060200190929190805190602001909291908051604051939291908464010000000082111561208d57600080fd5b838201915060208201858111156120a357600080fd5b82518660018202830111640100000000821117156120c057600080fd5b8083526020830192505050908051906020019080838360005b838110156120f45780820151818401526020810190506120d9565b50505050905090810190601f1680156121215780820380516001836020036101000a031916815260200191505b50604052602001805190602001909291908051604051939291908464010000000082111561214e57600080fd5b8382019150602082018581111561216457600080fd5b825186600182028301116401000000008211171561218157600080fd5b8083526020830192505050908051906020019080838360005b838110156121b557808201518184015260208101905061219a565b50505050905090810190601f1680156121e25780820380516001836020036101000a031916815260200191505b50604052505050809750819850829950839a50849b50859c505050505050506000809054906101000a900473ffffffffffffffffffffffffffffffffffffffff1673ffffffffffffffffffffffffffffffffffffffff1663986e791a8760405160200180807f7075626b657900000000000000000000000000000000000000000000000000008152506006018273ffffffffffffffffffffffffffffffffffffffff1673ffffffffffffffffffffffffffffffffffffffff1660601b8152601401915050604051602081830303815290604052805190602001206040518263ffffffff1660e01b81526004018082815260200191505060006040518083038186803b1580156122f057600080fd5b505afa158015612304573d6000803e3d6000fd5b505050506040513d6000823e3d601f19601f82011682018060405250602081101561232e57600080fd5b810190808051604051939291908464010000000082111561234e57600080fd5b8382019150602082018581111561236457600080fd5b825186600182028301116401000000008211171561238157600080fd5b8083526020830192505050908051906020019080838360005b838110156123b557808201518184015260208101905061239a565b50505050905090810190601f1680156123e25780820380516001836020036101000a031916815260200191505b506040525050509050868686868686869650965096509650965096509650919395979092949650565b7fd9491d9a8b6f9be10814b9a1d01c06052d9a61354c5b8c6d00c53e0839661362838383604051808473ffffffffffffffffffffffffffffffffffffffff1673ffffffffffffffffffffffffffffffffffffffff1681526020018060200180602001838103835285818151815260200191508051906020019080838360005b838110156124a557808201518184015260208101905061248a565b50505050905090810190601f1680156124d25780820380516001836020036101000a031916815260200191505b50838103825284818151815260200191508051906020019080838360005b8381101561250b5780820151818401526020810190506124f0565b50505050905090810190601f1680156125385780820380516001836020036101000a031916815260200191505b509550505050505060405180910390a1505050565b60008060009054906101000a900473ffffffffffffffffffffffffffffffffffffffff1673ffffffffffffffffffffffffffffffffffffffff1663bd02d0f5848460405160200180807f6c61622e6c6f636174696f6e0000000000000000000000000000000000000000815250600c0183805190602001908083835b602083106125ec57805182526020820191506020810190506020830392506125c9565b6001836020036101000a03801982511681845116808217855250505050505090500182805190602001908083835b6020831061263d578051825260208201915060208101905060208303925061261a565b6001836020036101000a03801982511681845116808217855250505050505090500192505050604051602081830303815290604052805190602001206040518263ffffffff1660e01b81526004018082815260200191505060206040518083038186803b1580156126ad57600080fd5b505afa1580156126c1573d6000803e3d6000fd5b505050506040513d60208110156126d757600080fd5b8101908080519060200190929190505050905092915050565b6060600560003373ffffffffffffffffffffffffffffffffffffffff1673ffffffffffffffffffffffffffffffffffffffff1681526020019081526020016000208054600181600116156101000203166002900480601f0160208091040260200160405190810160405280929190818152602001828054600181600116156101000203166002900480156127c55780601f1061279a576101008083540402835291602001916127c5565b820191906000526020600020905b8154815290600101906020018083116127a857829003601f168201915b5050505050905090565b6060600360009054906101000a900473ffffffffffffffffffffffffffffffffffffffff1673ffffffffffffffffffffffffffffffffffffffff1663a250156c3386866040518463ffffffff1660e01b8152600401808473ffffffffffffffffffffffffffffffffffffffff1673ffffffffffffffffffffffffffffffffffffffff1681526020018373ffffffffffffffffffffffffffffffffffffffff1673ffffffffffffffffffffffffffffffffffffffff16815260200180602001828103825283818151815260200191508051906020019080838360005b838110156128c55780820151818401526020810190506128aa565b50505050905090810190601f1680156128f25780820380516001836020036101000a031916815260200191505b50945050505050600060405180830381600087803b15801561291357600080fd5b505af1158015612927573d6000803e3d6000fd5b505050506040513d6000823e3d601f19601f82011682018060405250602081101561295157600080fd5b810190808051604051939291908464010000000082111561297157600080fd5b8382019150602082018581111561298757600080fd5b82518660018202830111640100000000821117156129a457600080fd5b8083526020830192505050908051906020019080838360005b838110156129d85780820151818401526020810190506129bd565b50505050905090810190601f168015612a055780820380516001836020036101000a031916815260200191505b5060405250505090506000612b9733866000809054906101000a900473ffffffffffffffffffffffffffffffffffffffff1673ffffffffffffffffffffffffffffffffffffffff1663bd02d0f5898960405160200180807f6c61622e736572766963652e70726963650000000000000000000000000000008152506011018373ffffffffffffffffffffffffffffffffffffffff1673ffffffffffffffffffffffffffffffffffffffff1660601b815260140182805190602001908083835b60208310612ae75780518252602082019150602081019050602083039250612ac4565b6001836020036101000a03801982511681845116808217855250505050505090500192505050604051602081830303815290604052805190602001206040518263ffffffff1660e01b81526004018082815260200191505060206040518083038186803b158015612b5757600080fd5b505afa158015612b6b573d6000803e3d6000fd5b505050506040513d6020811015612b8157600080fd5b8101908080519060200190929190505050615451565b90506000809054906101000a900473ffffffffffffffffffffffffffffffffffffffff1673ffffffffffffffffffffffffffffffffffffffff1663ca446dd98360405160200180807f53706563696d656e2e657363726f770000000000000000000000000000000000815250600f0182805190602001908083835b60208310612c355780518252602082019150602081019050602083039250612c12565b6001836020036101000a03801982511681845116808217855250505050505090500191505060405160208183030381529060405280519060200120836040518363ffffffff1660e01b8152600401808381526020018273ffffffffffffffffffffffffffffffffffffffff1673ffffffffffffffffffffffffffffffffffffffff16815260200192505050600060405180830381600087803b158015612cda57600080fd5b505af1158015612cee573d6000803e3d6000fd5b5050505081600560003373ffffffffffffffffffffffffffffffffffffffff1673ffffffffffffffffffffffffffffffffffffffff1681526020019081526020016000209080519060200190612d459291906157f6565b5060008060009054906101000a900473ffffffffffffffffffffffffffffffffffffffff1673ffffffffffffffffffffffffffffffffffffffff1663986e791a3360405160200180807f7075626b657900000000000000000000000000000000000000000000000000008152506006018273ffffffffffffffffffffffffffffffffffffffff1673ffffffffffffffffffffffffffffffffffffffff1660601b8152601401915050604051602081830303815290604052805190602001206040518263ffffffff1660e01b81526004018082815260200191505060006040518083038186803b158015612e3757600080fd5b505afa158015612e4b573d6000803e3d6000fd5b505050506040513d6000823e3d601f19601f820116820180604052506020811015612e7557600080fd5b8101908080516040519392919084640100000000821115612e9557600080fd5b83820191506020820185811115612eab57600080fd5b8251866001820283011164010000000082111715612ec857600080fd5b8083526020830192505050908051906020019080838360005b83811015612efc578082015181840152602081019050612ee1565b50505050905090810190601f168015612f295780820380516001836020036101000a031916815260200191505b506040525050505114156130ae576000809054906101000a900473ffffffffffffffffffffffffffffffffffffffff1673ffffffffffffffffffffffffffffffffffffffff16636e8995503360405160200180807f7075626b657900000000000000000000000000000000000000000000000000008152506006018273ffffffffffffffffffffffffffffffffffffffff1673ffffffffffffffffffffffffffffffffffffffff1660601b815260140191505060405160208183030381529060405280519060200120856040518363ffffffff1660e01b81526004018083815260200180602001828103825283818151815260200191508051906020019080838360005b8381101561304857808201518184015260208101905061302d565b50505050905090810190601f1680156130755780820380516001836020036101000a031916815260200191505b509350505050600060405180830381600087803b15801561309557600080fd5b505af11580156130a9573d6000803e3d6000fd5b505050505b7f6f51c966b226abb2a973172a0489909f6e0729ae419cda220fb82e9bab7d43ca8585604051808373ffffffffffffffffffffffffffffffffffffffff1673ffffffffffffffffffffffffffffffffffffffff16815260200180602001828103825283818151815260200191508051906020019080838360005b83811015613143578082015181840152602081019050613128565b50505050905090810190601f1680156131705780820380516001836020036101000a031916815260200191505b50935050505060405180910390a15050505050565b60608060606000606060006131986156b2565b73ffffffffffffffffffffffffffffffffffffffff1663905110d889896040518363ffffffff1660e01b8152600401808373ffffffffffffffffffffffffffffffffffffffff1673ffffffffffffffffffffffffffffffffffffffff1681526020018281526020019250505060006040518083038186803b15801561321c57600080fd5b505afa158015613230573d6000803e3d6000fd5b505050506040513d6000823e3d601f19601f8201168201806040525060c081101561325a57600080fd5b810190808051604051939291908464010000000082111561327a57600080fd5b8382019150602082018581111561329057600080fd5b82518660018202830111640100000000821117156132ad57600080fd5b8083526020830192505050908051906020019080838360005b838110156132e15780820151818401526020810190506132c6565b50505050905090810190601f16801561330e5780820380516001836020036101000a031916815260200191505b506040526020018051604051939291908464010000000082111561333157600080fd5b8382019150602082018581111561334757600080fd5b825186600182028301116401000000008211171561336457600080fd5b8083526020830192505050908051906020019080838360005b8381101561339857808201518184015260208101905061337d565b50505050905090810190601f1680156133c55780820380516001836020036101000a031916815260200191505b50604052602001805160405193929190846401000000008211156133e857600080fd5b838201915060208201858111156133fe57600080fd5b825186600182028301116401000000008211171561341b57600080fd5b8083526020830192505050908051906020019080838360005b8381101561344f578082015181840152602081019050613434565b50505050905090810190601f16801561347c5780820380516001836020036101000a031916815260200191505b5060405260200180519060200190929190805160405193929190846401000000008211156134a957600080fd5b838201915060208201858111156134bf57600080fd5b82518660018202830111640100000000821117156134dc57600080fd5b8083526020830192505050908051906020019080838360005b838110156135105780820151818401526020810190506134f5565b50505050905090810190601f16801561353d5780820380516001836020036101000a031916815260200191505b50604052602001805190602001909291905050509550955095509550955095509295509295509295565b60008060009054906101000a900473ffffffffffffffffffffffffffffffffffffffff1673ffffffffffffffffffffffffffffffffffffffff1663bd02d0f58360405160200180807f6c61622e736572766963652e636f756e740000000000000000000000000000008152506011018273ffffffffffffffffffffffffffffffffffffffff1673ffffffffffffffffffffffffffffffffffffffff1660601b8152601401915050604051602081830303815290604052805190602001206040518263ffffffff1660e01b81526004018082815260200191505060206040518083038186803b15801561365857600080fd5b505afa15801561366c573d6000803e3d6000fd5b505050506040513d602081101561368257600080fd5b81019080805190602001909291905050509050919050565b60008060009054906101000a900473ffffffffffffffffffffffffffffffffffffffff1673ffffffffffffffffffffffffffffffffffffffff166321f8a7218360405160200180807f53706563696d656e2e657363726f770000000000000000000000000000000000815250600f0182805190602001908083835b602083106137385780518252602082019150602081019050602083039250613715565b6001836020036101000a038019825116818451168082178552505050505050905001915050604051602081830303815290604052805190602001206040518263ffffffff1660e01b81526004018082815260200191505060206040518083038186803b1580156137a757600080fd5b505afa1580156137bb573d6000803e3d6000fd5b505050506040513d60208110156137d157600080fd5b81019080805190602001909291905050509050919050565b6000809054906101000a900473ffffffffffffffffffffffffffffffffffffffff1681565b7f8ca5fb51ec76e0fba6b96a8e596d91cb678f7fef4fe4edb108915e409782107184848484604051808573ffffffffffffffffffffffffffffffffffffffff1673ffffffffffffffffffffffffffffffffffffffff168152602001806020018060200180602001848103845287818151815260200191508051906020019080838360005b838110156138ad578082015181840152602081019050613892565b50505050905090810190601f1680156138da5780820380516001836020036101000a031916815260200191505b50848103835286818151815260200191508051906020019080838360005b838110156139135780820151818401526020810190506138f8565b50505050905090810190601f1680156139405780820380516001836020036101000a031916815260200191505b50848103825285818151815260200191508051906020019080838360005b8381101561397957808201518184015260208101905061395e565b50505050905090810190601f1680156139a65780820380516001836020036101000a031916815260200191505b5097505050505050505060405180910390a150505050565b60606000806060600060608060606000809054906101000a900473ffffffffffffffffffffffffffffffffffffffff1673ffffffffffffffffffffffffffffffffffffffff1663986e791a338b60405160200180807f53706563696d656e0000000000000000000000000000000000000000000000008152506008018373ffffffffffffffffffffffffffffffffffffffff1673ffffffffffffffffffffffffffffffffffffffff1660601b815260140182815260200192505050604051602081830303815290604052805190602001206040518263ffffffff1660e01b81526004018082815260200191505060006040518083038186803b158015613ac357600080fd5b505afa158015613ad7573d6000803e3d6000fd5b505050506040513d6000823e3d601f19601f820116820180604052506020811015613b0157600080fd5b8101908080516040519392919084640100000000821115613b2157600080fd5b83820191506020820185811115613b3757600080fd5b8251866001820283011164010000000082111715613b5457600080fd5b8083526020830192505050908051906020019080838360005b83811015613b88578082015181840152602081019050613b6d565b50505050905090810190601f168015613bb55780820380516001836020036101000a031916815260200191505b506040525050509050613bc781611e80565b975097509750975097509750975050919395979092949650565b600460009054906101000a900473ffffffffffffffffffffffffffffffffffffffff1673ffffffffffffffffffffffffffffffffffffffff16639cd8f25683836040518363ffffffff1660e01b8152600401808060200180602001838103835285818151815260200191508051906020019080838360005b83811015613c74578082015181840152602081019050613c59565b50505050905090810190601f168015613ca15780820380516001836020036101000a031916815260200191505b50838103825284818151815260200191508051906020019080838360005b83811015613cda578082015181840152602081019050613cbf565b50505050905090810190601f168015613d075780820380516001836020036101000a031916815260200191505b50945050505050600060405180830381600087803b158015613d2857600080fd5b505af1158015613d3c573d6000803e3d6000fd5b505050505050565b600060608060608060008060009054906101000a900473ffffffffffffffffffffffffffffffffffffffff1673ffffffffffffffffffffffffffffffffffffffff166321f8a7218a8a8a60405160200180807f6c61622e6c6f636174696f6e0000000000000000000000000000000000000000815250600c0184805190602001908083835b60208310613dec5780518252602082019150602081019050602083039250613dc9565b6001836020036101000a03801982511681845116808217855250505050505090500183805190602001908083835b60208310613e3d5780518252602082019150602081019050602083039250613e1a565b6001836020036101000a0380198251168184511680821785525050505050509050018281526020019350505050604051602081830303815290604052805190602001206040518263ffffffff1660e01b81526004018082815260200191505060206040518083038186803b158015613eb457600080fd5b505afa158015613ec8573d6000803e3d6000fd5b505050506040513d6020811015613ede57600080fd5b81019080805190602001909291905050509550613efa86614729565b95509550955095509550955093975093979195509350565b62093a806000809054906101000a900473ffffffffffffffffffffffffffffffffffffffff1673ffffffffffffffffffffffffffffffffffffffff1663bd02d0f58560405160200180807f53706563696d656e2e726563656976652e64617465000000000000000000000081525060150182805190602001908083835b60208310613fb25780518252602082019150602081019050602083039250613f8f565b6001836020036101000a038019825116818451168082178552505050505050905001915050604051602081830303815290604052805190602001206040518263ffffffff1660e01b81526004018082815260200191505060206040518083038186803b15801561402157600080fd5b505afa158015614035573d6000803e3d6000fd5b505050506040513d602081101561404b57600080fd5b8101908080519060200190929190505050014211156140d2576040517f08c379a000000000000000000000000000000000000000000000000000000000815260040180806020018281038252601f8152602001807f6f6e6c792076616c69642037206461797320616674657220726563656976650081525060200191505060405180910390fd5b600460009054906101000a900473ffffffffffffffffffffffffffffffffffffffff1673ffffffffffffffffffffffffffffffffffffffff1663ca15e24a8484846040518463ffffffff1660e01b815260040180806020018060200180602001848103845287818151815260200191508051906020019080838360005b8381101561416a57808201518184015260208101905061414f565b50505050905090810190601f1680156141975780820380516001836020036101000a031916815260200191505b50848103835286818151815260200191508051906020019080838360005b838110156141d05780820151818401526020810190506141b5565b50505050905090810190601f1680156141fd5780820380516001836020036101000a031916815260200191505b50848103825285818151815260200191508051906020019080838360005b8381101561423657808201518184015260208101905061421b565b50505050905090810190601f1680156142635780820380516001836020036101000a031916815260200191505b509650505050505050600060405180830381600087803b15801561428657600080fd5b505af115801561429a573d6000803e3d6000fd5b505050506142a7836157d9565b73ffffffffffffffffffffffffffffffffffffffff1663f49c845a6040518163ffffffff1660e01b8152600401600060405180830381600087803b1580156142ee57600080fd5b505af1158015614302573d6000803e3d6000fd5b50505050505050565b6000600360009054906101000a900473ffffffffffffffffffffffffffffffffffffffff1673ffffffffffffffffffffffffffffffffffffffff16635803d619336040518263ffffffff1660e01b8152600401808273ffffffffffffffffffffffffffffffffffffffff1673ffffffffffffffffffffffffffffffffffffffff16815260200191505060206040518083038186803b1580156143ac57600080fd5b505afa1580156143c0573d6000803e3d6000fd5b505050506040513d60208110156143d657600080fd5b8101908080519060200190929190505050905090565b600460009054906101000a900473ffffffffffffffffffffffffffffffffffffffff1673ffffffffffffffffffffffffffffffffffffffff1663dddae88483836040518363ffffffff1660e01b8152600401808060200180602001838103835285818151815260200191508051906020019080838360005b8381101561447f578082015181840152602081019050614464565b50505050905090810190601f1680156144ac5780820380516001836020036101000a031916815260200191505b50838103825284818151815260200191508051906020019080838360005b838110156144e55780820151818401526020810190506144ca565b50505050905090810190601f1680156145125780820380516001836020036101000a031916815260200191505b50945050505050600060405180830381600087803b15801561453357600080fd5b505af1158015614547573d6000803e3d6000fd5b505050505050565b6060600460009054906101000a900473ffffffffffffffffffffffffffffffffffffffff1673ffffffffffffffffffffffffffffffffffffffff1663e0876aa8836040518263ffffffff1660e01b81526004018080602001828103825283818151815260200191508051906020019080838360005b838110156145df5780820151818401526020810190506145c4565b50505050905090810190601f16801561460c5780820380516001836020036101000a031916815260200191505b509250505060006040518083038186803b15801561462957600080fd5b505afa15801561463d573d6000803e3d6000fd5b505050506040513d6000823e3d601f19601f82011682018060405250602081101561466757600080fd5b810190808051604051939291908464010000000082111561468757600080fd5b8382019150602082018581111561469d57600080fd5b82518660018202830111640100000000821117156146ba57600080fd5b8083526020830192505050908051906020019080838360005b838110156146ee5780820151818401526020810190506146d3565b50505050905090810190601f16801561471b5780820380516001836020036101000a031916815260200191505b506040525050509050919050565b6000606080606080600061473b6156b2565b73ffffffffffffffffffffffffffffffffffffffff1663ed01c666886040518263ffffffff1660e01b8152600401808273ffffffffffffffffffffffffffffffffffffffff1673ffffffffffffffffffffffffffffffffffffffff16815260200191505060006040518083038186803b1580156147b757600080fd5b505afa1580156147cb573d6000803e3d6000fd5b505050506040513d6000823e3d601f19601f8201168201806040525060c08110156147f557600080fd5b81019080805190602001909291908051604051939291908464010000000082111561481f57600080fd5b8382019150602082018581111561483557600080fd5b825186600182028301116401000000008211171561485257600080fd5b8083526020830192505050908051906020019080838360005b8381101561488657808201518184015260208101905061486b565b50505050905090810190601f1680156148b35780820380516001836020036101000a031916815260200191505b50604052602001805160405193929190846401000000008211156148d657600080fd5b838201915060208201858111156148ec57600080fd5b825186600182028301116401000000008211171561490957600080fd5b8083526020830192505050908051906020019080838360005b8381101561493d578082015181840152602081019050614922565b50505050905090810190601f16801561496a5780820380516001836020036101000a031916815260200191505b506040526020018051604051939291908464010000000082111561498d57600080fd5b838201915060208201858111156149a357600080fd5b82518660018202830111640100000000821117156149c057600080fd5b8083526020830192505050908051906020019080838360005b838110156149f45780820151818401526020810190506149d9565b50505050905090810190601f168015614a215780820380516001836020036101000a031916815260200191505b5060405260200180516040519392919084640100000000821115614a4457600080fd5b83820191506020820185811115614a5a57600080fd5b8251866001820283011164010000000082111715614a7757600080fd5b8083526020830192505050908051906020019080838360005b83811015614aab578082015181840152602081019050614a90565b50505050905090810190601f168015614ad85780820380516001836020036101000a031916815260200191505b506040526020018051906020019092919050505095509550955095509550955091939550919395565b600460009054906101000a900473ffffffffffffffffffffffffffffffffffffffff1673ffffffffffffffffffffffffffffffffffffffff1663ed3468f783836040518363ffffffff1660e01b8152600401808060200180602001838103835285818151815260200191508051906020019080838360005b83811015614b94578082015181840152602081019050614b79565b50505050905090810190601f168015614bc15780820380516001836020036101000a031916815260200191505b50838103825284818151815260200191508051906020019080838360005b83811015614bfa578082015181840152602081019050614bdf565b50505050905090810190601f168015614c275780820380516001836020036101000a031916815260200191505b50945050505050600060405180830381600087803b158015614c4857600080fd5b505af1158015614c5c573d6000803e3d6000fd5b505050506000809054906101000a900473ffffffffffffffffffffffffffffffffffffffff1673ffffffffffffffffffffffffffffffffffffffff1663e2a4853a8360405160200180807f53706563696d656e2e726563656976652e64617465000000000000000000000081525060150182805190602001908083835b60208310614cfc5780518252602082019150602081019050602083039250614cd9565b6001836020036101000a03801982511681845116808217855250505050505090500191505060405160208183030381529060405280519060200120426040518363ffffffff1660e01b81526004018083815260200182815260200192505050600060405180830381600087803b158015614d7557600080fd5b505af1158015614d89573d6000803e3d6000fd5b505050505050565b6000809054906101000a900473ffffffffffffffffffffffffffffffffffffffff1673ffffffffffffffffffffffffffffffffffffffff166321f8a7218260405160200180807f53706563696d656e2e6f776e6572000000000000000000000000000000000000815250600e0182805190602001908083835b60208310614e2d5780518252602082019150602081019050602083039250614e0a565b6001836020036101000a038019825116818451168082178552505050505050905001915050604051602081830303815290604052805190602001206040518263ffffffff1660e01b81526004018082815260200191505060206040518083038186803b158015614e9c57600080fd5b505afa158015614eb0573d6000803e3d6000fd5b505050506040513d6020811015614ec657600080fd5b810190808051906020019092919050505073ffffffffffffffffffffffffffffffffffffffff163373ffffffffffffffffffffffffffffffffffffffff1614614f77576040517f08c379a00000000000000000000000000000000000000000000000000000000081526004018080602001828103825260138152602001807f4f6e6c79206f776e65722073706563696d656e0000000000000000000000000081525060200191505060405180910390fd5b600460009054906101000a900473ffffffffffffffffffffffffffffffffffffffff1673ffffffffffffffffffffffffffffffffffffffff166363a88bcf826040518263ffffffff1660e01b8152600401808060200180602001838103835284818151815260200191508051906020019080838360005b83811015615009578082015181840152602081019050614fee565b50505050905090810190601f1680156150365780820380516001836020036101000a031916815260200191505b50838103825260088152602001807f7265636569766564000000000000000000000000000000000000000000000000815250602001935050505060206040518083038186803b15801561508857600080fd5b505afa15801561509c573d6000803e3d6000fd5b505050506040513d60208110156150b257600080fd5b8101908080519060200190929190505050615135576040517f08c379a00000000000000000000000000000000000000000000000000000000081526004018080602001828103825260168152602001807f4f6e6c792072656365697665642053706563696d656e0000000000000000000081525060200191505060405180910390fd5b4262093a806000809054906101000a900473ffffffffffffffffffffffffffffffffffffffff1673ffffffffffffffffffffffffffffffffffffffff1663bd02d0f58460405160200180807f53706563696d656e2e726563656976652e64617465000000000000000000000081525060150182805190602001908083835b602083106151d657805182526020820191506020810190506020830392506151b3565b6001836020036101000a038019825116818451168082178552505050505050905001915050604051602081830303815290604052805190602001206040518263ffffffff1660e01b81526004018082815260200191505060206040518083038186803b15801561524557600080fd5b505afa158015615259573d6000803e3d6000fd5b505050506040513d602081101561526f57600080fd5b810190808051906020019092919050505001106152f4576040517f08c379a00000000000000000000000000000000000000000000000000000000081526004018080602001828103825260158152602001807f616674657220372064617973207265636569766564000000000000000000000081525060200191505060405180910390fd5b600460009054906101000a900473ffffffffffffffffffffffffffffffffffffffff1673ffffffffffffffffffffffffffffffffffffffff1663fe5f2e88826040518263ffffffff1660e01b81526004018080602001828103825283818151815260200191508051906020019080838360005b83811015615382578082015181840152602081019050615367565b50505050905090810190601f1680156153af5780820380516001836020036101000a031916815260200191505b5092505050600060405180830381600087803b1580156153ce57600080fd5b505af11580156153e2573d6000803e3d6000fd5b505050506153ef816157d9565b73ffffffffffffffffffffffffffffffffffffffff16634bd7d0816040518163ffffffff1660e01b8152600401600060405180830381600087803b15801561543657600080fd5b505af115801561544a573d6000803e3d6000fd5b5050505050565b6000806000809054906101000a900473ffffffffffffffffffffffffffffffffffffffff1673ffffffffffffffffffffffffffffffffffffffff166321f8a72160405160200180807f636f6e74726163742e6164647265737300000000000000000000000000000000815250601001807f457363726f77466163746f727900000000000000000000000000000000000000815250600d019050604051602081830303815290604052805190602001206040518263ffffffff1660e01b81526004018082815260200191505060206040518083038186803b15801561553457600080fd5b505afa158015615548573d6000803e3d6000fd5b505050506040513d602081101561555e57600080fd5b81019080805190602001909291905050509050600073ffffffffffffffffffffffffffffffffffffffff168173ffffffffffffffffffffffffffffffffffffffff16146156a95760008190508073ffffffffffffffffffffffffffffffffffffffff1663c36176508787876040518463ffffffff1660e01b8152600401808473ffffffffffffffffffffffffffffffffffffffff1673ffffffffffffffffffffffffffffffffffffffff1681526020018373ffffffffffffffffffffffffffffffffffffffff1673ffffffffffffffffffffffffffffffffffffffff1681526020018281526020019350505050602060405180830381600087803b15801561566557600080fd5b505af1158015615679573d6000803e3d6000fd5b505050506040513d602081101561568f57600080fd5b8101908080519060200190929190505050925050506156ab565b505b9392505050565b6000806000809054906101000a900473ffffffffffffffffffffffffffffffffffffffff1673ffffffffffffffffffffffffffffffffffffffff166321f8a72160405160200180807f636f6e74726163742e6164647265737300000000000000000000000000000000815250601001807f4c616200000000000000000000000000000000000000000000000000000000008152506003019050604051602081830303815290604052805190602001206040518263ffffffff1660e01b81526004018082815260200191505060206040518083038186803b15801561579557600080fd5b505afa1580156157a9573d6000803e3d6000fd5b505050506040513d60208110156157bf57600080fd5b810190808051906020019092919050505090508091505090565b6000806157e58361369a565b905060008190508092505050919050565b828054600181600116156101000203166002900490600052602060002090601f016020900481019282601f1061583757805160ff1916838001178555615865565b82800160010185558215615865579182015b82811115615864578251825591602001919060010190615849565b5b5090506158729190615876565b5090565b61589891905b8082111561589457600081600090555060010161587c565b5090565b9056fea265627a7a72315820be45f95686e6ab6f53f99ebe2705bf730832b08fe986fb779aeb876e1441430d64736f6c63430005100032",
  "source": "pragma solidity ^0.5.16;\r\n\r\n\r\nimport \"./common/Base.sol\";\r\nimport \"./common/SafeMath.sol\";\r\nimport \"./common/Address.sol\";\r\n\r\nimport \"./Account.sol\";\r\nimport \"./SpecimenTracking.sol\";\r\nimport \"./Specimen.sol\";\r\nimport \"./Location.sol\";\r\nimport \"./EscrowFactory.sol\";\r\nimport \"./Escrow.sol\";\r\nimport \"./Lab.sol\";\r\n\r\ncontract Degenics is Base {\r\n\r\n    Location location;\r\n    Account account;\r\n    Specimen specimen;\r\n    SpecimenTracking specimenTracking;\r\n\r\n    mapping(address => string)  private lastNumber;\r\n\r\n\r\n    event NewLab(address account, string name, string country, string city);\r\n    event NewService(address labAccount, string name, string service);\r\n    event NewSpecimen(address labAccount, string Code);\r\n\r\n    \r\n    constructor(address _storage, address _account, address _specimen, address _specimenTracking, address _location ) public Base(_storage) {\r\n        location = Location(_location);\r\n        account = Account(_account);\r\n        specimen = Specimen(_specimen);\r\n        specimenTracking = SpecimenTracking(_specimenTracking);\r\n    }\r\n\r\n    \r\n\r\n    function labCount(string memory country, string memory city) public view returns(uint){\r\n        return  eternalStorage.getUint(keccak256(abi.encodePacked(\"lab.location\",country, city)));\r\n    }\r\n\r\n    function labByIndex(string memory _country, string memory _city, uint index) public view \r\n        returns(address labAccount, string memory name, string memory country, string memory city, \r\n        string memory additionalData, bool active){\r\n        \r\n        labAccount = eternalStorage.getAddress(keccak256(abi.encodePacked(\"lab.location\", _country,_city, index)));\r\n        return labByAccount(labAccount);\r\n    }\r\n\r\n    function labByAccount(address _account) public view \r\n        returns(address labAccount, string memory name, string memory country, string memory city,\r\n        string memory additionalData, bool active){\r\n        \r\n        return getLabInstance().labByAccount(_account);\r\n    }\r\n\r\n    function serviceCount(address labAccount) public view returns(uint){\r\n        return eternalStorage.getUint(keccak256(abi.encodePacked(\"lab.service.count\", labAccount)));\r\n    }\r\n\r\n    \r\n    function serviceByIndex(address labAccount, uint index) public view \r\n    returns(string memory code, string memory serviceName, string memory description, uint price, string memory additionalData, \r\n    bool active){\r\n        \r\n        return getLabInstance().serviceByIndex(labAccount, index);\r\n    }\r\n\r\n    function registerSpecimen(address labAccount, string memory serviceCode, string memory pubKey) public {\r\n        \r\n        string memory number = specimen.registerSpecimen(msg.sender, labAccount, serviceCode);\r\n        address escrow = createEscrow(msg.sender, labAccount, eternalStorage.getUint(keccak256(abi.encodePacked(\"lab.service.price\", labAccount, serviceCode))));\r\n\r\n        eternalStorage.setAddress(keccak256(abi.encodePacked(\"Specimen.escrow\", number)),  escrow); \r\n        lastNumber[msg.sender]  = number;\r\n        if(bytes(eternalStorage.getString(keccak256(abi.encodePacked(\"pubkey\", msg.sender)))).length == 0){\r\n            eternalStorage.setString(keccak256(abi.encodePacked(\"pubkey\", msg.sender)),  pubKey); \r\n        }        \r\n        emit NewSpecimen(labAccount, serviceCode);\r\n    }\r\n\r\n    function getLastNumber() public view returns(string memory){\r\n        return lastNumber[msg.sender];\r\n    }\r\n\r\n    function specimenCount() public view returns(uint){\r\n        return specimen.specimenCount(msg.sender);\r\n    }\r\n\r\n    function specimenByNumber(string memory _number) public view returns(\r\n        string memory number, address owner, address labAccount, string memory serviceCode, \r\n        uint timestamp, string memory status, string memory pubkey){  \r\n        (number, owner, labAccount, serviceCode, timestamp, status)  =  specimen.specimenByNumber(_number);\r\n        pubkey = eternalStorage.getString(keccak256(abi.encodePacked(\"pubkey\", owner)));\r\n        return (number, owner, labAccount, serviceCode, timestamp, status, pubkey);\r\n    }\r\n\r\n    function specimenByIndex(uint index) public view returns(\r\n        string memory number,address owner, address labAccount, string memory serviceCode, \r\n        uint timestamp, string memory status, string memory pubkey){        \r\n        string memory number =  eternalStorage.getString(keccak256(abi.encodePacked(\"Specimen\",msg.sender, index )));   \r\n        return specimenByNumber(number);\r\n    }\r\n\r\n    function getEscrow(string memory number) public view returns(address){\r\n        return eternalStorage.getAddress(keccak256(abi.encodePacked(\"Specimen.escrow\", number))); \r\n    }\r\n\r\n    function sendSpecimen(string memory number, string memory remark) public {        \r\n        specimenTracking.sendSpecimen(number, remark);\r\n    }\r\n\r\n    function receiveSpecimen(string memory number, string memory remark) public {\r\n        specimenTracking.receiveSpecimen(number, remark);\r\n        eternalStorage.setUint(keccak256(abi.encodePacked(\"Specimen.receive.date\", number)), now); \r\n    }\r\n\r\n    function rejectSpecimen(string memory number, string memory remark) public {\r\n        specimenTracking.rejectSpecimen(number, remark);\r\n    }\r\n\r\n    function analysisSucces(string memory number, string memory file, string memory remark) public {\r\n        require( now <= (eternalStorage.getUint(keccak256(abi.encodePacked(\"Specimen.receive.date\", number))) +  1 weeks), \r\n            \"only valid 7 days after receive\"  );\r\n        specimenTracking.analysisSucces(number, file, remark);\r\n        getEscrowInstance(number).forwardToSeller();\r\n    }\r\n\r\n    function getFile(string memory number) public view returns(string memory file){\r\n        return specimenTracking.getFile(number);\r\n    }\r\n\r\n  \r\n\r\n    function refund(string memory number) public{\r\n        require(msg.sender == eternalStorage.getAddress(keccak256(abi.encodePacked( \"Specimen.owner\",number ))), \"Only owner specimen\");\r\n        require(specimenTracking.checkStatus(number,\"received\"), \"Only received Specimen\");\r\n        require(\r\n            (eternalStorage.getUint(keccak256(abi.encodePacked(\"Specimen.receive.date\", number))) +  1 weeks)  < now  , \"after 7 days received\" );\r\n        specimenTracking.refund(number);\r\n        getEscrowInstance(number).refundToBuyer();\r\n    }\r\n\r\n    function escrowBalance(string memory number) internal view returns(uint){\r\n        address escrow = eternalStorage.getAddress(keccak256(abi.encodePacked(\"Specimen.escrow\", number)));\r\n        return escrow.balance;\r\n    }\r\n\r\n    function createEscrow(address buyer, address seller, uint amount) internal returns(address){\r\n       address _address = eternalStorage.getAddress(keccak256(abi.encodePacked(\"contract.address\", \"EscrowFactory\")));\r\n       if(_address != address(0)){\r\n           EscrowFactory ef = EscrowFactory(_address);\r\n           return ef.createEscrow(buyer, seller, amount);\r\n       }\r\n    }\r\n\r\n    function emitNewLab(address _account, string memory name, string memory country, string memory city)public {\r\n        emit NewLab(_account, name, country, city);\r\n    }\r\n\r\n    function emitNewService(address labAccount, string memory name, string memory service)public {\r\n        emit NewService(labAccount, name, service);\r\n    }\r\n\r\n    function getEscrowInstance(string memory number) internal returns(Escrow){\r\n        address payable escrowWallet = address(uint160(getEscrow(number)));\r\n        Escrow instance = Escrow(escrowWallet);\r\n        return instance;\r\n    }\r\n\r\n    function getLabInstance()internal view returns (Lab){\r\n        Lab lab = Lab(eternalStorage.getAddress(keccak256(abi.encodePacked(\"contract.address\", \"Lab\"))));\r\n        return lab;\r\n    }\r\n\r\n    \r\n\r\n\r\n}\r\n\r\n//host guitar cool sick provide magic enhance attend faith woman method episode",
  "sourcePath": "D:\\projects\\degenics\\degenics-smart-contract\\contracts\\Degenics.sol",
  "compiler": {
    "name": "solc",
    "version": "0.5.16+commit.9c3226ce.Emscripten.clang"
  },
  "schemaVersion": "3.0.23",
  "updatedAt": "2021-01-19T13:52:35.868Z",
  "networkType": "ethereum",
  "devdoc": {
    "methods": {}
  },
  "userdoc": {
    "methods": {}
  }
}