{
  "contractName": "Degenics",
  "abi": [
    {
      "inputs": [
        {
          "internalType": "address",
          "name": "_storage",
          "type": "address"
        },
        {
          "internalType": "address",
          "name": "_account",
          "type": "address"
        },
        {
          "internalType": "address",
          "name": "_specimen",
          "type": "address"
        },
        {
          "internalType": "address",
          "name": "_specimenTracking",
          "type": "address"
        },
        {
          "internalType": "address",
          "name": "_location",
          "type": "address"
        }
      ],
      "payable": false,
      "stateMutability": "nonpayable",
      "type": "constructor"
    },
    {
      "anonymous": false,
      "inputs": [
        {
          "indexed": false,
          "internalType": "address",
          "name": "account",
          "type": "address"
        },
        {
          "indexed": false,
          "internalType": "string",
          "name": "name",
          "type": "string"
        },
        {
          "indexed": false,
          "internalType": "string",
          "name": "country",
          "type": "string"
        },
        {
          "indexed": false,
          "internalType": "string",
          "name": "city",
          "type": "string"
        }
      ],
      "name": "NewLab",
      "type": "event"
    },
    {
      "anonymous": false,
      "inputs": [
        {
          "indexed": false,
          "internalType": "address",
          "name": "labAccount",
          "type": "address"
        },
        {
          "indexed": false,
          "internalType": "string",
          "name": "name",
          "type": "string"
        },
        {
          "indexed": false,
          "internalType": "string",
          "name": "service",
          "type": "string"
        }
      ],
      "name": "NewService",
      "type": "event"
    },
    {
      "anonymous": false,
      "inputs": [
        {
          "indexed": false,
          "internalType": "address",
          "name": "labAccount",
          "type": "address"
        },
        {
          "indexed": false,
          "internalType": "string",
          "name": "Code",
          "type": "string"
        }
      ],
      "name": "NewSpecimen",
      "type": "event"
    },
    {
      "constant": true,
      "inputs": [],
      "name": "eternalStorage",
      "outputs": [
        {
          "internalType": "contract EternalStorageInterface",
          "name": "",
          "type": "address"
        }
      ],
      "payable": false,
      "stateMutability": "view",
      "type": "function"
    },
    {
      "constant": true,
      "inputs": [
        {
          "internalType": "string",
          "name": "country",
          "type": "string"
        },
        {
          "internalType": "string",
          "name": "city",
          "type": "string"
        }
      ],
      "name": "labCount",
      "outputs": [
        {
          "internalType": "uint256",
          "name": "",
          "type": "uint256"
        }
      ],
      "payable": false,
      "stateMutability": "view",
      "type": "function"
    },
    {
      "constant": true,
      "inputs": [
        {
          "internalType": "string",
          "name": "_country",
          "type": "string"
        },
        {
          "internalType": "string",
          "name": "_city",
          "type": "string"
        },
        {
          "internalType": "uint256",
          "name": "index",
          "type": "uint256"
        }
      ],
      "name": "labByIndex",
      "outputs": [
        {
          "internalType": "address",
          "name": "labAccount",
          "type": "address"
        },
        {
          "internalType": "string",
          "name": "name",
          "type": "string"
        },
        {
          "internalType": "string",
          "name": "country",
          "type": "string"
        },
        {
          "internalType": "string",
          "name": "city",
          "type": "string"
        },
        {
          "internalType": "string",
          "name": "additionalData",
          "type": "string"
        },
        {
          "internalType": "bool",
          "name": "active",
          "type": "bool"
        }
      ],
      "payable": false,
      "stateMutability": "view",
      "type": "function"
    },
    {
      "constant": true,
      "inputs": [
        {
          "internalType": "address",
          "name": "_account",
          "type": "address"
        }
      ],
      "name": "labByAccount",
      "outputs": [
        {
          "internalType": "address",
          "name": "labAccount",
          "type": "address"
        },
        {
          "internalType": "string",
          "name": "name",
          "type": "string"
        },
        {
          "internalType": "string",
          "name": "country",
          "type": "string"
        },
        {
          "internalType": "string",
          "name": "city",
          "type": "string"
        },
        {
          "internalType": "string",
          "name": "additionalData",
          "type": "string"
        },
        {
          "internalType": "bool",
          "name": "active",
          "type": "bool"
        }
      ],
      "payable": false,
      "stateMutability": "view",
      "type": "function"
    },
    {
      "constant": true,
      "inputs": [
        {
          "internalType": "address",
          "name": "labAccount",
          "type": "address"
        }
      ],
      "name": "serviceCount",
      "outputs": [
        {
          "internalType": "uint256",
          "name": "",
          "type": "uint256"
        }
      ],
      "payable": false,
      "stateMutability": "view",
      "type": "function"
    },
    {
      "constant": true,
      "inputs": [
        {
          "internalType": "address",
          "name": "labAccount",
          "type": "address"
        },
        {
          "internalType": "uint256",
          "name": "index",
          "type": "uint256"
        }
      ],
      "name": "serviceByIndex",
      "outputs": [
        {
          "internalType": "string",
          "name": "code",
          "type": "string"
        },
        {
          "internalType": "string",
          "name": "serviceName",
          "type": "string"
        },
        {
          "internalType": "string",
          "name": "description",
          "type": "string"
        },
        {
          "internalType": "uint256",
          "name": "price",
          "type": "uint256"
        },
        {
          "internalType": "string",
          "name": "additionalData",
          "type": "string"
        },
        {
          "internalType": "bool",
          "name": "active",
          "type": "bool"
        }
      ],
      "payable": false,
      "stateMutability": "view",
      "type": "function"
    },
    {
      "constant": false,
      "inputs": [
        {
          "internalType": "address",
          "name": "labAccount",
          "type": "address"
        },
        {
          "internalType": "string",
          "name": "serviceCode",
          "type": "string"
        },
        {
          "internalType": "string",
          "name": "pubKey",
          "type": "string"
        }
      ],
      "name": "registerSpecimen",
      "outputs": [],
      "payable": false,
      "stateMutability": "nonpayable",
      "type": "function"
    },
    {
      "constant": true,
      "inputs": [],
      "name": "getLastNumber",
      "outputs": [
        {
          "internalType": "string",
          "name": "",
          "type": "string"
        }
      ],
      "payable": false,
      "stateMutability": "view",
      "type": "function"
    },
    {
      "constant": true,
      "inputs": [],
      "name": "specimenCount",
      "outputs": [
        {
          "internalType": "uint256",
          "name": "",
          "type": "uint256"
        }
      ],
      "payable": false,
      "stateMutability": "view",
      "type": "function"
    },
    {
      "constant": true,
      "inputs": [
        {
          "internalType": "string",
          "name": "_number",
          "type": "string"
        }
      ],
      "name": "specimenByNumber",
      "outputs": [
        {
          "internalType": "string",
          "name": "number",
          "type": "string"
        },
        {
          "internalType": "address",
          "name": "owner",
          "type": "address"
        },
        {
          "internalType": "address",
          "name": "labAccount",
          "type": "address"
        },
        {
          "internalType": "string",
          "name": "serviceCode",
          "type": "string"
        },
        {
          "internalType": "uint256",
          "name": "timestamp",
          "type": "uint256"
        },
        {
          "internalType": "string",
          "name": "status",
          "type": "string"
        },
        {
          "internalType": "string",
          "name": "pubkey",
          "type": "string"
        }
      ],
      "payable": false,
      "stateMutability": "view",
      "type": "function"
    },
    {
      "constant": true,
      "inputs": [
        {
          "internalType": "uint256",
          "name": "index",
          "type": "uint256"
        }
      ],
      "name": "specimenByIndex",
      "outputs": [
        {
          "internalType": "string",
          "name": "number",
          "type": "string"
        },
        {
          "internalType": "address",
          "name": "owner",
          "type": "address"
        },
        {
          "internalType": "address",
          "name": "labAccount",
          "type": "address"
        },
        {
          "internalType": "string",
          "name": "serviceCode",
          "type": "string"
        },
        {
          "internalType": "uint256",
          "name": "timestamp",
          "type": "uint256"
        },
        {
          "internalType": "string",
          "name": "status",
          "type": "string"
        },
        {
          "internalType": "string",
          "name": "pubkey",
          "type": "string"
        }
      ],
      "payable": false,
      "stateMutability": "view",
      "type": "function"
    },
    {
      "constant": true,
      "inputs": [
        {
          "internalType": "string",
          "name": "number",
          "type": "string"
        }
      ],
      "name": "getEscrow",
      "outputs": [
        {
          "internalType": "address",
          "name": "",
          "type": "address"
        }
      ],
      "payable": false,
      "stateMutability": "view",
      "type": "function"
    },
    {
      "constant": false,
      "inputs": [
        {
          "internalType": "string",
          "name": "number",
          "type": "string"
        },
        {
          "internalType": "string",
          "name": "remark",
          "type": "string"
        }
      ],
      "name": "sendSpecimen",
      "outputs": [],
      "payable": false,
      "stateMutability": "nonpayable",
      "type": "function"
    },
    {
      "constant": false,
      "inputs": [
        {
          "internalType": "string",
          "name": "number",
          "type": "string"
        },
        {
          "internalType": "string",
          "name": "remark",
          "type": "string"
        }
      ],
      "name": "receiveSpecimen",
      "outputs": [],
      "payable": false,
      "stateMutability": "nonpayable",
      "type": "function"
    },
    {
      "constant": false,
      "inputs": [
        {
          "internalType": "string",
          "name": "number",
          "type": "string"
        },
        {
          "internalType": "string",
          "name": "remark",
          "type": "string"
        }
      ],
      "name": "rejectSpecimen",
      "outputs": [],
      "payable": false,
      "stateMutability": "nonpayable",
      "type": "function"
    },
    {
      "constant": false,
      "inputs": [
        {
          "internalType": "string",
          "name": "number",
          "type": "string"
        },
        {
          "internalType": "string",
          "name": "file",
          "type": "string"
        },
        {
          "internalType": "string",
          "name": "remark",
          "type": "string"
        }
      ],
      "name": "analysisSucces",
      "outputs": [],
      "payable": false,
      "stateMutability": "nonpayable",
      "type": "function"
    },
    {
      "constant": true,
      "inputs": [
        {
          "internalType": "string",
          "name": "number",
          "type": "string"
        }
      ],
      "name": "getFile",
      "outputs": [
        {
          "internalType": "string",
          "name": "file",
          "type": "string"
        }
      ],
      "payable": false,
      "stateMutability": "view",
      "type": "function"
    },
    {
      "constant": false,
      "inputs": [
        {
          "internalType": "string",
          "name": "number",
          "type": "string"
        },
        {
          "internalType": "string",
          "name": "remark",
          "type": "string"
        }
      ],
      "name": "analysisFail",
      "outputs": [],
      "payable": false,
      "stateMutability": "nonpayable",
      "type": "function"
    },
    {
      "constant": false,
      "inputs": [
        {
          "internalType": "string",
          "name": "number",
          "type": "string"
        }
      ],
      "name": "refund",
      "outputs": [],
      "payable": false,
      "stateMutability": "nonpayable",
      "type": "function"
    },
    {
      "constant": false,
      "inputs": [
        {
          "internalType": "address",
          "name": "_account",
          "type": "address"
        },
        {
          "internalType": "string",
          "name": "name",
          "type": "string"
        },
        {
          "internalType": "string",
          "name": "country",
          "type": "string"
        },
        {
          "internalType": "string",
          "name": "city",
          "type": "string"
        }
      ],
      "name": "emitNewLab",
      "outputs": [],
      "payable": false,
      "stateMutability": "nonpayable",
      "type": "function"
    },
    {
      "constant": false,
      "inputs": [
        {
          "internalType": "address",
          "name": "labAccount",
          "type": "address"
        },
        {
          "internalType": "string",
          "name": "name",
          "type": "string"
        },
        {
          "internalType": "string",
          "name": "service",
          "type": "string"
        }
      ],
      "name": "emitNewService",
      "outputs": [],
      "payable": false,
      "stateMutability": "nonpayable",
      "type": "function"
    }
  ],
  "bytecode": "0x608060405260008060006101000a81548173ffffffffffffffffffffffffffffffffffffffff021916908373ffffffffffffffffffffffffffffffffffffffff1602179055503480156200005257600080fd5b5060405162005c2938038062005c29833981810160405260a08110156200007857600080fd5b81019080805190602001909291908051906020019092919080519060200190929190805190602001909291908051906020019092919050505084806000806101000a81548173ffffffffffffffffffffffffffffffffffffffff021916908373ffffffffffffffffffffffffffffffffffffffff1602179055505080600160006101000a81548173ffffffffffffffffffffffffffffffffffffffff021916908373ffffffffffffffffffffffffffffffffffffffff16021790555083600260006101000a81548173ffffffffffffffffffffffffffffffffffffffff021916908373ffffffffffffffffffffffffffffffffffffffff16021790555082600360006101000a81548173ffffffffffffffffffffffffffffffffffffffff021916908373ffffffffffffffffffffffffffffffffffffffff16021790555081600460006101000a81548173ffffffffffffffffffffffffffffffffffffffff021916908373ffffffffffffffffffffffffffffffffffffffff1602179055505050505050615a1d806200020c6000396000f3fe608060405234801561001057600080fd5b50600436106101375760003560e01c80639c99c7c9116100b8578063d97b0d3f1161007c578063d97b0d3f146118ed578063dddae8841461190b578063e0876aa814611a5d578063ed01c66614611b91578063ed3468f714611dd0578063fe5f2e8814611f2257610137565b80639c99c7c914610eb15780639cd8f25614611109578063aa0889371461125b578063ba3eb0e1146113ad578063ca15e24a1461170457610137565b8063905110d8116100ff578063905110d8146108ee578063940c028814610b0b578063969631d514610b6357806398ff9c5414610c5e578063996d5fc314610ca857610137565b8063103ed5b31461013c57806312af942e1461042157806343034f9614610593578063682c0fc1146106f95780638280fc3a1461077c575b600080fd5b6101f56004803603602081101561015257600080fd5b810190808035906020019064010000000081111561016f57600080fd5b82018360208201111561018157600080fd5b803590602001918460018302840111640100000000831117156101a357600080fd5b91908080601f016020809104026020016040519081016040528093929190818152602001838380828437600081840152601f19601f820116905080830192505050505050509192919290505050611fdd565b60405180806020018873ffffffffffffffffffffffffffffffffffffffff1673ffffffffffffffffffffffffffffffffffffffff1681526020018773ffffffffffffffffffffffffffffffffffffffff1673ffffffffffffffffffffffffffffffffffffffff16815260200180602001868152602001806020018060200185810385528c818151815260200191508051906020019080838360005b838110156102ab578082015181840152602081019050610290565b50505050905090810190601f1680156102d85780820380516001836020036101000a031916815260200191505b50858103845289818151815260200191508051906020019080838360005b838110156103115780820151818401526020810190506102f6565b50505050905090810190601f16801561033e5780820380516001836020036101000a031916815260200191505b50858103835287818151815260200191508051906020019080838360005b8381101561037757808201518184015260208101905061035c565b50505050905090810190601f1680156103a45780820380516001836020036101000a031916815260200191505b50858103825286818151815260200191508051906020019080838360005b838110156103dd5780820151818401526020810190506103c2565b50505050905090810190601f16801561040a5780820380516001836020036101000a031916815260200191505b509b50505050505050505050505060405180910390f35b6105916004803603606081101561043757600080fd5b81019080803573ffffffffffffffffffffffffffffffffffffffff1690602001909291908035906020019064010000000081111561047457600080fd5b82018360208201111561048657600080fd5b803590602001918460018302840111640100000000831117156104a857600080fd5b91908080601f016020809104026020016040519081016040528093929190818152602001838380828437600081840152601f19601f8201169050808301925050505050505091929192908035906020019064010000000081111561050b57600080fd5b82018360208201111561051d57600080fd5b8035906020019184600183028401116401000000008311171561053f57600080fd5b91908080601f016020809104026020016040519081016040528093929190818152602001838380828437600081840152601f19601f820116905080830192505050505050509192919290505050612568565b005b6106e3600480360360408110156105a957600080fd5b81019080803590602001906401000000008111156105c657600080fd5b8201836020820111156105d857600080fd5b803590602001918460018302840111640100000000831117156105fa57600080fd5b91908080601f016020809104026020016040519081016040528093929190818152602001838380828437600081840152601f19601f8201169050808301925050505050505091929192908035906020019064010000000081111561065d57600080fd5b82018360208201111561066f57600080fd5b8035906020019184600183028401116401000000008311171561069157600080fd5b91908080601f016020809104026020016040519081016040528093929190818152602001838380828437600081840152601f19601f8201169050808301925050505050505091929192905050506126aa565b6040518082815260200191505060405180910390f35b61070161284d565b6040518080602001828103825283818151815260200191508051906020019080838360005b83811015610741578082015181840152602081019050610726565b50505050905090810190601f16801561076e5780820380516001836020036101000a031916815260200191505b509250505060405180910390f35b6108ec6004803603606081101561079257600080fd5b81019080803573ffffffffffffffffffffffffffffffffffffffff169060200190929190803590602001906401000000008111156107cf57600080fd5b8201836020820111156107e157600080fd5b8035906020019184600183028401116401000000008311171561080357600080fd5b91908080601f016020809104026020016040519081016040528093929190818152602001838380828437600081840152601f19601f8201169050808301925050505050505091929192908035906020019064010000000081111561086657600080fd5b82018360208201111561087857600080fd5b8035906020019184600183028401116401000000008311171561089a57600080fd5b91908080601f016020809104026020016040519081016040528093929190818152602001838380828437600081840152601f19601f82011690508083019250505050505050919291929050505061292c565b005b61093a6004803603604081101561090457600080fd5b81019080803573ffffffffffffffffffffffffffffffffffffffff169060200190929190803590602001909291905050506132e2565b60405180806020018060200180602001878152602001806020018615151515815260200185810385528b818151815260200191508051906020019080838360005b8381101561099657808201518184015260208101905061097b565b50505050905090810190601f1680156109c35780820380516001836020036101000a031916815260200191505b5085810384528a818151815260200191508051906020019080838360005b838110156109fc5780820151818401526020810190506109e1565b50505050905090810190601f168015610a295780820380516001836020036101000a031916815260200191505b50858103835289818151815260200191508051906020019080838360005b83811015610a62578082015181840152602081019050610a47565b50505050905090810190601f168015610a8f5780820380516001836020036101000a031916815260200191505b50858103825287818151815260200191508051906020019080838360005b83811015610ac8578082015181840152602081019050610aad565b50505050905090810190601f168015610af55780820380516001836020036101000a031916815260200191505b509a505050505050505050505060405180910390f35b610b4d60048036036020811015610b2157600080fd5b81019080803573ffffffffffffffffffffffffffffffffffffffff1690602001909291905050506136c4565b6040518082815260200191505060405180910390f35b610c1c60048036036020811015610b7957600080fd5b8101908080359060200190640100000000811115610b9657600080fd5b820183602082011115610ba857600080fd5b80359060200191846001830284011164010000000083111715610bca57600080fd5b91908080601f016020809104026020016040519081016040528093929190818152602001838380828437600081840152601f19601f8201169050808301925050505050505091929192905050506137f7565b604051808273ffffffffffffffffffffffffffffffffffffffff1673ffffffffffffffffffffffffffffffffffffffff16815260200191505060405180910390f35b610c66613946565b604051808273ffffffffffffffffffffffffffffffffffffffff1673ffffffffffffffffffffffffffffffffffffffff16815260200191505060405180910390f35b610eaf60048036036080811015610cbe57600080fd5b81019080803573ffffffffffffffffffffffffffffffffffffffff16906020019092919080359060200190640100000000811115610cfb57600080fd5b820183602082011115610d0d57600080fd5b80359060200191846001830284011164010000000083111715610d2f57600080fd5b91908080601f016020809104026020016040519081016040528093929190818152602001838380828437600081840152601f19601f82011690508083019250505050505050919291929080359060200190640100000000811115610d9257600080fd5b820183602082011115610da457600080fd5b80359060200191846001830284011164010000000083111715610dc657600080fd5b91908080601f016020809104026020016040519081016040528093929190818152602001838380828437600081840152601f19601f82011690508083019250505050505050919291929080359060200190640100000000811115610e2957600080fd5b820183602082011115610e3b57600080fd5b80359060200191846001830284011164010000000083111715610e5d57600080fd5b91908080601f016020809104026020016040519081016040528093929190818152602001838380828437600081840152601f19601f82011690508083019250505050505050919291929050505061396b565b005b610edd60048036036020811015610ec757600080fd5b8101908080359060200190929190505050613b1b565b60405180806020018873ffffffffffffffffffffffffffffffffffffffff1673ffffffffffffffffffffffffffffffffffffffff1681526020018773ffffffffffffffffffffffffffffffffffffffff1673ffffffffffffffffffffffffffffffffffffffff16815260200180602001868152602001806020018060200185810385528c818151815260200191508051906020019080838360005b83811015610f93578082015181840152602081019050610f78565b50505050905090810190601f168015610fc05780820380516001836020036101000a031916815260200191505b50858103845289818151815260200191508051906020019080838360005b83811015610ff9578082015181840152602081019050610fde565b50505050905090810190601f1680156110265780820380516001836020036101000a031916815260200191505b50858103835287818151815260200191508051906020019080838360005b8381101561105f578082015181840152602081019050611044565b50505050905090810190601f16801561108c5780820380516001836020036101000a031916815260200191505b50858103825286818151815260200191508051906020019080838360005b838110156110c55780820151818401526020810190506110aa565b50505050905090810190601f1680156110f25780820380516001836020036101000a031916815260200191505b509b50505050505050505050505060405180910390f35b6112596004803603604081101561111f57600080fd5b810190808035906020019064010000000081111561113c57600080fd5b82018360208201111561114e57600080fd5b8035906020019184600183028401116401000000008311171561117057600080fd5b91908080601f016020809104026020016040519081016040528093929190818152602001838380828437600081840152601f19601f820116905080830192505050505050509192919290803590602001906401000000008111156111d357600080fd5b8201836020820111156111e557600080fd5b8035906020019184600183028401116401000000008311171561120757600080fd5b91908080601f016020809104026020016040519081016040528093929190818152602001838380828437600081840152601f19601f820116905080830192505050505050509192919290505050613d3e565b005b6113ab6004803603604081101561127157600080fd5b810190808035906020019064010000000081111561128e57600080fd5b8201836020820111156112a057600080fd5b803590602001918460018302840111640100000000831117156112c257600080fd5b91908080601f016020809104026020016040519081016040528093929190818152602001838380828437600081840152601f19601f8201169050808301925050505050505091929192908035906020019064010000000081111561132557600080fd5b82018360208201111561133757600080fd5b8035906020019184600183028401116401000000008311171561135957600080fd5b91908080601f016020809104026020016040519081016040528093929190818152602001838380828437600081840152601f19601f820116905080830192505050505050509192919290505050613ea1565b005b611507600480360360608110156113c357600080fd5b81019080803590602001906401000000008111156113e057600080fd5b8201836020820111156113f257600080fd5b8035906020019184600183028401116401000000008311171561141457600080fd5b91908080601f016020809104026020016040519081016040528093929190818152602001838380828437600081840152601f19601f8201169050808301925050505050505091929192908035906020019064010000000081111561147757600080fd5b82018360208201111561148957600080fd5b803590602001918460018302840111640100000000831117156114ab57600080fd5b91908080601f016020809104026020016040519081016040528093929190818152602001838380828437600081840152601f19601f8201169050808301925050505050505091929192908035906020019092919050505061406c565b604051808773ffffffffffffffffffffffffffffffffffffffff1673ffffffffffffffffffffffffffffffffffffffff168152602001806020018060200180602001806020018615151515815260200185810385528a818151815260200191508051906020019080838360005b8381101561158f578082015181840152602081019050611574565b50505050905090810190601f1680156115bc5780820380516001836020036101000a031916815260200191505b50858103845289818151815260200191508051906020019080838360005b838110156115f55780820151818401526020810190506115da565b50505050905090810190601f1680156116225780820380516001836020036101000a031916815260200191505b50858103835288818151815260200191508051906020019080838360005b8381101561165b578082015181840152602081019050611640565b50505050905090810190601f1680156116885780820380516001836020036101000a031916815260200191505b50858103825287818151815260200191508051906020019080838360005b838110156116c15780820151818401526020810190506116a6565b50505050905090810190601f1680156116ee5780820380516001836020036101000a031916815260200191505b509a505050505050505050505060405180910390f35b6118eb6004803603606081101561171a57600080fd5b810190808035906020019064010000000081111561173757600080fd5b82018360208201111561174957600080fd5b8035906020019184600183028401116401000000008311171561176b57600080fd5b91908080601f016020809104026020016040519081016040528093929190818152602001838380828437600081840152601f19601f820116905080830192505050505050509192919290803590602001906401000000008111156117ce57600080fd5b8201836020820111156117e057600080fd5b8035906020019184600183028401116401000000008311171561180257600080fd5b91908080601f016020809104026020016040519081016040528093929190818152602001838380828437600081840152601f19601f8201169050808301925050505050505091929192908035906020019064010000000081111561186557600080fd5b82018360208201111561187757600080fd5b8035906020019184600183028401116401000000008311171561189957600080fd5b91908080601f016020809104026020016040519081016040528093929190818152602001838380828437600081840152601f19601f82011690508083019250505050505050919291929050505061423a565b005b6118f5614473565b6040518082815260200191505060405180910390f35b611a5b6004803603604081101561192157600080fd5b810190808035906020019064010000000081111561193e57600080fd5b82018360208201111561195057600080fd5b8035906020019184600183028401116401000000008311171561197257600080fd5b91908080601f016020809104026020016040519081016040528093929190818152602001838380828437600081840152601f19601f820116905080830192505050505050509192919290803590602001906401000000008111156119d557600080fd5b8201836020820111156119e757600080fd5b80359060200191846001830284011164010000000083111715611a0957600080fd5b91908080601f016020809104026020016040519081016040528093929190818152602001838380828437600081840152601f19601f820116905080830192505050505050509192919290505050614554565b005b611b1660048036036020811015611a7357600080fd5b8101908080359060200190640100000000811115611a9057600080fd5b820183602082011115611aa257600080fd5b80359060200191846001830284011164010000000083111715611ac457600080fd5b91908080601f016020809104026020016040519081016040528093929190818152602001838380828437600081840152601f19601f8201169050808301925050505050505091929192905050506146b7565b6040518080602001828103825283818151815260200191508051906020019080838360005b83811015611b56578082015181840152602081019050611b3b565b50505050905090810190601f168015611b835780820380516001836020036101000a031916815260200191505b509250505060405180910390f35b611bd360048036036020811015611ba757600080fd5b81019080803573ffffffffffffffffffffffffffffffffffffffff169060200190929190505050614891565b604051808773ffffffffffffffffffffffffffffffffffffffff1673ffffffffffffffffffffffffffffffffffffffff168152602001806020018060200180602001806020018615151515815260200185810385528a818151815260200191508051906020019080838360005b83811015611c5b578082015181840152602081019050611c40565b50505050905090810190601f168015611c885780820380516001836020036101000a031916815260200191505b50858103845289818151815260200191508051906020019080838360005b83811015611cc1578082015181840152602081019050611ca6565b50505050905090810190601f168015611cee5780820380516001836020036101000a031916815260200191505b50858103835288818151815260200191508051906020019080838360005b83811015611d27578082015181840152602081019050611d0c565b50505050905090810190601f168015611d545780820380516001836020036101000a031916815260200191505b50858103825287818151815260200191508051906020019080838360005b83811015611d8d578082015181840152602081019050611d72565b50505050905090810190601f168015611dba5780820380516001836020036101000a031916815260200191505b509a505050505050505050505060405180910390f35b611f2060048036036040811015611de657600080fd5b8101908080359060200190640100000000811115611e0357600080fd5b820183602082011115611e1557600080fd5b80359060200191846001830284011164010000000083111715611e3757600080fd5b91908080601f016020809104026020016040519081016040528093929190818152602001838380828437600081840152601f19601f82011690508083019250505050505050919291929080359060200190640100000000811115611e9a57600080fd5b820183602082011115611eac57600080fd5b80359060200191846001830284011164010000000083111715611ece57600080fd5b91908080601f016020809104026020016040519081016040528093929190818152602001838380828437600081840152601f19601f820116905080830192505050505050509192919290505050614c69565b005b611fdb60048036036020811015611f3857600080fd5b8101908080359060200190640100000000811115611f5557600080fd5b820183602082011115611f6757600080fd5b80359060200191846001830284011164010000000083111715611f8957600080fd5b91908080601f016020809104026020016040519081016040528093929190818152602001838380828437600081840152601f19601f820116905080830192505050505050509192919290505050614ef9565b005b606060008060606000606080600360009054906101000a900473ffffffffffffffffffffffffffffffffffffffff1673ffffffffffffffffffffffffffffffffffffffff1663103ed5b3896040518263ffffffff1660e01b81526004018080602001828103825283818151815260200191508051906020019080838360005b8381101561207757808201518184015260208101905061205c565b50505050905090810190601f1680156120a45780820380516001836020036101000a031916815260200191505b509250505060006040518083038186803b1580156120c157600080fd5b505afa1580156120d5573d6000803e3d6000fd5b505050506040513d6000823e3d601f19601f8201168201806040525060c08110156120ff57600080fd5b810190808051604051939291908464010000000082111561211f57600080fd5b8382019150602082018581111561213557600080fd5b825186600182028301116401000000008211171561215257600080fd5b8083526020830192505050908051906020019080838360005b8381101561218657808201518184015260208101905061216b565b50505050905090810190601f1680156121b35780820380516001836020036101000a031916815260200191505b506040526020018051906020019092919080519060200190929190805160405193929190846401000000008211156121ea57600080fd5b8382019150602082018581111561220057600080fd5b825186600182028301116401000000008211171561221d57600080fd5b8083526020830192505050908051906020019080838360005b83811015612251578082015181840152602081019050612236565b50505050905090810190601f16801561227e5780820380516001836020036101000a031916815260200191505b5060405260200180519060200190929190805160405193929190846401000000008211156122ab57600080fd5b838201915060208201858111156122c157600080fd5b82518660018202830111640100000000821117156122de57600080fd5b8083526020830192505050908051906020019080838360005b838110156123125780820151818401526020810190506122f7565b50505050905090810190601f16801561233f5780820380516001836020036101000a031916815260200191505b50604052505050809750819850829950839a50849b50859c505050505050506000809054906101000a900473ffffffffffffffffffffffffffffffffffffffff1673ffffffffffffffffffffffffffffffffffffffff1663986e791a8760405160200180807f7075626b657900000000000000000000000000000000000000000000000000008152506006018273ffffffffffffffffffffffffffffffffffffffff1673ffffffffffffffffffffffffffffffffffffffff1660601b8152601401915050604051602081830303815290604052805190602001206040518263ffffffff1660e01b81526004018082815260200191505060006040518083038186803b15801561244d57600080fd5b505afa158015612461573d6000803e3d6000fd5b505050506040513d6000823e3d601f19601f82011682018060405250602081101561248b57600080fd5b81019080805160405193929190846401000000008211156124ab57600080fd5b838201915060208201858111156124c157600080fd5b82518660018202830111640100000000821117156124de57600080fd5b8083526020830192505050908051906020019080838360005b838110156125125780820151818401526020810190506124f7565b50505050905090810190601f16801561253f5780820380516001836020036101000a031916815260200191505b506040525050509050868686868686869650965096509650965096509650919395979092949650565b7fd9491d9a8b6f9be10814b9a1d01c06052d9a61354c5b8c6d00c53e0839661362838383604051808473ffffffffffffffffffffffffffffffffffffffff1673ffffffffffffffffffffffffffffffffffffffff1681526020018060200180602001838103835285818151815260200191508051906020019080838360005b838110156126025780820151818401526020810190506125e7565b50505050905090810190601f16801561262f5780820380516001836020036101000a031916815260200191505b50838103825284818151815260200191508051906020019080838360005b8381101561266857808201518184015260208101905061264d565b50505050905090810190601f1680156126955780820380516001836020036101000a031916815260200191505b509550505050505060405180910390a1505050565b60008060009054906101000a900473ffffffffffffffffffffffffffffffffffffffff1673ffffffffffffffffffffffffffffffffffffffff1663bd02d0f5848460405160200180807f6c61622e6c6f636174696f6e0000000000000000000000000000000000000000815250600c0183805190602001908083835b602083106127495780518252602082019150602081019050602083039250612726565b6001836020036101000a03801982511681845116808217855250505050505090500182805190602001908083835b6020831061279a5780518252602082019150602081019050602083039250612777565b6001836020036101000a03801982511681845116808217855250505050505090500192505050604051602081830303815290604052805190602001206040518263ffffffff1660e01b81526004018082815260200191505060206040518083038186803b15801561280a57600080fd5b505afa15801561281e573d6000803e3d6000fd5b505050506040513d602081101561283457600080fd5b8101908080519060200190929190505050905092915050565b6060600560003373ffffffffffffffffffffffffffffffffffffffff1673ffffffffffffffffffffffffffffffffffffffff1681526020019081526020016000208054600181600116156101000203166002900480601f0160208091040260200160405190810160405280929190818152602001828054600181600116156101000203166002900480156129225780601f106128f757610100808354040283529160200191612922565b820191906000526020600020905b81548152906001019060200180831161290557829003601f168201915b5050505050905090565b6060600360009054906101000a900473ffffffffffffffffffffffffffffffffffffffff1673ffffffffffffffffffffffffffffffffffffffff1663a250156c3386866040518463ffffffff1660e01b8152600401808473ffffffffffffffffffffffffffffffffffffffff1673ffffffffffffffffffffffffffffffffffffffff1681526020018373ffffffffffffffffffffffffffffffffffffffff1673ffffffffffffffffffffffffffffffffffffffff16815260200180602001828103825283818151815260200191508051906020019080838360005b83811015612a22578082015181840152602081019050612a07565b50505050905090810190601f168015612a4f5780820380516001836020036101000a031916815260200191505b50945050505050600060405180830381600087803b158015612a7057600080fd5b505af1158015612a84573d6000803e3d6000fd5b505050506040513d6000823e3d601f19601f820116820180604052506020811015612aae57600080fd5b8101908080516040519392919084640100000000821115612ace57600080fd5b83820191506020820185811115612ae457600080fd5b8251866001820283011164010000000082111715612b0157600080fd5b8083526020830192505050908051906020019080838360005b83811015612b35578082015181840152602081019050612b1a565b50505050905090810190601f168015612b625780820380516001836020036101000a031916815260200191505b5060405250505090506000612cf433866000809054906101000a900473ffffffffffffffffffffffffffffffffffffffff1673ffffffffffffffffffffffffffffffffffffffff1663bd02d0f5898960405160200180807f6c61622e736572766963652e70726963650000000000000000000000000000008152506011018373ffffffffffffffffffffffffffffffffffffffff1673ffffffffffffffffffffffffffffffffffffffff1660601b815260140182805190602001908083835b60208310612c445780518252602082019150602081019050602083039250612c21565b6001836020036101000a03801982511681845116808217855250505050505090500192505050604051602081830303815290604052805190602001206040518263ffffffff1660e01b81526004018082815260200191505060206040518083038186803b158015612cb457600080fd5b505afa158015612cc8573d6000803e3d6000fd5b505050506040513d6020811015612cde57600080fd5b810190808051906020019092919050505061556d565b90506000809054906101000a900473ffffffffffffffffffffffffffffffffffffffff1673ffffffffffffffffffffffffffffffffffffffff1663ca446dd98360405160200180807f53706563696d656e2e657363726f770000000000000000000000000000000000815250600f0182805190602001908083835b60208310612d925780518252602082019150602081019050602083039250612d6f565b6001836020036101000a03801982511681845116808217855250505050505090500191505060405160208183030381529060405280519060200120836040518363ffffffff1660e01b8152600401808381526020018273ffffffffffffffffffffffffffffffffffffffff1673ffffffffffffffffffffffffffffffffffffffff16815260200192505050600060405180830381600087803b158015612e3757600080fd5b505af1158015612e4b573d6000803e3d6000fd5b5050505081600560003373ffffffffffffffffffffffffffffffffffffffff1673ffffffffffffffffffffffffffffffffffffffff1681526020019081526020016000209080519060200190612ea2929190615912565b5060008060009054906101000a900473ffffffffffffffffffffffffffffffffffffffff1673ffffffffffffffffffffffffffffffffffffffff1663986e791a3360405160200180807f7075626b657900000000000000000000000000000000000000000000000000008152506006018273ffffffffffffffffffffffffffffffffffffffff1673ffffffffffffffffffffffffffffffffffffffff1660601b8152601401915050604051602081830303815290604052805190602001206040518263ffffffff1660e01b81526004018082815260200191505060006040518083038186803b158015612f9457600080fd5b505afa158015612fa8573d6000803e3d6000fd5b505050506040513d6000823e3d601f19601f820116820180604052506020811015612fd257600080fd5b8101908080516040519392919084640100000000821115612ff257600080fd5b8382019150602082018581111561300857600080fd5b825186600182028301116401000000008211171561302557600080fd5b8083526020830192505050908051906020019080838360005b8381101561305957808201518184015260208101905061303e565b50505050905090810190601f1680156130865780820380516001836020036101000a031916815260200191505b5060405250505051141561320b576000809054906101000a900473ffffffffffffffffffffffffffffffffffffffff1673ffffffffffffffffffffffffffffffffffffffff16636e8995503360405160200180807f7075626b657900000000000000000000000000000000000000000000000000008152506006018273ffffffffffffffffffffffffffffffffffffffff1673ffffffffffffffffffffffffffffffffffffffff1660601b815260140191505060405160208183030381529060405280519060200120856040518363ffffffff1660e01b81526004018083815260200180602001828103825283818151815260200191508051906020019080838360005b838110156131a557808201518184015260208101905061318a565b50505050905090810190601f1680156131d25780820380516001836020036101000a031916815260200191505b509350505050600060405180830381600087803b1580156131f257600080fd5b505af1158015613206573d6000803e3d6000fd5b505050505b7f6f51c966b226abb2a973172a0489909f6e0729ae419cda220fb82e9bab7d43ca8585604051808373ffffffffffffffffffffffffffffffffffffffff1673ffffffffffffffffffffffffffffffffffffffff16815260200180602001828103825283818151815260200191508051906020019080838360005b838110156132a0578082015181840152602081019050613285565b50505050905090810190601f1680156132cd5780820380516001836020036101000a031916815260200191505b50935050505060405180910390a15050505050565b60608060606000606060006132f56157ce565b73ffffffffffffffffffffffffffffffffffffffff1663905110d889896040518363ffffffff1660e01b8152600401808373ffffffffffffffffffffffffffffffffffffffff1673ffffffffffffffffffffffffffffffffffffffff1681526020018281526020019250505060006040518083038186803b15801561337957600080fd5b505afa15801561338d573d6000803e3d6000fd5b505050506040513d6000823e3d601f19601f8201168201806040525060c08110156133b757600080fd5b81019080805160405193929190846401000000008211156133d757600080fd5b838201915060208201858111156133ed57600080fd5b825186600182028301116401000000008211171561340a57600080fd5b8083526020830192505050908051906020019080838360005b8381101561343e578082015181840152602081019050613423565b50505050905090810190601f16801561346b5780820380516001836020036101000a031916815260200191505b506040526020018051604051939291908464010000000082111561348e57600080fd5b838201915060208201858111156134a457600080fd5b82518660018202830111640100000000821117156134c157600080fd5b8083526020830192505050908051906020019080838360005b838110156134f55780820151818401526020810190506134da565b50505050905090810190601f1680156135225780820380516001836020036101000a031916815260200191505b506040526020018051604051939291908464010000000082111561354557600080fd5b8382019150602082018581111561355b57600080fd5b825186600182028301116401000000008211171561357857600080fd5b8083526020830192505050908051906020019080838360005b838110156135ac578082015181840152602081019050613591565b50505050905090810190601f1680156135d95780820380516001836020036101000a031916815260200191505b50604052602001805190602001909291908051604051939291908464010000000082111561360657600080fd5b8382019150602082018581111561361c57600080fd5b825186600182028301116401000000008211171561363957600080fd5b8083526020830192505050908051906020019080838360005b8381101561366d578082015181840152602081019050613652565b50505050905090810190601f16801561369a5780820380516001836020036101000a031916815260200191505b50604052602001805190602001909291905050509550955095509550955095509295509295509295565b60008060009054906101000a900473ffffffffffffffffffffffffffffffffffffffff1673ffffffffffffffffffffffffffffffffffffffff1663bd02d0f58360405160200180807f6c61622e736572766963652e636f756e740000000000000000000000000000008152506011018273ffffffffffffffffffffffffffffffffffffffff1673ffffffffffffffffffffffffffffffffffffffff1660601b8152601401915050604051602081830303815290604052805190602001206040518263ffffffff1660e01b81526004018082815260200191505060206040518083038186803b1580156137b557600080fd5b505afa1580156137c9573d6000803e3d6000fd5b505050506040513d60208110156137df57600080fd5b81019080805190602001909291905050509050919050565b60008060009054906101000a900473ffffffffffffffffffffffffffffffffffffffff1673ffffffffffffffffffffffffffffffffffffffff166321f8a7218360405160200180807f53706563696d656e2e657363726f770000000000000000000000000000000000815250600f0182805190602001908083835b602083106138955780518252602082019150602081019050602083039250613872565b6001836020036101000a038019825116818451168082178552505050505050905001915050604051602081830303815290604052805190602001206040518263ffffffff1660e01b81526004018082815260200191505060206040518083038186803b15801561390457600080fd5b505afa158015613918573d6000803e3d6000fd5b505050506040513d602081101561392e57600080fd5b81019080805190602001909291905050509050919050565b6000809054906101000a900473ffffffffffffffffffffffffffffffffffffffff1681565b7f8ca5fb51ec76e0fba6b96a8e596d91cb678f7fef4fe4edb108915e409782107184848484604051808573ffffffffffffffffffffffffffffffffffffffff1673ffffffffffffffffffffffffffffffffffffffff168152602001806020018060200180602001848103845287818151815260200191508051906020019080838360005b83811015613a0a5780820151818401526020810190506139ef565b50505050905090810190601f168015613a375780820380516001836020036101000a031916815260200191505b50848103835286818151815260200191508051906020019080838360005b83811015613a70578082015181840152602081019050613a55565b50505050905090810190601f168015613a9d5780820380516001836020036101000a031916815260200191505b50848103825285818151815260200191508051906020019080838360005b83811015613ad6578082015181840152602081019050613abb565b50505050905090810190601f168015613b035780820380516001836020036101000a031916815260200191505b5097505050505050505060405180910390a150505050565b60606000806060600060608060606000809054906101000a900473ffffffffffffffffffffffffffffffffffffffff1673ffffffffffffffffffffffffffffffffffffffff1663986e791a338b60405160200180807f53706563696d656e0000000000000000000000000000000000000000000000008152506008018373ffffffffffffffffffffffffffffffffffffffff1673ffffffffffffffffffffffffffffffffffffffff1660601b815260140182815260200192505050604051602081830303815290604052805190602001206040518263ffffffff1660e01b81526004018082815260200191505060006040518083038186803b158015613c2057600080fd5b505afa158015613c34573d6000803e3d6000fd5b505050506040513d6000823e3d601f19601f820116820180604052506020811015613c5e57600080fd5b8101908080516040519392919084640100000000821115613c7e57600080fd5b83820191506020820185811115613c9457600080fd5b8251866001820283011164010000000082111715613cb157600080fd5b8083526020830192505050908051906020019080838360005b83811015613ce5578082015181840152602081019050613cca565b50505050905090810190601f168015613d125780820380516001836020036101000a031916815260200191505b506040525050509050613d2481611fdd565b975097509750975097509750975050919395979092949650565b600460009054906101000a900473ffffffffffffffffffffffffffffffffffffffff1673ffffffffffffffffffffffffffffffffffffffff16639cd8f25683836040518363ffffffff1660e01b8152600401808060200180602001838103835285818151815260200191508051906020019080838360005b83811015613dd1578082015181840152602081019050613db6565b50505050905090810190601f168015613dfe5780820380516001836020036101000a031916815260200191505b50838103825284818151815260200191508051906020019080838360005b83811015613e37578082015181840152602081019050613e1c565b50505050905090810190601f168015613e645780820380516001836020036101000a031916815260200191505b50945050505050600060405180830381600087803b158015613e8557600080fd5b505af1158015613e99573d6000803e3d6000fd5b505050505050565b600460009054906101000a900473ffffffffffffffffffffffffffffffffffffffff1673ffffffffffffffffffffffffffffffffffffffff1663aa08893783836040518363ffffffff1660e01b8152600401808060200180602001838103835285818151815260200191508051906020019080838360005b83811015613f34578082015181840152602081019050613f19565b50505050905090810190601f168015613f615780820380516001836020036101000a031916815260200191505b50838103825284818151815260200191508051906020019080838360005b83811015613f9a578082015181840152602081019050613f7f565b50505050905090810190601f168015613fc75780820380516001836020036101000a031916815260200191505b50945050505050600060405180830381600087803b158015613fe857600080fd5b505af1158015613ffc573d6000803e3d6000fd5b50505050614009826158f5565b73ffffffffffffffffffffffffffffffffffffffff16634bd7d0816040518163ffffffff1660e01b8152600401600060405180830381600087803b15801561405057600080fd5b505af1158015614064573d6000803e3d6000fd5b505050505050565b600060608060608060008060009054906101000a900473ffffffffffffffffffffffffffffffffffffffff1673ffffffffffffffffffffffffffffffffffffffff166321f8a7218a8a8a60405160200180807f6c61622e6c6f636174696f6e0000000000000000000000000000000000000000815250600c0184805190602001908083835b6020831061411457805182526020820191506020810190506020830392506140f1565b6001836020036101000a03801982511681845116808217855250505050505090500183805190602001908083835b602083106141655780518252602082019150602081019050602083039250614142565b6001836020036101000a0380198251168184511680821785525050505050509050018281526020019350505050604051602081830303815290604052805190602001206040518263ffffffff1660e01b81526004018082815260200191505060206040518083038186803b1580156141dc57600080fd5b505afa1580156141f0573d6000803e3d6000fd5b505050506040513d602081101561420657600080fd5b8101908080519060200190929190505050955061422286614891565b95509550955095509550955093975093979195509350565b600460009054906101000a900473ffffffffffffffffffffffffffffffffffffffff1673ffffffffffffffffffffffffffffffffffffffff1663ca15e24a8484846040518463ffffffff1660e01b815260040180806020018060200180602001848103845287818151815260200191508051906020019080838360005b838110156142d25780820151818401526020810190506142b7565b50505050905090810190601f1680156142ff5780820380516001836020036101000a031916815260200191505b50848103835286818151815260200191508051906020019080838360005b8381101561433857808201518184015260208101905061431d565b50505050905090810190601f1680156143655780820380516001836020036101000a031916815260200191505b50848103825285818151815260200191508051906020019080838360005b8381101561439e578082015181840152602081019050614383565b50505050905090810190601f1680156143cb5780820380516001836020036101000a031916815260200191505b509650505050505050600060405180830381600087803b1580156143ee57600080fd5b505af1158015614402573d6000803e3d6000fd5b5050505061440f836158f5565b73ffffffffffffffffffffffffffffffffffffffff1663f49c845a6040518163ffffffff1660e01b8152600401600060405180830381600087803b15801561445657600080fd5b505af115801561446a573d6000803e3d6000fd5b50505050505050565b6000600360009054906101000a900473ffffffffffffffffffffffffffffffffffffffff1673ffffffffffffffffffffffffffffffffffffffff16635803d619336040518263ffffffff1660e01b8152600401808273ffffffffffffffffffffffffffffffffffffffff1673ffffffffffffffffffffffffffffffffffffffff16815260200191505060206040518083038186803b15801561451457600080fd5b505afa158015614528573d6000803e3d6000fd5b505050506040513d602081101561453e57600080fd5b8101908080519060200190929190505050905090565b600460009054906101000a900473ffffffffffffffffffffffffffffffffffffffff1673ffffffffffffffffffffffffffffffffffffffff1663dddae88483836040518363ffffffff1660e01b8152600401808060200180602001838103835285818151815260200191508051906020019080838360005b838110156145e75780820151818401526020810190506145cc565b50505050905090810190601f1680156146145780820380516001836020036101000a031916815260200191505b50838103825284818151815260200191508051906020019080838360005b8381101561464d578082015181840152602081019050614632565b50505050905090810190601f16801561467a5780820380516001836020036101000a031916815260200191505b50945050505050600060405180830381600087803b15801561469b57600080fd5b505af11580156146af573d6000803e3d6000fd5b505050505050565b6060600460009054906101000a900473ffffffffffffffffffffffffffffffffffffffff1673ffffffffffffffffffffffffffffffffffffffff1663e0876aa8836040518263ffffffff1660e01b81526004018080602001828103825283818151815260200191508051906020019080838360005b8381101561474757808201518184015260208101905061472c565b50505050905090810190601f1680156147745780820380516001836020036101000a031916815260200191505b509250505060006040518083038186803b15801561479157600080fd5b505afa1580156147a5573d6000803e3d6000fd5b505050506040513d6000823e3d601f19601f8201168201806040525060208110156147cf57600080fd5b81019080805160405193929190846401000000008211156147ef57600080fd5b8382019150602082018581111561480557600080fd5b825186600182028301116401000000008211171561482257600080fd5b8083526020830192505050908051906020019080838360005b8381101561485657808201518184015260208101905061483b565b50505050905090810190601f1680156148835780820380516001836020036101000a031916815260200191505b506040525050509050919050565b600060608060608060006148a36157ce565b73ffffffffffffffffffffffffffffffffffffffff1663ed01c666886040518263ffffffff1660e01b8152600401808273ffffffffffffffffffffffffffffffffffffffff1673ffffffffffffffffffffffffffffffffffffffff16815260200191505060006040518083038186803b15801561491f57600080fd5b505afa158015614933573d6000803e3d6000fd5b505050506040513d6000823e3d601f19601f8201168201806040525060c081101561495d57600080fd5b81019080805190602001909291908051604051939291908464010000000082111561498757600080fd5b8382019150602082018581111561499d57600080fd5b82518660018202830111640100000000821117156149ba57600080fd5b8083526020830192505050908051906020019080838360005b838110156149ee5780820151818401526020810190506149d3565b50505050905090810190601f168015614a1b5780820380516001836020036101000a031916815260200191505b5060405260200180516040519392919084640100000000821115614a3e57600080fd5b83820191506020820185811115614a5457600080fd5b8251866001820283011164010000000082111715614a7157600080fd5b8083526020830192505050908051906020019080838360005b83811015614aa5578082015181840152602081019050614a8a565b50505050905090810190601f168015614ad25780820380516001836020036101000a031916815260200191505b5060405260200180516040519392919084640100000000821115614af557600080fd5b83820191506020820185811115614b0b57600080fd5b8251866001820283011164010000000082111715614b2857600080fd5b8083526020830192505050908051906020019080838360005b83811015614b5c578082015181840152602081019050614b41565b50505050905090810190601f168015614b895780820380516001836020036101000a031916815260200191505b5060405260200180516040519392919084640100000000821115614bac57600080fd5b83820191506020820185811115614bc257600080fd5b8251866001820283011164010000000082111715614bdf57600080fd5b8083526020830192505050908051906020019080838360005b83811015614c13578082015181840152602081019050614bf8565b50505050905090810190601f168015614c405780820380516001836020036101000a031916815260200191505b506040526020018051906020019092919050505095509550955095509550955091939550919395565b600460009054906101000a900473ffffffffffffffffffffffffffffffffffffffff1673ffffffffffffffffffffffffffffffffffffffff1663ed3468f783836040518363ffffffff1660e01b8152600401808060200180602001838103835285818151815260200191508051906020019080838360005b83811015614cfc578082015181840152602081019050614ce1565b50505050905090810190601f168015614d295780820380516001836020036101000a031916815260200191505b50838103825284818151815260200191508051906020019080838360005b83811015614d62578082015181840152602081019050614d47565b50505050905090810190601f168015614d8f5780820380516001836020036101000a031916815260200191505b50945050505050600060405180830381600087803b158015614db057600080fd5b505af1158015614dc4573d6000803e3d6000fd5b505050506000809054906101000a900473ffffffffffffffffffffffffffffffffffffffff1673ffffffffffffffffffffffffffffffffffffffff1663e2a4853a8360405160200180807f53706563696d656e2e726563656976652e64617465000000000000000000000081525060150182805190602001908083835b60208310614e645780518252602082019150602081019050602083039250614e41565b6001836020036101000a03801982511681845116808217855250505050505090500191505060405160208183030381529060405280519060200120426040518363ffffffff1660e01b81526004018083815260200182815260200192505050600060405180830381600087803b158015614edd57600080fd5b505af1158015614ef1573d6000803e3d6000fd5b505050505050565b6000809054906101000a900473ffffffffffffffffffffffffffffffffffffffff1673ffffffffffffffffffffffffffffffffffffffff166321f8a7218260405160200180807f53706563696d656e2e6f776e6572000000000000000000000000000000000000815250600e0182805190602001908083835b60208310614f955780518252602082019150602081019050602083039250614f72565b6001836020036101000a038019825116818451168082178552505050505050905001915050604051602081830303815290604052805190602001206040518263ffffffff1660e01b81526004018082815260200191505060206040518083038186803b15801561500457600080fd5b505afa158015615018573d6000803e3d6000fd5b505050506040513d602081101561502e57600080fd5b810190808051906020019092919050505073ffffffffffffffffffffffffffffffffffffffff163373ffffffffffffffffffffffffffffffffffffffff16146150df576040517f08c379a00000000000000000000000000000000000000000000000000000000081526004018080602001828103825260138152602001807f4f6e6c79206f776e65722073706563696d656e0000000000000000000000000081525060200191505060405180910390fd5b600460009054906101000a900473ffffffffffffffffffffffffffffffffffffffff1673ffffffffffffffffffffffffffffffffffffffff166363a88bcf826040518263ffffffff1660e01b8152600401808060200180602001838103835284818151815260200191508051906020019080838360005b83811015615171578082015181840152602081019050615156565b50505050905090810190601f16801561519e5780820380516001836020036101000a031916815260200191505b50838103825260088152602001807f7265636569766564000000000000000000000000000000000000000000000000815250602001935050505060206040518083038186803b1580156151f057600080fd5b505afa158015615204573d6000803e3d6000fd5b505050506040513d602081101561521a57600080fd5b810190808051906020019092919050505061529d576040517f08c379a00000000000000000000000000000000000000000000000000000000081526004018080602001828103825260168152602001807f4f6e6c792072656365697665642053706563696d656e0000000000000000000081525060200191505060405180910390fd5b4262093a806000809054906101000a900473ffffffffffffffffffffffffffffffffffffffff1673ffffffffffffffffffffffffffffffffffffffff1663bd02d0f58460405160200180807f53706563696d656e2e726563656976652e64617465000000000000000000000081525060150182805190602001908083835b6020831061533e578051825260208201915060208101905060208303925061531b565b6001836020036101000a038019825116818451168082178552505050505050905001915050604051602081830303815290604052805190602001206040518263ffffffff1660e01b81526004018082815260200191505060206040518083038186803b1580156153ad57600080fd5b505afa1580156153c1573d6000803e3d6000fd5b505050506040513d60208110156153d757600080fd5b8101908080519060200190929190505050011061545c576040517f08c379a00000000000000000000000000000000000000000000000000000000081526004018080602001828103825260158152602001807f616674657220372064617973207265636569766564000000000000000000000081525060200191505060405180910390fd5b600460009054906101000a900473ffffffffffffffffffffffffffffffffffffffff1673ffffffffffffffffffffffffffffffffffffffff1663aa088937826040518263ffffffff1660e01b8152600401808060200180602001838103835284818151815260200191508051906020019080838360005b838110156154ee5780820151818401526020810190506154d3565b50505050905090810190601f16801561551b5780820380516001836020036101000a031916815260200191505b50838103825260318152602001806159b8603191396040019350505050600060405180830381600087803b15801561555257600080fd5b505af1158015615566573d6000803e3d6000fd5b5050505050565b6000806000809054906101000a900473ffffffffffffffffffffffffffffffffffffffff1673ffffffffffffffffffffffffffffffffffffffff166321f8a72160405160200180807f636f6e74726163742e6164647265737300000000000000000000000000000000815250601001807f457363726f77466163746f727900000000000000000000000000000000000000815250600d019050604051602081830303815290604052805190602001206040518263ffffffff1660e01b81526004018082815260200191505060206040518083038186803b15801561565057600080fd5b505afa158015615664573d6000803e3d6000fd5b505050506040513d602081101561567a57600080fd5b81019080805190602001909291905050509050600073ffffffffffffffffffffffffffffffffffffffff168173ffffffffffffffffffffffffffffffffffffffff16146157c55760008190508073ffffffffffffffffffffffffffffffffffffffff1663c36176508787876040518463ffffffff1660e01b8152600401808473ffffffffffffffffffffffffffffffffffffffff1673ffffffffffffffffffffffffffffffffffffffff1681526020018373ffffffffffffffffffffffffffffffffffffffff1673ffffffffffffffffffffffffffffffffffffffff1681526020018281526020019350505050602060405180830381600087803b15801561578157600080fd5b505af1158015615795573d6000803e3d6000fd5b505050506040513d60208110156157ab57600080fd5b8101908080519060200190929190505050925050506157c7565b505b9392505050565b6000806000809054906101000a900473ffffffffffffffffffffffffffffffffffffffff1673ffffffffffffffffffffffffffffffffffffffff166321f8a72160405160200180807f636f6e74726163742e6164647265737300000000000000000000000000000000815250601001807f4c616200000000000000000000000000000000000000000000000000000000008152506003019050604051602081830303815290604052805190602001206040518263ffffffff1660e01b81526004018082815260200191505060206040518083038186803b1580156158b157600080fd5b505afa1580156158c5573d6000803e3d6000fd5b505050506040513d60208110156158db57600080fd5b810190808051906020019092919050505090508091505090565b600080615901836137f7565b905060008190508092505050919050565b828054600181600116156101000203166002900490600052602060002090601f016020900481019282601f1061595357805160ff1916838001178555615981565b82800160010185558215615981579182015b82811115615980578251825591602001919060010190615965565b5b50905061598e9190615992565b5090565b6159b491905b808211156159b0576000816000905550600101615998565b5090565b9056fe616e616c7973697320736f206c6f6e672c20726566756e642061667465722037206461797320627920637573746f6d6572a265627a7a72315820ed0b454785035781b8df45e150e32dde923185d604189515c5ee7144d1a4bfd764736f6c63430005100032",
  "source": "pragma solidity ^0.5.16;\r\n\r\n\r\nimport \"./common/Base.sol\";\r\nimport \"./common/SafeMath.sol\";\r\nimport \"./common/Address.sol\";\r\n\r\nimport \"./Account.sol\";\r\nimport \"./SpecimenTracking.sol\";\r\nimport \"./Specimen.sol\";\r\nimport \"./Location.sol\";\r\nimport \"./EscrowFactory.sol\";\r\nimport \"./Escrow.sol\";\r\nimport \"./Lab.sol\";\r\n\r\ncontract Degenics is Base {\r\n\r\n    Location location;\r\n    Account account;\r\n    Specimen specimen;\r\n    SpecimenTracking specimenTracking;\r\n\r\n    mapping(address => string)  private lastNumber;\r\n\r\n\r\n    event NewLab(address account, string name, string country, string city);\r\n    event NewService(address labAccount, string name, string service);\r\n    event NewSpecimen(address labAccount, string Code);\r\n\r\n    \r\n    constructor(address _storage, address _account, address _specimen, address _specimenTracking, address _location ) public Base(_storage) {\r\n        location = Location(_location);\r\n        account = Account(_account);\r\n        specimen = Specimen(_specimen);\r\n        specimenTracking = SpecimenTracking(_specimenTracking);\r\n    }\r\n\r\n    \r\n\r\n    function labCount(string memory country, string memory city) public view returns(uint){\r\n        return  eternalStorage.getUint(keccak256(abi.encodePacked(\"lab.location\",country, city)));\r\n    }\r\n\r\n    function labByIndex(string memory _country, string memory _city, uint index) public view \r\n        returns(address labAccount, string memory name, string memory country, string memory city, \r\n        string memory additionalData, bool active){\r\n        \r\n        labAccount = eternalStorage.getAddress(keccak256(abi.encodePacked(\"lab.location\", _country,_city, index)));\r\n        return labByAccount(labAccount);\r\n    }\r\n\r\n    function labByAccount(address _account) public view \r\n        returns(address labAccount, string memory name, string memory country, string memory city,\r\n        string memory additionalData, bool active){\r\n        \r\n        return getLabInstance().labByAccount(_account);\r\n    }\r\n\r\n    function serviceCount(address labAccount) public view returns(uint){\r\n        return eternalStorage.getUint(keccak256(abi.encodePacked(\"lab.service.count\", labAccount)));\r\n    }\r\n\r\n    \r\n    function serviceByIndex(address labAccount, uint index) public view \r\n    returns(string memory code, string memory serviceName, string memory description, uint price, string memory additionalData, \r\n    bool active){\r\n        \r\n        return getLabInstance().serviceByIndex(labAccount, index);\r\n    }\r\n\r\n    function registerSpecimen(address labAccount, string memory serviceCode, string memory pubKey) public {\r\n        \r\n        string memory number = specimen.registerSpecimen(msg.sender, labAccount, serviceCode);\r\n        address escrow = createEscrow(msg.sender, labAccount, eternalStorage.getUint(keccak256(abi.encodePacked(\"lab.service.price\", labAccount, serviceCode))));\r\n\r\n        eternalStorage.setAddress(keccak256(abi.encodePacked(\"Specimen.escrow\", number)),  escrow); \r\n        lastNumber[msg.sender]  = number;\r\n        if(bytes(eternalStorage.getString(keccak256(abi.encodePacked(\"pubkey\", msg.sender)))).length == 0){\r\n            eternalStorage.setString(keccak256(abi.encodePacked(\"pubkey\", msg.sender)),  pubKey); \r\n        }        \r\n        emit NewSpecimen(labAccount, serviceCode);\r\n    }\r\n\r\n    function getLastNumber() public view returns(string memory){\r\n        return lastNumber[msg.sender];\r\n    }\r\n\r\n    function specimenCount() public view returns(uint){\r\n        return specimen.specimenCount(msg.sender);\r\n    }\r\n\r\n    function specimenByNumber(string memory _number) public view returns(\r\n        string memory number, address owner, address labAccount, string memory serviceCode, \r\n        uint timestamp, string memory status, string memory pubkey){  \r\n        (number, owner, labAccount, serviceCode, timestamp, status)  =  specimen.specimenByNumber(_number);\r\n        pubkey = eternalStorage.getString(keccak256(abi.encodePacked(\"pubkey\", owner)));\r\n        return (number, owner, labAccount, serviceCode, timestamp, status, pubkey);\r\n    }\r\n\r\n    function specimenByIndex(uint index) public view returns(\r\n        string memory number,address owner, address labAccount, string memory serviceCode, \r\n        uint timestamp, string memory status, string memory pubkey){        \r\n        string memory number =  eternalStorage.getString(keccak256(abi.encodePacked(\"Specimen\",msg.sender, index )));   \r\n        return specimenByNumber(number);\r\n    }\r\n\r\n    function getEscrow(string memory number) public view returns(address){\r\n        return eternalStorage.getAddress(keccak256(abi.encodePacked(\"Specimen.escrow\", number))); \r\n    }\r\n\r\n    function sendSpecimen(string memory number, string memory remark) public {        \r\n        specimenTracking.sendSpecimen(number, remark);\r\n    }\r\n\r\n    function receiveSpecimen(string memory number, string memory remark) public {\r\n        specimenTracking.receiveSpecimen(number, remark);\r\n        eternalStorage.setUint(keccak256(abi.encodePacked(\"Specimen.receive.date\", number)), now); \r\n    }\r\n\r\n    function rejectSpecimen(string memory number, string memory remark) public {\r\n        specimenTracking.rejectSpecimen(number, remark);\r\n    }\r\n\r\n    function analysisSucces(string memory number, string memory file, string memory remark) public {\r\n        specimenTracking.analysisSucces(number, file, remark);\r\n        getEscrowInstance(number).forwardToSeller();\r\n    }\r\n\r\n    function getFile(string memory number) public view returns(string memory file){\r\n        return specimenTracking.getFile(number);\r\n    }\r\n\r\n    function analysisFail(string memory number, string memory remark) public {\r\n        specimenTracking.analysisFail(number, remark);\r\n        getEscrowInstance(number).refundToBuyer();\r\n    }\r\n\r\n    function refund(string memory number) public{\r\n        require(msg.sender == eternalStorage.getAddress(keccak256(abi.encodePacked( \"Specimen.owner\",number ))), \"Only owner specimen\");\r\n        require(specimenTracking.checkStatus(number,\"received\"), \"Only received Specimen\");\r\n        require(\r\n            (eternalStorage.getUint(keccak256(abi.encodePacked(\"Specimen.receive.date\", number))) +  1 weeks)  < now  , \"after 7 days received\" );\r\n        specimenTracking.analysisFail(number, \"analysis so long, refund after 7 days by customer\");\r\n    }\r\n\r\n    function escrowBalance(string memory number) internal view returns(uint){\r\n        address escrow = eternalStorage.getAddress(keccak256(abi.encodePacked(\"Specimen.escrow\", number)));\r\n        return escrow.balance;\r\n    }\r\n\r\n    function createEscrow(address buyer, address seller, uint amount) internal returns(address){\r\n       address _address = eternalStorage.getAddress(keccak256(abi.encodePacked(\"contract.address\", \"EscrowFactory\")));\r\n       if(_address != address(0)){\r\n           EscrowFactory ef = EscrowFactory(_address);\r\n           return ef.createEscrow(buyer, seller, amount);\r\n       }\r\n    }\r\n\r\n    function emitNewLab(address _account, string memory name, string memory country, string memory city)public {\r\n        emit NewLab(_account, name, country, city);\r\n    }\r\n\r\n    function emitNewService(address labAccount, string memory name, string memory service)public {\r\n        emit NewService(labAccount, name, service);\r\n    }\r\n\r\n    function getEscrowInstance(string memory number) internal returns(Escrow){\r\n        address payable escrowWallet = address(uint160(getEscrow(number)));\r\n        Escrow instance = Escrow(escrowWallet);\r\n        return instance;\r\n    }\r\n\r\n    function getLabInstance()internal view returns (Lab){\r\n        Lab lab = Lab(eternalStorage.getAddress(keccak256(abi.encodePacked(\"contract.address\", \"Lab\"))));\r\n        return lab;\r\n    }\r\n\r\n    \r\n\r\n\r\n}\r\n\r\n//host guitar cool sick provide magic enhance attend faith woman method episode",
  "sourcePath": "D:\\projects\\degenics\\degenics-smart-contract\\contracts\\Degenics.sol",
  "compiler": {
    "name": "solc",
    "version": "0.5.16+commit.9c3226ce.Emscripten.clang"
  },
  "schemaVersion": "3.0.23",
  "updatedAt": "2021-01-18T05:39:05.922Z",
  "networkType": "ethereum",
  "devdoc": {
    "methods": {}
  },
  "userdoc": {
    "methods": {}
  }
}