{
  "contractName": "Escrow",
  "abi": [
    {
      "inputs": [
        {
          "internalType": "address",
          "name": "_owner",
          "type": "address"
        },
        {
          "internalType": "address",
          "name": "_degenics",
          "type": "address"
        },
        {
          "internalType": "address",
          "name": "_buyer",
          "type": "address"
        },
        {
          "internalType": "address",
          "name": "_seller",
          "type": "address"
        },
        {
          "internalType": "uint256",
          "name": "_amount",
          "type": "uint256"
        }
      ],
      "payable": false,
      "stateMutability": "nonpayable",
      "type": "constructor"
    },
    {
      "payable": true,
      "stateMutability": "payable",
      "type": "fallback"
    },
    {
      "constant": false,
      "inputs": [],
      "name": "forwardToSeller",
      "outputs": [],
      "payable": false,
      "stateMutability": "nonpayable",
      "type": "function"
    },
    {
      "constant": false,
      "inputs": [],
      "name": "refundToBuyer",
      "outputs": [],
      "payable": false,
      "stateMutability": "nonpayable",
      "type": "function"
    }
  ],
  "bytecode": "0x608060405234801561001057600080fd5b50604051610852380380610852833981810160405260a081101561003357600080fd5b810190808051906020019092919080519060200190929190805190602001909291908051906020019092919080519060200190929190505050846000806101000a81548173ffffffffffffffffffffffffffffffffffffffff021916908373ffffffffffffffffffffffffffffffffffffffff16021790555082600160006101000a81548173ffffffffffffffffffffffffffffffffffffffff021916908373ffffffffffffffffffffffffffffffffffffffff16021790555081600260006101000a81548173ffffffffffffffffffffffffffffffffffffffff021916908373ffffffffffffffffffffffffffffffffffffffff1602179055508060058190555033600360006101000a81548173ffffffffffffffffffffffffffffffffffffffff021916908373ffffffffffffffffffffffffffffffffffffffff16021790555083600460006101000a81548173ffffffffffffffffffffffffffffffffffffffff021916908373ffffffffffffffffffffffffffffffffffffffff1602179055506040518060400160405280600481526020017f486f6c64000000000000000000000000000000000000000000000000000000008152506006908051906020019061020292919061020d565b5050505050506102b2565b828054600181600116156101000203166002900490600052602060002090601f016020900481019282601f1061024e57805160ff191683800117855561027c565b8280016001018555821561027c579182015b8281111561027b578251825591602001919060010190610260565b5b509050610289919061028d565b5090565b6102af91905b808211156102ab576000816000905550600101610293565b5090565b90565b610591806102c16000396000f3fe6080604052600436106100295760003560e01c80634bd7d0811461002b578063f49c845a14610042575b005b34801561003757600080fd5b50610040610059565b005b34801561004e57600080fd5b50610057610288565b005b600360009054906101000a900473ffffffffffffffffffffffffffffffffffffffff1673ffffffffffffffffffffffffffffffffffffffff163373ffffffffffffffffffffffffffffffffffffffff16148061010157506000809054906101000a900473ffffffffffffffffffffffffffffffffffffffff1673ffffffffffffffffffffffffffffffffffffffff163273ffffffffffffffffffffffffffffffffffffffff16145b806101595750600460009054906101000a900473ffffffffffffffffffffffffffffffffffffffff1673ffffffffffffffffffffffffffffffffffffffff163373ffffffffffffffffffffffffffffffffffffffff16145b6101cb576040517f08c379a00000000000000000000000000000000000000000000000000000000081526004018080602001828103825260158152602001807f4f6e6c792063726561746f72206f72206f776e6572000000000000000000000081525060200191505060405180910390fd5b6000600160009054906101000a900473ffffffffffffffffffffffffffffffffffffffff1690508073ffffffffffffffffffffffffffffffffffffffff166108fc479081150290604051600060405180830381858888f19350505050158015610238573d6000803e3d6000fd5b506040518060400160405280600681526020017f526566756e640000000000000000000000000000000000000000000000000000815250600690805190602001906102849291906104b7565b5050565b600360009054906101000a900473ffffffffffffffffffffffffffffffffffffffff1673ffffffffffffffffffffffffffffffffffffffff163373ffffffffffffffffffffffffffffffffffffffff16148061033057506000809054906101000a900473ffffffffffffffffffffffffffffffffffffffff1673ffffffffffffffffffffffffffffffffffffffff163273ffffffffffffffffffffffffffffffffffffffff16145b806103885750600460009054906101000a900473ffffffffffffffffffffffffffffffffffffffff1673ffffffffffffffffffffffffffffffffffffffff163373ffffffffffffffffffffffffffffffffffffffff16145b6103fa576040517f08c379a00000000000000000000000000000000000000000000000000000000081526004018080602001828103825260158152602001807f4f6e6c792063726561746f72206f72206f776e6572000000000000000000000081525060200191505060405180910390fd5b6000600260009054906101000a900473ffffffffffffffffffffffffffffffffffffffff1690508073ffffffffffffffffffffffffffffffffffffffff166108fc479081150290604051600060405180830381858888f19350505050158015610467573d6000803e3d6000fd5b506040518060400160405280600781526020017f466f727761726400000000000000000000000000000000000000000000000000815250600690805190602001906104b39291906104b7565b5050565b828054600181600116156101000203166002900490600052602060002090601f016020900481019282601f106104f857805160ff1916838001178555610526565b82800160010185558215610526579182015b8281111561052557825182559160200191906001019061050a565b5b5090506105339190610537565b5090565b61055991905b8082111561055557600081600090555060010161053d565b5090565b9056fea265627a7a72315820af77a04b0328b675a36964a820003785dd8eb047cd098b826c9a52478afefe7a64736f6c63430005100032",
  "source": "pragma solidity ^0.5.16;\r\n\r\n\r\ncontract Escrow {\r\n\r\n    address owner;\r\n    address buyer;\r\n    address seller;\r\n    address creator;\r\n    address degenics;\r\n    uint amount;\r\n\r\n    string status; \r\n\r\n    modifier canExecute(){\r\n        require(msg.sender == creator || tx.origin == owner || msg.sender == degenics, \"Only creator or owner\");\r\n        _;\r\n    }\r\n\r\n    constructor(address _owner, address _degenics, address  _buyer, address  _seller, uint _amount) public {        \r\n        owner = _owner;\r\n        buyer = _buyer;\r\n        seller = _seller;\r\n        amount = _amount;\r\n        creator = msg.sender;\r\n        degenics = _degenics;\r\n        status = \"Hold\";\r\n    }\r\n\r\n    function() external payable {}\r\n\r\n    function forwardToSeller() public canExecute  {\r\n        // require(tx.origin == seller, \"Only seller\");\r\n        address payable _seller = address(uint160(seller));\r\n        _seller.transfer(address(this).balance);\r\n        status = \"Forward\";\r\n    }\r\n\r\n    function refundToBuyer()public canExecute{\r\n        // require(tx.origin == seller, \"Only seller\");\r\n        address payable _buyer = address(uint160(buyer));\r\n        _buyer.transfer(address(this).balance);\r\n        status = \"Refund\";\r\n    }\r\n\r\n\r\n}",
  "sourcePath": "D:\\projects\\degenics\\degenics-smart-contract\\contracts\\Escrow.sol",
  "compiler": {
    "name": "solc",
    "version": "0.5.16+commit.9c3226ce.Emscripten.clang"
  },
  "schemaVersion": "3.0.23",
  "updatedAt": "2020-12-27T19:39:21.669Z",
  "devdoc": {
    "methods": {}
  },
  "userdoc": {
    "methods": {}
  }
}