{
  "contractName": "EscrowFactory",
  "abi": [
    {
      "inputs": [
        {
          "internalType": "address",
          "name": "_storage",
          "type": "address"
        }
      ],
      "payable": false,
      "stateMutability": "nonpayable",
      "type": "constructor"
    },
    {
      "constant": true,
      "inputs": [],
      "name": "eternalStorage",
      "outputs": [
        {
          "internalType": "contract EternalStorageInterface",
          "name": "",
          "type": "address"
        }
      ],
      "payable": false,
      "stateMutability": "view",
      "type": "function"
    },
    {
      "constant": false,
      "inputs": [
        {
          "internalType": "address",
          "name": "buyer",
          "type": "address"
        },
        {
          "internalType": "address",
          "name": "seller",
          "type": "address"
        },
        {
          "internalType": "uint256",
          "name": "amount",
          "type": "uint256"
        }
      ],
      "name": "createEscrow",
      "outputs": [
        {
          "internalType": "address",
          "name": "",
          "type": "address"
        }
      ],
      "payable": false,
      "stateMutability": "nonpayable",
      "type": "function"
    }
  ],
  "bytecode": "0x608060405260008060006101000a81548173ffffffffffffffffffffffffffffffffffffffff021916908373ffffffffffffffffffffffffffffffffffffffff16021790555034801561005157600080fd5b50604051610d81380380610d818339818101604052602081101561007457600080fd5b810190808051906020019092919050505080806000806101000a81548173ffffffffffffffffffffffffffffffffffffffff021916908373ffffffffffffffffffffffffffffffffffffffff1602179055505050610caa806100d76000396000f3fe608060405234801561001057600080fd5b50600436106100365760003560e01c806398ff9c541461003b578063c361765014610085575b600080fd5b610043610133565b604051808273ffffffffffffffffffffffffffffffffffffffff1673ffffffffffffffffffffffffffffffffffffffff16815260200191505060405180910390f35b6100f16004803603606081101561009b57600080fd5b81019080803573ffffffffffffffffffffffffffffffffffffffff169060200190929190803573ffffffffffffffffffffffffffffffffffffffff16906020019092919080359060200190929190505050610158565b604051808273ffffffffffffffffffffffffffffffffffffffff1673ffffffffffffffffffffffffffffffffffffffff16815260200191505060405180910390f35b6000809054906101000a900473ffffffffffffffffffffffffffffffffffffffff1681565b6000806000809054906101000a900473ffffffffffffffffffffffffffffffffffffffff1673ffffffffffffffffffffffffffffffffffffffff166321f8a72160405160200180807f6f776e65720000000000000000000000000000000000000000000000000000008152506005019050604051602081830303815290604052805190602001206040518263ffffffff1660e01b81526004018082815260200191505060206040518083038186803b15801561021357600080fd5b505afa158015610227573d6000803e3d6000fd5b505050506040513d602081101561023d57600080fd5b81019080805190602001909291905050506000809054906101000a900473ffffffffffffffffffffffffffffffffffffffff1673ffffffffffffffffffffffffffffffffffffffff166321f8a72160405160200180807f636f6e74726163742e6164647265737300000000000000000000000000000000815250601001807f446567656e6963730000000000000000000000000000000000000000000000008152506008019050604051602081830303815290604052805190602001206040518263ffffffff1660e01b81526004018082815260200191505060206040518083038186803b15801561032e57600080fd5b505afa158015610342573d6000803e3d6000fd5b505050506040513d602081101561035857600080fd5b810190808051906020019092919050505086868660405161037890610478565b808673ffffffffffffffffffffffffffffffffffffffff1673ffffffffffffffffffffffffffffffffffffffff1681526020018573ffffffffffffffffffffffffffffffffffffffff1673ffffffffffffffffffffffffffffffffffffffff1681526020018473ffffffffffffffffffffffffffffffffffffffff1673ffffffffffffffffffffffffffffffffffffffff1681526020018373ffffffffffffffffffffffffffffffffffffffff1673ffffffffffffffffffffffffffffffffffffffff16815260200182815260200195505050505050604051809103906000f08015801561046a573d6000803e3d6000fd5b509050809150509392505050565b6107f0806104868339019056fe608060405234801561001057600080fd5b506040516107f03803806107f0833981810160405260a081101561003357600080fd5b810190808051906020019092919080519060200190929190805190602001909291908051906020019092919080519060200190929190505050846000806101000a81548173ffffffffffffffffffffffffffffffffffffffff021916908373ffffffffffffffffffffffffffffffffffffffff16021790555082600160006101000a81548173ffffffffffffffffffffffffffffffffffffffff021916908373ffffffffffffffffffffffffffffffffffffffff16021790555081600260006101000a81548173ffffffffffffffffffffffffffffffffffffffff021916908373ffffffffffffffffffffffffffffffffffffffff1602179055508060058190555033600360006101000a81548173ffffffffffffffffffffffffffffffffffffffff021916908373ffffffffffffffffffffffffffffffffffffffff16021790555083600460006101000a81548173ffffffffffffffffffffffffffffffffffffffff021916908373ffffffffffffffffffffffffffffffffffffffff1602179055506040518060400160405280600481526020017f486f6c64000000000000000000000000000000000000000000000000000000008152506006908051906020019061020292919061020d565b5050505050506102b2565b828054600181600116156101000203166002900490600052602060002090601f016020900481019282601f1061024e57805160ff191683800117855561027c565b8280016001018555821561027c579182015b8281111561027b578251825591602001919060010190610260565b5b509050610289919061028d565b5090565b6102af91905b808211156102ab576000816000905550600101610293565b5090565b90565b61052f806102c16000396000f3fe6080604052600436106100295760003560e01c80634bd7d0811461002b578063f49c845a14610042575b005b34801561003757600080fd5b50610040610059565b005b34801561004e57600080fd5b50610057610257565b005b600360009054906101000a900473ffffffffffffffffffffffffffffffffffffffff1673ffffffffffffffffffffffffffffffffffffffff163373ffffffffffffffffffffffffffffffffffffffff16148061010157506000809054906101000a900473ffffffffffffffffffffffffffffffffffffffff1673ffffffffffffffffffffffffffffffffffffffff163273ffffffffffffffffffffffffffffffffffffffff16145b806101595750600460009054906101000a900473ffffffffffffffffffffffffffffffffffffffff1673ffffffffffffffffffffffffffffffffffffffff163373ffffffffffffffffffffffffffffffffffffffff16145b6101cb576040517f08c379a00000000000000000000000000000000000000000000000000000000081526004018080602001828103825260158152602001807f4f6e6c792063726561746f72206f72206f776e6572000000000000000000000081525060200191505060405180910390fd5b6000600160009054906101000a900473ffffffffffffffffffffffffffffffffffffffff1690506040518060400160405280600681526020017f526566756e6400000000000000000000000000000000000000000000000000008152506006908051906020019061023d929190610455565b508073ffffffffffffffffffffffffffffffffffffffff16ff5b600360009054906101000a900473ffffffffffffffffffffffffffffffffffffffff1673ffffffffffffffffffffffffffffffffffffffff163373ffffffffffffffffffffffffffffffffffffffff1614806102ff57506000809054906101000a900473ffffffffffffffffffffffffffffffffffffffff1673ffffffffffffffffffffffffffffffffffffffff163273ffffffffffffffffffffffffffffffffffffffff16145b806103575750600460009054906101000a900473ffffffffffffffffffffffffffffffffffffffff1673ffffffffffffffffffffffffffffffffffffffff163373ffffffffffffffffffffffffffffffffffffffff16145b6103c9576040517f08c379a00000000000000000000000000000000000000000000000000000000081526004018080602001828103825260158152602001807f4f6e6c792063726561746f72206f72206f776e6572000000000000000000000081525060200191505060405180910390fd5b6000600260009054906101000a900473ffffffffffffffffffffffffffffffffffffffff1690506040518060400160405280600781526020017f466f7277617264000000000000000000000000000000000000000000000000008152506006908051906020019061043b929190610455565b508073ffffffffffffffffffffffffffffffffffffffff16ff5b828054600181600116156101000203166002900490600052602060002090601f016020900481019282601f1061049657805160ff19168380011785556104c4565b828001600101855582156104c4579182015b828111156104c35782518255916020019190600101906104a8565b5b5090506104d191906104d5565b5090565b6104f791905b808211156104f35760008160009055506001016104db565b5090565b9056fea265627a7a723158200c7f445bbe0e7b04eebdc75baa25408c099b8bd2be89043d510cad6a9107cc0664736f6c63430005100032a265627a7a72315820d278071f0269bbc85f8f073294ea9c9354365e40f279608bf048aa0c7a3a6ebe64736f6c63430005100032",
  "source": "pragma solidity ^0.5.16;\r\n\r\nimport \"./common/Base.sol\";\r\nimport \"./Escrow.sol\";\r\n\r\n\r\ncontract EscrowFactory is Base {\r\n\r\n    constructor(address _storage ) public Base(_storage) {\r\n    \r\n    }\r\n\r\n    function createEscrow(address buyer, address seller, uint amount) public returns(address){\r\n        Escrow newEscrow = new Escrow(\r\n            eternalStorage.getAddress(keccak256(abi.encodePacked(\"owner\"))),\r\n            eternalStorage.getAddress(keccak256(abi.encodePacked(\"contract.address\", \"Degenics\"))),\r\n            buyer,\r\n            seller,\r\n            amount\r\n        );\r\n        return address(newEscrow);\r\n    }\r\n\r\n\r\n\r\n}",
  "sourcePath": "D:\\projects\\degenics\\degenics-smart-contract\\contracts\\EscrowFactory.sol",
  "compiler": {
    "name": "solc",
    "version": "0.5.16+commit.9c3226ce.Emscripten.clang"
  },
  "schemaVersion": "3.0.23",
  "updatedAt": "2021-01-06T04:21:12.538Z",
  "networkType": "ethereum",
  "devdoc": {
    "methods": {}
  },
  "userdoc": {
    "methods": {}
  }
}