{
  "contractName": "Escrow",
  "abi": [
    {
      "inputs": [
        {
          "internalType": "address",
          "name": "_owner",
          "type": "address"
        },
        {
          "internalType": "address",
          "name": "_degenics",
          "type": "address"
        },
        {
          "internalType": "address",
          "name": "_buyer",
          "type": "address"
        },
        {
          "internalType": "address",
          "name": "_seller",
          "type": "address"
        },
        {
          "internalType": "uint256",
          "name": "_amount",
          "type": "uint256"
        }
      ],
      "payable": false,
      "stateMutability": "nonpayable",
      "type": "constructor"
    },
    {
      "payable": true,
      "stateMutability": "payable",
      "type": "fallback"
    },
    {
      "constant": false,
      "inputs": [],
      "name": "forwardToSeller",
      "outputs": [],
      "payable": false,
      "stateMutability": "nonpayable",
      "type": "function"
    },
    {
      "constant": false,
      "inputs": [],
      "name": "refundToBuyer",
      "outputs": [],
      "payable": false,
      "stateMutability": "nonpayable",
      "type": "function"
    }
  ],
  "bytecode": "0x608060405234801561001057600080fd5b506040516107f03803806107f0833981810160405260a081101561003357600080fd5b810190808051906020019092919080519060200190929190805190602001909291908051906020019092919080519060200190929190505050846000806101000a81548173ffffffffffffffffffffffffffffffffffffffff021916908373ffffffffffffffffffffffffffffffffffffffff16021790555082600160006101000a81548173ffffffffffffffffffffffffffffffffffffffff021916908373ffffffffffffffffffffffffffffffffffffffff16021790555081600260006101000a81548173ffffffffffffffffffffffffffffffffffffffff021916908373ffffffffffffffffffffffffffffffffffffffff1602179055508060058190555033600360006101000a81548173ffffffffffffffffffffffffffffffffffffffff021916908373ffffffffffffffffffffffffffffffffffffffff16021790555083600460006101000a81548173ffffffffffffffffffffffffffffffffffffffff021916908373ffffffffffffffffffffffffffffffffffffffff1602179055506040518060400160405280600481526020017f486f6c64000000000000000000000000000000000000000000000000000000008152506006908051906020019061020292919061020d565b5050505050506102b2565b828054600181600116156101000203166002900490600052602060002090601f016020900481019282601f1061024e57805160ff191683800117855561027c565b8280016001018555821561027c579182015b8281111561027b578251825591602001919060010190610260565b5b509050610289919061028d565b5090565b6102af91905b808211156102ab576000816000905550600101610293565b5090565b90565b61052f806102c16000396000f3fe6080604052600436106100295760003560e01c80634bd7d0811461002b578063f49c845a14610042575b005b34801561003757600080fd5b50610040610059565b005b34801561004e57600080fd5b50610057610257565b005b600360009054906101000a900473ffffffffffffffffffffffffffffffffffffffff1673ffffffffffffffffffffffffffffffffffffffff163373ffffffffffffffffffffffffffffffffffffffff16148061010157506000809054906101000a900473ffffffffffffffffffffffffffffffffffffffff1673ffffffffffffffffffffffffffffffffffffffff163273ffffffffffffffffffffffffffffffffffffffff16145b806101595750600460009054906101000a900473ffffffffffffffffffffffffffffffffffffffff1673ffffffffffffffffffffffffffffffffffffffff163373ffffffffffffffffffffffffffffffffffffffff16145b6101cb576040517f08c379a00000000000000000000000000000000000000000000000000000000081526004018080602001828103825260158152602001807f4f6e6c792063726561746f72206f72206f776e6572000000000000000000000081525060200191505060405180910390fd5b6000600160009054906101000a900473ffffffffffffffffffffffffffffffffffffffff1690506040518060400160405280600681526020017f526566756e6400000000000000000000000000000000000000000000000000008152506006908051906020019061023d929190610455565b508073ffffffffffffffffffffffffffffffffffffffff16ff5b600360009054906101000a900473ffffffffffffffffffffffffffffffffffffffff1673ffffffffffffffffffffffffffffffffffffffff163373ffffffffffffffffffffffffffffffffffffffff1614806102ff57506000809054906101000a900473ffffffffffffffffffffffffffffffffffffffff1673ffffffffffffffffffffffffffffffffffffffff163273ffffffffffffffffffffffffffffffffffffffff16145b806103575750600460009054906101000a900473ffffffffffffffffffffffffffffffffffffffff1673ffffffffffffffffffffffffffffffffffffffff163373ffffffffffffffffffffffffffffffffffffffff16145b6103c9576040517f08c379a00000000000000000000000000000000000000000000000000000000081526004018080602001828103825260158152602001807f4f6e6c792063726561746f72206f72206f776e6572000000000000000000000081525060200191505060405180910390fd5b6000600260009054906101000a900473ffffffffffffffffffffffffffffffffffffffff1690506040518060400160405280600781526020017f466f7277617264000000000000000000000000000000000000000000000000008152506006908051906020019061043b929190610455565b508073ffffffffffffffffffffffffffffffffffffffff16ff5b828054600181600116156101000203166002900490600052602060002090601f016020900481019282601f1061049657805160ff19168380011785556104c4565b828001600101855582156104c4579182015b828111156104c35782518255916020019190600101906104a8565b5b5090506104d191906104d5565b5090565b6104f791905b808211156104f35760008160009055506001016104db565b5090565b9056fea265627a7a723158200c7f445bbe0e7b04eebdc75baa25408c099b8bd2be89043d510cad6a9107cc0664736f6c63430005100032",
  "source": "pragma solidity ^0.5.16;\r\n\r\n\r\ncontract Escrow {\r\n\r\n    address owner;\r\n    address buyer;\r\n    address seller;\r\n    address creator;\r\n    address degenics;\r\n    uint amount;\r\n\r\n    string status; \r\n\r\n    modifier canExecute(){\r\n        require(msg.sender == creator || tx.origin == owner || msg.sender == degenics, \"Only creator or owner\");\r\n        _;\r\n    }\r\n\r\n    constructor(address _owner, address _degenics, address  _buyer, address  _seller, uint _amount) public {        \r\n        owner = _owner;\r\n        buyer = _buyer;\r\n        seller = _seller;\r\n        amount = _amount;\r\n        creator = msg.sender;\r\n        degenics = _degenics;\r\n        status = \"Hold\";\r\n    }\r\n\r\n    function() external payable {}\r\n\r\n    function forwardToSeller() public canExecute  {\r\n        // require(tx.origin == seller, \"Only seller\");\r\n        address payable _seller = address(uint160(seller));\r\n        // _seller.transfer(address(this).balance);\r\n        status = \"Forward\";\r\n        selfdestruct(_seller);\r\n    }\r\n\r\n    function refundToBuyer()public canExecute{\r\n        // require(tx.origin == seller, \"Only seller\");\r\n        address payable _buyer = address(uint160(buyer));\r\n        // _buyer.transfer(address(this).balance);\r\n        status = \"Refund\";\r\n        selfdestruct(_buyer);\r\n    }\r\n\r\n\r\n}",
  "sourcePath": "D:\\projects\\degenics\\degenics-smart-contract\\contracts\\Escrow.sol",
  "compiler": {
    "name": "solc",
    "version": "0.5.16+commit.9c3226ce.Emscripten.clang"
  },
  "schemaVersion": "3.0.23",
  "updatedAt": "2021-01-29T04:21:32.287Z",
  "devdoc": {
    "methods": {}
  },
  "userdoc": {
    "methods": {}
  }
}