{
  "contractName": "Lab",
  "abi": [
    {
      "inputs": [
        {
          "internalType": "address",
          "name": "_storage",
          "type": "address"
        }
      ],
      "payable": false,
      "stateMutability": "nonpayable",
      "type": "constructor"
    },
    {
      "constant": true,
      "inputs": [],
      "name": "eternalStorage",
      "outputs": [
        {
          "internalType": "contract EternalStorageInterface",
          "name": "",
          "type": "address"
        }
      ],
      "payable": false,
      "stateMutability": "view",
      "type": "function"
    },
    {
      "constant": false,
      "inputs": [
        {
          "internalType": "address",
          "name": "_account",
          "type": "address"
        },
        {
          "internalType": "string",
          "name": "name",
          "type": "string"
        },
        {
          "internalType": "string",
          "name": "country",
          "type": "string"
        },
        {
          "internalType": "string",
          "name": "city",
          "type": "string"
        }
      ],
      "name": "register",
      "outputs": [],
      "payable": false,
      "stateMutability": "nonpayable",
      "type": "function"
    },
    {
      "constant": false,
      "inputs": [
        {
          "internalType": "string",
          "name": "field",
          "type": "string"
        },
        {
          "internalType": "string",
          "name": "data",
          "type": "string"
        }
      ],
      "name": "updateData",
      "outputs": [],
      "payable": false,
      "stateMutability": "nonpayable",
      "type": "function"
    },
    {
      "constant": false,
      "inputs": [
        {
          "internalType": "bool",
          "name": "active",
          "type": "bool"
        }
      ],
      "name": "activeLab",
      "outputs": [],
      "payable": false,
      "stateMutability": "nonpayable",
      "type": "function"
    },
    {
      "constant": true,
      "inputs": [
        {
          "internalType": "address",
          "name": "_account",
          "type": "address"
        }
      ],
      "name": "labByAccount",
      "outputs": [
        {
          "internalType": "address",
          "name": "labAccount",
          "type": "address"
        },
        {
          "internalType": "string",
          "name": "name",
          "type": "string"
        },
        {
          "internalType": "string",
          "name": "country",
          "type": "string"
        },
        {
          "internalType": "string",
          "name": "city",
          "type": "string"
        },
        {
          "internalType": "string",
          "name": "additionalData",
          "type": "string"
        },
        {
          "internalType": "bool",
          "name": "active",
          "type": "bool"
        }
      ],
      "payable": false,
      "stateMutability": "view",
      "type": "function"
    },
    {
      "constant": true,
      "inputs": [
        {
          "internalType": "address",
          "name": "labAccount",
          "type": "address"
        },
        {
          "internalType": "string",
          "name": "code",
          "type": "string"
        }
      ],
      "name": "checkActive",
      "outputs": [
        {
          "internalType": "bool",
          "name": "",
          "type": "bool"
        }
      ],
      "payable": false,
      "stateMutability": "view",
      "type": "function"
    },
    {
      "constant": false,
      "inputs": [
        {
          "internalType": "string",
          "name": "code",
          "type": "string"
        },
        {
          "internalType": "string",
          "name": "serviceName",
          "type": "string"
        },
        {
          "internalType": "string",
          "name": "description",
          "type": "string"
        },
        {
          "internalType": "uint256",
          "name": "price",
          "type": "uint256"
        }
      ],
      "name": "registerService",
      "outputs": [],
      "payable": false,
      "stateMutability": "nonpayable",
      "type": "function"
    },
    {
      "constant": true,
      "inputs": [
        {
          "internalType": "address",
          "name": "labAccount",
          "type": "address"
        },
        {
          "internalType": "uint256",
          "name": "index",
          "type": "uint256"
        }
      ],
      "name": "serviceByIndex",
      "outputs": [
        {
          "internalType": "string",
          "name": "code",
          "type": "string"
        },
        {
          "internalType": "string",
          "name": "serviceName",
          "type": "string"
        },
        {
          "internalType": "string",
          "name": "description",
          "type": "string"
        },
        {
          "internalType": "uint256",
          "name": "price",
          "type": "uint256"
        },
        {
          "internalType": "string",
          "name": "additionalData",
          "type": "string"
        },
        {
          "internalType": "bool",
          "name": "active",
          "type": "bool"
        }
      ],
      "payable": false,
      "stateMutability": "view",
      "type": "function"
    },
    {
      "constant": false,
      "inputs": [
        {
          "internalType": "string",
          "name": "code",
          "type": "string"
        },
        {
          "internalType": "bool",
          "name": "active",
          "type": "bool"
        }
      ],
      "name": "activeService",
      "outputs": [],
      "payable": false,
      "stateMutability": "nonpayable",
      "type": "function"
    },
    {
      "constant": false,
      "inputs": [
        {
          "internalType": "string",
          "name": "json",
          "type": "string"
        }
      ],
      "name": "addAdditionalData",
      "outputs": [],
      "payable": false,
      "stateMutability": "nonpayable",
      "type": "function"
    },
    {
      "constant": false,
      "inputs": [
        {
          "internalType": "string",
          "name": "code",
          "type": "string"
        },
        {
          "internalType": "string",
          "name": "jsonData",
          "type": "string"
        }
      ],
      "name": "addServiceAdditionalData",
      "outputs": [],
      "payable": false,
      "stateMutability": "nonpayable",
      "type": "function"
    }
  ],
  "bytecode": "0x608060405260008060006101000a81548173ffffffffffffffffffffffffffffffffffffffff021916908373ffffffffffffffffffffffffffffffffffffffff1602179055503480156200005257600080fd5b5060405162005f8d38038062005f8d833981810160405260208110156200007857600080fd5b810190808051906020019092919050505080806000806101000a81548173ffffffffffffffffffffffffffffffffffffffff021916908373ffffffffffffffffffffffffffffffffffffffff1602179055505050615eb180620000dc6000396000f3fe608060405234801561001057600080fd5b50600436106100a95760003560e01c8063981e7c3911610071578063981e7c391461074957806398ff9c541461093c578063a2175b4a14610986578063bddbb02314610a41578063ed01c66614610b93578063f59887ac14610dd2576100a9565b8063063d93d8146100ae5780632f15ed7b146102b75780632f7c34ec146103aa5780633b59648f146103da578063905110d81461052c575b600080fd5b6102b5600480360360808110156100c457600080fd5b81019080803573ffffffffffffffffffffffffffffffffffffffff1690602001909291908035906020019064010000000081111561010157600080fd5b82018360208201111561011357600080fd5b8035906020019184600183028401116401000000008311171561013557600080fd5b91908080601f016020809104026020016040519081016040528093929190818152602001838380828437600081840152601f19601f8201169050808301925050505050505091929192908035906020019064010000000081111561019857600080fd5b8201836020820111156101aa57600080fd5b803590602001918460018302840111640100000000831117156101cc57600080fd5b91908080601f016020809104026020016040519081016040528093929190818152602001838380828437600081840152601f19601f8201169050808301925050505050505091929192908035906020019064010000000081111561022f57600080fd5b82018360208201111561024157600080fd5b8035906020019184600183028401116401000000008311171561026357600080fd5b91908080601f016020809104026020016040519081016040528093929190818152602001838380828437600081840152601f19601f820116905080830192505050505050509192919290505050610e99565b005b610390600480360360408110156102cd57600080fd5b81019080803573ffffffffffffffffffffffffffffffffffffffff1690602001909291908035906020019064010000000081111561030a57600080fd5b82018360208201111561031c57600080fd5b8035906020019184600183028401116401000000008311171561033e57600080fd5b91908080601f016020809104026020016040519081016040528093929190818152602001838380828437600081840152601f19601f820116905080830192505050505050509192919290505050612374565b604051808215151515815260200191505060405180910390f35b6103d8600480360360208110156103c057600080fd5b810190808035151590602001909291905050506127e8565b005b61052a600480360360408110156103f057600080fd5b810190808035906020019064010000000081111561040d57600080fd5b82018360208201111561041f57600080fd5b8035906020019184600183028401116401000000008311171561044157600080fd5b91908080601f016020809104026020016040519081016040528093929190818152602001838380828437600081840152601f19601f820116905080830192505050505050509192919290803590602001906401000000008111156104a457600080fd5b8201836020820111156104b657600080fd5b803590602001918460018302840111640100000000831117156104d857600080fd5b91908080601f016020809104026020016040519081016040528093929190818152602001838380828437600081840152601f19601f8201169050808301925050505050505091929192905050506129b1565b005b6105786004803603604081101561054257600080fd5b81019080803573ffffffffffffffffffffffffffffffffffffffff16906020019092919080359060200190929190505050612c2f565b60405180806020018060200180602001878152602001806020018615151515815260200185810385528b818151815260200191508051906020019080838360005b838110156105d45780820151818401526020810190506105b9565b50505050905090810190601f1680156106015780820380516001836020036101000a031916815260200191505b5085810384528a818151815260200191508051906020019080838360005b8381101561063a57808201518184015260208101905061061f565b50505050905090810190601f1680156106675780820380516001836020036101000a031916815260200191505b50858103835289818151815260200191508051906020019080838360005b838110156106a0578082015181840152602081019050610685565b50505050905090810190601f1680156106cd5780820380516001836020036101000a031916815260200191505b50858103825287818151815260200191508051906020019080838360005b838110156107065780820151818401526020810190506106eb565b50505050905090810190601f1680156107335780820380516001836020036101000a031916815260200191505b509a505050505050505050505060405180910390f35b61093a6004803603608081101561075f57600080fd5b810190808035906020019064010000000081111561077c57600080fd5b82018360208201111561078e57600080fd5b803590602001918460018302840111640100000000831117156107b057600080fd5b91908080601f016020809104026020016040519081016040528093929190818152602001838380828437600081840152601f19601f8201169050808301925050505050505091929192908035906020019064010000000081111561081357600080fd5b82018360208201111561082557600080fd5b8035906020019184600183028401116401000000008311171561084757600080fd5b91908080601f016020809104026020016040519081016040528093929190818152602001838380828437600081840152601f19601f820116905080830192505050505050509192919290803590602001906401000000008111156108aa57600080fd5b8201836020820111156108bc57600080fd5b803590602001918460018302840111640100000000831117156108de57600080fd5b91908080601f016020809104026020016040519081016040528093929190818152602001838380828437600081840152601f19601f820116905080830192505050505050509192919290803590602001909291905050506139b8565b005b610944614b54565b604051808273ffffffffffffffffffffffffffffffffffffffff1673ffffffffffffffffffffffffffffffffffffffff16815260200191505060405180910390f35b610a3f6004803603602081101561099c57600080fd5b81019080803590602001906401000000008111156109b957600080fd5b8201836020820111156109cb57600080fd5b803590602001918460018302840111640100000000831117156109ed57600080fd5b91908080601f016020809104026020016040519081016040528093929190818152602001838380828437600081840152601f19601f820116905080830192505050505050509192919290505050614b79565b005b610b9160048036036040811015610a5757600080fd5b8101908080359060200190640100000000811115610a7457600080fd5b820183602082011115610a8657600080fd5b80359060200191846001830284011164010000000083111715610aa857600080fd5b91908080601f016020809104026020016040519081016040528093929190818152602001838380828437600081840152601f19601f82011690508083019250505050505050919291929080359060200190640100000000811115610b0b57600080fd5b820183602082011115610b1d57600080fd5b80359060200191846001830284011164010000000083111715610b3f57600080fd5b91908080601f016020809104026020016040519081016040528093929190818152602001838380828437600081840152601f19601f820116905080830192505050505050509192919290505050614da3565b005b610bd560048036036020811015610ba957600080fd5b81019080803573ffffffffffffffffffffffffffffffffffffffff169060200190929190505050615021565b604051808773ffffffffffffffffffffffffffffffffffffffff1673ffffffffffffffffffffffffffffffffffffffff168152602001806020018060200180602001806020018615151515815260200185810385528a818151815260200191508051906020019080838360005b83811015610c5d578082015181840152602081019050610c42565b50505050905090810190601f168015610c8a5780820380516001836020036101000a031916815260200191505b50858103845289818151815260200191508051906020019080838360005b83811015610cc3578082015181840152602081019050610ca8565b50505050905090810190601f168015610cf05780820380516001836020036101000a031916815260200191505b50858103835288818151815260200191508051906020019080838360005b83811015610d29578082015181840152602081019050610d0e565b50505050905090810190601f168015610d565780820380516001836020036101000a031916815260200191505b50858103825287818151815260200191508051906020019080838360005b83811015610d8f578082015181840152602081019050610d74565b50505050905090810190601f168015610dbc5780820380516001836020036101000a031916815260200191505b509a505050505050505050505060405180910390f35b610e9760048036036040811015610de857600080fd5b8101908080359060200190640100000000811115610e0557600080fd5b820183602082011115610e1757600080fd5b80359060200191846001830284011164010000000083111715610e3957600080fd5b91908080601f016020809104026020016040519081016040528093929190818152602001838380828437600081840152601f19601f820116905080830192505050505050509192919290803515159060200190929190505050615ad8565b005b60011515610edc6040518060400160405280600581526020017f6f776e657200000000000000000000000000000000000000000000000000000081525033615cf5565b15151480610f2c575060011515610f286040518060400160405280600581526020017f61646d696e00000000000000000000000000000000000000000000000000000081525033615cf5565b1515145b610f9e576040517f08c379a000000000000000000000000000000000000000000000000000000000815260040180806020018281038252600f8152602001807f4f6e6c792073757065722055736572000000000000000000000000000000000081525060200191505060405180910390fd5b60008060009054906101000a900473ffffffffffffffffffffffffffffffffffffffff1673ffffffffffffffffffffffffffffffffffffffff1663bd02d0f58660405160200180807f6c61622e696e64657800000000000000000000000000000000000000000000008152506009018273ffffffffffffffffffffffffffffffffffffffff1673ffffffffffffffffffffffffffffffffffffffff1660601b8152601401915050604051602081830303815290604052805190602001206040518263ffffffff1660e01b81526004018082815260200191505060206040518083038186803b15801561108f57600080fd5b505afa1580156110a3573d6000803e3d6000fd5b505050506040513d60208110156110b957600080fd5b81019080805190602001909291905050501461113d576040517f08c379a00000000000000000000000000000000000000000000000000000000081526004018080602001828103825260108152602001807f416c72656164792072656769737465720000000000000000000000000000000081525060200191505060405180910390fd5b60008060009054906101000a900473ffffffffffffffffffffffffffffffffffffffff1673ffffffffffffffffffffffffffffffffffffffff166321f8a72160405160200180807f636f6e74726163742e6164647265737300000000000000000000000000000000815250601001807f446567656e6963730000000000000000000000000000000000000000000000008152506008019050604051602081830303815290604052805190602001206040518263ffffffff1660e01b81526004018082815260200191505060206040518083038186803b15801561121f57600080fd5b505afa158015611233573d6000803e3d6000fd5b505050506040513d602081101561124957600080fd5b8101908080519060200190929190505050905060008060009054906101000a900473ffffffffffffffffffffffffffffffffffffffff1673ffffffffffffffffffffffffffffffffffffffff166321f8a72160405160200180807f636f6e74726163742e6164647265737300000000000000000000000000000000815250601001807f4163636f756e74000000000000000000000000000000000000000000000000008152506007019050604051602081830303815290604052805190602001206040518263ffffffff1660e01b81526004018082815260200191505060206040518083038186803b15801561133e57600080fd5b505afa158015611352573d6000803e3d6000fd5b505050506040513d602081101561136857600080fd5b8101908080519060200190929190505050905060008060009054906101000a900473ffffffffffffffffffffffffffffffffffffffff1673ffffffffffffffffffffffffffffffffffffffff166321f8a72160405160200180807f636f6e74726163742e6164647265737300000000000000000000000000000000815250601001807f4c6f636174696f6e0000000000000000000000000000000000000000000000008152506008019050604051602081830303815290604052805190602001206040518263ffffffff1660e01b81526004018082815260200191505060206040518083038186803b15801561145d57600080fd5b505afa158015611471573d6000803e3d6000fd5b505050506040513d602081101561148757600080fd5b810190808051906020019092919050505090508173ffffffffffffffffffffffffffffffffffffffff166332434a2e886040518263ffffffff1660e01b8152600401808273ffffffffffffffffffffffffffffffffffffffff1673ffffffffffffffffffffffffffffffffffffffff16815260200180602001828103825260038152602001807f6c6162000000000000000000000000000000000000000000000000000000000081525060200192505050600060405180830381600087803b15801561155257600080fd5b505af1158015611566573d6000803e3d6000fd5b505050508073ffffffffffffffffffffffffffffffffffffffff16633ffbd47f86866040518363ffffffff1660e01b8152600401808060200180602001838103835285818151815260200191508051906020019080838360005b838110156115db5780820151818401526020810190506115c0565b50505050905090810190601f1680156116085780820380516001836020036101000a031916815260200191505b50838103825284818151815260200191508051906020019080838360005b83811015611641578082015181840152602081019050611626565b50505050905090810190601f16801561166e5780820380516001836020036101000a031916815260200191505b50945050505050600060405180830381600087803b15801561168f57600080fd5b505af11580156116a3573d6000803e3d6000fd5b5050505060008060009054906101000a900473ffffffffffffffffffffffffffffffffffffffff1673ffffffffffffffffffffffffffffffffffffffff1663adb353dc60405160200180807f6c61622e636f756e74000000000000000000000000000000000000000000000081525060090190506040516020818303038152906040528051906020012060016040518363ffffffff1660e01b81526004018083815260200182815260200192505050602060405180830381600087803b15801561176c57600080fd5b505af1158015611780573d6000803e3d6000fd5b505050506040513d602081101561179657600080fd5b810190808051906020019092919050505090506000809054906101000a900473ffffffffffffffffffffffffffffffffffffffff1673ffffffffffffffffffffffffffffffffffffffff1663e2a4853a8960405160200180807f6c61622e696e64657800000000000000000000000000000000000000000000008152506009018273ffffffffffffffffffffffffffffffffffffffff1673ffffffffffffffffffffffffffffffffffffffff1660601b815260140191505060405160208183030381529060405280519060200120836040518363ffffffff1660e01b81526004018083815260200182815260200192505050600060405180830381600087803b1580156118a257600080fd5b505af11580156118b6573d6000803e3d6000fd5b505050506000809054906101000a900473ffffffffffffffffffffffffffffffffffffffff1673ffffffffffffffffffffffffffffffffffffffff1663adb353dc878760405160200180807f6c61622e6c6f636174696f6e0000000000000000000000000000000000000000815250600c0183805190602001908083835b602083106119575780518252602082019150602081019050602083039250611934565b6001836020036101000a03801982511681845116808217855250505050505090500182805190602001908083835b602083106119a85780518252602082019150602081019050602083039250611985565b6001836020036101000a038019825116818451168082178552505050505050905001925050506040516020818303038152906040528051906020012060016040518363ffffffff1660e01b81526004018083815260200182815260200192505050602060405180830381600087803b158015611a2357600080fd5b505af1158015611a37573d6000803e3d6000fd5b505050506040513d6020811015611a4d57600080fd5b810190808051906020019092919050505090506000809054906101000a900473ffffffffffffffffffffffffffffffffffffffff1673ffffffffffffffffffffffffffffffffffffffff1663ca446dd987878460405160200180807f6c61622e6c6f636174696f6e0000000000000000000000000000000000000000815250600c0184805190602001908083835b60208310611afe5780518252602082019150602081019050602083039250611adb565b6001836020036101000a03801982511681845116808217855250505050505090500183805190602001908083835b60208310611b4f5780518252602082019150602081019050602083039250611b2c565b6001836020036101000a0380198251168184511680821785525050505050509050018281526020019350505050604051602081830303815290604052805190602001208a6040518363ffffffff1660e01b8152600401808381526020018273ffffffffffffffffffffffffffffffffffffffff1673ffffffffffffffffffffffffffffffffffffffff16815260200192505050600060405180830381600087803b158015611bfc57600080fd5b505af1158015611c10573d6000803e3d6000fd5b505050506000809054906101000a900473ffffffffffffffffffffffffffffffffffffffff1673ffffffffffffffffffffffffffffffffffffffff16636e8995508960405160200180807f6c61622e6e616d650000000000000000000000000000000000000000000000008152506008018273ffffffffffffffffffffffffffffffffffffffff1673ffffffffffffffffffffffffffffffffffffffff1660601b815260140191505060405160208183030381529060405280519060200120896040518363ffffffff1660e01b81526004018083815260200180602001828103825283818151815260200191508051906020019080838360005b83811015611d25578082015181840152602081019050611d0a565b50505050905090810190601f168015611d525780820380516001836020036101000a031916815260200191505b509350505050600060405180830381600087803b158015611d7257600080fd5b505af1158015611d86573d6000803e3d6000fd5b505050506000809054906101000a900473ffffffffffffffffffffffffffffffffffffffff1673ffffffffffffffffffffffffffffffffffffffff16636e8995508960405160200180807f6c61622e636f756e747279000000000000000000000000000000000000000000815250600b018273ffffffffffffffffffffffffffffffffffffffff1673ffffffffffffffffffffffffffffffffffffffff1660601b815260140191505060405160208183030381529060405280519060200120886040518363ffffffff1660e01b81526004018083815260200180602001828103825283818151815260200191508051906020019080838360005b83811015611e9b578082015181840152602081019050611e80565b50505050905090810190601f168015611ec85780820380516001836020036101000a031916815260200191505b509350505050600060405180830381600087803b158015611ee857600080fd5b505af1158015611efc573d6000803e3d6000fd5b505050506000809054906101000a900473ffffffffffffffffffffffffffffffffffffffff1673ffffffffffffffffffffffffffffffffffffffff16636e8995508960405160200180807f6c61622e636974790000000000000000000000000000000000000000000000008152506008018273ffffffffffffffffffffffffffffffffffffffff1673ffffffffffffffffffffffffffffffffffffffff1660601b815260140191505060405160208183030381529060405280519060200120876040518363ffffffff1660e01b81526004018083815260200180602001828103825283818151815260200191508051906020019080838360005b83811015612011578082015181840152602081019050611ff6565b50505050905090810190601f16801561203e5780820380516001836020036101000a031916815260200191505b509350505050600060405180830381600087803b15801561205e57600080fd5b505af1158015612072573d6000803e3d6000fd5b505050506000809054906101000a900473ffffffffffffffffffffffffffffffffffffffff1673ffffffffffffffffffffffffffffffffffffffff1663abfdcced8960405160200180807f6c61622e61637469766500000000000000000000000000000000000000000000815250600a018273ffffffffffffffffffffffffffffffffffffffff1673ffffffffffffffffffffffffffffffffffffffff1660601b81526014019150506040516020818303038152906040528051906020012060006040518363ffffffff1660e01b8152600401808381526020018215151515815260200192505050600060405180830381600087803b15801561217457600080fd5b505af1158015612188573d6000803e3d6000fd5b505050508373ffffffffffffffffffffffffffffffffffffffff1663996d5fc3898989896040518563ffffffff1660e01b8152600401808573ffffffffffffffffffffffffffffffffffffffff1673ffffffffffffffffffffffffffffffffffffffff168152602001806020018060200180602001848103845287818151815260200191508051906020019080838360005b8381101561223557808201518184015260208101905061221a565b50505050905090810190601f1680156122625780820380516001836020036101000a031916815260200191505b50848103835286818151815260200191508051906020019080838360005b8381101561229b578082015181840152602081019050612280565b50505050905090810190601f1680156122c85780820380516001836020036101000a031916815260200191505b50848103825285818151815260200191508051906020019080838360005b838110156123015780820151818401526020810190506122e6565b50505050905090810190601f16801561232e5780820380516001836020036101000a031916815260200191505b50975050505050505050600060405180830381600087803b15801561235257600080fd5b505af1158015612366573d6000803e3d6000fd5b505050505050505050505050565b60003373ffffffffffffffffffffffffffffffffffffffff166000809054906101000a900473ffffffffffffffffffffffffffffffffffffffff1673ffffffffffffffffffffffffffffffffffffffff166321f8a72160405160200180807f636f6e74726163742e6164647265737300000000000000000000000000000000815250601001807f446567656e6963730000000000000000000000000000000000000000000000008152506008019050604051602081830303815290604052805190602001206040518263ffffffff1660e01b81526004018082815260200191505060206040518083038186803b15801561246d57600080fd5b505afa158015612481573d6000803e3d6000fd5b505050506040513d602081101561249757600080fd5b810190808051906020019092919050505073ffffffffffffffffffffffffffffffffffffffff1614612531576040517f08c379a00000000000000000000000000000000000000000000000000000000081526004018080602001828103825260178152602001807f4f6e6c792072656769737472656420636f6e747261637400000000000000000081525060200191505060405180910390fd5b6000809054906101000a900473ffffffffffffffffffffffffffffffffffffffff1673ffffffffffffffffffffffffffffffffffffffff16637ae1cfca8460405160200180807f6c61622e61637469766500000000000000000000000000000000000000000000815250600a018273ffffffffffffffffffffffffffffffffffffffff1673ffffffffffffffffffffffffffffffffffffffff1660601b8152601401915050604051602081830303815290604052805190602001206040518263ffffffff1660e01b81526004018082815260200191505060206040518083038186803b15801561262057600080fd5b505afa158015612634573d6000803e3d6000fd5b505050506040513d602081101561264a57600080fd5b810190808051906020019092919050505080156127e057506000809054906101000a900473ffffffffffffffffffffffffffffffffffffffff1673ffffffffffffffffffffffffffffffffffffffff16637ae1cfca848460405160200180807f6c61622e736572766963652e61637469766500000000000000000000000000008152506012018373ffffffffffffffffffffffffffffffffffffffff1673ffffffffffffffffffffffffffffffffffffffff1660601b815260140182805190602001908083835b602083106127345780518252602082019150602081019050602083039250612711565b6001836020036101000a03801982511681845116808217855250505050505090500192505050604051602081830303815290604052805190602001206040518263ffffffff1660e01b81526004018082815260200191505060206040518083038186803b1580156127a457600080fd5b505afa1580156127b8573d6000803e3d6000fd5b505050506040513d60208110156127ce57600080fd5b81019080805190602001909291905050505b905092915050565b6128276040518060400160405280600381526020017f6c6162000000000000000000000000000000000000000000000000000000000081525033615cf5565b612899576040517f08c379a00000000000000000000000000000000000000000000000000000000081526004018080602001828103825260088152602001807f4f6e6c79204c616200000000000000000000000000000000000000000000000081525060200191505060405180910390fd5b6000809054906101000a900473ffffffffffffffffffffffffffffffffffffffff1673ffffffffffffffffffffffffffffffffffffffff1663abfdcced3360405160200180807f6c61622e61637469766500000000000000000000000000000000000000000000815250600a018273ffffffffffffffffffffffffffffffffffffffff1673ffffffffffffffffffffffffffffffffffffffff1660601b815260140191505060405160208183030381529060405280519060200120836040518363ffffffff1660e01b8152600401808381526020018215151515815260200192505050600060405180830381600087803b15801561299657600080fd5b505af11580156129aa573d6000803e3d6000fd5b5050505050565b6129f06040518060400160405280600381526020017f6c6162000000000000000000000000000000000000000000000000000000000081525033615cf5565b612a62576040517f08c379a00000000000000000000000000000000000000000000000000000000081526004018080602001828103825260088152602001807f4f6e6c79204c616200000000000000000000000000000000000000000000000081525060200191505060405180910390fd5b6000809054906101000a900473ffffffffffffffffffffffffffffffffffffffff1673ffffffffffffffffffffffffffffffffffffffff16636e899550338460405160200180807f6c61622e736572766963652e6164646974696f6e616c44617461000000000000815250601a018373ffffffffffffffffffffffffffffffffffffffff1673ffffffffffffffffffffffffffffffffffffffff1660601b815260140182805190602001908083835b60208310612b345780518252602082019150602081019050602083039250612b11565b6001836020036101000a0380198251168184511680821785525050505050509050019250505060405160208183030381529060405280519060200120836040518363ffffffff1660e01b81526004018083815260200180602001828103825283818151815260200191508051906020019080838360005b83811015612bc6578082015181840152602081019050612bab565b50505050905090810190601f168015612bf35780820380516001836020036101000a031916815260200191505b509350505050600060405180830381600087803b158015612c1357600080fd5b505af1158015612c27573d6000803e3d6000fd5b505050505050565b60608060606000606060003373ffffffffffffffffffffffffffffffffffffffff166000809054906101000a900473ffffffffffffffffffffffffffffffffffffffff1673ffffffffffffffffffffffffffffffffffffffff166321f8a72160405160200180807f636f6e74726163742e6164647265737300000000000000000000000000000000815250601001807f446567656e6963730000000000000000000000000000000000000000000000008152506008019050604051602081830303815290604052805190602001206040518263ffffffff1660e01b81526004018082815260200191505060206040518083038186803b158015612d3157600080fd5b505afa158015612d45573d6000803e3d6000fd5b505050506040513d6020811015612d5b57600080fd5b810190808051906020019092919050505073ffffffffffffffffffffffffffffffffffffffff1614612df5576040517f08c379a00000000000000000000000000000000000000000000000000000000081526004018080602001828103825260178152602001807f4f6e6c792072656769737472656420636f6e747261637400000000000000000081525060200191505060405180910390fd5b6000809054906101000a900473ffffffffffffffffffffffffffffffffffffffff1673ffffffffffffffffffffffffffffffffffffffff1663986e791a898960405160200180807f6c61622e736572766963652e636f6465000000000000000000000000000000008152506010018373ffffffffffffffffffffffffffffffffffffffff1673ffffffffffffffffffffffffffffffffffffffff1660601b815260140182815260200192505050604051602081830303815290604052805190602001206040518263ffffffff1660e01b81526004018082815260200191505060006040518083038186803b158015612eec57600080fd5b505afa158015612f00573d6000803e3d6000fd5b505050506040513d6000823e3d601f19601f820116820180604052506020811015612f2a57600080fd5b8101908080516040519392919084640100000000821115612f4a57600080fd5b83820191506020820185811115612f6057600080fd5b8251866001820283011164010000000082111715612f7d57600080fd5b8083526020830192505050908051906020019080838360005b83811015612fb1578082015181840152602081019050612f96565b50505050905090810190601f168015612fde5780820380516001836020036101000a031916815260200191505b5060405250505095506000809054906101000a900473ffffffffffffffffffffffffffffffffffffffff1673ffffffffffffffffffffffffffffffffffffffff1663986e791a898860405160200180807f6c61622e736572766963652e6e616d65000000000000000000000000000000008152506010018373ffffffffffffffffffffffffffffffffffffffff1673ffffffffffffffffffffffffffffffffffffffff1660601b815260140182805190602001908083835b602083106130b95780518252602082019150602081019050602083039250613096565b6001836020036101000a03801982511681845116808217855250505050505090500192505050604051602081830303815290604052805190602001206040518263ffffffff1660e01b81526004018082815260200191505060006040518083038186803b15801561312957600080fd5b505afa15801561313d573d6000803e3d6000fd5b505050506040513d6000823e3d601f19601f82011682018060405250602081101561316757600080fd5b810190808051604051939291908464010000000082111561318757600080fd5b8382019150602082018581111561319d57600080fd5b82518660018202830111640100000000821117156131ba57600080fd5b8083526020830192505050908051906020019080838360005b838110156131ee5780820151818401526020810190506131d3565b50505050905090810190601f16801561321b5780820380516001836020036101000a031916815260200191505b5060405250505094506000809054906101000a900473ffffffffffffffffffffffffffffffffffffffff1673ffffffffffffffffffffffffffffffffffffffff1663bd02d0f5898860405160200180807f6c61622e736572766963652e70726963650000000000000000000000000000008152506011018373ffffffffffffffffffffffffffffffffffffffff1673ffffffffffffffffffffffffffffffffffffffff1660601b815260140182805190602001908083835b602083106132f657805182526020820191506020810190506020830392506132d3565b6001836020036101000a03801982511681845116808217855250505050505090500192505050604051602081830303815290604052805190602001206040518263ffffffff1660e01b81526004018082815260200191505060206040518083038186803b15801561336657600080fd5b505afa15801561337a573d6000803e3d6000fd5b505050506040513d602081101561339057600080fd5b810190808051906020019092919050505092506000809054906101000a900473ffffffffffffffffffffffffffffffffffffffff1673ffffffffffffffffffffffffffffffffffffffff1663986e791a898860405160200180807f6c61622e736572766963652e6465736372697074696f6e0000000000000000008152506017018373ffffffffffffffffffffffffffffffffffffffff1673ffffffffffffffffffffffffffffffffffffffff1660601b815260140182805190602001908083835b602083106134755780518252602082019150602081019050602083039250613452565b6001836020036101000a03801982511681845116808217855250505050505090500192505050604051602081830303815290604052805190602001206040518263ffffffff1660e01b81526004018082815260200191505060006040518083038186803b1580156134e557600080fd5b505afa1580156134f9573d6000803e3d6000fd5b505050506040513d6000823e3d601f19601f82011682018060405250602081101561352357600080fd5b810190808051604051939291908464010000000082111561354357600080fd5b8382019150602082018581111561355957600080fd5b825186600182028301116401000000008211171561357657600080fd5b8083526020830192505050908051906020019080838360005b838110156135aa57808201518184015260208101905061358f565b50505050905090810190601f1680156135d75780820380516001836020036101000a031916815260200191505b5060405250505093506000809054906101000a900473ffffffffffffffffffffffffffffffffffffffff1673ffffffffffffffffffffffffffffffffffffffff1663986e791a898860405160200180807f6c61622e736572766963652e6164646974696f6e616c44617461000000000000815250601a018373ffffffffffffffffffffffffffffffffffffffff1673ffffffffffffffffffffffffffffffffffffffff1660601b815260140182805190602001908083835b602083106136b2578051825260208201915060208101905060208303925061368f565b6001836020036101000a03801982511681845116808217855250505050505090500192505050604051602081830303815290604052805190602001206040518263ffffffff1660e01b81526004018082815260200191505060006040518083038186803b15801561372257600080fd5b505afa158015613736573d6000803e3d6000fd5b505050506040513d6000823e3d601f19601f82011682018060405250602081101561376057600080fd5b810190808051604051939291908464010000000082111561378057600080fd5b8382019150602082018581111561379657600080fd5b82518660018202830111640100000000821117156137b357600080fd5b8083526020830192505050908051906020019080838360005b838110156137e75780820151818401526020810190506137cc565b50505050905090810190601f1680156138145780820380516001836020036101000a031916815260200191505b5060405250505091506000809054906101000a900473ffffffffffffffffffffffffffffffffffffffff1673ffffffffffffffffffffffffffffffffffffffff16637ae1cfca898860405160200180807f6c61622e736572766963652e61637469766500000000000000000000000000008152506012018373ffffffffffffffffffffffffffffffffffffffff1673ffffffffffffffffffffffffffffffffffffffff1660601b815260140182805190602001908083835b602083106138ef57805182526020820191506020810190506020830392506138cc565b6001836020036101000a03801982511681845116808217855250505050505090500192505050604051602081830303815290604052805190602001206040518263ffffffff1660e01b81526004018082815260200191505060206040518083038186803b15801561395f57600080fd5b505afa158015613973573d6000803e3d6000fd5b505050506040513d602081101561398957600080fd5b810190808051906020019092919050505090508585858585859550955095509550955095509295509295509295565b6139f76040518060400160405280600381526020017f6c6162000000000000000000000000000000000000000000000000000000000081525033615cf5565b613a69576040517f08c379a00000000000000000000000000000000000000000000000000000000081526004018080602001828103825260088152602001807f4f6e6c79204c616200000000000000000000000000000000000000000000000081525060200191505060405180910390fd5b60008060009054906101000a900473ffffffffffffffffffffffffffffffffffffffff1673ffffffffffffffffffffffffffffffffffffffff1663bd02d0f5338760405160200180807f6c61622e736572766963652e636f6465000000000000000000000000000000008152506010018373ffffffffffffffffffffffffffffffffffffffff1673ffffffffffffffffffffffffffffffffffffffff1660601b815260140182805190602001908083835b60208310613b3d5780518252602082019150602081019050602083039250613b1a565b6001836020036101000a03801982511681845116808217855250505050505090500192505050604051602081830303815290604052805190602001206040518263ffffffff1660e01b81526004018082815260200191505060206040518083038186803b158015613bad57600080fd5b505afa158015613bc1573d6000803e3d6000fd5b505050506040513d6020811015613bd757600080fd5b810190808051906020019092919050505014613c5b576040517f08c379a00000000000000000000000000000000000000000000000000000000081526004018080602001828103825260158152602001807f436f646520616c7265616479207265676973746572000000000000000000000081525060200191505060405180910390fd5b60008060009054906101000a900473ffffffffffffffffffffffffffffffffffffffff1673ffffffffffffffffffffffffffffffffffffffff166321f8a72160405160200180807f636f6e74726163742e6164647265737300000000000000000000000000000000815250601001807f446567656e6963730000000000000000000000000000000000000000000000008152506008019050604051602081830303815290604052805190602001206040518263ffffffff1660e01b81526004018082815260200191505060206040518083038186803b158015613d3d57600080fd5b505afa158015613d51573d6000803e3d6000fd5b505050506040513d6020811015613d6757600080fd5b8101908080519060200190929190505050905060008060009054906101000a900473ffffffffffffffffffffffffffffffffffffffff1673ffffffffffffffffffffffffffffffffffffffff1663adb353dc3360405160200180807f6c61622e736572766963652e636f756e740000000000000000000000000000008152506011018273ffffffffffffffffffffffffffffffffffffffff1673ffffffffffffffffffffffffffffffffffffffff1660601b81526014019150506040516020818303038152906040528051906020012060016040518363ffffffff1660e01b81526004018083815260200182815260200192505050602060405180830381600087803b158015613e7657600080fd5b505af1158015613e8a573d6000803e3d6000fd5b505050506040513d6020811015613ea057600080fd5b810190808051906020019092919050505090506000809054906101000a900473ffffffffffffffffffffffffffffffffffffffff1673ffffffffffffffffffffffffffffffffffffffff1663e2a4853a338860405160200180807f6c61622e736572766963652e636f6465000000000000000000000000000000008152506010018373ffffffffffffffffffffffffffffffffffffffff1673ffffffffffffffffffffffffffffffffffffffff1660601b815260140182805190602001908083835b60208310613f855780518252602082019150602081019050602083039250613f62565b6001836020036101000a0380198251168184511680821785525050505050509050019250505060405160208183030381529060405280519060200120836040518363ffffffff1660e01b81526004018083815260200182815260200192505050600060405180830381600087803b158015613fff57600080fd5b505af1158015614013573d6000803e3d6000fd5b505050506000809054906101000a900473ffffffffffffffffffffffffffffffffffffffff1673ffffffffffffffffffffffffffffffffffffffff16636e899550338360405160200180807f6c61622e736572766963652e636f6465000000000000000000000000000000008152506010018373ffffffffffffffffffffffffffffffffffffffff1673ffffffffffffffffffffffffffffffffffffffff1660601b81526014018281526020019250505060405160208183030381529060405280519060200120886040518363ffffffff1660e01b81526004018083815260200180602001828103825283818151815260200191508051906020019080838360005b83811015614130578082015181840152602081019050614115565b50505050905090810190601f16801561415d5780820380516001836020036101000a031916815260200191505b509350505050600060405180830381600087803b15801561417d57600080fd5b505af1158015614191573d6000803e3d6000fd5b505050506000809054906101000a900473ffffffffffffffffffffffffffffffffffffffff1673ffffffffffffffffffffffffffffffffffffffff16636e899550338860405160200180807f6c61622e736572766963652e6e616d65000000000000000000000000000000008152506010018373ffffffffffffffffffffffffffffffffffffffff1673ffffffffffffffffffffffffffffffffffffffff1660601b815260140182805190602001908083835b602083106142675780518252602082019150602081019050602083039250614244565b6001836020036101000a0380198251168184511680821785525050505050509050019250505060405160208183030381529060405280519060200120876040518363ffffffff1660e01b81526004018083815260200180602001828103825283818151815260200191508051906020019080838360005b838110156142f95780820151818401526020810190506142de565b50505050905090810190601f1680156143265780820380516001836020036101000a031916815260200191505b509350505050600060405180830381600087803b15801561434657600080fd5b505af115801561435a573d6000803e3d6000fd5b505050506000809054906101000a900473ffffffffffffffffffffffffffffffffffffffff1673ffffffffffffffffffffffffffffffffffffffff1663e2a4853a338860405160200180807f6c61622e736572766963652e70726963650000000000000000000000000000008152506011018373ffffffffffffffffffffffffffffffffffffffff1673ffffffffffffffffffffffffffffffffffffffff1660601b815260140182805190602001908083835b60208310614430578051825260208201915060208101905060208303925061440d565b6001836020036101000a0380198251168184511680821785525050505050509050019250505060405160208183030381529060405280519060200120856040518363ffffffff1660e01b81526004018083815260200182815260200192505050600060405180830381600087803b1580156144aa57600080fd5b505af11580156144be573d6000803e3d6000fd5b505050506000809054906101000a900473ffffffffffffffffffffffffffffffffffffffff1673ffffffffffffffffffffffffffffffffffffffff16636e899550338860405160200180807f6c61622e736572766963652e6465736372697074696f6e0000000000000000008152506017018373ffffffffffffffffffffffffffffffffffffffff1673ffffffffffffffffffffffffffffffffffffffff1660601b815260140182805190602001908083835b602083106145945780518252602082019150602081019050602083039250614571565b6001836020036101000a0380198251168184511680821785525050505050509050019250505060405160208183030381529060405280519060200120866040518363ffffffff1660e01b81526004018083815260200180602001828103825283818151815260200191508051906020019080838360005b8381101561462657808201518184015260208101905061460b565b50505050905090810190601f1680156146535780820380516001836020036101000a031916815260200191505b509350505050600060405180830381600087803b15801561467357600080fd5b505af1158015614687573d6000803e3d6000fd5b505050506000809054906101000a900473ffffffffffffffffffffffffffffffffffffffff1673ffffffffffffffffffffffffffffffffffffffff1663abfdcced338860405160200180807f6c61622e736572766963652e61637469766500000000000000000000000000008152506012018373ffffffffffffffffffffffffffffffffffffffff1673ffffffffffffffffffffffffffffffffffffffff1660601b815260140182805190602001908083835b6020831061475d578051825260208201915060208101905060208303925061473a565b6001836020036101000a038019825116818451168082178552505050505050905001925050506040516020818303038152906040528051906020012060016040518363ffffffff1660e01b8152600401808381526020018215151515815260200192505050600060405180830381600087803b1580156147dc57600080fd5b505af11580156147f0573d6000803e3d6000fd5b505050508173ffffffffffffffffffffffffffffffffffffffff166312af942e336000809054906101000a900473ffffffffffffffffffffffffffffffffffffffff1673ffffffffffffffffffffffffffffffffffffffff1663986e791a3360405160200180807f6c61622e6e616d650000000000000000000000000000000000000000000000008152506008018273ffffffffffffffffffffffffffffffffffffffff1673ffffffffffffffffffffffffffffffffffffffff1660601b8152601401915050604051602081830303815290604052805190602001206040518263ffffffff1660e01b81526004018082815260200191505060006040518083038186803b15801561490057600080fd5b505afa158015614914573d6000803e3d6000fd5b505050506040513d6000823e3d601f19601f82011682018060405250602081101561493e57600080fd5b810190808051604051939291908464010000000082111561495e57600080fd5b8382019150602082018581111561497457600080fd5b825186600182028301116401000000008211171561499157600080fd5b8083526020830192505050908051906020019080838360005b838110156149c55780820151818401526020810190506149aa565b50505050905090810190601f1680156149f25780820380516001836020036101000a031916815260200191505b50604052505050886040518463ffffffff1660e01b8152600401808473ffffffffffffffffffffffffffffffffffffffff1673ffffffffffffffffffffffffffffffffffffffff1681526020018060200180602001838103835285818151815260200191508051906020019080838360005b83811015614a7f578082015181840152602081019050614a64565b50505050905090810190601f168015614aac5780820380516001836020036101000a031916815260200191505b50838103825284818151815260200191508051906020019080838360005b83811015614ae5578082015181840152602081019050614aca565b50505050905090810190601f168015614b125780820380516001836020036101000a031916815260200191505b5095505050505050600060405180830381600087803b158015614b3457600080fd5b505af1158015614b48573d6000803e3d6000fd5b50505050505050505050565b6000809054906101000a900473ffffffffffffffffffffffffffffffffffffffff1681565b614bb86040518060400160405280600381526020017f6c6162000000000000000000000000000000000000000000000000000000000081525033615cf5565b614c2a576040517f08c379a00000000000000000000000000000000000000000000000000000000081526004018080602001828103825260088152602001807f4f6e6c79204c616200000000000000000000000000000000000000000000000081525060200191505060405180910390fd5b6000809054906101000a900473ffffffffffffffffffffffffffffffffffffffff1673ffffffffffffffffffffffffffffffffffffffff16636e8995503360405160200180807f6c61622e6164646974696f6e616c4461746100000000000000000000000000008152506012018273ffffffffffffffffffffffffffffffffffffffff1673ffffffffffffffffffffffffffffffffffffffff1660601b815260140191505060405160208183030381529060405280519060200120836040518363ffffffff1660e01b81526004018083815260200180602001828103825283818151815260200191508051906020019080838360005b83811015614d3b578082015181840152602081019050614d20565b50505050905090810190601f168015614d685780820380516001836020036101000a031916815260200191505b509350505050600060405180830381600087803b158015614d8857600080fd5b505af1158015614d9c573d6000803e3d6000fd5b5050505050565b614de26040518060400160405280600381526020017f6c6162000000000000000000000000000000000000000000000000000000000081525033615cf5565b614e54576040517f08c379a00000000000000000000000000000000000000000000000000000000081526004018080602001828103825260088152602001807f4f6e6c79204c616200000000000000000000000000000000000000000000000081525060200191505060405180910390fd5b6000809054906101000a900473ffffffffffffffffffffffffffffffffffffffff1673ffffffffffffffffffffffffffffffffffffffff16636e899550833360405160200180807f6c61622e0000000000000000000000000000000000000000000000000000000081525060040183805190602001908083835b60208310614ef15780518252602082019150602081019050602083039250614ece565b6001836020036101000a0380198251168184511680821785525050505050509050018273ffffffffffffffffffffffffffffffffffffffff1673ffffffffffffffffffffffffffffffffffffffff1660601b81526014019250505060405160208183030381529060405280519060200120836040518363ffffffff1660e01b81526004018083815260200180602001828103825283818151815260200191508051906020019080838360005b83811015614fb8578082015181840152602081019050614f9d565b50505050905090810190601f168015614fe55780820380516001836020036101000a031916815260200191505b509350505050600060405180830381600087803b15801561500557600080fd5b505af1158015615019573d6000803e3d6000fd5b505050505050565b600060608060608060003373ffffffffffffffffffffffffffffffffffffffff166000809054906101000a900473ffffffffffffffffffffffffffffffffffffffff1673ffffffffffffffffffffffffffffffffffffffff166321f8a72160405160200180807f636f6e74726163742e6164647265737300000000000000000000000000000000815250601001807f446567656e6963730000000000000000000000000000000000000000000000008152506008019050604051602081830303815290604052805190602001206040518263ffffffff1660e01b81526004018082815260200191505060206040518083038186803b15801561512257600080fd5b505afa158015615136573d6000803e3d6000fd5b505050506040513d602081101561514c57600080fd5b810190808051906020019092919050505073ffffffffffffffffffffffffffffffffffffffff16146151e6576040517f08c379a00000000000000000000000000000000000000000000000000000000081526004018080602001828103825260178152602001807f4f6e6c792072656769737472656420636f6e747261637400000000000000000081525060200191505060405180910390fd5b6000809054906101000a900473ffffffffffffffffffffffffffffffffffffffff1673ffffffffffffffffffffffffffffffffffffffff1663986e791a8860405160200180807f6c61622e6e616d650000000000000000000000000000000000000000000000008152506008018273ffffffffffffffffffffffffffffffffffffffff1673ffffffffffffffffffffffffffffffffffffffff1660601b8152601401915050604051602081830303815290604052805190602001206040518263ffffffff1660e01b81526004018082815260200191505060006040518083038186803b1580156152d557600080fd5b505afa1580156152e9573d6000803e3d6000fd5b505050506040513d6000823e3d601f19601f82011682018060405250602081101561531357600080fd5b810190808051604051939291908464010000000082111561533357600080fd5b8382019150602082018581111561534957600080fd5b825186600182028301116401000000008211171561536657600080fd5b8083526020830192505050908051906020019080838360005b8381101561539a57808201518184015260208101905061537f565b50505050905090810190601f1680156153c75780820380516001836020036101000a031916815260200191505b5060405250505094506000809054906101000a900473ffffffffffffffffffffffffffffffffffffffff1673ffffffffffffffffffffffffffffffffffffffff1663986e791a8860405160200180807f6c61622e636f756e747279000000000000000000000000000000000000000000815250600b018273ffffffffffffffffffffffffffffffffffffffff1673ffffffffffffffffffffffffffffffffffffffff1660601b8152601401915050604051602081830303815290604052805190602001206040518263ffffffff1660e01b81526004018082815260200191505060006040518083038186803b1580156154bf57600080fd5b505afa1580156154d3573d6000803e3d6000fd5b505050506040513d6000823e3d601f19601f8201168201806040525060208110156154fd57600080fd5b810190808051604051939291908464010000000082111561551d57600080fd5b8382019150602082018581111561553357600080fd5b825186600182028301116401000000008211171561555057600080fd5b8083526020830192505050908051906020019080838360005b83811015615584578082015181840152602081019050615569565b50505050905090810190601f1680156155b15780820380516001836020036101000a031916815260200191505b5060405250505093506000809054906101000a900473ffffffffffffffffffffffffffffffffffffffff1673ffffffffffffffffffffffffffffffffffffffff1663986e791a8860405160200180807f6c61622e636974790000000000000000000000000000000000000000000000008152506008018273ffffffffffffffffffffffffffffffffffffffff1673ffffffffffffffffffffffffffffffffffffffff1660601b8152601401915050604051602081830303815290604052805190602001206040518263ffffffff1660e01b81526004018082815260200191505060006040518083038186803b1580156156a957600080fd5b505afa1580156156bd573d6000803e3d6000fd5b505050506040513d6000823e3d601f19601f8201168201806040525060208110156156e757600080fd5b810190808051604051939291908464010000000082111561570757600080fd5b8382019150602082018581111561571d57600080fd5b825186600182028301116401000000008211171561573a57600080fd5b8083526020830192505050908051906020019080838360005b8381101561576e578082015181840152602081019050615753565b50505050905090810190601f16801561579b5780820380516001836020036101000a031916815260200191505b5060405250505092506000809054906101000a900473ffffffffffffffffffffffffffffffffffffffff1673ffffffffffffffffffffffffffffffffffffffff1663986e791a8860405160200180807f6c61622e6164646974696f6e616c4461746100000000000000000000000000008152506012018273ffffffffffffffffffffffffffffffffffffffff1673ffffffffffffffffffffffffffffffffffffffff1660601b8152601401915050604051602081830303815290604052805190602001206040518263ffffffff1660e01b81526004018082815260200191505060006040518083038186803b15801561589357600080fd5b505afa1580156158a7573d6000803e3d6000fd5b505050506040513d6000823e3d601f19601f8201168201806040525060208110156158d157600080fd5b81019080805160405193929190846401000000008211156158f157600080fd5b8382019150602082018581111561590757600080fd5b825186600182028301116401000000008211171561592457600080fd5b8083526020830192505050908051906020019080838360005b8381101561595857808201518184015260208101905061593d565b50505050905090810190601f1680156159855780820380516001836020036101000a031916815260200191505b5060405250505091508695506000809054906101000a900473ffffffffffffffffffffffffffffffffffffffff1673ffffffffffffffffffffffffffffffffffffffff16637ae1cfca3360405160200180807f6c61622e61637469766500000000000000000000000000000000000000000000815250600a018273ffffffffffffffffffffffffffffffffffffffff1673ffffffffffffffffffffffffffffffffffffffff1660601b8152601401915050604051602081830303815290604052805190602001206040518263ffffffff1660e01b81526004018082815260200191505060206040518083038186803b158015615a8057600080fd5b505afa158015615a94573d6000803e3d6000fd5b505050506040513d6020811015615aaa57600080fd5b8101908080519060200190929190505050905085858585858595509550955095509550955091939550919395565b615b176040518060400160405280600381526020017f6c6162000000000000000000000000000000000000000000000000000000000081525033615cf5565b615b89576040517f08c379a00000000000000000000000000000000000000000000000000000000081526004018080602001828103825260088152602001807f4f6e6c79204c616200000000000000000000000000000000000000000000000081525060200191505060405180910390fd5b6000809054906101000a900473ffffffffffffffffffffffffffffffffffffffff1673ffffffffffffffffffffffffffffffffffffffff1663abfdcced338460405160200180807f6c61622e736572766963652e61637469766500000000000000000000000000008152506012018373ffffffffffffffffffffffffffffffffffffffff1673ffffffffffffffffffffffffffffffffffffffff1660601b815260140182805190602001908083835b60208310615c5b5780518252602082019150602081019050602083039250615c38565b6001836020036101000a0380198251168184511680821785525050505050509050019250505060405160208183030381529060405280519060200120836040518363ffffffff1660e01b8152600401808381526020018215151515815260200192505050600060405180830381600087803b158015615cd957600080fd5b505af1158015615ced573d6000803e3d6000fd5b505050505050565b60008060009054906101000a900473ffffffffffffffffffffffffffffffffffffffff1673ffffffffffffffffffffffffffffffffffffffff16637ae1cfca848460405160200180807f6163636573732e726f6c65000000000000000000000000000000000000000000815250600b0183805190602001908083835b60208310615d945780518252602082019150602081019050602083039250615d71565b6001836020036101000a0380198251168184511680821785525050505050509050018273ffffffffffffffffffffffffffffffffffffffff1673ffffffffffffffffffffffffffffffffffffffff1660601b815260140192505050604051602081830303815290604052805190602001206040518263ffffffff1660e01b81526004018082815260200191505060206040518083038186803b158015615e3957600080fd5b505afa158015615e4d573d6000803e3d6000fd5b505050506040513d6020811015615e6357600080fd5b810190808051906020019092919050505090509291505056fea265627a7a723158200d8ee5388bfd3b3324b080e7f4a176428c9f6f36b2e97e74c9ce20d6ebf57c2264736f6c63430005100032",
  "source": "pragma solidity ^0.5.16;\r\n\r\n\r\nimport \"./common/Base.sol\";\r\nimport \"./common/SafeMath.sol\";\r\nimport \"./common/Address.sol\";\r\nimport \"./Degenics.sol\";\r\nimport \"./Location.sol\";\r\nimport \"./Account.sol\";\r\n\r\n\r\ncontract Lab is Base {\r\n\r\n    modifier onlyLab() {\r\n        require(roleHas(\"lab\",msg.sender),\r\n         \"Only Lab\" );\r\n        _;\r\n    }\r\n\r\n    modifier onlyDegenicsContract() {\r\n        require(eternalStorage.getAddress(keccak256(abi.encodePacked(\"contract.address\", \"Degenics\"))) == msg.sender, \"Only registred contract\" );\r\n        _;\r\n    }\r\n\r\n    constructor(address _storage ) public Base(_storage) {\r\n    \r\n    }\r\n\r\n    function register(address _account, string memory name, \r\n        string memory country, string memory city) public onlySuperUser{\r\n\r\n        require( eternalStorage.getUint(keccak256(abi.encodePacked(\"lab.index\", _account))) ==0, \"Already register\" );\r\n\r\n        Degenics degenics = Degenics(eternalStorage.getAddress(keccak256(abi.encodePacked(\"contract.address\", \"Degenics\"))));\r\n        Account account = Account(eternalStorage.getAddress(keccak256(abi.encodePacked(\"contract.address\", \"Account\"))));\r\n        Location location = Location(eternalStorage.getAddress(keccak256(abi.encodePacked(\"contract.address\", \"Location\"))));\r\n\r\n        account.register(_account, \"lab\");\r\n        location.register(country, city);\r\n\r\n        uint index = eternalStorage.addUint(keccak256(abi.encodePacked(\"lab.count\")), 1);\r\n        eternalStorage.setUint(keccak256(abi.encodePacked(\"lab.index\", _account)), index);\r\n\r\n        index = eternalStorage.addUint(keccak256(abi.encodePacked(\"lab.location\",country, city)), 1);\r\n        eternalStorage.setAddress(keccak256(abi.encodePacked(\"lab.location\",country, city, index)), _account);\r\n        eternalStorage.setString(keccak256(abi.encodePacked(\"lab.name\", _account)), name);\r\n        eternalStorage.setString(keccak256(abi.encodePacked(\"lab.country\", _account)), country);\r\n        eternalStorage.setString(keccak256(abi.encodePacked(\"lab.city\", _account)), city);\r\n        eternalStorage.setBool(keccak256(abi.encodePacked(\"lab.active\", _account)), false);\r\n        degenics.emitNewLab(_account, name, country, city);\r\n    }\r\n\r\n    function updateData(string memory field, string memory data) public onlyLab{\r\n        eternalStorage.setString(keccak256(abi.encodePacked(\"lab.\", field, msg.sender)), data);\r\n    }\r\n\r\n    function activeLab(bool active) public onlyLab{\r\n        eternalStorage.setBool(keccak256(abi.encodePacked(\"lab.active\", msg.sender)), active);\r\n    }\r\n\r\n    function labByAccount(address _account) public view onlyDegenicsContract\r\n        returns(address labAccount, string memory name, string memory country, string memory city,\r\n        string memory additionalData, bool active){\r\n           \r\n        name = eternalStorage.getString(keccak256(abi.encodePacked(\"lab.name\", _account)));\r\n        country = eternalStorage.getString(keccak256(abi.encodePacked(\"lab.country\", _account)));\r\n        city = eternalStorage.getString(keccak256(abi.encodePacked(\"lab.city\", _account)));         \r\n        additionalData =  eternalStorage.getString(keccak256(abi.encodePacked(\"lab.additionalData\", _account)));\r\n        labAccount = _account;  \r\n        active = eternalStorage.getBool(keccak256(abi.encodePacked(\"lab.active\", msg.sender)));\r\n        return (labAccount, name, country, city, additionalData, active); \r\n    }\r\n\r\n    function checkActive(address labAccount, string memory code) public view onlyDegenicsContract returns(bool){\r\n        return eternalStorage.getBool(keccak256(abi.encodePacked(\"lab.active\", labAccount))) && eternalStorage.getBool(keccak256(abi.encodePacked(\"lab.service.active\", labAccount, code)));\r\n    }\r\n    \r\n    function registerService(string memory code, string memory serviceName, string memory description, uint price) public onlyLab{\r\n        require(eternalStorage.getUint(keccak256(abi.encodePacked(\"lab.service.code\", msg.sender, code))) == 0, \"Code already register\");\r\n        Degenics degenics = Degenics(eternalStorage.getAddress(keccak256(abi.encodePacked(\"contract.address\", \"Degenics\"))));\r\n        uint index = eternalStorage.addUint(keccak256(abi.encodePacked(\"lab.service.count\", msg.sender)), 1);\r\n        eternalStorage.setUint(keccak256(abi.encodePacked(\"lab.service.code\", msg.sender, code)), index);\r\n        eternalStorage.setString(keccak256(abi.encodePacked(\"lab.service.code\", msg.sender, index )), code);\r\n        eternalStorage.setString(keccak256(abi.encodePacked(\"lab.service.name\", msg.sender, code)), serviceName );\r\n        eternalStorage.setUint(keccak256(abi.encodePacked(\"lab.service.price\", msg.sender, code)), price );\r\n        eternalStorage.setString(keccak256(abi.encodePacked(\"lab.service.description\", msg.sender, code)), description );\r\n        eternalStorage.setBool(keccak256(abi.encodePacked(\"lab.service.active\", msg.sender, code)), true);\r\n        degenics.emitNewService(msg.sender, eternalStorage.getString(keccak256(abi.encodePacked(\"lab.name\", msg.sender))),serviceName);\r\n    }\r\n\r\n    function serviceByIndex(address labAccount, uint index) public view onlyDegenicsContract returns(string memory code, \r\n    string memory serviceName, string memory description, uint price, string memory additionalData, bool active){\r\n        code = eternalStorage.getString(keccak256(abi.encodePacked(\"lab.service.code\", labAccount, index )));\r\n        serviceName = eternalStorage.getString(keccak256(abi.encodePacked(\"lab.service.name\", labAccount, code)));\r\n        price = eternalStorage.getUint(keccak256(abi.encodePacked(\"lab.service.price\", labAccount, code)));\r\n        \r\n        description = eternalStorage.getString(keccak256(abi.encodePacked(\"lab.service.description\", labAccount, code)));\r\n        additionalData = eternalStorage.getString(keccak256(abi.encodePacked(\"lab.service.additionalData\", labAccount, code)));\r\n\r\n        active = eternalStorage.getBool(keccak256(abi.encodePacked(\"lab.service.active\", labAccount, code)));\r\n\r\n        return(code, serviceName, description,  price, additionalData, active);\r\n    }\r\n\r\n    function activeService(string memory code, bool active) public onlyLab{\r\n        eternalStorage.setBool(keccak256(abi.encodePacked(\"lab.service.active\", msg.sender, code)), active);\r\n    }\r\n\r\n    function addAdditionalData(string memory json) public onlyLab{\r\n        eternalStorage.setString(keccak256(abi.encodePacked(\"lab.additionalData\", msg.sender)), json );\r\n    }\r\n\r\n    function addServiceAdditionalData(string memory code, string memory jsonData) public onlyLab{\r\n        eternalStorage.setString(keccak256(abi.encodePacked(\"lab.service.additionalData\", msg.sender, code)), jsonData);\r\n    }\r\n\r\n}\r\n\r\n//0xcba7e4441e58db5b9f63da77acec09f6833a2c44a4ef72871580ee5c41a37166",
  "sourcePath": "D:\\projects\\degenics\\degenics-smart-contract\\contracts\\Lab.sol",
  "compiler": {
    "name": "solc",
    "version": "0.5.16+commit.9c3226ce.Emscripten.clang"
  },
  "schemaVersion": "3.0.23",
  "updatedAt": "2021-01-03T07:42:05.096Z",
  "networkType": "ethereum",
  "devdoc": {
    "methods": {}
  },
  "userdoc": {
    "methods": {}
  }
}