{
  "contractName": "Lab",
  "abi": [
    {
      "inputs": [
        {
          "internalType": "address",
          "name": "_storage",
          "type": "address"
        }
      ],
      "payable": false,
      "stateMutability": "nonpayable",
      "type": "constructor"
    },
    {
      "constant": true,
      "inputs": [],
      "name": "eternalStorage",
      "outputs": [
        {
          "internalType": "contract EternalStorageInterface",
          "name": "",
          "type": "address"
        }
      ],
      "payable": false,
      "stateMutability": "view",
      "type": "function"
    },
    {
      "constant": false,
      "inputs": [
        {
          "internalType": "address",
          "name": "_account",
          "type": "address"
        },
        {
          "internalType": "string",
          "name": "name",
          "type": "string"
        },
        {
          "internalType": "string",
          "name": "country",
          "type": "string"
        },
        {
          "internalType": "string",
          "name": "city",
          "type": "string"
        }
      ],
      "name": "register",
      "outputs": [],
      "payable": false,
      "stateMutability": "nonpayable",
      "type": "function"
    },
    {
      "constant": false,
      "inputs": [
        {
          "internalType": "string",
          "name": "field",
          "type": "string"
        },
        {
          "internalType": "string",
          "name": "data",
          "type": "string"
        }
      ],
      "name": "updateData",
      "outputs": [],
      "payable": false,
      "stateMutability": "nonpayable",
      "type": "function"
    },
    {
      "constant": true,
      "inputs": [
        {
          "internalType": "address",
          "name": "_account",
          "type": "address"
        }
      ],
      "name": "labByAccount",
      "outputs": [
        {
          "internalType": "address",
          "name": "labAccount",
          "type": "address"
        },
        {
          "internalType": "string",
          "name": "name",
          "type": "string"
        },
        {
          "internalType": "string",
          "name": "country",
          "type": "string"
        },
        {
          "internalType": "string",
          "name": "city",
          "type": "string"
        },
        {
          "internalType": "string",
          "name": "labAddress",
          "type": "string"
        },
        {
          "internalType": "string",
          "name": "labLogo",
          "type": "string"
        },
        {
          "internalType": "string",
          "name": "labUrl",
          "type": "string"
        },
        {
          "internalType": "string",
          "name": "additionalData",
          "type": "string"
        }
      ],
      "payable": false,
      "stateMutability": "view",
      "type": "function"
    },
    {
      "constant": false,
      "inputs": [
        {
          "internalType": "string",
          "name": "code",
          "type": "string"
        },
        {
          "internalType": "string",
          "name": "serviceName",
          "type": "string"
        },
        {
          "internalType": "string",
          "name": "description",
          "type": "string"
        },
        {
          "internalType": "uint256",
          "name": "price",
          "type": "uint256"
        },
        {
          "internalType": "string",
          "name": "icon",
          "type": "string"
        },
        {
          "internalType": "string",
          "name": "image",
          "type": "string"
        },
        {
          "internalType": "string",
          "name": "url",
          "type": "string"
        }
      ],
      "name": "registerService",
      "outputs": [],
      "payable": false,
      "stateMutability": "nonpayable",
      "type": "function"
    },
    {
      "constant": false,
      "inputs": [
        {
          "internalType": "string",
          "name": "json",
          "type": "string"
        }
      ],
      "name": "addAdditionalData",
      "outputs": [],
      "payable": false,
      "stateMutability": "nonpayable",
      "type": "function"
    },
    {
      "constant": false,
      "inputs": [
        {
          "internalType": "string",
          "name": "code",
          "type": "string"
        },
        {
          "internalType": "string",
          "name": "jsonData",
          "type": "string"
        }
      ],
      "name": "addServiceAdditionalData",
      "outputs": [],
      "payable": false,
      "stateMutability": "nonpayable",
      "type": "function"
    }
  ],
  "bytecode": "0x608060405260008060006101000a81548173ffffffffffffffffffffffffffffffffffffffff021916908373ffffffffffffffffffffffffffffffffffffffff16021790555034801561005157600080fd5b5060405162004fef38038062004fef8339818101604052602081101561007657600080fd5b810190808051906020019092919050505080806000806101000a81548173ffffffffffffffffffffffffffffffffffffffff021916908373ffffffffffffffffffffffffffffffffffffffff1602179055505050614f1580620000da6000396000f3fe608060405234801561001057600080fd5b506004361061007d5760003560e01c8063a2175b4a1161005b578063a2175b4a14610427578063bddbb023146104e2578063eb8b4b4c14610634578063ed01c666146109ec5761007d565b8063063d93d8146100825780633b59648f1461028b57806398ff9c54146103dd575b600080fd5b6102896004803603608081101561009857600080fd5b81019080803573ffffffffffffffffffffffffffffffffffffffff169060200190929190803590602001906401000000008111156100d557600080fd5b8201836020820111156100e757600080fd5b8035906020019184600183028401116401000000008311171561010957600080fd5b91908080601f016020809104026020016040519081016040528093929190818152602001838380828437600081840152601f19601f8201169050808301925050505050505091929192908035906020019064010000000081111561016c57600080fd5b82018360208201111561017e57600080fd5b803590602001918460018302840111640100000000831117156101a057600080fd5b91908080601f016020809104026020016040519081016040528093929190818152602001838380828437600081840152601f19601f8201169050808301925050505050505091929192908035906020019064010000000081111561020357600080fd5b82018360208201111561021557600080fd5b8035906020019184600183028401116401000000008311171561023757600080fd5b91908080601f016020809104026020016040519081016040528093929190818152602001838380828437600081840152601f19601f820116905080830192505050505050509192919290505050610d64565b005b6103db600480360360408110156102a157600080fd5b81019080803590602001906401000000008111156102be57600080fd5b8201836020820111156102d057600080fd5b803590602001918460018302840111640100000000831117156102f257600080fd5b91908080601f016020809104026020016040519081016040528093929190818152602001838380828437600081840152601f19601f8201169050808301925050505050505091929192908035906020019064010000000081111561035557600080fd5b82018360208201111561036757600080fd5b8035906020019184600183028401116401000000008311171561038957600080fd5b91908080601f016020809104026020016040519081016040528093929190818152602001838380828437600081840152601f19601f820116905080830192505050505050509192919290505050612129565b005b6103e56123a7565b604051808273ffffffffffffffffffffffffffffffffffffffff1673ffffffffffffffffffffffffffffffffffffffff16815260200191505060405180910390f35b6104e06004803603602081101561043d57600080fd5b810190808035906020019064010000000081111561045a57600080fd5b82018360208201111561046c57600080fd5b8035906020019184600183028401116401000000008311171561048e57600080fd5b91908080601f016020809104026020016040519081016040528093929190818152602001838380828437600081840152601f19601f8201169050808301925050505050505091929192905050506123cc565b005b610632600480360360408110156104f857600080fd5b810190808035906020019064010000000081111561051557600080fd5b82018360208201111561052757600080fd5b8035906020019184600183028401116401000000008311171561054957600080fd5b91908080601f016020809104026020016040519081016040528093929190818152602001838380828437600081840152601f19601f820116905080830192505050505050509192919290803590602001906401000000008111156105ac57600080fd5b8201836020820111156105be57600080fd5b803590602001918460018302840111640100000000831117156105e057600080fd5b91908080601f016020809104026020016040519081016040528093929190818152602001838380828437600081840152601f19601f8201169050808301925050505050505091929192905050506125f6565b005b6109ea600480360360e081101561064a57600080fd5b810190808035906020019064010000000081111561066757600080fd5b82018360208201111561067957600080fd5b8035906020019184600183028401116401000000008311171561069b57600080fd5b91908080601f016020809104026020016040519081016040528093929190818152602001838380828437600081840152601f19601f820116905080830192505050505050509192919290803590602001906401000000008111156106fe57600080fd5b82018360208201111561071057600080fd5b8035906020019184600183028401116401000000008311171561073257600080fd5b91908080601f016020809104026020016040519081016040528093929190818152602001838380828437600081840152601f19601f8201169050808301925050505050505091929192908035906020019064010000000081111561079557600080fd5b8201836020820111156107a757600080fd5b803590602001918460018302840111640100000000831117156107c957600080fd5b91908080601f016020809104026020016040519081016040528093929190818152602001838380828437600081840152601f19601f820116905080830192505050505050509192919290803590602001909291908035906020019064010000000081111561083657600080fd5b82018360208201111561084857600080fd5b8035906020019184600183028401116401000000008311171561086a57600080fd5b91908080601f016020809104026020016040519081016040528093929190818152602001838380828437600081840152601f19601f820116905080830192505050505050509192919290803590602001906401000000008111156108cd57600080fd5b8201836020820111156108df57600080fd5b8035906020019184600183028401116401000000008311171561090157600080fd5b91908080601f016020809104026020016040519081016040528093929190818152602001838380828437600081840152601f19601f8201169050808301925050505050505091929192908035906020019064010000000081111561096457600080fd5b82018360208201111561097657600080fd5b8035906020019184600183028401116401000000008311171561099857600080fd5b91908080601f016020809104026020016040519081016040528093929190818152602001838380828437600081840152601f19601f820116905080830192505050505050509192919290505050612874565b005b610a2e60048036036020811015610a0257600080fd5b81019080803573ffffffffffffffffffffffffffffffffffffffff169060200190929190505050613e05565b604051808973ffffffffffffffffffffffffffffffffffffffff1673ffffffffffffffffffffffffffffffffffffffff1681526020018060200180602001806020018060200180602001806020018060200188810388528f818151815260200191508051906020019080838360005b83811015610ab8578082015181840152602081019050610a9d565b50505050905090810190601f168015610ae55780820380516001836020036101000a031916815260200191505b5088810387528e818151815260200191508051906020019080838360005b83811015610b1e578082015181840152602081019050610b03565b50505050905090810190601f168015610b4b5780820380516001836020036101000a031916815260200191505b5088810386528d818151815260200191508051906020019080838360005b83811015610b84578082015181840152602081019050610b69565b50505050905090810190601f168015610bb15780820380516001836020036101000a031916815260200191505b5088810385528c818151815260200191508051906020019080838360005b83811015610bea578082015181840152602081019050610bcf565b50505050905090810190601f168015610c175780820380516001836020036101000a031916815260200191505b5088810384528b818151815260200191508051906020019080838360005b83811015610c50578082015181840152602081019050610c35565b50505050905090810190601f168015610c7d5780820380516001836020036101000a031916815260200191505b5088810383528a818151815260200191508051906020019080838360005b83811015610cb6578082015181840152602081019050610c9b565b50505050905090810190601f168015610ce35780820380516001836020036101000a031916815260200191505b50888103825289818151815260200191508051906020019080838360005b83811015610d1c578082015181840152602081019050610d01565b50505050905090810190601f168015610d495780820380516001836020036101000a031916815260200191505b509f5050505050505050505050505050505060405180910390f35b60011515610da76040518060400160405280600581526020017f6f776e657200000000000000000000000000000000000000000000000000000081525033614d59565b15151480610df7575060011515610df36040518060400160405280600581526020017f61646d696e00000000000000000000000000000000000000000000000000000081525033614d59565b1515145b610e69576040517f08c379a000000000000000000000000000000000000000000000000000000000815260040180806020018281038252600f8152602001807f4f6e6c792073757065722055736572000000000000000000000000000000000081525060200191505060405180910390fd5b60008060009054906101000a900473ffffffffffffffffffffffffffffffffffffffff1673ffffffffffffffffffffffffffffffffffffffff1663bd02d0f58660405160200180807f6c61622e696e64657800000000000000000000000000000000000000000000008152506009018273ffffffffffffffffffffffffffffffffffffffff1673ffffffffffffffffffffffffffffffffffffffff1660601b8152601401915050604051602081830303815290604052805190602001206040518263ffffffff1660e01b81526004018082815260200191505060206040518083038186803b158015610f5a57600080fd5b505afa158015610f6e573d6000803e3d6000fd5b505050506040513d6020811015610f8457600080fd5b810190808051906020019092919050505014611008576040517f08c379a00000000000000000000000000000000000000000000000000000000081526004018080602001828103825260108152602001807f416c72656164792072656769737465720000000000000000000000000000000081525060200191505060405180910390fd5b60008060009054906101000a900473ffffffffffffffffffffffffffffffffffffffff1673ffffffffffffffffffffffffffffffffffffffff166321f8a72160405160200180807f636f6e74726163742e6164647265737300000000000000000000000000000000815250601001807f446567656e6963730000000000000000000000000000000000000000000000008152506008019050604051602081830303815290604052805190602001206040518263ffffffff1660e01b81526004018082815260200191505060206040518083038186803b1580156110ea57600080fd5b505afa1580156110fe573d6000803e3d6000fd5b505050506040513d602081101561111457600080fd5b8101908080519060200190929190505050905060008060009054906101000a900473ffffffffffffffffffffffffffffffffffffffff1673ffffffffffffffffffffffffffffffffffffffff166321f8a72160405160200180807f636f6e74726163742e6164647265737300000000000000000000000000000000815250601001807f4163636f756e74000000000000000000000000000000000000000000000000008152506007019050604051602081830303815290604052805190602001206040518263ffffffff1660e01b81526004018082815260200191505060206040518083038186803b15801561120957600080fd5b505afa15801561121d573d6000803e3d6000fd5b505050506040513d602081101561123357600080fd5b8101908080519060200190929190505050905060008060009054906101000a900473ffffffffffffffffffffffffffffffffffffffff1673ffffffffffffffffffffffffffffffffffffffff166321f8a72160405160200180807f636f6e74726163742e6164647265737300000000000000000000000000000000815250601001807f4c6f636174696f6e0000000000000000000000000000000000000000000000008152506008019050604051602081830303815290604052805190602001206040518263ffffffff1660e01b81526004018082815260200191505060206040518083038186803b15801561132857600080fd5b505afa15801561133c573d6000803e3d6000fd5b505050506040513d602081101561135257600080fd5b810190808051906020019092919050505090508173ffffffffffffffffffffffffffffffffffffffff166332434a2e886040518263ffffffff1660e01b8152600401808273ffffffffffffffffffffffffffffffffffffffff1673ffffffffffffffffffffffffffffffffffffffff16815260200180602001828103825260038152602001807f6c6162000000000000000000000000000000000000000000000000000000000081525060200192505050600060405180830381600087803b15801561141d57600080fd5b505af1158015611431573d6000803e3d6000fd5b505050508073ffffffffffffffffffffffffffffffffffffffff16633ffbd47f86866040518363ffffffff1660e01b8152600401808060200180602001838103835285818151815260200191508051906020019080838360005b838110156114a657808201518184015260208101905061148b565b50505050905090810190601f1680156114d35780820380516001836020036101000a031916815260200191505b50838103825284818151815260200191508051906020019080838360005b8381101561150c5780820151818401526020810190506114f1565b50505050905090810190601f1680156115395780820380516001836020036101000a031916815260200191505b50945050505050600060405180830381600087803b15801561155a57600080fd5b505af115801561156e573d6000803e3d6000fd5b5050505060008060009054906101000a900473ffffffffffffffffffffffffffffffffffffffff1673ffffffffffffffffffffffffffffffffffffffff1663adb353dc60405160200180807f6c61622e636f756e74000000000000000000000000000000000000000000000081525060090190506040516020818303038152906040528051906020012060016040518363ffffffff1660e01b81526004018083815260200182815260200192505050602060405180830381600087803b15801561163757600080fd5b505af115801561164b573d6000803e3d6000fd5b505050506040513d602081101561166157600080fd5b810190808051906020019092919050505090506000809054906101000a900473ffffffffffffffffffffffffffffffffffffffff1673ffffffffffffffffffffffffffffffffffffffff1663e2a4853a8960405160200180807f6c61622e696e64657800000000000000000000000000000000000000000000008152506009018273ffffffffffffffffffffffffffffffffffffffff1673ffffffffffffffffffffffffffffffffffffffff1660601b815260140191505060405160208183030381529060405280519060200120836040518363ffffffff1660e01b81526004018083815260200182815260200192505050600060405180830381600087803b15801561176d57600080fd5b505af1158015611781573d6000803e3d6000fd5b505050506000809054906101000a900473ffffffffffffffffffffffffffffffffffffffff1673ffffffffffffffffffffffffffffffffffffffff1663adb353dc878760405160200180807f6c61622e6c6f636174696f6e0000000000000000000000000000000000000000815250600c0183805190602001908083835b6020831061182257805182526020820191506020810190506020830392506117ff565b6001836020036101000a03801982511681845116808217855250505050505090500182805190602001908083835b602083106118735780518252602082019150602081019050602083039250611850565b6001836020036101000a038019825116818451168082178552505050505050905001925050506040516020818303038152906040528051906020012060016040518363ffffffff1660e01b81526004018083815260200182815260200192505050602060405180830381600087803b1580156118ee57600080fd5b505af1158015611902573d6000803e3d6000fd5b505050506040513d602081101561191857600080fd5b810190808051906020019092919050505090506000809054906101000a900473ffffffffffffffffffffffffffffffffffffffff1673ffffffffffffffffffffffffffffffffffffffff1663ca446dd987878460405160200180807f6c61622e6c6f636174696f6e0000000000000000000000000000000000000000815250600c0184805190602001908083835b602083106119c957805182526020820191506020810190506020830392506119a6565b6001836020036101000a03801982511681845116808217855250505050505090500183805190602001908083835b60208310611a1a57805182526020820191506020810190506020830392506119f7565b6001836020036101000a0380198251168184511680821785525050505050509050018281526020019350505050604051602081830303815290604052805190602001208a6040518363ffffffff1660e01b8152600401808381526020018273ffffffffffffffffffffffffffffffffffffffff1673ffffffffffffffffffffffffffffffffffffffff16815260200192505050600060405180830381600087803b158015611ac757600080fd5b505af1158015611adb573d6000803e3d6000fd5b505050506000809054906101000a900473ffffffffffffffffffffffffffffffffffffffff1673ffffffffffffffffffffffffffffffffffffffff16636e8995508960405160200180807f6c61622e6e616d650000000000000000000000000000000000000000000000008152506008018273ffffffffffffffffffffffffffffffffffffffff1673ffffffffffffffffffffffffffffffffffffffff1660601b815260140191505060405160208183030381529060405280519060200120896040518363ffffffff1660e01b81526004018083815260200180602001828103825283818151815260200191508051906020019080838360005b83811015611bf0578082015181840152602081019050611bd5565b50505050905090810190601f168015611c1d5780820380516001836020036101000a031916815260200191505b509350505050600060405180830381600087803b158015611c3d57600080fd5b505af1158015611c51573d6000803e3d6000fd5b505050506000809054906101000a900473ffffffffffffffffffffffffffffffffffffffff1673ffffffffffffffffffffffffffffffffffffffff16636e8995508960405160200180807f6c61622e636f756e747279000000000000000000000000000000000000000000815250600b018273ffffffffffffffffffffffffffffffffffffffff1673ffffffffffffffffffffffffffffffffffffffff1660601b815260140191505060405160208183030381529060405280519060200120886040518363ffffffff1660e01b81526004018083815260200180602001828103825283818151815260200191508051906020019080838360005b83811015611d66578082015181840152602081019050611d4b565b50505050905090810190601f168015611d935780820380516001836020036101000a031916815260200191505b509350505050600060405180830381600087803b158015611db357600080fd5b505af1158015611dc7573d6000803e3d6000fd5b505050506000809054906101000a900473ffffffffffffffffffffffffffffffffffffffff1673ffffffffffffffffffffffffffffffffffffffff16636e8995508960405160200180807f6c61622e636974790000000000000000000000000000000000000000000000008152506008018273ffffffffffffffffffffffffffffffffffffffff1673ffffffffffffffffffffffffffffffffffffffff1660601b815260140191505060405160208183030381529060405280519060200120876040518363ffffffff1660e01b81526004018083815260200180602001828103825283818151815260200191508051906020019080838360005b83811015611edc578082015181840152602081019050611ec1565b50505050905090810190601f168015611f095780820380516001836020036101000a031916815260200191505b509350505050600060405180830381600087803b158015611f2957600080fd5b505af1158015611f3d573d6000803e3d6000fd5b505050508373ffffffffffffffffffffffffffffffffffffffff1663996d5fc3898989896040518563ffffffff1660e01b8152600401808573ffffffffffffffffffffffffffffffffffffffff1673ffffffffffffffffffffffffffffffffffffffff168152602001806020018060200180602001848103845287818151815260200191508051906020019080838360005b83811015611fea578082015181840152602081019050611fcf565b50505050905090810190601f1680156120175780820380516001836020036101000a031916815260200191505b50848103835286818151815260200191508051906020019080838360005b83811015612050578082015181840152602081019050612035565b50505050905090810190601f16801561207d5780820380516001836020036101000a031916815260200191505b50848103825285818151815260200191508051906020019080838360005b838110156120b657808201518184015260208101905061209b565b50505050905090810190601f1680156120e35780820380516001836020036101000a031916815260200191505b50975050505050505050600060405180830381600087803b15801561210757600080fd5b505af115801561211b573d6000803e3d6000fd5b505050505050505050505050565b6121686040518060400160405280600381526020017f6c6162000000000000000000000000000000000000000000000000000000000081525033614d59565b6121da576040517f08c379a00000000000000000000000000000000000000000000000000000000081526004018080602001828103825260088152602001807f4f6e6c79204c616200000000000000000000000000000000000000000000000081525060200191505060405180910390fd5b6000809054906101000a900473ffffffffffffffffffffffffffffffffffffffff1673ffffffffffffffffffffffffffffffffffffffff16636e899550338460405160200180807f6c61622e736572766963652e6d657461646174610000000000000000000000008152506014018373ffffffffffffffffffffffffffffffffffffffff1673ffffffffffffffffffffffffffffffffffffffff1660601b815260140182805190602001908083835b602083106122ac5780518252602082019150602081019050602083039250612289565b6001836020036101000a0380198251168184511680821785525050505050509050019250505060405160208183030381529060405280519060200120836040518363ffffffff1660e01b81526004018083815260200180602001828103825283818151815260200191508051906020019080838360005b8381101561233e578082015181840152602081019050612323565b50505050905090810190601f16801561236b5780820380516001836020036101000a031916815260200191505b509350505050600060405180830381600087803b15801561238b57600080fd5b505af115801561239f573d6000803e3d6000fd5b505050505050565b6000809054906101000a900473ffffffffffffffffffffffffffffffffffffffff1681565b61240b6040518060400160405280600381526020017f6c6162000000000000000000000000000000000000000000000000000000000081525033614d59565b61247d576040517f08c379a00000000000000000000000000000000000000000000000000000000081526004018080602001828103825260088152602001807f4f6e6c79204c616200000000000000000000000000000000000000000000000081525060200191505060405180910390fd5b6000809054906101000a900473ffffffffffffffffffffffffffffffffffffffff1673ffffffffffffffffffffffffffffffffffffffff16636e8995503360405160200180807f6c61622e6164646974696f6e616c4461746100000000000000000000000000008152506012018273ffffffffffffffffffffffffffffffffffffffff1673ffffffffffffffffffffffffffffffffffffffff1660601b815260140191505060405160208183030381529060405280519060200120836040518363ffffffff1660e01b81526004018083815260200180602001828103825283818151815260200191508051906020019080838360005b8381101561258e578082015181840152602081019050612573565b50505050905090810190601f1680156125bb5780820380516001836020036101000a031916815260200191505b509350505050600060405180830381600087803b1580156125db57600080fd5b505af11580156125ef573d6000803e3d6000fd5b5050505050565b6126356040518060400160405280600381526020017f6c6162000000000000000000000000000000000000000000000000000000000081525033614d59565b6126a7576040517f08c379a00000000000000000000000000000000000000000000000000000000081526004018080602001828103825260088152602001807f4f6e6c79204c616200000000000000000000000000000000000000000000000081525060200191505060405180910390fd5b6000809054906101000a900473ffffffffffffffffffffffffffffffffffffffff1673ffffffffffffffffffffffffffffffffffffffff16636e899550833360405160200180807f6c61622e0000000000000000000000000000000000000000000000000000000081525060040183805190602001908083835b602083106127445780518252602082019150602081019050602083039250612721565b6001836020036101000a0380198251168184511680821785525050505050509050018273ffffffffffffffffffffffffffffffffffffffff1673ffffffffffffffffffffffffffffffffffffffff1660601b81526014019250505060405160208183030381529060405280519060200120836040518363ffffffff1660e01b81526004018083815260200180602001828103825283818151815260200191508051906020019080838360005b8381101561280b5780820151818401526020810190506127f0565b50505050905090810190601f1680156128385780820380516001836020036101000a031916815260200191505b509350505050600060405180830381600087803b15801561285857600080fd5b505af115801561286c573d6000803e3d6000fd5b505050505050565b6128b36040518060400160405280600381526020017f6c6162000000000000000000000000000000000000000000000000000000000081525033614d59565b612925576040517f08c379a00000000000000000000000000000000000000000000000000000000081526004018080602001828103825260088152602001807f4f6e6c79204c616200000000000000000000000000000000000000000000000081525060200191505060405180910390fd5b60008060009054906101000a900473ffffffffffffffffffffffffffffffffffffffff1673ffffffffffffffffffffffffffffffffffffffff1663bd02d0f5338a60405160200180807f6c61622e736572766963652e636f6465000000000000000000000000000000008152506010018373ffffffffffffffffffffffffffffffffffffffff1673ffffffffffffffffffffffffffffffffffffffff1660601b815260140182805190602001908083835b602083106129f957805182526020820191506020810190506020830392506129d6565b6001836020036101000a03801982511681845116808217855250505050505090500192505050604051602081830303815290604052805190602001206040518263ffffffff1660e01b81526004018082815260200191505060206040518083038186803b158015612a6957600080fd5b505afa158015612a7d573d6000803e3d6000fd5b505050506040513d6020811015612a9357600080fd5b810190808051906020019092919050505014612b17576040517f08c379a00000000000000000000000000000000000000000000000000000000081526004018080602001828103825260158152602001807f436f646520616c7265616479207265676973746572000000000000000000000081525060200191505060405180910390fd5b60008060009054906101000a900473ffffffffffffffffffffffffffffffffffffffff1673ffffffffffffffffffffffffffffffffffffffff166321f8a72160405160200180807f636f6e74726163742e6164647265737300000000000000000000000000000000815250601001807f446567656e6963730000000000000000000000000000000000000000000000008152506008019050604051602081830303815290604052805190602001206040518263ffffffff1660e01b81526004018082815260200191505060206040518083038186803b158015612bf957600080fd5b505afa158015612c0d573d6000803e3d6000fd5b505050506040513d6020811015612c2357600080fd5b8101908080519060200190929190505050905060008060009054906101000a900473ffffffffffffffffffffffffffffffffffffffff1673ffffffffffffffffffffffffffffffffffffffff1663adb353dc3360405160200180807f6c61622e736572766963652e636f756e740000000000000000000000000000008152506011018273ffffffffffffffffffffffffffffffffffffffff1673ffffffffffffffffffffffffffffffffffffffff1660601b81526014019150506040516020818303038152906040528051906020012060016040518363ffffffff1660e01b81526004018083815260200182815260200192505050602060405180830381600087803b158015612d3257600080fd5b505af1158015612d46573d6000803e3d6000fd5b505050506040513d6020811015612d5c57600080fd5b810190808051906020019092919050505090506000809054906101000a900473ffffffffffffffffffffffffffffffffffffffff1673ffffffffffffffffffffffffffffffffffffffff1663e2a4853a338b60405160200180807f6c61622e736572766963652e636f6465000000000000000000000000000000008152506010018373ffffffffffffffffffffffffffffffffffffffff1673ffffffffffffffffffffffffffffffffffffffff1660601b815260140182805190602001908083835b60208310612e415780518252602082019150602081019050602083039250612e1e565b6001836020036101000a0380198251168184511680821785525050505050509050019250505060405160208183030381529060405280519060200120836040518363ffffffff1660e01b81526004018083815260200182815260200192505050600060405180830381600087803b158015612ebb57600080fd5b505af1158015612ecf573d6000803e3d6000fd5b505050506000809054906101000a900473ffffffffffffffffffffffffffffffffffffffff1673ffffffffffffffffffffffffffffffffffffffff16636e899550338360405160200180807f6c61622e736572766963652e636f6465000000000000000000000000000000008152506010018373ffffffffffffffffffffffffffffffffffffffff1673ffffffffffffffffffffffffffffffffffffffff1660601b815260140182815260200192505050604051602081830303815290604052805190602001208b6040518363ffffffff1660e01b81526004018083815260200180602001828103825283818151815260200191508051906020019080838360005b83811015612fec578082015181840152602081019050612fd1565b50505050905090810190601f1680156130195780820380516001836020036101000a031916815260200191505b509350505050600060405180830381600087803b15801561303957600080fd5b505af115801561304d573d6000803e3d6000fd5b505050506000809054906101000a900473ffffffffffffffffffffffffffffffffffffffff1673ffffffffffffffffffffffffffffffffffffffff16636e899550338b60405160200180807f6c61622e736572766963652e6e616d65000000000000000000000000000000008152506010018373ffffffffffffffffffffffffffffffffffffffff1673ffffffffffffffffffffffffffffffffffffffff1660601b815260140182805190602001908083835b602083106131235780518252602082019150602081019050602083039250613100565b6001836020036101000a03801982511681845116808217855250505050505090500192505050604051602081830303815290604052805190602001208a6040518363ffffffff1660e01b81526004018083815260200180602001828103825283818151815260200191508051906020019080838360005b838110156131b557808201518184015260208101905061319a565b50505050905090810190601f1680156131e25780820380516001836020036101000a031916815260200191505b509350505050600060405180830381600087803b15801561320257600080fd5b505af1158015613216573d6000803e3d6000fd5b505050506000809054906101000a900473ffffffffffffffffffffffffffffffffffffffff1673ffffffffffffffffffffffffffffffffffffffff1663e2a4853a338b60405160200180807f6c61622e736572766963652e70726963650000000000000000000000000000008152506011018373ffffffffffffffffffffffffffffffffffffffff1673ffffffffffffffffffffffffffffffffffffffff1660601b815260140182805190602001908083835b602083106132ec57805182526020820191506020810190506020830392506132c9565b6001836020036101000a0380198251168184511680821785525050505050509050019250505060405160208183030381529060405280519060200120886040518363ffffffff1660e01b81526004018083815260200182815260200192505050600060405180830381600087803b15801561336657600080fd5b505af115801561337a573d6000803e3d6000fd5b505050506000809054906101000a900473ffffffffffffffffffffffffffffffffffffffff1673ffffffffffffffffffffffffffffffffffffffff16636e899550338b60405160200180807f6c61622e736572766963652e6465736372697074696f6e0000000000000000008152506017018373ffffffffffffffffffffffffffffffffffffffff1673ffffffffffffffffffffffffffffffffffffffff1660601b815260140182805190602001908083835b60208310613450578051825260208201915060208101905060208303925061342d565b6001836020036101000a0380198251168184511680821785525050505050509050019250505060405160208183030381529060405280519060200120896040518363ffffffff1660e01b81526004018083815260200180602001828103825283818151815260200191508051906020019080838360005b838110156134e25780820151818401526020810190506134c7565b50505050905090810190601f16801561350f5780820380516001836020036101000a031916815260200191505b509350505050600060405180830381600087803b15801561352f57600080fd5b505af1158015613543573d6000803e3d6000fd5b505050506000809054906101000a900473ffffffffffffffffffffffffffffffffffffffff1673ffffffffffffffffffffffffffffffffffffffff16636e899550338b60405160200180807f6c61622e736572766963652e69636f6e000000000000000000000000000000008152506010018373ffffffffffffffffffffffffffffffffffffffff1673ffffffffffffffffffffffffffffffffffffffff1660601b815260140182805190602001908083835b6020831061361957805182526020820191506020810190506020830392506135f6565b6001836020036101000a0380198251168184511680821785525050505050509050019250505060405160208183030381529060405280519060200120876040518363ffffffff1660e01b81526004018083815260200180602001828103825283818151815260200191508051906020019080838360005b838110156136ab578082015181840152602081019050613690565b50505050905090810190601f1680156136d85780820380516001836020036101000a031916815260200191505b509350505050600060405180830381600087803b1580156136f857600080fd5b505af115801561370c573d6000803e3d6000fd5b505050506000809054906101000a900473ffffffffffffffffffffffffffffffffffffffff1673ffffffffffffffffffffffffffffffffffffffff16636e899550338b60405160200180807f6c61622e736572766963652e696d6167650000000000000000000000000000008152506011018373ffffffffffffffffffffffffffffffffffffffff1673ffffffffffffffffffffffffffffffffffffffff1660601b815260140182805190602001908083835b602083106137e257805182526020820191506020810190506020830392506137bf565b6001836020036101000a0380198251168184511680821785525050505050509050019250505060405160208183030381529060405280519060200120866040518363ffffffff1660e01b81526004018083815260200180602001828103825283818151815260200191508051906020019080838360005b83811015613874578082015181840152602081019050613859565b50505050905090810190601f1680156138a15780820380516001836020036101000a031916815260200191505b509350505050600060405180830381600087803b1580156138c157600080fd5b505af11580156138d5573d6000803e3d6000fd5b505050506000809054906101000a900473ffffffffffffffffffffffffffffffffffffffff1673ffffffffffffffffffffffffffffffffffffffff16636e899550338b60405160200180807f6c61622e736572766963652e75726c0000000000000000000000000000000000815250600f018373ffffffffffffffffffffffffffffffffffffffff1673ffffffffffffffffffffffffffffffffffffffff1660601b815260140182805190602001908083835b602083106139ab5780518252602082019150602081019050602083039250613988565b6001836020036101000a0380198251168184511680821785525050505050509050019250505060405160208183030381529060405280519060200120856040518363ffffffff1660e01b81526004018083815260200180602001828103825283818151815260200191508051906020019080838360005b83811015613a3d578082015181840152602081019050613a22565b50505050905090810190601f168015613a6a5780820380516001836020036101000a031916815260200191505b509350505050600060405180830381600087803b158015613a8a57600080fd5b505af1158015613a9e573d6000803e3d6000fd5b505050508173ffffffffffffffffffffffffffffffffffffffff166312af942e336000809054906101000a900473ffffffffffffffffffffffffffffffffffffffff1673ffffffffffffffffffffffffffffffffffffffff1663986e791a3360405160200180807f6c61622e6e616d650000000000000000000000000000000000000000000000008152506008018273ffffffffffffffffffffffffffffffffffffffff1673ffffffffffffffffffffffffffffffffffffffff1660601b8152601401915050604051602081830303815290604052805190602001206040518263ffffffff1660e01b81526004018082815260200191505060006040518083038186803b158015613bae57600080fd5b505afa158015613bc2573d6000803e3d6000fd5b505050506040513d6000823e3d601f19601f820116820180604052506020811015613bec57600080fd5b8101908080516040519392919084640100000000821115613c0c57600080fd5b83820191506020820185811115613c2257600080fd5b8251866001820283011164010000000082111715613c3f57600080fd5b8083526020830192505050908051906020019080838360005b83811015613c73578082015181840152602081019050613c58565b50505050905090810190601f168015613ca05780820380516001836020036101000a031916815260200191505b506040525050508b6040518463ffffffff1660e01b8152600401808473ffffffffffffffffffffffffffffffffffffffff1673ffffffffffffffffffffffffffffffffffffffff1681526020018060200180602001838103835285818151815260200191508051906020019080838360005b83811015613d2d578082015181840152602081019050613d12565b50505050905090810190601f168015613d5a5780820380516001836020036101000a031916815260200191505b50838103825284818151815260200191508051906020019080838360005b83811015613d93578082015181840152602081019050613d78565b50505050905090810190601f168015613dc05780820380516001836020036101000a031916815260200191505b5095505050505050600060405180830381600087803b158015613de257600080fd5b505af1158015613df6573d6000803e3d6000fd5b50505050505050505050505050565b600060608060608060608060603373ffffffffffffffffffffffffffffffffffffffff166000809054906101000a900473ffffffffffffffffffffffffffffffffffffffff1673ffffffffffffffffffffffffffffffffffffffff166321f8a72160405160200180807f636f6e74726163742e6164647265737300000000000000000000000000000000815250601001807f446567656e6963730000000000000000000000000000000000000000000000008152506008019050604051602081830303815290604052805190602001206040518263ffffffff1660e01b81526004018082815260200191505060206040518083038186803b158015613f0957600080fd5b505afa158015613f1d573d6000803e3d6000fd5b505050506040513d6020811015613f3357600080fd5b810190808051906020019092919050505073ffffffffffffffffffffffffffffffffffffffff1614613fcd576040517f08c379a00000000000000000000000000000000000000000000000000000000081526004018080602001828103825260178152602001807f4f6e6c792072656769737472656420636f6e747261637400000000000000000081525060200191505060405180910390fd5b6000809054906101000a900473ffffffffffffffffffffffffffffffffffffffff1673ffffffffffffffffffffffffffffffffffffffff1663986e791a8a60405160200180807f6c61622e6e616d650000000000000000000000000000000000000000000000008152506008018273ffffffffffffffffffffffffffffffffffffffff1673ffffffffffffffffffffffffffffffffffffffff1660601b8152601401915050604051602081830303815290604052805190602001206040518263ffffffff1660e01b81526004018082815260200191505060006040518083038186803b1580156140bc57600080fd5b505afa1580156140d0573d6000803e3d6000fd5b505050506040513d6000823e3d601f19601f8201168201806040525060208110156140fa57600080fd5b810190808051604051939291908464010000000082111561411a57600080fd5b8382019150602082018581111561413057600080fd5b825186600182028301116401000000008211171561414d57600080fd5b8083526020830192505050908051906020019080838360005b83811015614181578082015181840152602081019050614166565b50505050905090810190601f1680156141ae5780820380516001836020036101000a031916815260200191505b5060405250505096506000809054906101000a900473ffffffffffffffffffffffffffffffffffffffff1673ffffffffffffffffffffffffffffffffffffffff1663986e791a8a60405160200180807f6c61622e636f756e747279000000000000000000000000000000000000000000815250600b018273ffffffffffffffffffffffffffffffffffffffff1673ffffffffffffffffffffffffffffffffffffffff1660601b8152601401915050604051602081830303815290604052805190602001206040518263ffffffff1660e01b81526004018082815260200191505060006040518083038186803b1580156142a657600080fd5b505afa1580156142ba573d6000803e3d6000fd5b505050506040513d6000823e3d601f19601f8201168201806040525060208110156142e457600080fd5b810190808051604051939291908464010000000082111561430457600080fd5b8382019150602082018581111561431a57600080fd5b825186600182028301116401000000008211171561433757600080fd5b8083526020830192505050908051906020019080838360005b8381101561436b578082015181840152602081019050614350565b50505050905090810190601f1680156143985780820380516001836020036101000a031916815260200191505b5060405250505095506000809054906101000a900473ffffffffffffffffffffffffffffffffffffffff1673ffffffffffffffffffffffffffffffffffffffff1663986e791a8a60405160200180807f6c61622e636974790000000000000000000000000000000000000000000000008152506008018273ffffffffffffffffffffffffffffffffffffffff1673ffffffffffffffffffffffffffffffffffffffff1660601b8152601401915050604051602081830303815290604052805190602001206040518263ffffffff1660e01b81526004018082815260200191505060006040518083038186803b15801561449057600080fd5b505afa1580156144a4573d6000803e3d6000fd5b505050506040513d6000823e3d601f19601f8201168201806040525060208110156144ce57600080fd5b81019080805160405193929190846401000000008211156144ee57600080fd5b8382019150602082018581111561450457600080fd5b825186600182028301116401000000008211171561452157600080fd5b8083526020830192505050908051906020019080838360005b8381101561455557808201518184015260208101905061453a565b50505050905090810190601f1680156145825780820380516001836020036101000a031916815260200191505b5060405250505094506000809054906101000a900473ffffffffffffffffffffffffffffffffffffffff1673ffffffffffffffffffffffffffffffffffffffff1663986e791a8a60405160200180807f6c61622e61646472657373000000000000000000000000000000000000000000815250600b018273ffffffffffffffffffffffffffffffffffffffff1673ffffffffffffffffffffffffffffffffffffffff1660601b8152601401915050604051602081830303815290604052805190602001206040518263ffffffff1660e01b81526004018082815260200191505060006040518083038186803b15801561467a57600080fd5b505afa15801561468e573d6000803e3d6000fd5b505050506040513d6000823e3d601f19601f8201168201806040525060208110156146b857600080fd5b81019080805160405193929190846401000000008211156146d857600080fd5b838201915060208201858111156146ee57600080fd5b825186600182028301116401000000008211171561470b57600080fd5b8083526020830192505050908051906020019080838360005b8381101561473f578082015181840152602081019050614724565b50505050905090810190601f16801561476c5780820380516001836020036101000a031916815260200191505b5060405250505093506000809054906101000a900473ffffffffffffffffffffffffffffffffffffffff1673ffffffffffffffffffffffffffffffffffffffff1663986e791a8a60405160200180807f6c61622e6c6f676f0000000000000000000000000000000000000000000000008152506008018273ffffffffffffffffffffffffffffffffffffffff1673ffffffffffffffffffffffffffffffffffffffff1660601b8152601401915050604051602081830303815290604052805190602001206040518263ffffffff1660e01b81526004018082815260200191505060006040518083038186803b15801561486457600080fd5b505afa158015614878573d6000803e3d6000fd5b505050506040513d6000823e3d601f19601f8201168201806040525060208110156148a257600080fd5b81019080805160405193929190846401000000008211156148c257600080fd5b838201915060208201858111156148d857600080fd5b82518660018202830111640100000000821117156148f557600080fd5b8083526020830192505050908051906020019080838360005b8381101561492957808201518184015260208101905061490e565b50505050905090810190601f1680156149565780820380516001836020036101000a031916815260200191505b5060405250505092506000809054906101000a900473ffffffffffffffffffffffffffffffffffffffff1673ffffffffffffffffffffffffffffffffffffffff1663986e791a8a60405160200180807f6c61622e75726c000000000000000000000000000000000000000000000000008152506007018273ffffffffffffffffffffffffffffffffffffffff1673ffffffffffffffffffffffffffffffffffffffff1660601b8152601401915050604051602081830303815290604052805190602001206040518263ffffffff1660e01b81526004018082815260200191505060006040518083038186803b158015614a4e57600080fd5b505afa158015614a62573d6000803e3d6000fd5b505050506040513d6000823e3d601f19601f820116820180604052506020811015614a8c57600080fd5b8101908080516040519392919084640100000000821115614aac57600080fd5b83820191506020820185811115614ac257600080fd5b8251866001820283011164010000000082111715614adf57600080fd5b8083526020830192505050908051906020019080838360005b83811015614b13578082015181840152602081019050614af8565b50505050905090810190601f168015614b405780820380516001836020036101000a031916815260200191505b5060405250505091506000809054906101000a900473ffffffffffffffffffffffffffffffffffffffff1673ffffffffffffffffffffffffffffffffffffffff1663986e791a8a60405160200180807f6c61622e6164646974696f6e616c4461746100000000000000000000000000008152506012018273ffffffffffffffffffffffffffffffffffffffff1673ffffffffffffffffffffffffffffffffffffffff1660601b8152601401915050604051602081830303815290604052805190602001206040518263ffffffff1660e01b81526004018082815260200191505060006040518083038186803b158015614c3857600080fd5b505afa158015614c4c573d6000803e3d6000fd5b505050506040513d6000823e3d601f19601f820116820180604052506020811015614c7657600080fd5b8101908080516040519392919084640100000000821115614c9657600080fd5b83820191506020820185811115614cac57600080fd5b8251866001820283011164010000000082111715614cc957600080fd5b8083526020830192505050908051906020019080838360005b83811015614cfd578082015181840152602081019050614ce2565b50505050905090810190601f168015614d2a5780820380516001836020036101000a031916815260200191505b506040525050509050889750878787878787878797509750975097509750975097509750919395975091939597565b60008060009054906101000a900473ffffffffffffffffffffffffffffffffffffffff1673ffffffffffffffffffffffffffffffffffffffff16637ae1cfca848460405160200180807f6163636573732e726f6c65000000000000000000000000000000000000000000815250600b0183805190602001908083835b60208310614df85780518252602082019150602081019050602083039250614dd5565b6001836020036101000a0380198251168184511680821785525050505050509050018273ffffffffffffffffffffffffffffffffffffffff1673ffffffffffffffffffffffffffffffffffffffff1660601b815260140192505050604051602081830303815290604052805190602001206040518263ffffffff1660e01b81526004018082815260200191505060206040518083038186803b158015614e9d57600080fd5b505afa158015614eb1573d6000803e3d6000fd5b505050506040513d6020811015614ec757600080fd5b810190808051906020019092919050505090509291505056fea265627a7a7231582048cc63af032b371f4de467192778f3664fe415cc2415f48b2884595e1bfa3b8964736f6c63430005100032",
  "source": "pragma solidity ^0.5.16;\r\n\r\n\r\nimport \"./common/Base.sol\";\r\nimport \"./common/SafeMath.sol\";\r\nimport \"./common/Address.sol\";\r\nimport \"./Degenics.sol\";\r\nimport \"./Location.sol\";\r\nimport \"./Account.sol\";\r\n\r\n\r\ncontract Lab is Base {\r\n\r\n    modifier onlyLab() {\r\n        require(roleHas(\"lab\",msg.sender),\r\n         \"Only Lab\" );\r\n        _;\r\n    }\r\n\r\n    modifier onlyDegenicsContract() {\r\n        require(eternalStorage.getAddress(keccak256(abi.encodePacked(\"contract.address\", \"Degenics\"))) == msg.sender, \"Only registred contract\" );\r\n        _;\r\n    }\r\n\r\n    constructor(address _storage ) public Base(_storage) {\r\n    \r\n    }\r\n\r\n    function register(address _account, string memory name, \r\n        string memory country, string memory city) public onlySuperUser{\r\n\r\n        require( eternalStorage.getUint(keccak256(abi.encodePacked(\"lab.index\", _account))) ==0, \"Already register\" );\r\n\r\n        Degenics degenics = Degenics(eternalStorage.getAddress(keccak256(abi.encodePacked(\"contract.address\", \"Degenics\"))));\r\n        Account account = Account(eternalStorage.getAddress(keccak256(abi.encodePacked(\"contract.address\", \"Account\"))));\r\n        Location location = Location(eternalStorage.getAddress(keccak256(abi.encodePacked(\"contract.address\", \"Location\"))));\r\n\r\n        account.register(_account, \"lab\");\r\n        location.register(country, city);\r\n\r\n        uint index = eternalStorage.addUint(keccak256(abi.encodePacked(\"lab.count\")), 1);\r\n        eternalStorage.setUint(keccak256(abi.encodePacked(\"lab.index\", _account)), index);\r\n\r\n        index = eternalStorage.addUint(keccak256(abi.encodePacked(\"lab.location\",country, city)), 1);\r\n        eternalStorage.setAddress(keccak256(abi.encodePacked(\"lab.location\",country, city, index)), _account);\r\n        eternalStorage.setString(keccak256(abi.encodePacked(\"lab.name\", _account)), name);\r\n        eternalStorage.setString(keccak256(abi.encodePacked(\"lab.country\", _account)), country);\r\n        eternalStorage.setString(keccak256(abi.encodePacked(\"lab.city\", _account)), city);\r\n        degenics.emitNewLab(_account, name, country, city);\r\n    }\r\n\r\n    function updateData(string memory field, string memory data) public onlyLab{\r\n        eternalStorage.setString(keccak256(abi.encodePacked(\"lab.\", field, msg.sender)), data);\r\n    }\r\n\r\n    function labByAccount(address _account) public view onlyDegenicsContract\r\n        returns(address labAccount, string memory name, string memory country, string memory city, \r\n        string memory labAddress, string memory labLogo, string memory labUrl, string memory additionalData){\r\n           \r\n        name = eternalStorage.getString(keccak256(abi.encodePacked(\"lab.name\", _account)));\r\n        country = eternalStorage.getString(keccak256(abi.encodePacked(\"lab.country\", _account)));\r\n        city = eternalStorage.getString(keccak256(abi.encodePacked(\"lab.city\", _account))); \r\n        labAddress =  eternalStorage.getString(keccak256(abi.encodePacked(\"lab.address\", _account)));\r\n        labLogo  =  eternalStorage.getString(keccak256(abi.encodePacked(\"lab.logo\", _account)));\r\n        labUrl =  eternalStorage.getString(keccak256(abi.encodePacked(\"lab.url\", _account)));\r\n        additionalData =  eternalStorage.getString(keccak256(abi.encodePacked(\"lab.additionalData\", _account)));\r\n        labAccount = _account;  \r\n        return (labAccount, name, country, city, labAddress, labLogo, labUrl, additionalData); \r\n    }\r\n    \r\n    function registerService(string memory code, string memory serviceName, string memory description, uint price, \r\n        string memory icon, string memory image, string memory url) public onlyLab{\r\n        require(eternalStorage.getUint(keccak256(abi.encodePacked(\"lab.service.code\", msg.sender, code))) == 0, \"Code already register\");\r\n        Degenics degenics = Degenics(eternalStorage.getAddress(keccak256(abi.encodePacked(\"contract.address\", \"Degenics\"))));\r\n        uint index = eternalStorage.addUint(keccak256(abi.encodePacked(\"lab.service.count\", msg.sender)), 1);\r\n        eternalStorage.setUint(keccak256(abi.encodePacked(\"lab.service.code\", msg.sender, code)), index);\r\n        eternalStorage.setString(keccak256(abi.encodePacked(\"lab.service.code\", msg.sender, index )), code);\r\n        eternalStorage.setString(keccak256(abi.encodePacked(\"lab.service.name\", msg.sender, code)), serviceName );\r\n        eternalStorage.setUint(keccak256(abi.encodePacked(\"lab.service.price\", msg.sender, code)), price );\r\n\r\n        eternalStorage.setString(keccak256(abi.encodePacked(\"lab.service.description\", msg.sender, code)), description );\r\n        eternalStorage.setString(keccak256(abi.encodePacked(\"lab.service.icon\", msg.sender, code)), icon );\r\n        eternalStorage.setString(keccak256(abi.encodePacked(\"lab.service.image\", msg.sender, code)), image );\r\n        eternalStorage.setString(keccak256(abi.encodePacked(\"lab.service.url\", msg.sender, code)), url );\r\n        \r\n        degenics.emitNewService(msg.sender, eternalStorage.getString(keccak256(abi.encodePacked(\"lab.name\", msg.sender))),serviceName);\r\n    }\r\n\r\n    function addAdditionalData(string memory json) public onlyLab{\r\n        eternalStorage.setString(keccak256(abi.encodePacked(\"lab.additionalData\", msg.sender)), json );\r\n    }\r\n\r\n    function addServiceAdditionalData(string memory code, string memory jsonData) public onlyLab{\r\n        eternalStorage.setString(keccak256(abi.encodePacked(\"lab.service.metadata\", msg.sender, code)), jsonData);\r\n    }\r\n\r\n}\r\n\r\n//0xcba7e4441e58db5b9f63da77acec09f6833a2c44a4ef72871580ee5c41a37166",
  "sourcePath": "D:\\projects\\degenics\\degenics-smart-contract\\contracts\\Lab.sol",
  "compiler": {
    "name": "solc",
    "version": "0.5.16+commit.9c3226ce.Emscripten.clang"
  },
  "schemaVersion": "3.0.23",
  "updatedAt": "2020-12-30T13:58:55.375Z",
  "networkType": "ethereum",
  "devdoc": {
    "methods": {}
  },
  "userdoc": {
    "methods": {}
  }
}