{
  "contractName": "Lab",
  "abi": [
    {
      "inputs": [
        {
          "internalType": "address",
          "name": "_storage",
          "type": "address"
        }
      ],
      "payable": false,
      "stateMutability": "nonpayable",
      "type": "constructor"
    },
    {
      "constant": true,
      "inputs": [],
      "name": "eternalStorage",
      "outputs": [
        {
          "internalType": "contract EternalStorageInterface",
          "name": "",
          "type": "address"
        }
      ],
      "payable": false,
      "stateMutability": "view",
      "type": "function"
    },
    {
      "constant": false,
      "inputs": [
        {
          "internalType": "address",
          "name": "_account",
          "type": "address"
        },
        {
          "internalType": "string",
          "name": "name",
          "type": "string"
        },
        {
          "internalType": "string",
          "name": "country",
          "type": "string"
        },
        {
          "internalType": "string",
          "name": "city",
          "type": "string"
        }
      ],
      "name": "register",
      "outputs": [],
      "payable": false,
      "stateMutability": "nonpayable",
      "type": "function"
    },
    {
      "constant": false,
      "inputs": [
        {
          "internalType": "bool",
          "name": "active",
          "type": "bool"
        }
      ],
      "name": "activeLab",
      "outputs": [],
      "payable": false,
      "stateMutability": "nonpayable",
      "type": "function"
    },
    {
      "constant": true,
      "inputs": [
        {
          "internalType": "address",
          "name": "_account",
          "type": "address"
        }
      ],
      "name": "labByAccount",
      "outputs": [
        {
          "internalType": "address",
          "name": "labAccount",
          "type": "address"
        },
        {
          "internalType": "string",
          "name": "name",
          "type": "string"
        },
        {
          "internalType": "string",
          "name": "country",
          "type": "string"
        },
        {
          "internalType": "string",
          "name": "city",
          "type": "string"
        },
        {
          "internalType": "string",
          "name": "additionalData",
          "type": "string"
        },
        {
          "internalType": "bool",
          "name": "active",
          "type": "bool"
        }
      ],
      "payable": false,
      "stateMutability": "view",
      "type": "function"
    },
    {
      "constant": true,
      "inputs": [
        {
          "internalType": "address",
          "name": "labAccount",
          "type": "address"
        },
        {
          "internalType": "string",
          "name": "code",
          "type": "string"
        }
      ],
      "name": "checkActive",
      "outputs": [
        {
          "internalType": "bool",
          "name": "",
          "type": "bool"
        }
      ],
      "payable": false,
      "stateMutability": "view",
      "type": "function"
    },
    {
      "constant": false,
      "inputs": [
        {
          "internalType": "string",
          "name": "code",
          "type": "string"
        },
        {
          "internalType": "string",
          "name": "serviceName",
          "type": "string"
        },
        {
          "internalType": "string",
          "name": "description",
          "type": "string"
        },
        {
          "internalType": "uint256",
          "name": "price",
          "type": "uint256"
        }
      ],
      "name": "registerService",
      "outputs": [],
      "payable": false,
      "stateMutability": "nonpayable",
      "type": "function"
    },
    {
      "constant": true,
      "inputs": [
        {
          "internalType": "address",
          "name": "labAccount",
          "type": "address"
        },
        {
          "internalType": "uint256",
          "name": "index",
          "type": "uint256"
        }
      ],
      "name": "serviceByIndex",
      "outputs": [
        {
          "internalType": "string",
          "name": "code",
          "type": "string"
        },
        {
          "internalType": "string",
          "name": "serviceName",
          "type": "string"
        },
        {
          "internalType": "string",
          "name": "description",
          "type": "string"
        },
        {
          "internalType": "uint256",
          "name": "price",
          "type": "uint256"
        },
        {
          "internalType": "string",
          "name": "additionalData",
          "type": "string"
        },
        {
          "internalType": "bool",
          "name": "active",
          "type": "bool"
        }
      ],
      "payable": false,
      "stateMutability": "view",
      "type": "function"
    },
    {
      "constant": false,
      "inputs": [
        {
          "internalType": "string",
          "name": "code",
          "type": "string"
        },
        {
          "internalType": "bool",
          "name": "active",
          "type": "bool"
        }
      ],
      "name": "activeService",
      "outputs": [],
      "payable": false,
      "stateMutability": "nonpayable",
      "type": "function"
    },
    {
      "constant": false,
      "inputs": [
        {
          "internalType": "string",
          "name": "json",
          "type": "string"
        },
        {
          "internalType": "string",
          "name": "pubKey",
          "type": "string"
        }
      ],
      "name": "addAdditionalData",
      "outputs": [],
      "payable": false,
      "stateMutability": "nonpayable",
      "type": "function"
    },
    {
      "constant": false,
      "inputs": [
        {
          "internalType": "string",
          "name": "code",
          "type": "string"
        },
        {
          "internalType": "string",
          "name": "jsonData",
          "type": "string"
        }
      ],
      "name": "addServiceAdditionalData",
      "outputs": [],
      "payable": false,
      "stateMutability": "nonpayable",
      "type": "function"
    }
  ],
  "bytecode": "0x608060405260008060006101000a81548173ffffffffffffffffffffffffffffffffffffffff021916908373ffffffffffffffffffffffffffffffffffffffff1602179055503480156200005257600080fd5b5060405162005fb238038062005fb2833981810160405260208110156200007857600080fd5b810190808051906020019092919050505080806000806101000a81548173ffffffffffffffffffffffffffffffffffffffff021916908373ffffffffffffffffffffffffffffffffffffffff1602179055505050615ed680620000dc6000396000f3fe608060405234801561001057600080fd5b506004361061009e5760003560e01c8063981e7c3911610066578063981e7c391461073e57806398ff9c5414610931578063bd944a261461097b578063ed01c66614610acd578063f59887ac14610d0c5761009e565b8063063d93d8146100a35780632f15ed7b146102ac5780632f7c34ec1461039f5780633b59648f146103cf578063905110d814610521575b600080fd5b6102aa600480360360808110156100b957600080fd5b81019080803573ffffffffffffffffffffffffffffffffffffffff169060200190929190803590602001906401000000008111156100f657600080fd5b82018360208201111561010857600080fd5b8035906020019184600183028401116401000000008311171561012a57600080fd5b91908080601f016020809104026020016040519081016040528093929190818152602001838380828437600081840152601f19601f8201169050808301925050505050505091929192908035906020019064010000000081111561018d57600080fd5b82018360208201111561019f57600080fd5b803590602001918460018302840111640100000000831117156101c157600080fd5b91908080601f016020809104026020016040519081016040528093929190818152602001838380828437600081840152601f19601f8201169050808301925050505050505091929192908035906020019064010000000081111561022457600080fd5b82018360208201111561023657600080fd5b8035906020019184600183028401116401000000008311171561025857600080fd5b91908080601f016020809104026020016040519081016040528093929190818152602001838380828437600081840152601f19601f820116905080830192505050505050509192919290505050610dd3565b005b610385600480360360408110156102c257600080fd5b81019080803573ffffffffffffffffffffffffffffffffffffffff169060200190929190803590602001906401000000008111156102ff57600080fd5b82018360208201111561031157600080fd5b8035906020019184600183028401116401000000008311171561033357600080fd5b91908080601f016020809104026020016040519081016040528093929190818152602001838380828437600081840152601f19601f8201169050808301925050505050505091929192905050506122ae565b604051808215151515815260200191505060405180910390f35b6103cd600480360360208110156103b557600080fd5b81019080803515159060200190929190505050612722565b005b61051f600480360360408110156103e557600080fd5b810190808035906020019064010000000081111561040257600080fd5b82018360208201111561041457600080fd5b8035906020019184600183028401116401000000008311171561043657600080fd5b91908080601f016020809104026020016040519081016040528093929190818152602001838380828437600081840152601f19601f8201169050808301925050505050505091929192908035906020019064010000000081111561049957600080fd5b8201836020820111156104ab57600080fd5b803590602001918460018302840111640100000000831117156104cd57600080fd5b91908080601f016020809104026020016040519081016040528093929190818152602001838380828437600081840152601f19601f8201169050808301925050505050505091929192905050506128eb565b005b61056d6004803603604081101561053757600080fd5b81019080803573ffffffffffffffffffffffffffffffffffffffff16906020019092919080359060200190929190505050612b69565b60405180806020018060200180602001878152602001806020018615151515815260200185810385528b818151815260200191508051906020019080838360005b838110156105c95780820151818401526020810190506105ae565b50505050905090810190601f1680156105f65780820380516001836020036101000a031916815260200191505b5085810384528a818151815260200191508051906020019080838360005b8381101561062f578082015181840152602081019050610614565b50505050905090810190601f16801561065c5780820380516001836020036101000a031916815260200191505b50858103835289818151815260200191508051906020019080838360005b8381101561069557808201518184015260208101905061067a565b50505050905090810190601f1680156106c25780820380516001836020036101000a031916815260200191505b50858103825287818151815260200191508051906020019080838360005b838110156106fb5780820151818401526020810190506106e0565b50505050905090810190601f1680156107285780820380516001836020036101000a031916815260200191505b509a505050505050505050505060405180910390f35b61092f6004803603608081101561075457600080fd5b810190808035906020019064010000000081111561077157600080fd5b82018360208201111561078357600080fd5b803590602001918460018302840111640100000000831117156107a557600080fd5b91908080601f016020809104026020016040519081016040528093929190818152602001838380828437600081840152601f19601f8201169050808301925050505050505091929192908035906020019064010000000081111561080857600080fd5b82018360208201111561081a57600080fd5b8035906020019184600183028401116401000000008311171561083c57600080fd5b91908080601f016020809104026020016040519081016040528093929190818152602001838380828437600081840152601f19601f8201169050808301925050505050505091929192908035906020019064010000000081111561089f57600080fd5b8201836020820111156108b157600080fd5b803590602001918460018302840111640100000000831117156108d357600080fd5b91908080601f016020809104026020016040519081016040528093929190818152602001838380828437600081840152601f19601f820116905080830192505050505050509192919290803590602001909291905050506138f2565b005b610939614a8e565b604051808273ffffffffffffffffffffffffffffffffffffffff1673ffffffffffffffffffffffffffffffffffffffff16815260200191505060405180910390f35b610acb6004803603604081101561099157600080fd5b81019080803590602001906401000000008111156109ae57600080fd5b8201836020820111156109c057600080fd5b803590602001918460018302840111640100000000831117156109e257600080fd5b91908080601f016020809104026020016040519081016040528093929190818152602001838380828437600081840152601f19601f82011690508083019250505050505050919291929080359060200190640100000000811115610a4557600080fd5b820183602082011115610a5757600080fd5b80359060200191846001830284011164010000000083111715610a7957600080fd5b91908080601f016020809104026020016040519081016040528093929190818152602001838380828437600081840152601f19601f820116905080830192505050505050509192919290505050614ab3565b005b610b0f60048036036020811015610ae357600080fd5b81019080803573ffffffffffffffffffffffffffffffffffffffff169060200190929190505050615046565b604051808773ffffffffffffffffffffffffffffffffffffffff1673ffffffffffffffffffffffffffffffffffffffff168152602001806020018060200180602001806020018615151515815260200185810385528a818151815260200191508051906020019080838360005b83811015610b97578082015181840152602081019050610b7c565b50505050905090810190601f168015610bc45780820380516001836020036101000a031916815260200191505b50858103845289818151815260200191508051906020019080838360005b83811015610bfd578082015181840152602081019050610be2565b50505050905090810190601f168015610c2a5780820380516001836020036101000a031916815260200191505b50858103835288818151815260200191508051906020019080838360005b83811015610c63578082015181840152602081019050610c48565b50505050905090810190601f168015610c905780820380516001836020036101000a031916815260200191505b50858103825287818151815260200191508051906020019080838360005b83811015610cc9578082015181840152602081019050610cae565b50505050905090810190601f168015610cf65780820380516001836020036101000a031916815260200191505b509a505050505050505050505060405180910390f35b610dd160048036036040811015610d2257600080fd5b8101908080359060200190640100000000811115610d3f57600080fd5b820183602082011115610d5157600080fd5b80359060200191846001830284011164010000000083111715610d7357600080fd5b91908080601f016020809104026020016040519081016040528093929190818152602001838380828437600081840152601f19601f820116905080830192505050505050509192919290803515159060200190929190505050615afd565b005b60011515610e166040518060400160405280600581526020017f6f776e657200000000000000000000000000000000000000000000000000000081525033615d1a565b15151480610e66575060011515610e626040518060400160405280600581526020017f61646d696e00000000000000000000000000000000000000000000000000000081525033615d1a565b1515145b610ed8576040517f08c379a000000000000000000000000000000000000000000000000000000000815260040180806020018281038252600f8152602001807f4f6e6c792073757065722055736572000000000000000000000000000000000081525060200191505060405180910390fd5b60008060009054906101000a900473ffffffffffffffffffffffffffffffffffffffff1673ffffffffffffffffffffffffffffffffffffffff1663bd02d0f58660405160200180807f6c61622e696e64657800000000000000000000000000000000000000000000008152506009018273ffffffffffffffffffffffffffffffffffffffff1673ffffffffffffffffffffffffffffffffffffffff1660601b8152601401915050604051602081830303815290604052805190602001206040518263ffffffff1660e01b81526004018082815260200191505060206040518083038186803b158015610fc957600080fd5b505afa158015610fdd573d6000803e3d6000fd5b505050506040513d6020811015610ff357600080fd5b810190808051906020019092919050505014611077576040517f08c379a00000000000000000000000000000000000000000000000000000000081526004018080602001828103825260108152602001807f416c72656164792072656769737465720000000000000000000000000000000081525060200191505060405180910390fd5b60008060009054906101000a900473ffffffffffffffffffffffffffffffffffffffff1673ffffffffffffffffffffffffffffffffffffffff166321f8a72160405160200180807f636f6e74726163742e6164647265737300000000000000000000000000000000815250601001807f446567656e6963730000000000000000000000000000000000000000000000008152506008019050604051602081830303815290604052805190602001206040518263ffffffff1660e01b81526004018082815260200191505060206040518083038186803b15801561115957600080fd5b505afa15801561116d573d6000803e3d6000fd5b505050506040513d602081101561118357600080fd5b8101908080519060200190929190505050905060008060009054906101000a900473ffffffffffffffffffffffffffffffffffffffff1673ffffffffffffffffffffffffffffffffffffffff166321f8a72160405160200180807f636f6e74726163742e6164647265737300000000000000000000000000000000815250601001807f4163636f756e74000000000000000000000000000000000000000000000000008152506007019050604051602081830303815290604052805190602001206040518263ffffffff1660e01b81526004018082815260200191505060206040518083038186803b15801561127857600080fd5b505afa15801561128c573d6000803e3d6000fd5b505050506040513d60208110156112a257600080fd5b8101908080519060200190929190505050905060008060009054906101000a900473ffffffffffffffffffffffffffffffffffffffff1673ffffffffffffffffffffffffffffffffffffffff166321f8a72160405160200180807f636f6e74726163742e6164647265737300000000000000000000000000000000815250601001807f4c6f636174696f6e0000000000000000000000000000000000000000000000008152506008019050604051602081830303815290604052805190602001206040518263ffffffff1660e01b81526004018082815260200191505060206040518083038186803b15801561139757600080fd5b505afa1580156113ab573d6000803e3d6000fd5b505050506040513d60208110156113c157600080fd5b810190808051906020019092919050505090508173ffffffffffffffffffffffffffffffffffffffff166332434a2e886040518263ffffffff1660e01b8152600401808273ffffffffffffffffffffffffffffffffffffffff1673ffffffffffffffffffffffffffffffffffffffff16815260200180602001828103825260038152602001807f6c6162000000000000000000000000000000000000000000000000000000000081525060200192505050600060405180830381600087803b15801561148c57600080fd5b505af11580156114a0573d6000803e3d6000fd5b505050508073ffffffffffffffffffffffffffffffffffffffff16633ffbd47f86866040518363ffffffff1660e01b8152600401808060200180602001838103835285818151815260200191508051906020019080838360005b838110156115155780820151818401526020810190506114fa565b50505050905090810190601f1680156115425780820380516001836020036101000a031916815260200191505b50838103825284818151815260200191508051906020019080838360005b8381101561157b578082015181840152602081019050611560565b50505050905090810190601f1680156115a85780820380516001836020036101000a031916815260200191505b50945050505050600060405180830381600087803b1580156115c957600080fd5b505af11580156115dd573d6000803e3d6000fd5b5050505060008060009054906101000a900473ffffffffffffffffffffffffffffffffffffffff1673ffffffffffffffffffffffffffffffffffffffff1663adb353dc60405160200180807f6c61622e636f756e74000000000000000000000000000000000000000000000081525060090190506040516020818303038152906040528051906020012060016040518363ffffffff1660e01b81526004018083815260200182815260200192505050602060405180830381600087803b1580156116a657600080fd5b505af11580156116ba573d6000803e3d6000fd5b505050506040513d60208110156116d057600080fd5b810190808051906020019092919050505090506000809054906101000a900473ffffffffffffffffffffffffffffffffffffffff1673ffffffffffffffffffffffffffffffffffffffff1663e2a4853a8960405160200180807f6c61622e696e64657800000000000000000000000000000000000000000000008152506009018273ffffffffffffffffffffffffffffffffffffffff1673ffffffffffffffffffffffffffffffffffffffff1660601b815260140191505060405160208183030381529060405280519060200120836040518363ffffffff1660e01b81526004018083815260200182815260200192505050600060405180830381600087803b1580156117dc57600080fd5b505af11580156117f0573d6000803e3d6000fd5b505050506000809054906101000a900473ffffffffffffffffffffffffffffffffffffffff1673ffffffffffffffffffffffffffffffffffffffff1663adb353dc878760405160200180807f6c61622e6c6f636174696f6e0000000000000000000000000000000000000000815250600c0183805190602001908083835b60208310611891578051825260208201915060208101905060208303925061186e565b6001836020036101000a03801982511681845116808217855250505050505090500182805190602001908083835b602083106118e257805182526020820191506020810190506020830392506118bf565b6001836020036101000a038019825116818451168082178552505050505050905001925050506040516020818303038152906040528051906020012060016040518363ffffffff1660e01b81526004018083815260200182815260200192505050602060405180830381600087803b15801561195d57600080fd5b505af1158015611971573d6000803e3d6000fd5b505050506040513d602081101561198757600080fd5b810190808051906020019092919050505090506000809054906101000a900473ffffffffffffffffffffffffffffffffffffffff1673ffffffffffffffffffffffffffffffffffffffff1663ca446dd987878460405160200180807f6c61622e6c6f636174696f6e0000000000000000000000000000000000000000815250600c0184805190602001908083835b60208310611a385780518252602082019150602081019050602083039250611a15565b6001836020036101000a03801982511681845116808217855250505050505090500183805190602001908083835b60208310611a895780518252602082019150602081019050602083039250611a66565b6001836020036101000a0380198251168184511680821785525050505050509050018281526020019350505050604051602081830303815290604052805190602001208a6040518363ffffffff1660e01b8152600401808381526020018273ffffffffffffffffffffffffffffffffffffffff1673ffffffffffffffffffffffffffffffffffffffff16815260200192505050600060405180830381600087803b158015611b3657600080fd5b505af1158015611b4a573d6000803e3d6000fd5b505050506000809054906101000a900473ffffffffffffffffffffffffffffffffffffffff1673ffffffffffffffffffffffffffffffffffffffff16636e8995508960405160200180807f6c61622e6e616d650000000000000000000000000000000000000000000000008152506008018273ffffffffffffffffffffffffffffffffffffffff1673ffffffffffffffffffffffffffffffffffffffff1660601b815260140191505060405160208183030381529060405280519060200120896040518363ffffffff1660e01b81526004018083815260200180602001828103825283818151815260200191508051906020019080838360005b83811015611c5f578082015181840152602081019050611c44565b50505050905090810190601f168015611c8c5780820380516001836020036101000a031916815260200191505b509350505050600060405180830381600087803b158015611cac57600080fd5b505af1158015611cc0573d6000803e3d6000fd5b505050506000809054906101000a900473ffffffffffffffffffffffffffffffffffffffff1673ffffffffffffffffffffffffffffffffffffffff16636e8995508960405160200180807f6c61622e636f756e747279000000000000000000000000000000000000000000815250600b018273ffffffffffffffffffffffffffffffffffffffff1673ffffffffffffffffffffffffffffffffffffffff1660601b815260140191505060405160208183030381529060405280519060200120886040518363ffffffff1660e01b81526004018083815260200180602001828103825283818151815260200191508051906020019080838360005b83811015611dd5578082015181840152602081019050611dba565b50505050905090810190601f168015611e025780820380516001836020036101000a031916815260200191505b509350505050600060405180830381600087803b158015611e2257600080fd5b505af1158015611e36573d6000803e3d6000fd5b505050506000809054906101000a900473ffffffffffffffffffffffffffffffffffffffff1673ffffffffffffffffffffffffffffffffffffffff16636e8995508960405160200180807f6c61622e636974790000000000000000000000000000000000000000000000008152506008018273ffffffffffffffffffffffffffffffffffffffff1673ffffffffffffffffffffffffffffffffffffffff1660601b815260140191505060405160208183030381529060405280519060200120876040518363ffffffff1660e01b81526004018083815260200180602001828103825283818151815260200191508051906020019080838360005b83811015611f4b578082015181840152602081019050611f30565b50505050905090810190601f168015611f785780820380516001836020036101000a031916815260200191505b509350505050600060405180830381600087803b158015611f9857600080fd5b505af1158015611fac573d6000803e3d6000fd5b505050506000809054906101000a900473ffffffffffffffffffffffffffffffffffffffff1673ffffffffffffffffffffffffffffffffffffffff1663abfdcced8960405160200180807f6c61622e61637469766500000000000000000000000000000000000000000000815250600a018273ffffffffffffffffffffffffffffffffffffffff1673ffffffffffffffffffffffffffffffffffffffff1660601b81526014019150506040516020818303038152906040528051906020012060006040518363ffffffff1660e01b8152600401808381526020018215151515815260200192505050600060405180830381600087803b1580156120ae57600080fd5b505af11580156120c2573d6000803e3d6000fd5b505050508373ffffffffffffffffffffffffffffffffffffffff1663996d5fc3898989896040518563ffffffff1660e01b8152600401808573ffffffffffffffffffffffffffffffffffffffff1673ffffffffffffffffffffffffffffffffffffffff168152602001806020018060200180602001848103845287818151815260200191508051906020019080838360005b8381101561216f578082015181840152602081019050612154565b50505050905090810190601f16801561219c5780820380516001836020036101000a031916815260200191505b50848103835286818151815260200191508051906020019080838360005b838110156121d55780820151818401526020810190506121ba565b50505050905090810190601f1680156122025780820380516001836020036101000a031916815260200191505b50848103825285818151815260200191508051906020019080838360005b8381101561223b578082015181840152602081019050612220565b50505050905090810190601f1680156122685780820380516001836020036101000a031916815260200191505b50975050505050505050600060405180830381600087803b15801561228c57600080fd5b505af11580156122a0573d6000803e3d6000fd5b505050505050505050505050565b60003373ffffffffffffffffffffffffffffffffffffffff166000809054906101000a900473ffffffffffffffffffffffffffffffffffffffff1673ffffffffffffffffffffffffffffffffffffffff166321f8a72160405160200180807f636f6e74726163742e6164647265737300000000000000000000000000000000815250601001807f446567656e6963730000000000000000000000000000000000000000000000008152506008019050604051602081830303815290604052805190602001206040518263ffffffff1660e01b81526004018082815260200191505060206040518083038186803b1580156123a757600080fd5b505afa1580156123bb573d6000803e3d6000fd5b505050506040513d60208110156123d157600080fd5b810190808051906020019092919050505073ffffffffffffffffffffffffffffffffffffffff161461246b576040517f08c379a00000000000000000000000000000000000000000000000000000000081526004018080602001828103825260178152602001807f4f6e6c792072656769737472656420636f6e747261637400000000000000000081525060200191505060405180910390fd5b6000809054906101000a900473ffffffffffffffffffffffffffffffffffffffff1673ffffffffffffffffffffffffffffffffffffffff16637ae1cfca8460405160200180807f6c61622e61637469766500000000000000000000000000000000000000000000815250600a018273ffffffffffffffffffffffffffffffffffffffff1673ffffffffffffffffffffffffffffffffffffffff1660601b8152601401915050604051602081830303815290604052805190602001206040518263ffffffff1660e01b81526004018082815260200191505060206040518083038186803b15801561255a57600080fd5b505afa15801561256e573d6000803e3d6000fd5b505050506040513d602081101561258457600080fd5b8101908080519060200190929190505050801561271a57506000809054906101000a900473ffffffffffffffffffffffffffffffffffffffff1673ffffffffffffffffffffffffffffffffffffffff16637ae1cfca848460405160200180807f6c61622e736572766963652e61637469766500000000000000000000000000008152506012018373ffffffffffffffffffffffffffffffffffffffff1673ffffffffffffffffffffffffffffffffffffffff1660601b815260140182805190602001908083835b6020831061266e578051825260208201915060208101905060208303925061264b565b6001836020036101000a03801982511681845116808217855250505050505090500192505050604051602081830303815290604052805190602001206040518263ffffffff1660e01b81526004018082815260200191505060206040518083038186803b1580156126de57600080fd5b505afa1580156126f2573d6000803e3d6000fd5b505050506040513d602081101561270857600080fd5b81019080805190602001909291905050505b905092915050565b6127616040518060400160405280600381526020017f6c6162000000000000000000000000000000000000000000000000000000000081525033615d1a565b6127d3576040517f08c379a00000000000000000000000000000000000000000000000000000000081526004018080602001828103825260088152602001807f4f6e6c79204c616200000000000000000000000000000000000000000000000081525060200191505060405180910390fd5b6000809054906101000a900473ffffffffffffffffffffffffffffffffffffffff1673ffffffffffffffffffffffffffffffffffffffff1663abfdcced3360405160200180807f6c61622e61637469766500000000000000000000000000000000000000000000815250600a018273ffffffffffffffffffffffffffffffffffffffff1673ffffffffffffffffffffffffffffffffffffffff1660601b815260140191505060405160208183030381529060405280519060200120836040518363ffffffff1660e01b8152600401808381526020018215151515815260200192505050600060405180830381600087803b1580156128d057600080fd5b505af11580156128e4573d6000803e3d6000fd5b5050505050565b61292a6040518060400160405280600381526020017f6c6162000000000000000000000000000000000000000000000000000000000081525033615d1a565b61299c576040517f08c379a00000000000000000000000000000000000000000000000000000000081526004018080602001828103825260088152602001807f4f6e6c79204c616200000000000000000000000000000000000000000000000081525060200191505060405180910390fd5b6000809054906101000a900473ffffffffffffffffffffffffffffffffffffffff1673ffffffffffffffffffffffffffffffffffffffff16636e899550338460405160200180807f6c61622e736572766963652e6164646974696f6e616c44617461000000000000815250601a018373ffffffffffffffffffffffffffffffffffffffff1673ffffffffffffffffffffffffffffffffffffffff1660601b815260140182805190602001908083835b60208310612a6e5780518252602082019150602081019050602083039250612a4b565b6001836020036101000a0380198251168184511680821785525050505050509050019250505060405160208183030381529060405280519060200120836040518363ffffffff1660e01b81526004018083815260200180602001828103825283818151815260200191508051906020019080838360005b83811015612b00578082015181840152602081019050612ae5565b50505050905090810190601f168015612b2d5780820380516001836020036101000a031916815260200191505b509350505050600060405180830381600087803b158015612b4d57600080fd5b505af1158015612b61573d6000803e3d6000fd5b505050505050565b60608060606000606060003373ffffffffffffffffffffffffffffffffffffffff166000809054906101000a900473ffffffffffffffffffffffffffffffffffffffff1673ffffffffffffffffffffffffffffffffffffffff166321f8a72160405160200180807f636f6e74726163742e6164647265737300000000000000000000000000000000815250601001807f446567656e6963730000000000000000000000000000000000000000000000008152506008019050604051602081830303815290604052805190602001206040518263ffffffff1660e01b81526004018082815260200191505060206040518083038186803b158015612c6b57600080fd5b505afa158015612c7f573d6000803e3d6000fd5b505050506040513d6020811015612c9557600080fd5b810190808051906020019092919050505073ffffffffffffffffffffffffffffffffffffffff1614612d2f576040517f08c379a00000000000000000000000000000000000000000000000000000000081526004018080602001828103825260178152602001807f4f6e6c792072656769737472656420636f6e747261637400000000000000000081525060200191505060405180910390fd5b6000809054906101000a900473ffffffffffffffffffffffffffffffffffffffff1673ffffffffffffffffffffffffffffffffffffffff1663986e791a898960405160200180807f6c61622e736572766963652e636f6465000000000000000000000000000000008152506010018373ffffffffffffffffffffffffffffffffffffffff1673ffffffffffffffffffffffffffffffffffffffff1660601b815260140182815260200192505050604051602081830303815290604052805190602001206040518263ffffffff1660e01b81526004018082815260200191505060006040518083038186803b158015612e2657600080fd5b505afa158015612e3a573d6000803e3d6000fd5b505050506040513d6000823e3d601f19601f820116820180604052506020811015612e6457600080fd5b8101908080516040519392919084640100000000821115612e8457600080fd5b83820191506020820185811115612e9a57600080fd5b8251866001820283011164010000000082111715612eb757600080fd5b8083526020830192505050908051906020019080838360005b83811015612eeb578082015181840152602081019050612ed0565b50505050905090810190601f168015612f185780820380516001836020036101000a031916815260200191505b5060405250505095506000809054906101000a900473ffffffffffffffffffffffffffffffffffffffff1673ffffffffffffffffffffffffffffffffffffffff1663986e791a898860405160200180807f6c61622e736572766963652e6e616d65000000000000000000000000000000008152506010018373ffffffffffffffffffffffffffffffffffffffff1673ffffffffffffffffffffffffffffffffffffffff1660601b815260140182805190602001908083835b60208310612ff35780518252602082019150602081019050602083039250612fd0565b6001836020036101000a03801982511681845116808217855250505050505090500192505050604051602081830303815290604052805190602001206040518263ffffffff1660e01b81526004018082815260200191505060006040518083038186803b15801561306357600080fd5b505afa158015613077573d6000803e3d6000fd5b505050506040513d6000823e3d601f19601f8201168201806040525060208110156130a157600080fd5b81019080805160405193929190846401000000008211156130c157600080fd5b838201915060208201858111156130d757600080fd5b82518660018202830111640100000000821117156130f457600080fd5b8083526020830192505050908051906020019080838360005b8381101561312857808201518184015260208101905061310d565b50505050905090810190601f1680156131555780820380516001836020036101000a031916815260200191505b5060405250505094506000809054906101000a900473ffffffffffffffffffffffffffffffffffffffff1673ffffffffffffffffffffffffffffffffffffffff1663bd02d0f5898860405160200180807f6c61622e736572766963652e70726963650000000000000000000000000000008152506011018373ffffffffffffffffffffffffffffffffffffffff1673ffffffffffffffffffffffffffffffffffffffff1660601b815260140182805190602001908083835b60208310613230578051825260208201915060208101905060208303925061320d565b6001836020036101000a03801982511681845116808217855250505050505090500192505050604051602081830303815290604052805190602001206040518263ffffffff1660e01b81526004018082815260200191505060206040518083038186803b1580156132a057600080fd5b505afa1580156132b4573d6000803e3d6000fd5b505050506040513d60208110156132ca57600080fd5b810190808051906020019092919050505092506000809054906101000a900473ffffffffffffffffffffffffffffffffffffffff1673ffffffffffffffffffffffffffffffffffffffff1663986e791a898860405160200180807f6c61622e736572766963652e6465736372697074696f6e0000000000000000008152506017018373ffffffffffffffffffffffffffffffffffffffff1673ffffffffffffffffffffffffffffffffffffffff1660601b815260140182805190602001908083835b602083106133af578051825260208201915060208101905060208303925061338c565b6001836020036101000a03801982511681845116808217855250505050505090500192505050604051602081830303815290604052805190602001206040518263ffffffff1660e01b81526004018082815260200191505060006040518083038186803b15801561341f57600080fd5b505afa158015613433573d6000803e3d6000fd5b505050506040513d6000823e3d601f19601f82011682018060405250602081101561345d57600080fd5b810190808051604051939291908464010000000082111561347d57600080fd5b8382019150602082018581111561349357600080fd5b82518660018202830111640100000000821117156134b057600080fd5b8083526020830192505050908051906020019080838360005b838110156134e45780820151818401526020810190506134c9565b50505050905090810190601f1680156135115780820380516001836020036101000a031916815260200191505b5060405250505093506000809054906101000a900473ffffffffffffffffffffffffffffffffffffffff1673ffffffffffffffffffffffffffffffffffffffff1663986e791a898860405160200180807f6c61622e736572766963652e6164646974696f6e616c44617461000000000000815250601a018373ffffffffffffffffffffffffffffffffffffffff1673ffffffffffffffffffffffffffffffffffffffff1660601b815260140182805190602001908083835b602083106135ec57805182526020820191506020810190506020830392506135c9565b6001836020036101000a03801982511681845116808217855250505050505090500192505050604051602081830303815290604052805190602001206040518263ffffffff1660e01b81526004018082815260200191505060006040518083038186803b15801561365c57600080fd5b505afa158015613670573d6000803e3d6000fd5b505050506040513d6000823e3d601f19601f82011682018060405250602081101561369a57600080fd5b81019080805160405193929190846401000000008211156136ba57600080fd5b838201915060208201858111156136d057600080fd5b82518660018202830111640100000000821117156136ed57600080fd5b8083526020830192505050908051906020019080838360005b83811015613721578082015181840152602081019050613706565b50505050905090810190601f16801561374e5780820380516001836020036101000a031916815260200191505b5060405250505091506000809054906101000a900473ffffffffffffffffffffffffffffffffffffffff1673ffffffffffffffffffffffffffffffffffffffff16637ae1cfca898860405160200180807f6c61622e736572766963652e61637469766500000000000000000000000000008152506012018373ffffffffffffffffffffffffffffffffffffffff1673ffffffffffffffffffffffffffffffffffffffff1660601b815260140182805190602001908083835b602083106138295780518252602082019150602081019050602083039250613806565b6001836020036101000a03801982511681845116808217855250505050505090500192505050604051602081830303815290604052805190602001206040518263ffffffff1660e01b81526004018082815260200191505060206040518083038186803b15801561389957600080fd5b505afa1580156138ad573d6000803e3d6000fd5b505050506040513d60208110156138c357600080fd5b810190808051906020019092919050505090508585858585859550955095509550955095509295509295509295565b6139316040518060400160405280600381526020017f6c6162000000000000000000000000000000000000000000000000000000000081525033615d1a565b6139a3576040517f08c379a00000000000000000000000000000000000000000000000000000000081526004018080602001828103825260088152602001807f4f6e6c79204c616200000000000000000000000000000000000000000000000081525060200191505060405180910390fd5b60008060009054906101000a900473ffffffffffffffffffffffffffffffffffffffff1673ffffffffffffffffffffffffffffffffffffffff1663bd02d0f5338760405160200180807f6c61622e736572766963652e636f6465000000000000000000000000000000008152506010018373ffffffffffffffffffffffffffffffffffffffff1673ffffffffffffffffffffffffffffffffffffffff1660601b815260140182805190602001908083835b60208310613a775780518252602082019150602081019050602083039250613a54565b6001836020036101000a03801982511681845116808217855250505050505090500192505050604051602081830303815290604052805190602001206040518263ffffffff1660e01b81526004018082815260200191505060206040518083038186803b158015613ae757600080fd5b505afa158015613afb573d6000803e3d6000fd5b505050506040513d6020811015613b1157600080fd5b810190808051906020019092919050505014613b95576040517f08c379a00000000000000000000000000000000000000000000000000000000081526004018080602001828103825260158152602001807f436f646520616c7265616479207265676973746572000000000000000000000081525060200191505060405180910390fd5b60008060009054906101000a900473ffffffffffffffffffffffffffffffffffffffff1673ffffffffffffffffffffffffffffffffffffffff166321f8a72160405160200180807f636f6e74726163742e6164647265737300000000000000000000000000000000815250601001807f446567656e6963730000000000000000000000000000000000000000000000008152506008019050604051602081830303815290604052805190602001206040518263ffffffff1660e01b81526004018082815260200191505060206040518083038186803b158015613c7757600080fd5b505afa158015613c8b573d6000803e3d6000fd5b505050506040513d6020811015613ca157600080fd5b8101908080519060200190929190505050905060008060009054906101000a900473ffffffffffffffffffffffffffffffffffffffff1673ffffffffffffffffffffffffffffffffffffffff1663adb353dc3360405160200180807f6c61622e736572766963652e636f756e740000000000000000000000000000008152506011018273ffffffffffffffffffffffffffffffffffffffff1673ffffffffffffffffffffffffffffffffffffffff1660601b81526014019150506040516020818303038152906040528051906020012060016040518363ffffffff1660e01b81526004018083815260200182815260200192505050602060405180830381600087803b158015613db057600080fd5b505af1158015613dc4573d6000803e3d6000fd5b505050506040513d6020811015613dda57600080fd5b810190808051906020019092919050505090506000809054906101000a900473ffffffffffffffffffffffffffffffffffffffff1673ffffffffffffffffffffffffffffffffffffffff1663e2a4853a338860405160200180807f6c61622e736572766963652e636f6465000000000000000000000000000000008152506010018373ffffffffffffffffffffffffffffffffffffffff1673ffffffffffffffffffffffffffffffffffffffff1660601b815260140182805190602001908083835b60208310613ebf5780518252602082019150602081019050602083039250613e9c565b6001836020036101000a0380198251168184511680821785525050505050509050019250505060405160208183030381529060405280519060200120836040518363ffffffff1660e01b81526004018083815260200182815260200192505050600060405180830381600087803b158015613f3957600080fd5b505af1158015613f4d573d6000803e3d6000fd5b505050506000809054906101000a900473ffffffffffffffffffffffffffffffffffffffff1673ffffffffffffffffffffffffffffffffffffffff16636e899550338360405160200180807f6c61622e736572766963652e636f6465000000000000000000000000000000008152506010018373ffffffffffffffffffffffffffffffffffffffff1673ffffffffffffffffffffffffffffffffffffffff1660601b81526014018281526020019250505060405160208183030381529060405280519060200120886040518363ffffffff1660e01b81526004018083815260200180602001828103825283818151815260200191508051906020019080838360005b8381101561406a57808201518184015260208101905061404f565b50505050905090810190601f1680156140975780820380516001836020036101000a031916815260200191505b509350505050600060405180830381600087803b1580156140b757600080fd5b505af11580156140cb573d6000803e3d6000fd5b505050506000809054906101000a900473ffffffffffffffffffffffffffffffffffffffff1673ffffffffffffffffffffffffffffffffffffffff16636e899550338860405160200180807f6c61622e736572766963652e6e616d65000000000000000000000000000000008152506010018373ffffffffffffffffffffffffffffffffffffffff1673ffffffffffffffffffffffffffffffffffffffff1660601b815260140182805190602001908083835b602083106141a1578051825260208201915060208101905060208303925061417e565b6001836020036101000a0380198251168184511680821785525050505050509050019250505060405160208183030381529060405280519060200120876040518363ffffffff1660e01b81526004018083815260200180602001828103825283818151815260200191508051906020019080838360005b83811015614233578082015181840152602081019050614218565b50505050905090810190601f1680156142605780820380516001836020036101000a031916815260200191505b509350505050600060405180830381600087803b15801561428057600080fd5b505af1158015614294573d6000803e3d6000fd5b505050506000809054906101000a900473ffffffffffffffffffffffffffffffffffffffff1673ffffffffffffffffffffffffffffffffffffffff1663e2a4853a338860405160200180807f6c61622e736572766963652e70726963650000000000000000000000000000008152506011018373ffffffffffffffffffffffffffffffffffffffff1673ffffffffffffffffffffffffffffffffffffffff1660601b815260140182805190602001908083835b6020831061436a5780518252602082019150602081019050602083039250614347565b6001836020036101000a0380198251168184511680821785525050505050509050019250505060405160208183030381529060405280519060200120856040518363ffffffff1660e01b81526004018083815260200182815260200192505050600060405180830381600087803b1580156143e457600080fd5b505af11580156143f8573d6000803e3d6000fd5b505050506000809054906101000a900473ffffffffffffffffffffffffffffffffffffffff1673ffffffffffffffffffffffffffffffffffffffff16636e899550338860405160200180807f6c61622e736572766963652e6465736372697074696f6e0000000000000000008152506017018373ffffffffffffffffffffffffffffffffffffffff1673ffffffffffffffffffffffffffffffffffffffff1660601b815260140182805190602001908083835b602083106144ce57805182526020820191506020810190506020830392506144ab565b6001836020036101000a0380198251168184511680821785525050505050509050019250505060405160208183030381529060405280519060200120866040518363ffffffff1660e01b81526004018083815260200180602001828103825283818151815260200191508051906020019080838360005b83811015614560578082015181840152602081019050614545565b50505050905090810190601f16801561458d5780820380516001836020036101000a031916815260200191505b509350505050600060405180830381600087803b1580156145ad57600080fd5b505af11580156145c1573d6000803e3d6000fd5b505050506000809054906101000a900473ffffffffffffffffffffffffffffffffffffffff1673ffffffffffffffffffffffffffffffffffffffff1663abfdcced338860405160200180807f6c61622e736572766963652e61637469766500000000000000000000000000008152506012018373ffffffffffffffffffffffffffffffffffffffff1673ffffffffffffffffffffffffffffffffffffffff1660601b815260140182805190602001908083835b602083106146975780518252602082019150602081019050602083039250614674565b6001836020036101000a038019825116818451168082178552505050505050905001925050506040516020818303038152906040528051906020012060016040518363ffffffff1660e01b8152600401808381526020018215151515815260200192505050600060405180830381600087803b15801561471657600080fd5b505af115801561472a573d6000803e3d6000fd5b505050508173ffffffffffffffffffffffffffffffffffffffff166312af942e336000809054906101000a900473ffffffffffffffffffffffffffffffffffffffff1673ffffffffffffffffffffffffffffffffffffffff1663986e791a3360405160200180807f6c61622e6e616d650000000000000000000000000000000000000000000000008152506008018273ffffffffffffffffffffffffffffffffffffffff1673ffffffffffffffffffffffffffffffffffffffff1660601b8152601401915050604051602081830303815290604052805190602001206040518263ffffffff1660e01b81526004018082815260200191505060006040518083038186803b15801561483a57600080fd5b505afa15801561484e573d6000803e3d6000fd5b505050506040513d6000823e3d601f19601f82011682018060405250602081101561487857600080fd5b810190808051604051939291908464010000000082111561489857600080fd5b838201915060208201858111156148ae57600080fd5b82518660018202830111640100000000821117156148cb57600080fd5b8083526020830192505050908051906020019080838360005b838110156148ff5780820151818401526020810190506148e4565b50505050905090810190601f16801561492c5780820380516001836020036101000a031916815260200191505b50604052505050886040518463ffffffff1660e01b8152600401808473ffffffffffffffffffffffffffffffffffffffff1673ffffffffffffffffffffffffffffffffffffffff1681526020018060200180602001838103835285818151815260200191508051906020019080838360005b838110156149b957808201518184015260208101905061499e565b50505050905090810190601f1680156149e65780820380516001836020036101000a031916815260200191505b50838103825284818151815260200191508051906020019080838360005b83811015614a1f578082015181840152602081019050614a04565b50505050905090810190601f168015614a4c5780820380516001836020036101000a031916815260200191505b5095505050505050600060405180830381600087803b158015614a6e57600080fd5b505af1158015614a82573d6000803e3d6000fd5b50505050505050505050565b6000809054906101000a900473ffffffffffffffffffffffffffffffffffffffff1681565b614af26040518060400160405280600381526020017f6c6162000000000000000000000000000000000000000000000000000000000081525033615d1a565b614b64576040517f08c379a00000000000000000000000000000000000000000000000000000000081526004018080602001828103825260088152602001807f4f6e6c79204c616200000000000000000000000000000000000000000000000081525060200191505060405180910390fd5b6000809054906101000a900473ffffffffffffffffffffffffffffffffffffffff1673ffffffffffffffffffffffffffffffffffffffff16636e8995503360405160200180807f6c61622e6164646974696f6e616c4461746100000000000000000000000000008152506012018273ffffffffffffffffffffffffffffffffffffffff1673ffffffffffffffffffffffffffffffffffffffff1660601b815260140191505060405160208183030381529060405280519060200120846040518363ffffffff1660e01b81526004018083815260200180602001828103825283818151815260200191508051906020019080838360005b83811015614c75578082015181840152602081019050614c5a565b50505050905090810190601f168015614ca25780820380516001836020036101000a031916815260200191505b509350505050600060405180830381600087803b158015614cc257600080fd5b505af1158015614cd6573d6000803e3d6000fd5b5050505060008060009054906101000a900473ffffffffffffffffffffffffffffffffffffffff1673ffffffffffffffffffffffffffffffffffffffff1663986e791a3360405160200180807f7075626b657900000000000000000000000000000000000000000000000000008152506006018273ffffffffffffffffffffffffffffffffffffffff1673ffffffffffffffffffffffffffffffffffffffff1660601b8152601401915050604051602081830303815290604052805190602001206040518263ffffffff1660e01b81526004018082815260200191505060006040518083038186803b158015614dcb57600080fd5b505afa158015614ddf573d6000803e3d6000fd5b505050506040513d6000823e3d601f19601f820116820180604052506020811015614e0957600080fd5b8101908080516040519392919084640100000000821115614e2957600080fd5b83820191506020820185811115614e3f57600080fd5b8251866001820283011164010000000082111715614e5c57600080fd5b8083526020830192505050908051906020019080838360005b83811015614e90578082015181840152602081019050614e75565b50505050905090810190601f168015614ebd5780820380516001836020036101000a031916815260200191505b50604052505050511415615042576000809054906101000a900473ffffffffffffffffffffffffffffffffffffffff1673ffffffffffffffffffffffffffffffffffffffff16636e8995503360405160200180807f7075626b657900000000000000000000000000000000000000000000000000008152506006018273ffffffffffffffffffffffffffffffffffffffff1673ffffffffffffffffffffffffffffffffffffffff1660601b815260140191505060405160208183030381529060405280519060200120836040518363ffffffff1660e01b81526004018083815260200180602001828103825283818151815260200191508051906020019080838360005b83811015614fdc578082015181840152602081019050614fc1565b50505050905090810190601f1680156150095780820380516001836020036101000a031916815260200191505b509350505050600060405180830381600087803b15801561502957600080fd5b505af115801561503d573d6000803e3d6000fd5b505050505b5050565b600060608060608060003373ffffffffffffffffffffffffffffffffffffffff166000809054906101000a900473ffffffffffffffffffffffffffffffffffffffff1673ffffffffffffffffffffffffffffffffffffffff166321f8a72160405160200180807f636f6e74726163742e6164647265737300000000000000000000000000000000815250601001807f446567656e6963730000000000000000000000000000000000000000000000008152506008019050604051602081830303815290604052805190602001206040518263ffffffff1660e01b81526004018082815260200191505060206040518083038186803b15801561514757600080fd5b505afa15801561515b573d6000803e3d6000fd5b505050506040513d602081101561517157600080fd5b810190808051906020019092919050505073ffffffffffffffffffffffffffffffffffffffff161461520b576040517f08c379a00000000000000000000000000000000000000000000000000000000081526004018080602001828103825260178152602001807f4f6e6c792072656769737472656420636f6e747261637400000000000000000081525060200191505060405180910390fd5b6000809054906101000a900473ffffffffffffffffffffffffffffffffffffffff1673ffffffffffffffffffffffffffffffffffffffff1663986e791a8860405160200180807f6c61622e6e616d650000000000000000000000000000000000000000000000008152506008018273ffffffffffffffffffffffffffffffffffffffff1673ffffffffffffffffffffffffffffffffffffffff1660601b8152601401915050604051602081830303815290604052805190602001206040518263ffffffff1660e01b81526004018082815260200191505060006040518083038186803b1580156152fa57600080fd5b505afa15801561530e573d6000803e3d6000fd5b505050506040513d6000823e3d601f19601f82011682018060405250602081101561533857600080fd5b810190808051604051939291908464010000000082111561535857600080fd5b8382019150602082018581111561536e57600080fd5b825186600182028301116401000000008211171561538b57600080fd5b8083526020830192505050908051906020019080838360005b838110156153bf5780820151818401526020810190506153a4565b50505050905090810190601f1680156153ec5780820380516001836020036101000a031916815260200191505b5060405250505094506000809054906101000a900473ffffffffffffffffffffffffffffffffffffffff1673ffffffffffffffffffffffffffffffffffffffff1663986e791a8860405160200180807f6c61622e636f756e747279000000000000000000000000000000000000000000815250600b018273ffffffffffffffffffffffffffffffffffffffff1673ffffffffffffffffffffffffffffffffffffffff1660601b8152601401915050604051602081830303815290604052805190602001206040518263ffffffff1660e01b81526004018082815260200191505060006040518083038186803b1580156154e457600080fd5b505afa1580156154f8573d6000803e3d6000fd5b505050506040513d6000823e3d601f19601f82011682018060405250602081101561552257600080fd5b810190808051604051939291908464010000000082111561554257600080fd5b8382019150602082018581111561555857600080fd5b825186600182028301116401000000008211171561557557600080fd5b8083526020830192505050908051906020019080838360005b838110156155a957808201518184015260208101905061558e565b50505050905090810190601f1680156155d65780820380516001836020036101000a031916815260200191505b5060405250505093506000809054906101000a900473ffffffffffffffffffffffffffffffffffffffff1673ffffffffffffffffffffffffffffffffffffffff1663986e791a8860405160200180807f6c61622e636974790000000000000000000000000000000000000000000000008152506008018273ffffffffffffffffffffffffffffffffffffffff1673ffffffffffffffffffffffffffffffffffffffff1660601b8152601401915050604051602081830303815290604052805190602001206040518263ffffffff1660e01b81526004018082815260200191505060006040518083038186803b1580156156ce57600080fd5b505afa1580156156e2573d6000803e3d6000fd5b505050506040513d6000823e3d601f19601f82011682018060405250602081101561570c57600080fd5b810190808051604051939291908464010000000082111561572c57600080fd5b8382019150602082018581111561574257600080fd5b825186600182028301116401000000008211171561575f57600080fd5b8083526020830192505050908051906020019080838360005b83811015615793578082015181840152602081019050615778565b50505050905090810190601f1680156157c05780820380516001836020036101000a031916815260200191505b5060405250505092506000809054906101000a900473ffffffffffffffffffffffffffffffffffffffff1673ffffffffffffffffffffffffffffffffffffffff1663986e791a8860405160200180807f6c61622e6164646974696f6e616c4461746100000000000000000000000000008152506012018273ffffffffffffffffffffffffffffffffffffffff1673ffffffffffffffffffffffffffffffffffffffff1660601b8152601401915050604051602081830303815290604052805190602001206040518263ffffffff1660e01b81526004018082815260200191505060006040518083038186803b1580156158b857600080fd5b505afa1580156158cc573d6000803e3d6000fd5b505050506040513d6000823e3d601f19601f8201168201806040525060208110156158f657600080fd5b810190808051604051939291908464010000000082111561591657600080fd5b8382019150602082018581111561592c57600080fd5b825186600182028301116401000000008211171561594957600080fd5b8083526020830192505050908051906020019080838360005b8381101561597d578082015181840152602081019050615962565b50505050905090810190601f1680156159aa5780820380516001836020036101000a031916815260200191505b5060405250505091508695506000809054906101000a900473ffffffffffffffffffffffffffffffffffffffff1673ffffffffffffffffffffffffffffffffffffffff16637ae1cfca3360405160200180807f6c61622e61637469766500000000000000000000000000000000000000000000815250600a018273ffffffffffffffffffffffffffffffffffffffff1673ffffffffffffffffffffffffffffffffffffffff1660601b8152601401915050604051602081830303815290604052805190602001206040518263ffffffff1660e01b81526004018082815260200191505060206040518083038186803b158015615aa557600080fd5b505afa158015615ab9573d6000803e3d6000fd5b505050506040513d6020811015615acf57600080fd5b8101908080519060200190929190505050905085858585858595509550955095509550955091939550919395565b615b3c6040518060400160405280600381526020017f6c6162000000000000000000000000000000000000000000000000000000000081525033615d1a565b615bae576040517f08c379a00000000000000000000000000000000000000000000000000000000081526004018080602001828103825260088152602001807f4f6e6c79204c616200000000000000000000000000000000000000000000000081525060200191505060405180910390fd5b6000809054906101000a900473ffffffffffffffffffffffffffffffffffffffff1673ffffffffffffffffffffffffffffffffffffffff1663abfdcced338460405160200180807f6c61622e736572766963652e61637469766500000000000000000000000000008152506012018373ffffffffffffffffffffffffffffffffffffffff1673ffffffffffffffffffffffffffffffffffffffff1660601b815260140182805190602001908083835b60208310615c805780518252602082019150602081019050602083039250615c5d565b6001836020036101000a0380198251168184511680821785525050505050509050019250505060405160208183030381529060405280519060200120836040518363ffffffff1660e01b8152600401808381526020018215151515815260200192505050600060405180830381600087803b158015615cfe57600080fd5b505af1158015615d12573d6000803e3d6000fd5b505050505050565b60008060009054906101000a900473ffffffffffffffffffffffffffffffffffffffff1673ffffffffffffffffffffffffffffffffffffffff16637ae1cfca848460405160200180807f6163636573732e726f6c65000000000000000000000000000000000000000000815250600b0183805190602001908083835b60208310615db95780518252602082019150602081019050602083039250615d96565b6001836020036101000a0380198251168184511680821785525050505050509050018273ffffffffffffffffffffffffffffffffffffffff1673ffffffffffffffffffffffffffffffffffffffff1660601b815260140192505050604051602081830303815290604052805190602001206040518263ffffffff1660e01b81526004018082815260200191505060206040518083038186803b158015615e5e57600080fd5b505afa158015615e72573d6000803e3d6000fd5b505050506040513d6020811015615e8857600080fd5b810190808051906020019092919050505090509291505056fea265627a7a7231582051e334b44a03602dc12143d498edfaddbcb2a98323e92cf5cb7b9e4565f547d164736f6c63430005100032",
  "source": "pragma solidity ^0.5.16;\r\n\r\n\r\nimport \"./common/Base.sol\";\r\nimport \"./common/SafeMath.sol\";\r\nimport \"./common/Address.sol\";\r\nimport \"./Degenics.sol\";\r\nimport \"./Location.sol\";\r\nimport \"./Account.sol\";\r\n\r\n\r\ncontract Lab is Base {\r\n\r\n    modifier onlyLab() {\r\n        require(roleHas(\"lab\",msg.sender),\r\n         \"Only Lab\" );\r\n        _;\r\n    }\r\n\r\n    modifier onlyDegenicsContract() {\r\n        require(eternalStorage.getAddress(keccak256(abi.encodePacked(\"contract.address\", \"Degenics\"))) == msg.sender, \"Only registred contract\" );\r\n        _;\r\n    }\r\n\r\n    constructor(address _storage ) public Base(_storage) {\r\n    \r\n    }\r\n\r\n    function register(address _account, string memory name, \r\n        string memory country, string memory city) public onlySuperUser{\r\n\r\n        require( eternalStorage.getUint(keccak256(abi.encodePacked(\"lab.index\", _account))) ==0, \"Already register\" );\r\n\r\n        Degenics degenics = Degenics(eternalStorage.getAddress(keccak256(abi.encodePacked(\"contract.address\", \"Degenics\"))));\r\n        Account account = Account(eternalStorage.getAddress(keccak256(abi.encodePacked(\"contract.address\", \"Account\"))));\r\n        Location location = Location(eternalStorage.getAddress(keccak256(abi.encodePacked(\"contract.address\", \"Location\"))));\r\n\r\n        account.register(_account, \"lab\");\r\n        location.register(country, city);\r\n\r\n        uint index = eternalStorage.addUint(keccak256(abi.encodePacked(\"lab.count\")), 1);\r\n        eternalStorage.setUint(keccak256(abi.encodePacked(\"lab.index\", _account)), index);\r\n\r\n        index = eternalStorage.addUint(keccak256(abi.encodePacked(\"lab.location\",country, city)), 1);\r\n        eternalStorage.setAddress(keccak256(abi.encodePacked(\"lab.location\",country, city, index)), _account);\r\n        eternalStorage.setString(keccak256(abi.encodePacked(\"lab.name\", _account)), name);\r\n        eternalStorage.setString(keccak256(abi.encodePacked(\"lab.country\", _account)), country);\r\n        eternalStorage.setString(keccak256(abi.encodePacked(\"lab.city\", _account)), city);\r\n        eternalStorage.setBool(keccak256(abi.encodePacked(\"lab.active\", _account)), false);\r\n        degenics.emitNewLab(_account, name, country, city);\r\n    }\r\n\r\n    function activeLab(bool active) public onlyLab{\r\n        eternalStorage.setBool(keccak256(abi.encodePacked(\"lab.active\", msg.sender)), active);\r\n    }\r\n\r\n    function labByAccount(address _account) public view onlyDegenicsContract\r\n        returns(address labAccount, string memory name, string memory country, string memory city,\r\n        string memory additionalData, bool active){\r\n           \r\n        name = eternalStorage.getString(keccak256(abi.encodePacked(\"lab.name\", _account)));\r\n        country = eternalStorage.getString(keccak256(abi.encodePacked(\"lab.country\", _account)));\r\n        city = eternalStorage.getString(keccak256(abi.encodePacked(\"lab.city\", _account)));         \r\n        additionalData =  eternalStorage.getString(keccak256(abi.encodePacked(\"lab.additionalData\", _account)));\r\n        labAccount = _account;  \r\n        active = eternalStorage.getBool(keccak256(abi.encodePacked(\"lab.active\", msg.sender)));\r\n        return (labAccount, name, country, city, additionalData, active); \r\n    }\r\n\r\n    function checkActive(address labAccount, string memory code) public view onlyDegenicsContract returns(bool){\r\n        return eternalStorage.getBool(keccak256(abi.encodePacked(\"lab.active\", labAccount))) && eternalStorage.getBool(keccak256(abi.encodePacked(\"lab.service.active\", labAccount, code)));\r\n    }\r\n    \r\n    function registerService(string memory code, string memory serviceName, string memory description, uint price) public onlyLab{\r\n        require(eternalStorage.getUint(keccak256(abi.encodePacked(\"lab.service.code\", msg.sender, code))) == 0, \"Code already register\");\r\n        Degenics degenics = Degenics(eternalStorage.getAddress(keccak256(abi.encodePacked(\"contract.address\", \"Degenics\"))));\r\n        uint index = eternalStorage.addUint(keccak256(abi.encodePacked(\"lab.service.count\", msg.sender)), 1);\r\n        eternalStorage.setUint(keccak256(abi.encodePacked(\"lab.service.code\", msg.sender, code)), index);\r\n        eternalStorage.setString(keccak256(abi.encodePacked(\"lab.service.code\", msg.sender, index )), code);\r\n        eternalStorage.setString(keccak256(abi.encodePacked(\"lab.service.name\", msg.sender, code)), serviceName );\r\n        eternalStorage.setUint(keccak256(abi.encodePacked(\"lab.service.price\", msg.sender, code)), price );\r\n        eternalStorage.setString(keccak256(abi.encodePacked(\"lab.service.description\", msg.sender, code)), description );\r\n        eternalStorage.setBool(keccak256(abi.encodePacked(\"lab.service.active\", msg.sender, code)), true);\r\n        degenics.emitNewService(msg.sender, eternalStorage.getString(keccak256(abi.encodePacked(\"lab.name\", msg.sender))),serviceName);\r\n    }\r\n\r\n    function serviceByIndex(address labAccount, uint index) public view onlyDegenicsContract returns(string memory code, \r\n    string memory serviceName, string memory description, uint price, string memory additionalData, bool active){\r\n        code = eternalStorage.getString(keccak256(abi.encodePacked(\"lab.service.code\", labAccount, index )));\r\n        serviceName = eternalStorage.getString(keccak256(abi.encodePacked(\"lab.service.name\", labAccount, code)));\r\n        price = eternalStorage.getUint(keccak256(abi.encodePacked(\"lab.service.price\", labAccount, code)));\r\n        \r\n        description = eternalStorage.getString(keccak256(abi.encodePacked(\"lab.service.description\", labAccount, code)));\r\n        additionalData = eternalStorage.getString(keccak256(abi.encodePacked(\"lab.service.additionalData\", labAccount, code)));\r\n\r\n        active = eternalStorage.getBool(keccak256(abi.encodePacked(\"lab.service.active\", labAccount, code)));\r\n\r\n        return(code, serviceName, description,  price, additionalData, active);\r\n    }\r\n\r\n    function activeService(string memory code, bool active) public onlyLab{\r\n        eternalStorage.setBool(keccak256(abi.encodePacked(\"lab.service.active\", msg.sender, code)), active);\r\n    }\r\n\r\n    function addAdditionalData(string memory json, string memory pubKey) public onlyLab{\r\n        eternalStorage.setString(keccak256(abi.encodePacked(\"lab.additionalData\", msg.sender)), json );\r\n        if(bytes(eternalStorage.getString(keccak256(abi.encodePacked(\"pubkey\", msg.sender)))).length == 0){\r\n            eternalStorage.setString(keccak256(abi.encodePacked(\"pubkey\", msg.sender)),  pubKey); \r\n        } \r\n    }\r\n\r\n    function addServiceAdditionalData(string memory code, string memory jsonData) public onlyLab{\r\n        eternalStorage.setString(keccak256(abi.encodePacked(\"lab.service.additionalData\", msg.sender, code)), jsonData);\r\n    }\r\n\r\n}\r\n\r\n//0xcba7e4441e58db5b9f63da77acec09f6833a2c44a4ef72871580ee5c41a37166",
  "sourcePath": "D:\\projects\\degenics\\degenics-smart-contract\\contracts\\Lab.sol",
  "compiler": {
    "name": "solc",
    "version": "0.5.16+commit.9c3226ce.Emscripten.clang"
  },
  "schemaVersion": "3.0.23",
  "updatedAt": "2021-01-17T15:21:11.592Z",
  "networkType": "ethereum",
  "devdoc": {
    "methods": {}
  },
  "userdoc": {
    "methods": {}
  }
}