{
  "contractName": "Location",
  "abi": [
    {
      "inputs": [
        {
          "internalType": "address",
          "name": "_storage",
          "type": "address"
        }
      ],
      "payable": false,
      "stateMutability": "nonpayable",
      "type": "constructor"
    },
    {
      "constant": true,
      "inputs": [],
      "name": "eternalStorage",
      "outputs": [
        {
          "internalType": "contract EternalStorageInterface",
          "name": "",
          "type": "address"
        }
      ],
      "payable": false,
      "stateMutability": "view",
      "type": "function"
    },
    {
      "constant": false,
      "inputs": [
        {
          "internalType": "string",
          "name": "country",
          "type": "string"
        },
        {
          "internalType": "string",
          "name": "city",
          "type": "string"
        }
      ],
      "name": "register",
      "outputs": [],
      "payable": false,
      "stateMutability": "nonpayable",
      "type": "function"
    },
    {
      "constant": true,
      "inputs": [],
      "name": "countCountry",
      "outputs": [
        {
          "internalType": "uint256",
          "name": "",
          "type": "uint256"
        }
      ],
      "payable": false,
      "stateMutability": "view",
      "type": "function"
    },
    {
      "constant": true,
      "inputs": [
        {
          "internalType": "uint256",
          "name": "index",
          "type": "uint256"
        }
      ],
      "name": "countryByIndex",
      "outputs": [
        {
          "internalType": "string",
          "name": "",
          "type": "string"
        }
      ],
      "payable": false,
      "stateMutability": "view",
      "type": "function"
    },
    {
      "constant": true,
      "inputs": [
        {
          "internalType": "string",
          "name": "country",
          "type": "string"
        }
      ],
      "name": "countCity",
      "outputs": [
        {
          "internalType": "uint256",
          "name": "",
          "type": "uint256"
        }
      ],
      "payable": false,
      "stateMutability": "view",
      "type": "function"
    },
    {
      "constant": true,
      "inputs": [
        {
          "internalType": "string",
          "name": "country",
          "type": "string"
        },
        {
          "internalType": "uint256",
          "name": "index",
          "type": "uint256"
        }
      ],
      "name": "cityByIndex",
      "outputs": [
        {
          "internalType": "string",
          "name": "",
          "type": "string"
        }
      ],
      "payable": false,
      "stateMutability": "view",
      "type": "function"
    }
  ],
  "bytecode": "0x608060405260008060006101000a81548173ffffffffffffffffffffffffffffffffffffffff021916908373ffffffffffffffffffffffffffffffffffffffff16021790555034801561005157600080fd5b5060405161187f38038061187f8339818101604052602081101561007457600080fd5b810190808051906020019092919050505080806000806101000a81548173ffffffffffffffffffffffffffffffffffffffff021916908373ffffffffffffffffffffffffffffffffffffffff16021790555050506117a8806100d76000396000f3fe608060405234801561001057600080fd5b50600436106100625760003560e01c80633ffbd47f146100675780636527a26e146101b957806396f672c41461026057806398ff9c541461039e578063c6d39f1d146103e8578063faf6caad14610406575b600080fd5b6101b76004803603604081101561007d57600080fd5b810190808035906020019064010000000081111561009a57600080fd5b8201836020820111156100ac57600080fd5b803590602001918460018302840111640100000000831117156100ce57600080fd5b91908080601f016020809104026020016040519081016040528093929190818152602001838380828437600081840152601f19601f8201169050808301925050505050505091929192908035906020019064010000000081111561013157600080fd5b82018360208201111561014357600080fd5b8035906020019184600183028401116401000000008311171561016557600080fd5b91908080601f016020809104026020016040519081016040528093929190818152602001838380828437600081840152601f19601f8201169050808301925050505050505091929192905050506104d5565b005b6101e5600480360360208110156101cf57600080fd5b810190808035906020019092919050505061113f565b6040518080602001828103825283818151815260200191508051906020019080838360005b8381101561022557808201518184015260208101905061020a565b50505050905090810190601f1680156102525780820380516001836020036101000a031916815260200191505b509250505060405180910390f35b6103236004803603604081101561027657600080fd5b810190808035906020019064010000000081111561029357600080fd5b8201836020820111156102a557600080fd5b803590602001918460018302840111640100000000831117156102c757600080fd5b91908080601f016020809104026020016040519081016040528093929190818152602001838380828437600081840152601f19601f82011690508083019250505050505050919291929080359060200190929190505050611300565b6040518080602001828103825283818151815260200191508051906020019080838360005b83811015610363578082015181840152602081019050610348565b50505050905090810190601f1680156103905780820380516001836020036101000a031916815260200191505b509250505060405180910390f35b6103a6611516565b604051808273ffffffffffffffffffffffffffffffffffffffff1673ffffffffffffffffffffffffffffffffffffffff16815260200191505060405180910390f35b6103f061153b565b6040518082815260200191505060405180910390f35b6104bf6004803603602081101561041c57600080fd5b810190808035906020019064010000000081111561043957600080fd5b82018360208201111561044b57600080fd5b8035906020019184600183028401116401000000008311171561046d57600080fd5b91908080601f016020809104026020016040519081016040528093929190818152602001838380828437600081840152601f19601f820116905080830192505050505050509192919290505050611624565b6040518082815260200191505060405180910390f35b6000809054906101000a900473ffffffffffffffffffffffffffffffffffffffff1673ffffffffffffffffffffffffffffffffffffffff16637ae1cfca3360405160200180807f636f6e74726163742e76616c6964000000000000000000000000000000000000815250600e018273ffffffffffffffffffffffffffffffffffffffff1673ffffffffffffffffffffffffffffffffffffffff1660601b8152601401915050604051602081830303815290604052805190602001206040518263ffffffff1660e01b81526004018082815260200191505060206040518083038186803b1580156105c457600080fd5b505afa1580156105d8573d6000803e3d6000fd5b505050506040513d60208110156105ee57600080fd5b8101908080519060200190929190505050610671576040517f08c379a00000000000000000000000000000000000000000000000000000000081526004018080602001828103825260178152602001807f4f6e6c792072656769737472656420636f6e747261637400000000000000000081525060200191505060405180910390fd5b60008060009054906101000a900473ffffffffffffffffffffffffffffffffffffffff1673ffffffffffffffffffffffffffffffffffffffff1663bd02d0f58460405160200180807f636f756e7472790000000000000000000000000000000000000000000000000081525060070182805190602001908083835b6020831061070f57805182526020820191506020810190506020830392506106ec565b6001836020036101000a038019825116818451168082178552505050505050905001915050604051602081830303815290604052805190602001206040518263ffffffff1660e01b81526004018082815260200191505060206040518083038186803b15801561077e57600080fd5b505afa158015610792573d6000803e3d6000fd5b505050506040513d60208110156107a857600080fd5b810190808051906020019092919050505090506000811415610b28576000809054906101000a900473ffffffffffffffffffffffffffffffffffffffff1673ffffffffffffffffffffffffffffffffffffffff1663adb353dc60405180807f636f756e7472792e636f756e7400000000000000000000000000000000000000815250600d019050604051809103902060016040518363ffffffff1660e01b81526004018083815260200182815260200192505050602060405180830381600087803b15801561087657600080fd5b505af115801561088a573d6000803e3d6000fd5b505050506040513d60208110156108a057600080fd5b810190808051906020019092919050505090506000809054906101000a900473ffffffffffffffffffffffffffffffffffffffff1673ffffffffffffffffffffffffffffffffffffffff1663e2a4853a8460405160200180807f636f756e7472790000000000000000000000000000000000000000000000000081525060070182805190602001908083835b6020831061094f578051825260208201915060208101905060208303925061092c565b6001836020036101000a03801982511681845116808217855250505050505090500191505060405160208183030381529060405280519060200120836040518363ffffffff1660e01b81526004018083815260200182815260200192505050600060405180830381600087803b1580156109c857600080fd5b505af11580156109dc573d6000803e3d6000fd5b505050506000809054906101000a900473ffffffffffffffffffffffffffffffffffffffff1673ffffffffffffffffffffffffffffffffffffffff16636e8995508260405160200180807f636f756e7472790000000000000000000000000000000000000000000000000081525060070182815260200191505060405160208183030381529060405280519060200120856040518363ffffffff1660e01b81526004018083815260200180602001828103825283818151815260200191508051906020019080838360005b83811015610ac2578082015181840152602081019050610aa7565b50505050905090810190601f168015610aef5780820380516001836020036101000a031916815260200191505b509350505050600060405180830381600087803b158015610b0f57600080fd5b505af1158015610b23573d6000803e3d6000fd5b505050505b6000809054906101000a900473ffffffffffffffffffffffffffffffffffffffff1673ffffffffffffffffffffffffffffffffffffffff1663bd02d0f5848460405160200180807f636974790000000000000000000000000000000000000000000000000000000081525060040183805190602001908083835b60208310610bc55780518252602082019150602081019050602083039250610ba2565b6001836020036101000a03801982511681845116808217855250505050505090500182805190602001908083835b60208310610c165780518252602082019150602081019050602083039250610bf3565b6001836020036101000a03801982511681845116808217855250505050505090500192505050604051602081830303815290604052805190602001206040518263ffffffff1660e01b81526004018082815260200191505060206040518083038186803b158015610c8657600080fd5b505afa158015610c9a573d6000803e3d6000fd5b505050506040513d6020811015610cb057600080fd5b81019080805190602001909291905050509050600081141561113a576000809054906101000a900473ffffffffffffffffffffffffffffffffffffffff1673ffffffffffffffffffffffffffffffffffffffff1663adb353dc8460405160200180807f636974792e636f756e7400000000000000000000000000000000000000000000815250600a0182805190602001908083835b60208310610d685780518252602082019150602081019050602083039250610d45565b6001836020036101000a0380198251168184511680821785525050505050509050019150506040516020818303038152906040528051906020012060016040518363ffffffff1660e01b81526004018083815260200182815260200192505050602060405180830381600087803b158015610de257600080fd5b505af1158015610df6573d6000803e3d6000fd5b505050506040513d6020811015610e0c57600080fd5b810190808051906020019092919050505090506000809054906101000a900473ffffffffffffffffffffffffffffffffffffffff1673ffffffffffffffffffffffffffffffffffffffff1663e2a4853a848460405160200180807f636974790000000000000000000000000000000000000000000000000000000081525060040183805190602001908083835b60208310610ebc5780518252602082019150602081019050602083039250610e99565b6001836020036101000a03801982511681845116808217855250505050505090500182805190602001908083835b60208310610f0d5780518252602082019150602081019050602083039250610eea565b6001836020036101000a0380198251168184511680821785525050505050509050019250505060405160208183030381529060405280519060200120836040518363ffffffff1660e01b81526004018083815260200182815260200192505050600060405180830381600087803b158015610f8757600080fd5b505af1158015610f9b573d6000803e3d6000fd5b505050506000809054906101000a900473ffffffffffffffffffffffffffffffffffffffff1673ffffffffffffffffffffffffffffffffffffffff16636e899550848360405160200180807f636974790000000000000000000000000000000000000000000000000000000081525060040183805190602001908083835b6020831061103c5780518252602082019150602081019050602083039250611019565b6001836020036101000a0380198251168184511680821785525050505050509050018281526020019250505060405160208183030381529060405280519060200120846040518363ffffffff1660e01b81526004018083815260200180602001828103825283818151815260200191508051906020019080838360005b838110156110d45780820151818401526020810190506110b9565b50505050905090810190601f1680156111015780820380516001836020036101000a031916815260200191505b509350505050600060405180830381600087803b15801561112157600080fd5b505af1158015611135573d6000803e3d6000fd5b505050505b505050565b60606000809054906101000a900473ffffffffffffffffffffffffffffffffffffffff1673ffffffffffffffffffffffffffffffffffffffff1663986e791a8360405160200180807f636f756e74727900000000000000000000000000000000000000000000000000815250600701828152602001915050604051602081830303815290604052805190602001206040518263ffffffff1660e01b81526004018082815260200191505060006040518083038186803b15801561120157600080fd5b505afa158015611215573d6000803e3d6000fd5b505050506040513d6000823e3d601f19601f82011682018060405250602081101561123f57600080fd5b810190808051604051939291908464010000000082111561125f57600080fd5b8382019150602082018581111561127557600080fd5b825186600182028301116401000000008211171561129257600080fd5b8083526020830192505050908051906020019080838360005b838110156112c65780820151818401526020810190506112ab565b50505050905090810190601f1680156112f35780820380516001836020036101000a031916815260200191505b5060405250505050919050565b60606000809054906101000a900473ffffffffffffffffffffffffffffffffffffffff1673ffffffffffffffffffffffffffffffffffffffff1663986e791a848460405160200180807f636974790000000000000000000000000000000000000000000000000000000081525060040183805190602001908083835b6020831061139f578051825260208201915060208101905060208303925061137c565b6001836020036101000a03801982511681845116808217855250505050505090500182815260200192505050604051602081830303815290604052805190602001206040518263ffffffff1660e01b81526004018082815260200191505060006040518083038186803b15801561141557600080fd5b505afa158015611429573d6000803e3d6000fd5b505050506040513d6000823e3d601f19601f82011682018060405250602081101561145357600080fd5b810190808051604051939291908464010000000082111561147357600080fd5b8382019150602082018581111561148957600080fd5b82518660018202830111640100000000821117156114a657600080fd5b8083526020830192505050908051906020019080838360005b838110156114da5780820151818401526020810190506114bf565b50505050905090810190601f1680156115075780820380516001836020036101000a031916815260200191505b50604052505050905092915050565b6000809054906101000a900473ffffffffffffffffffffffffffffffffffffffff1681565b60008060009054906101000a900473ffffffffffffffffffffffffffffffffffffffff1673ffffffffffffffffffffffffffffffffffffffff1663bd02d0f560405180807f636f756e7472792e636f756e7400000000000000000000000000000000000000815250600d01905060405180910390206040518263ffffffff1660e01b81526004018082815260200191505060206040518083038186803b1580156115e457600080fd5b505afa1580156115f8573d6000803e3d6000fd5b505050506040513d602081101561160e57600080fd5b8101908080519060200190929190505050905090565b60008060009054906101000a900473ffffffffffffffffffffffffffffffffffffffff1673ffffffffffffffffffffffffffffffffffffffff1663bd02d0f58360405160200180807f636974792e636f756e7400000000000000000000000000000000000000000000815250600a0182805190602001908083835b602083106116c2578051825260208201915060208101905060208303925061169f565b6001836020036101000a038019825116818451168082178552505050505050905001915050604051602081830303815290604052805190602001206040518263ffffffff1660e01b81526004018082815260200191505060206040518083038186803b15801561173157600080fd5b505afa158015611745573d6000803e3d6000fd5b505050506040513d602081101561175b57600080fd5b8101908080519060200190929190505050905091905056fea265627a7a72315820673cbb8f603f0ad0c2abfb7b358fdbf954cc8e1a707c288098f1cd394efe04e964736f6c63430005100032",
  "source": "pragma solidity ^0.5.16;\r\n\r\n\r\nimport \"./common/Base.sol\";\r\nimport \"./common/SafeMath.sol\";\r\nimport \"./common/Address.sol\";\r\n\r\n\r\ncontract Location is Base {\r\n\r\n    constructor(address _storage ) public Base(_storage) {\r\n    \r\n    }\r\n\r\n    function register(string memory country, string memory city) public onlyAllowedContract{\r\n        uint index =  eternalStorage.getUint(keccak256(abi.encodePacked(\"country\", country)));\r\n        if(index == 0) {\r\n            index = eternalStorage.addUint(keccak256(\"country.count\"), 1);\r\n            eternalStorage.setUint(keccak256(abi.encodePacked(\"country\", country)), index);\r\n            eternalStorage.setString(keccak256(abi.encodePacked(\"country\", index)), country);\r\n        }\r\n        index = eternalStorage.getUint(keccak256(abi.encodePacked(\"city\", country, city )));\r\n        if(index == 0) {\r\n            index = eternalStorage.addUint(keccak256(abi.encodePacked(\"city.count\", country)), 1);\r\n            eternalStorage.setUint(keccak256(abi.encodePacked(\"city\", country, city)), index);\r\n            eternalStorage.setString(keccak256(abi.encodePacked(\"city\", country, index)), city);\r\n        }\r\n    }\r\n\r\n    function countCountry() public view returns(uint){\r\n        return eternalStorage.getUint(keccak256(\"country.count\"));\r\n    }\r\n\r\n    function countryByIndex(uint index) public view returns(string memory){\r\n        eternalStorage.getString(keccak256(abi.encodePacked(\"country\", index)));\r\n    }\r\n\r\n    function countCity(string memory country) public view returns(uint){\r\n        return eternalStorage.getUint(keccak256(abi.encodePacked(\"city.count\", country)));\r\n    }\r\n\r\n    function cityByIndex(string memory country, uint index) public view returns(string memory){\r\n        return eternalStorage.getString(keccak256(abi.encodePacked(\"city\", country, index)));\r\n    }\r\n\r\n}",
  "sourcePath": "D:\\projects\\degenics\\degenics-smart-contract\\contracts\\Location.sol",
  "compiler": {
    "name": "solc",
    "version": "0.5.16+commit.9c3226ce.Emscripten.clang"
  },
  "schemaVersion": "3.0.23",
  "updatedAt": "2020-12-27T19:39:34.520Z",
  "networkType": "ethereum",
  "devdoc": {
    "methods": {}
  },
  "userdoc": {
    "methods": {}
  }
}