{
  "contractName": "Specimen",
  "abi": [
    {
      "inputs": [
        {
          "internalType": "address",
          "name": "_storage",
          "type": "address"
        },
        {
          "internalType": "address",
          "name": "_degenicsLog",
          "type": "address"
        }
      ],
      "payable": false,
      "stateMutability": "nonpayable",
      "type": "constructor"
    },
    {
      "constant": true,
      "inputs": [],
      "name": "eternalStorage",
      "outputs": [
        {
          "internalType": "contract EternalStorageInterface",
          "name": "",
          "type": "address"
        }
      ],
      "payable": false,
      "stateMutability": "view",
      "type": "function"
    },
    {
      "constant": false,
      "inputs": [
        {
          "internalType": "address",
          "name": "ownerSpecimen",
          "type": "address"
        },
        {
          "internalType": "address",
          "name": "labAccount",
          "type": "address"
        },
        {
          "internalType": "string",
          "name": "serviceCode",
          "type": "string"
        }
      ],
      "name": "registerSpecimen",
      "outputs": [
        {
          "internalType": "bytes32",
          "name": "",
          "type": "bytes32"
        }
      ],
      "payable": false,
      "stateMutability": "nonpayable",
      "type": "function"
    },
    {
      "constant": true,
      "inputs": [
        {
          "internalType": "address",
          "name": "sender",
          "type": "address"
        }
      ],
      "name": "specimenCount",
      "outputs": [
        {
          "internalType": "uint256",
          "name": "",
          "type": "uint256"
        }
      ],
      "payable": false,
      "stateMutability": "view",
      "type": "function"
    },
    {
      "constant": true,
      "inputs": [
        {
          "internalType": "bytes32",
          "name": "number",
          "type": "bytes32"
        }
      ],
      "name": "specimenByNumber",
      "outputs": [
        {
          "internalType": "address",
          "name": "owner",
          "type": "address"
        },
        {
          "internalType": "address",
          "name": "labAccount",
          "type": "address"
        },
        {
          "internalType": "string",
          "name": "serviceCode",
          "type": "string"
        },
        {
          "internalType": "string",
          "name": "status",
          "type": "string"
        }
      ],
      "payable": false,
      "stateMutability": "view",
      "type": "function"
    },
    {
      "constant": true,
      "inputs": [
        {
          "internalType": "address",
          "name": "sender",
          "type": "address"
        },
        {
          "internalType": "uint256",
          "name": "index",
          "type": "uint256"
        }
      ],
      "name": "specimenByIndex",
      "outputs": [
        {
          "internalType": "address",
          "name": "owner",
          "type": "address"
        },
        {
          "internalType": "address",
          "name": "labAccount",
          "type": "address"
        },
        {
          "internalType": "string",
          "name": "serviceCode",
          "type": "string"
        },
        {
          "internalType": "string",
          "name": "status",
          "type": "string"
        }
      ],
      "payable": false,
      "stateMutability": "view",
      "type": "function"
    },
    {
      "constant": false,
      "inputs": [
        {
          "internalType": "bytes32",
          "name": "number",
          "type": "bytes32"
        },
        {
          "internalType": "string",
          "name": "remark",
          "type": "string"
        }
      ],
      "name": "sendSpecimen",
      "outputs": [],
      "payable": false,
      "stateMutability": "nonpayable",
      "type": "function"
    },
    {
      "constant": false,
      "inputs": [
        {
          "internalType": "bytes32",
          "name": "number",
          "type": "bytes32"
        },
        {
          "internalType": "string",
          "name": "remark",
          "type": "string"
        }
      ],
      "name": "receiveSpecimen",
      "outputs": [],
      "payable": false,
      "stateMutability": "nonpayable",
      "type": "function"
    },
    {
      "constant": false,
      "inputs": [
        {
          "internalType": "bytes32",
          "name": "number",
          "type": "bytes32"
        },
        {
          "internalType": "string",
          "name": "remark",
          "type": "string"
        }
      ],
      "name": "rejectSpecimen",
      "outputs": [],
      "payable": false,
      "stateMutability": "nonpayable",
      "type": "function"
    },
    {
      "constant": false,
      "inputs": [
        {
          "internalType": "bytes32",
          "name": "number",
          "type": "bytes32"
        },
        {
          "internalType": "string",
          "name": "file",
          "type": "string"
        },
        {
          "internalType": "string",
          "name": "remark",
          "type": "string"
        }
      ],
      "name": "analysisSucces",
      "outputs": [],
      "payable": false,
      "stateMutability": "nonpayable",
      "type": "function"
    },
    {
      "constant": false,
      "inputs": [
        {
          "internalType": "bytes32",
          "name": "number",
          "type": "bytes32"
        },
        {
          "internalType": "string",
          "name": "remark",
          "type": "string"
        }
      ],
      "name": "analysisFail",
      "outputs": [],
      "payable": false,
      "stateMutability": "nonpayable",
      "type": "function"
    },
    {
      "constant": false,
      "inputs": [
        {
          "internalType": "bytes32",
          "name": "number",
          "type": "bytes32"
        },
        {
          "internalType": "uint256",
          "name": "_index",
          "type": "uint256"
        }
      ],
      "name": "logByIndex",
      "outputs": [
        {
          "internalType": "uint256",
          "name": "index",
          "type": "uint256"
        },
        {
          "internalType": "uint256",
          "name": "time",
          "type": "uint256"
        },
        {
          "internalType": "string",
          "name": "logType",
          "type": "string"
        },
        {
          "internalType": "string",
          "name": "log",
          "type": "string"
        }
      ],
      "payable": false,
      "stateMutability": "nonpayable",
      "type": "function"
    }
  ],
  "bytecode": "0x608060405260008060006101000a81548173ffffffffffffffffffffffffffffffffffffffff021916908373ffffffffffffffffffffffffffffffffffffffff1602179055503480156200005257600080fd5b5060405162005be338038062005be3833981810160405260408110156200007857600080fd5b81019080805190602001909291908051906020019092919050505081806000806101000a81548173ffffffffffffffffffffffffffffffffffffffff021916908373ffffffffffffffffffffffffffffffffffffffff1602179055505080600160006101000a81548173ffffffffffffffffffffffffffffffffffffffff021916908373ffffffffffffffffffffffffffffffffffffffff1602179055505050615abb80620001286000396000f3fe608060405234801561001057600080fd5b50600436106100a95760003560e01c80635803d619116100715780635803d619146105c157806398ff9c5414610619578063a250156c14610663578063b1bc38f014610772578063d06a9cb7146108eb578063e77ebf46146109b0576100a9565b80631e7dcb18146100ae5780632b6db61114610173578063424385231461029e5780634fcbb7231461036357806354c7763a146104fc575b600080fd5b610171600480360360408110156100c457600080fd5b8101908080359060200190929190803590602001906401000000008111156100eb57600080fd5b8201836020820111156100fd57600080fd5b8035906020019184600183028401116401000000008311171561011f57600080fd5b91908080601f016020809104026020016040519081016040528093929190818152602001838380828437600081840152601f19601f820116905080830192505050505050509192919290505050610b0c565b005b6101a96004803603604081101561018957600080fd5b810190808035906020019092919080359060200190929190505050611274565b604051808581526020018481526020018060200180602001838103835285818151815260200191508051906020019080838360005b838110156101f95780820151818401526020810190506101de565b50505050905090810190601f1680156102265780820380516001836020036101000a031916815260200191505b50838103825284818151815260200191508051906020019080838360005b8381101561025f578082015181840152602081019050610244565b50505050905090810190601f16801561028c5780820380516001836020036101000a031916815260200191505b50965050505050505060405180910390f35b610361600480360360408110156102b457600080fd5b8101908080359060200190929190803590602001906401000000008111156102db57600080fd5b8201836020820111156102ed57600080fd5b8035906020019184600183028401116401000000008311171561030f57600080fd5b91908080601f016020809104026020016040519081016040528093929190818152602001838380828437600081840152601f19601f820116905080830192505050505050509192919290505050611687565b005b6103af6004803603604081101561037957600080fd5b81019080803573ffffffffffffffffffffffffffffffffffffffff16906020019092919080359060200190929190505050611dfd565b604051808573ffffffffffffffffffffffffffffffffffffffff1673ffffffffffffffffffffffffffffffffffffffff1681526020018473ffffffffffffffffffffffffffffffffffffffff1673ffffffffffffffffffffffffffffffffffffffff1681526020018060200180602001838103835285818151815260200191508051906020019080838360005b8381101561045757808201518184015260208101905061043c565b50505050905090810190601f1680156104845780820380516001836020036101000a031916815260200191505b50838103825284818151815260200191508051906020019080838360005b838110156104bd5780820151818401526020810190506104a2565b50505050905090810190601f1680156104ea5780820380516001836020036101000a031916815260200191505b50965050505050505060405180910390f35b6105bf6004803603604081101561051257600080fd5b81019080803590602001909291908035906020019064010000000081111561053957600080fd5b82018360208201111561054b57600080fd5b8035906020019184600183028401116401000000008311171561056d57600080fd5b91908080601f016020809104026020016040519081016040528093929190818152602001838380828437600081840152601f19601f820116905080830192505050505050509192919290505050612109565b005b610603600480360360208110156105d757600080fd5b81019080803573ffffffffffffffffffffffffffffffffffffffff16906020019092919050505061287f565b6040518082815260200191505060405180910390f35b610621612b6d565b604051808273ffffffffffffffffffffffffffffffffffffffff1673ffffffffffffffffffffffffffffffffffffffff16815260200191505060405180910390f35b61075c6004803603606081101561067957600080fd5b81019080803573ffffffffffffffffffffffffffffffffffffffff169060200190929190803573ffffffffffffffffffffffffffffffffffffffff169060200190929190803590602001906401000000008111156106d657600080fd5b8201836020820111156106e857600080fd5b8035906020019184600183028401116401000000008311171561070a57600080fd5b91908080601f016020809104026020016040519081016040528093929190818152602001838380828437600081840152601f19601f820116905080830192505050505050509192919290505050612b92565b6040518082815260200191505060405180910390f35b61079e6004803603602081101561078857600080fd5b8101908080359060200190929190505050613a79565b604051808573ffffffffffffffffffffffffffffffffffffffff1673ffffffffffffffffffffffffffffffffffffffff1681526020018473ffffffffffffffffffffffffffffffffffffffff1673ffffffffffffffffffffffffffffffffffffffff1681526020018060200180602001838103835285818151815260200191508051906020019080838360005b8381101561084657808201518184015260208101905061082b565b50505050905090810190601f1680156108735780820380516001836020036101000a031916815260200191505b50838103825284818151815260200191508051906020019080838360005b838110156108ac578082015181840152602081019050610891565b50505050905090810190601f1680156108d95780820380516001836020036101000a031916815260200191505b50965050505050505060405180910390f35b6109ae6004803603604081101561090157600080fd5b81019080803590602001909291908035906020019064010000000081111561092857600080fd5b82018360208201111561093a57600080fd5b8035906020019184600183028401116401000000008311171561095c57600080fd5b91908080601f016020809104026020016040519081016040528093929190818152602001838380828437600081840152601f19601f82011690508083019250505050505050919291929050505061421a565b005b610b0a600480360360608110156109c657600080fd5b8101908080359060200190929190803590602001906401000000008111156109ed57600080fd5b8201836020820111156109ff57600080fd5b80359060200191846001830284011164010000000083111715610a2157600080fd5b91908080601f016020809104026020016040519081016040528093929190818152602001838380828437600081840152601f19601f82011690508083019250505050505050919291929080359060200190640100000000811115610a8457600080fd5b820183602082011115610a9657600080fd5b80359060200191846001830284011164010000000083111715610ab857600080fd5b91908080601f016020809104026020016040519081016040528093929190818152602001838380828437600081840152601f19601f82011690508083019250505050505050919291929050505061488f565b005b3373ffffffffffffffffffffffffffffffffffffffff166000809054906101000a900473ffffffffffffffffffffffffffffffffffffffff1673ffffffffffffffffffffffffffffffffffffffff166321f8a72160405160200180807f636f6e74726163742e6164647265737300000000000000000000000000000000815250601001807f446567656e6963730000000000000000000000000000000000000000000000008152506008019050604051602081830303815290604052805190602001206040518263ffffffff1660e01b81526004018082815260200191505060206040518083038186803b158015610c0357600080fd5b505afa158015610c17573d6000803e3d6000fd5b505050506040513d6020811015610c2d57600080fd5b810190808051906020019092919050505073ffffffffffffffffffffffffffffffffffffffff1614610cc7576040517f08c379a00000000000000000000000000000000000000000000000000000000081526004018080602001828103825260178152602001807f4f6e6c792072656769737472656420636f6e747261637400000000000000000081525060200191505060405180910390fd5b81610d076040518060400160405280600381526020017f6c61620000000000000000000000000000000000000000000000000000000000815250326150e3565b610d79576040517f08c379a00000000000000000000000000000000000000000000000000000000081526004018080602001828103825260088152602001807f4f6e6c79206c616200000000000000000000000000000000000000000000000081525060200191505060405180910390fd5b3273ffffffffffffffffffffffffffffffffffffffff166000809054906101000a900473ffffffffffffffffffffffffffffffffffffffff1673ffffffffffffffffffffffffffffffffffffffff166321f8a7218360405160200180807f53706563696d656e2e6c61620000000000000000000000000000000000000000815250600c01828152602001915050604051602081830303815290604052805190602001206040518263ffffffff1660e01b81526004018082815260200191505060206040518083038186803b158015610e5057600080fd5b505afa158015610e64573d6000803e3d6000fd5b505050506040513d6020811015610e7a57600080fd5b810190808051906020019092919050505073ffffffffffffffffffffffffffffffffffffffff1614610f14576040517f08c379a00000000000000000000000000000000000000000000000000000000081526004018080602001828103825260088152602001807f4f6e6c79204c616200000000000000000000000000000000000000000000000081525060200191505060405180910390fd5b610f5b610f208461526a565b6040518060400160405280600881526020017f526563656976656400000000000000000000000000000000000000000000000081525061542c565b610fcd576040517f08c379a00000000000000000000000000000000000000000000000000000000081526004018080602001828103825260168152602001807f4f6e6c792052656365697665642073706563696d656e0000000000000000000081525060200191505060405180910390fd5b600160009054906101000a900473ffffffffffffffffffffffffffffffffffffffff1673ffffffffffffffffffffffffffffffffffffffff166372b01cc084846040518363ffffffff1660e01b8152600401808381526020018060200180602001838103835260048152602001807f6661696c00000000000000000000000000000000000000000000000000000000815250602001838103825284818151815260200191508051906020019080838360005b8381101561109a57808201518184015260208101905061107f565b50505050905090810190601f1680156110c75780820380516001836020036101000a031916815260200191505b50945050505050600060405180830381600087803b1580156110e857600080fd5b505af11580156110fc573d6000803e3d6000fd5b505050506000809054906101000a900473ffffffffffffffffffffffffffffffffffffffff1673ffffffffffffffffffffffffffffffffffffffff16636e8995508460405160200180807f53706563696d656e2e72656d61726b0000000000000000000000000000000000815250600f01828152602001807f4661696c6564000000000000000000000000000000000000000000000000000081525060060191505060405160208183030381529060405280519060200120846040518363ffffffff1660e01b81526004018083815260200180602001828103825283818151815260200191508051906020019080838360005b8381101561120a5780820151818401526020810190506111ef565b50505050905090810190601f1680156112375780820380516001836020036101000a031916815260200191505b509350505050600060405180830381600087803b15801561125757600080fd5b505af115801561126b573d6000803e3d6000fd5b50505050505050565b6000806060803373ffffffffffffffffffffffffffffffffffffffff166000809054906101000a900473ffffffffffffffffffffffffffffffffffffffff1673ffffffffffffffffffffffffffffffffffffffff166321f8a72160405160200180807f636f6e74726163742e6164647265737300000000000000000000000000000000815250601001807f446567656e6963730000000000000000000000000000000000000000000000008152506008019050604051602081830303815290604052805190602001206040518263ffffffff1660e01b81526004018082815260200191505060206040518083038186803b15801561137157600080fd5b505afa158015611385573d6000803e3d6000fd5b505050506040513d602081101561139b57600080fd5b810190808051906020019092919050505073ffffffffffffffffffffffffffffffffffffffff1614611435576040517f08c379a00000000000000000000000000000000000000000000000000000000081526004018080602001828103825260178152602001807f4f6e6c792072656769737472656420636f6e747261637400000000000000000081525060200191505060405180910390fd5b600160009054906101000a900473ffffffffffffffffffffffffffffffffffffffff1673ffffffffffffffffffffffffffffffffffffffff16631080c14887876040518363ffffffff1660e01b81526004018083815260200182815260200192505050600060405180830381600087803b1580156114b257600080fd5b505af11580156114c6573d6000803e3d6000fd5b505050506040513d6000823e3d601f19601f8201168201806040525060808110156114f057600080fd5b8101908080519060200190929190805190602001909291908051604051939291908464010000000082111561152457600080fd5b8382019150602082018581111561153a57600080fd5b825186600182028301116401000000008211171561155757600080fd5b8083526020830192505050908051906020019080838360005b8381101561158b578082015181840152602081019050611570565b50505050905090810190601f1680156115b85780820380516001836020036101000a031916815260200191505b50604052602001805160405193929190846401000000008211156115db57600080fd5b838201915060208201858111156115f157600080fd5b825186600182028301116401000000008211171561160e57600080fd5b8083526020830192505050908051906020019080838360005b83811015611642578082015181840152602081019050611627565b50505050905090810190601f16801561166f5780820380516001836020036101000a031916815260200191505b50604052505050935093509350935092959194509250565b3373ffffffffffffffffffffffffffffffffffffffff166000809054906101000a900473ffffffffffffffffffffffffffffffffffffffff1673ffffffffffffffffffffffffffffffffffffffff166321f8a72160405160200180807f636f6e74726163742e6164647265737300000000000000000000000000000000815250601001807f446567656e6963730000000000000000000000000000000000000000000000008152506008019050604051602081830303815290604052805190602001206040518263ffffffff1660e01b81526004018082815260200191505060206040518083038186803b15801561177e57600080fd5b505afa158015611792573d6000803e3d6000fd5b505050506040513d60208110156117a857600080fd5b810190808051906020019092919050505073ffffffffffffffffffffffffffffffffffffffff1614611842576040517f08c379a00000000000000000000000000000000000000000000000000000000081526004018080602001828103825260178152602001807f4f6e6c792072656769737472656420636f6e747261637400000000000000000081525060200191505060405180910390fd5b816118826040518060400160405280600381526020017f6c61620000000000000000000000000000000000000000000000000000000000815250326150e3565b6118f4576040517f08c379a00000000000000000000000000000000000000000000000000000000081526004018080602001828103825260088152602001807f4f6e6c79206c616200000000000000000000000000000000000000000000000081525060200191505060405180910390fd5b3273ffffffffffffffffffffffffffffffffffffffff166000809054906101000a900473ffffffffffffffffffffffffffffffffffffffff1673ffffffffffffffffffffffffffffffffffffffff166321f8a7218360405160200180807f53706563696d656e2e6c61620000000000000000000000000000000000000000815250600c01828152602001915050604051602081830303815290604052805190602001206040518263ffffffff1660e01b81526004018082815260200191505060206040518083038186803b1580156119cb57600080fd5b505afa1580156119df573d6000803e3d6000fd5b505050506040513d60208110156119f557600080fd5b810190808051906020019092919050505073ffffffffffffffffffffffffffffffffffffffff1614611a8f576040517f08c379a00000000000000000000000000000000000000000000000000000000081526004018080602001828103825260088152602001807f4f6e6c79204c616200000000000000000000000000000000000000000000000081525060200191505060405180910390fd5b611ad6611a9b8461526a565b6040518060400160405280600781526020017f53656e64696e670000000000000000000000000000000000000000000000000081525061542c565b80611b405750611b23611ae88461526a565b6040518060400160405280600381526020017f4e6577000000000000000000000000000000000000000000000000000000000081525061542c565b8015611b3f5750611b338361552e565b611b3c84615966565b10155b5b611bb2576040517f08c379a00000000000000000000000000000000000000000000000000000000081526004018080602001828103825260158152602001807f4f6e6c792073656e64696e672073706563696d656e000000000000000000000081525060200191505060405180910390fd5b6000809054906101000a900473ffffffffffffffffffffffffffffffffffffffff1673ffffffffffffffffffffffffffffffffffffffff16636e8995508460405160200180807f53706563696d656e2e7374617475730000000000000000000000000000000000815250600f01828152602001915050604051602081830303815290604052805190602001206040518263ffffffff1660e01b81526004018082815260200180602001828103825260068152602001807f52656a656374000000000000000000000000000000000000000000000000000081525060200192505050600060405180830381600087803b158015611cad57600080fd5b505af1158015611cc1573d6000803e3d6000fd5b50505050600160009054906101000a900473ffffffffffffffffffffffffffffffffffffffff1673ffffffffffffffffffffffffffffffffffffffff166372b01cc084846040518363ffffffff1660e01b8152600401808381526020018060200180602001838103835260068152602001807f72656a6563740000000000000000000000000000000000000000000000000000815250602001838103825284818151815260200191508051906020019080838360005b83811015611d92578082015181840152602081019050611d77565b50505050905090810190601f168015611dbf5780820380516001836020036101000a031916815260200191505b50945050505050600060405180830381600087803b158015611de057600080fd5b505af1158015611df4573d6000803e3d6000fd5b50505050505050565b6000806060803373ffffffffffffffffffffffffffffffffffffffff166000809054906101000a900473ffffffffffffffffffffffffffffffffffffffff1673ffffffffffffffffffffffffffffffffffffffff166321f8a72160405160200180807f636f6e74726163742e6164647265737300000000000000000000000000000000815250601001807f446567656e6963730000000000000000000000000000000000000000000000008152506008019050604051602081830303815290604052805190602001206040518263ffffffff1660e01b81526004018082815260200191505060206040518083038186803b158015611efa57600080fd5b505afa158015611f0e573d6000803e3d6000fd5b505050506040513d6020811015611f2457600080fd5b810190808051906020019092919050505073ffffffffffffffffffffffffffffffffffffffff1614611fbe576040517f08c379a00000000000000000000000000000000000000000000000000000000081526004018080602001828103825260178152602001807f4f6e6c792072656769737472656420636f6e747261637400000000000000000081525060200191505060405180910390fd5b6120f86000809054906101000a900473ffffffffffffffffffffffffffffffffffffffff1673ffffffffffffffffffffffffffffffffffffffff1663a6ed563e888860405160200180807f53706563696d656e0000000000000000000000000000000000000000000000008152506008018373ffffffffffffffffffffffffffffffffffffffff1673ffffffffffffffffffffffffffffffffffffffff1660601b815260140182815260200192505050604051602081830303815290604052805190602001206040518263ffffffff1660e01b81526004018082815260200191505060206040518083038186803b1580156120b857600080fd5b505afa1580156120cc573d6000803e3d6000fd5b505050506040513d60208110156120e257600080fd5b8101908080519060200190929190505050613a79565b935093509350935092959194509250565b3373ffffffffffffffffffffffffffffffffffffffff166000809054906101000a900473ffffffffffffffffffffffffffffffffffffffff1673ffffffffffffffffffffffffffffffffffffffff166321f8a72160405160200180807f636f6e74726163742e6164647265737300000000000000000000000000000000815250601001807f446567656e6963730000000000000000000000000000000000000000000000008152506008019050604051602081830303815290604052805190602001206040518263ffffffff1660e01b81526004018082815260200191505060206040518083038186803b15801561220057600080fd5b505afa158015612214573d6000803e3d6000fd5b505050506040513d602081101561222a57600080fd5b810190808051906020019092919050505073ffffffffffffffffffffffffffffffffffffffff16146122c4576040517f08c379a00000000000000000000000000000000000000000000000000000000081526004018080602001828103825260178152602001807f4f6e6c792072656769737472656420636f6e747261637400000000000000000081525060200191505060405180910390fd5b816123046040518060400160405280600381526020017f6c61620000000000000000000000000000000000000000000000000000000000815250326150e3565b612376576040517f08c379a00000000000000000000000000000000000000000000000000000000081526004018080602001828103825260088152602001807f4f6e6c79206c616200000000000000000000000000000000000000000000000081525060200191505060405180910390fd5b3273ffffffffffffffffffffffffffffffffffffffff166000809054906101000a900473ffffffffffffffffffffffffffffffffffffffff1673ffffffffffffffffffffffffffffffffffffffff166321f8a7218360405160200180807f53706563696d656e2e6c61620000000000000000000000000000000000000000815250600c01828152602001915050604051602081830303815290604052805190602001206040518263ffffffff1660e01b81526004018082815260200191505060206040518083038186803b15801561244d57600080fd5b505afa158015612461573d6000803e3d6000fd5b505050506040513d602081101561247757600080fd5b810190808051906020019092919050505073ffffffffffffffffffffffffffffffffffffffff1614612511576040517f08c379a00000000000000000000000000000000000000000000000000000000081526004018080602001828103825260088152602001807f4f6e6c79204c616200000000000000000000000000000000000000000000000081525060200191505060405180910390fd5b61255861251d8461526a565b6040518060400160405280600781526020017f53656e64696e670000000000000000000000000000000000000000000000000081525061542c565b806125c257506125a561256a8461526a565b6040518060400160405280600381526020017f4e6577000000000000000000000000000000000000000000000000000000000081525061542c565b80156125c157506125b58361552e565b6125be84615966565b10155b5b612634576040517f08c379a00000000000000000000000000000000000000000000000000000000081526004018080602001828103825260158152602001807f4f6e6c792073656e64696e672073706563696d656e000000000000000000000081525060200191505060405180910390fd5b6000809054906101000a900473ffffffffffffffffffffffffffffffffffffffff1673ffffffffffffffffffffffffffffffffffffffff16636e8995508460405160200180807f53706563696d656e2e7374617475730000000000000000000000000000000000815250600f01828152602001915050604051602081830303815290604052805190602001206040518263ffffffff1660e01b81526004018082815260200180602001828103825260088152602001807f526563656976656400000000000000000000000000000000000000000000000081525060200192505050600060405180830381600087803b15801561272f57600080fd5b505af1158015612743573d6000803e3d6000fd5b50505050600160009054906101000a900473ffffffffffffffffffffffffffffffffffffffff1673ffffffffffffffffffffffffffffffffffffffff166372b01cc084846040518363ffffffff1660e01b8152600401808381526020018060200180602001838103835260078152602001807f7265636569766500000000000000000000000000000000000000000000000000815250602001838103825284818151815260200191508051906020019080838360005b838110156128145780820151818401526020810190506127f9565b50505050905090810190601f1680156128415780820380516001836020036101000a031916815260200191505b50945050505050600060405180830381600087803b15801561286257600080fd5b505af1158015612876573d6000803e3d6000fd5b50505050505050565b60003373ffffffffffffffffffffffffffffffffffffffff166000809054906101000a900473ffffffffffffffffffffffffffffffffffffffff1673ffffffffffffffffffffffffffffffffffffffff166321f8a72160405160200180807f636f6e74726163742e6164647265737300000000000000000000000000000000815250601001807f446567656e6963730000000000000000000000000000000000000000000000008152506008019050604051602081830303815290604052805190602001206040518263ffffffff1660e01b81526004018082815260200191505060206040518083038186803b15801561297857600080fd5b505afa15801561298c573d6000803e3d6000fd5b505050506040513d60208110156129a257600080fd5b810190808051906020019092919050505073ffffffffffffffffffffffffffffffffffffffff1614612a3c576040517f08c379a00000000000000000000000000000000000000000000000000000000081526004018080602001828103825260178152602001807f4f6e6c792072656769737472656420636f6e747261637400000000000000000081525060200191505060405180910390fd5b6000809054906101000a900473ffffffffffffffffffffffffffffffffffffffff1673ffffffffffffffffffffffffffffffffffffffff1663bd02d0f58360405160200180807f53706563696d656e2e636f756e74000000000000000000000000000000000000815250600e018273ffffffffffffffffffffffffffffffffffffffff1673ffffffffffffffffffffffffffffffffffffffff1660601b8152601401915050604051602081830303815290604052805190602001206040518263ffffffff1660e01b81526004018082815260200191505060206040518083038186803b158015612b2b57600080fd5b505afa158015612b3f573d6000803e3d6000fd5b505050506040513d6020811015612b5557600080fd5b81019080805190602001909291905050509050919050565b6000809054906101000a900473ffffffffffffffffffffffffffffffffffffffff1681565b60003373ffffffffffffffffffffffffffffffffffffffff166000809054906101000a900473ffffffffffffffffffffffffffffffffffffffff1673ffffffffffffffffffffffffffffffffffffffff166321f8a72160405160200180807f636f6e74726163742e6164647265737300000000000000000000000000000000815250601001807f446567656e6963730000000000000000000000000000000000000000000000008152506008019050604051602081830303815290604052805190602001206040518263ffffffff1660e01b81526004018082815260200191505060206040518083038186803b158015612c8b57600080fd5b505afa158015612c9f573d6000803e3d6000fd5b505050506040513d6020811015612cb557600080fd5b810190808051906020019092919050505073ffffffffffffffffffffffffffffffffffffffff1614612d4f576040517f08c379a00000000000000000000000000000000000000000000000000000000081526004018080602001828103825260178152602001807f4f6e6c792072656769737472656420636f6e747261637400000000000000000081525060200191505060405180910390fd5b60008484844260405160200180807f53706563696d656e0000000000000000000000000000000000000000000000008152506008018573ffffffffffffffffffffffffffffffffffffffff1673ffffffffffffffffffffffffffffffffffffffff1660601b81526014018473ffffffffffffffffffffffffffffffffffffffff1673ffffffffffffffffffffffffffffffffffffffff1660601b815260140183805190602001908083835b60208310612e1d5780518252602082019150602081019050602083039250612dfa565b6001836020036101000a0380198251168184511680821785525050505050509050018281526020019450505050506040516020818303038152906040528051906020012090506000809054906101000a900473ffffffffffffffffffffffffffffffffffffffff1673ffffffffffffffffffffffffffffffffffffffff1663e2a4853a8260405160200180807f53706563696d656e2e726567697374657265640000000000000000000000000081525060130182815260200191505060405160208183030381529060405280519060200120426040518363ffffffff1660e01b81526004018083815260200182815260200192505050600060405180830381600087803b158015612f2d57600080fd5b505af1158015612f41573d6000803e3d6000fd5b505050506000809054906101000a900473ffffffffffffffffffffffffffffffffffffffff1673ffffffffffffffffffffffffffffffffffffffff1663ca446dd98260405160200180807f53706563696d656e2e6f776e6572000000000000000000000000000000000000815250600e0182815260200191505060405160208183030381529060405280519060200120876040518363ffffffff1660e01b8152600401808381526020018273ffffffffffffffffffffffffffffffffffffffff1673ffffffffffffffffffffffffffffffffffffffff16815260200192505050600060405180830381600087803b15801561303b57600080fd5b505af115801561304f573d6000803e3d6000fd5b505050506000809054906101000a900473ffffffffffffffffffffffffffffffffffffffff1673ffffffffffffffffffffffffffffffffffffffff1663ca446dd98260405160200180807f53706563696d656e2e6c61620000000000000000000000000000000000000000815250600c0182815260200191505060405160208183030381529060405280519060200120866040518363ffffffff1660e01b8152600401808381526020018273ffffffffffffffffffffffffffffffffffffffff1673ffffffffffffffffffffffffffffffffffffffff16815260200192505050600060405180830381600087803b15801561314957600080fd5b505af115801561315d573d6000803e3d6000fd5b505050506000809054906101000a900473ffffffffffffffffffffffffffffffffffffffff1673ffffffffffffffffffffffffffffffffffffffff16636e8995508260405160200180807f53706563696d656e2e73657276696365436f646500000000000000000000000081525060140182815260200191505060405160208183030381529060405280519060200120856040518363ffffffff1660e01b81526004018083815260200180602001828103825283818151815260200191508051906020019080838360005b83811015613243578082015181840152602081019050613228565b50505050905090810190601f1680156132705780820380516001836020036101000a031916815260200191505b509350505050600060405180830381600087803b15801561329057600080fd5b505af11580156132a4573d6000803e3d6000fd5b505050506000809054906101000a900473ffffffffffffffffffffffffffffffffffffffff1673ffffffffffffffffffffffffffffffffffffffff16636e8995508260405160200180807f53706563696d656e2e7374617475730000000000000000000000000000000000815250600f01828152602001915050604051602081830303815290604052805190602001206040518263ffffffff1660e01b81526004018082815260200180602001828103825260038152602001807f4e6577000000000000000000000000000000000000000000000000000000000081525060200192505050600060405180830381600087803b1580156133a357600080fd5b505af11580156133b7573d6000803e3d6000fd5b5050505060008060009054906101000a900473ffffffffffffffffffffffffffffffffffffffff1673ffffffffffffffffffffffffffffffffffffffff1663adb353dc8760405160200180807f53706563696d656e2e636f756e74000000000000000000000000000000000000815250600e018273ffffffffffffffffffffffffffffffffffffffff1673ffffffffffffffffffffffffffffffffffffffff1660601b81526014019150506040516020818303038152906040528051906020012060016040518363ffffffff1660e01b81526004018083815260200182815260200192505050602060405180830381600087803b1580156134b757600080fd5b505af11580156134cb573d6000803e3d6000fd5b505050506040513d60208110156134e157600080fd5b810190808051906020019092919050505090506000809054906101000a900473ffffffffffffffffffffffffffffffffffffffff1673ffffffffffffffffffffffffffffffffffffffff16634e91db08878360405160200180807f53706563696d656e0000000000000000000000000000000000000000000000008152506008018373ffffffffffffffffffffffffffffffffffffffff1673ffffffffffffffffffffffffffffffffffffffff1660601b81526014018281526020019250505060405160208183030381529060405280519060200120846040518363ffffffff1660e01b81526004018083815260200182815260200192505050600060405180830381600087803b1580156135f557600080fd5b505af1158015613609573d6000803e3d6000fd5b505050506000809054906101000a900473ffffffffffffffffffffffffffffffffffffffff1673ffffffffffffffffffffffffffffffffffffffff1663adb353dc8660405160200180807f53706563696d656e2e636f756e74000000000000000000000000000000000000815250600e018273ffffffffffffffffffffffffffffffffffffffff1673ffffffffffffffffffffffffffffffffffffffff1660601b81526014019150506040516020818303038152906040528051906020012060016040518363ffffffff1660e01b81526004018083815260200182815260200192505050602060405180830381600087803b15801561370757600080fd5b505af115801561371b573d6000803e3d6000fd5b505050506040513d602081101561373157600080fd5b810190808051906020019092919050505090506000809054906101000a900473ffffffffffffffffffffffffffffffffffffffff1673ffffffffffffffffffffffffffffffffffffffff16634e91db08868360405160200180807f53706563696d656e0000000000000000000000000000000000000000000000008152506008018373ffffffffffffffffffffffffffffffffffffffff1673ffffffffffffffffffffffffffffffffffffffff1660601b81526014018281526020019250505060405160208183030381529060405280519060200120846040518363ffffffff1660e01b81526004018083815260200182815260200192505050600060405180830381600087803b15801561384557600080fd5b505af1158015613859573d6000803e3d6000fd5b505050506000809054906101000a900473ffffffffffffffffffffffffffffffffffffffff1673ffffffffffffffffffffffffffffffffffffffff16634e91db088760405160200180807f53706563696d656e2e6c6173744e756d626572000000000000000000000000008152506013018273ffffffffffffffffffffffffffffffffffffffff1673ffffffffffffffffffffffffffffffffffffffff1660601b815260140191505060405160208183030381529060405280519060200120846040518363ffffffff1660e01b81526004018083815260200182815260200192505050600060405180830381600087803b15801561395657600080fd5b505af115801561396a573d6000803e3d6000fd5b50505050600160009054906101000a900473ffffffffffffffffffffffffffffffffffffffff1673ffffffffffffffffffffffffffffffffffffffff166372b01cc0836040518263ffffffff1660e01b8152600401808281526020018060200180602001838103835260078152602001807f6372656174656400000000000000000000000000000000000000000000000000815250602001838103825260018152602001807f2d000000000000000000000000000000000000000000000000000000000000008152506020019350505050600060405180830381600087803b158015613a5557600080fd5b505af1158015613a69573d6000803e3d6000fd5b5050505081925050509392505050565b6000806060803373ffffffffffffffffffffffffffffffffffffffff166000809054906101000a900473ffffffffffffffffffffffffffffffffffffffff1673ffffffffffffffffffffffffffffffffffffffff166321f8a72160405160200180807f636f6e74726163742e6164647265737300000000000000000000000000000000815250601001807f446567656e6963730000000000000000000000000000000000000000000000008152506008019050604051602081830303815290604052805190602001206040518263ffffffff1660e01b81526004018082815260200191505060206040518083038186803b158015613b7657600080fd5b505afa158015613b8a573d6000803e3d6000fd5b505050506040513d6020811015613ba057600080fd5b810190808051906020019092919050505073ffffffffffffffffffffffffffffffffffffffff1614613c3a576040517f08c379a00000000000000000000000000000000000000000000000000000000081526004018080602001828103825260178152602001807f4f6e6c792072656769737472656420636f6e747261637400000000000000000081525060200191505060405180910390fd5b6000809054906101000a900473ffffffffffffffffffffffffffffffffffffffff1673ffffffffffffffffffffffffffffffffffffffff166321f8a7218660405160200180807f53706563696d656e2e6f776e6572000000000000000000000000000000000000815250600e01828152602001915050604051602081830303815290604052805190602001206040518263ffffffff1660e01b81526004018082815260200191505060206040518083038186803b158015613cfa57600080fd5b505afa158015613d0e573d6000803e3d6000fd5b505050506040513d6020811015613d2457600080fd5b810190808051906020019092919050505093506000809054906101000a900473ffffffffffffffffffffffffffffffffffffffff1673ffffffffffffffffffffffffffffffffffffffff166321f8a7218660405160200180807f53706563696d656e2e6c61620000000000000000000000000000000000000000815250600c01828152602001915050604051602081830303815290604052805190602001206040518263ffffffff1660e01b81526004018082815260200191505060206040518083038186803b158015613df757600080fd5b505afa158015613e0b573d6000803e3d6000fd5b505050506040513d6020811015613e2157600080fd5b810190808051906020019092919050505092506000809054906101000a900473ffffffffffffffffffffffffffffffffffffffff1673ffffffffffffffffffffffffffffffffffffffff1663986e791a8660405160200180807f53706563696d656e2e73657276696365436f6465000000000000000000000000815250601401828152602001915050604051602081830303815290604052805190602001206040518263ffffffff1660e01b81526004018082815260200191505060006040518083038186803b158015613ef457600080fd5b505afa158015613f08573d6000803e3d6000fd5b505050506040513d6000823e3d601f19601f820116820180604052506020811015613f3257600080fd5b8101908080516040519392919084640100000000821115613f5257600080fd5b83820191506020820185811115613f6857600080fd5b8251866001820283011164010000000082111715613f8557600080fd5b8083526020830192505050908051906020019080838360005b83811015613fb9578082015181840152602081019050613f9e565b50505050905090810190601f168015613fe65780820380516001836020036101000a031916815260200191505b506040525050509150613ff88561526a565b9050614039816040518060400160405280600381526020017f4e6577000000000000000000000000000000000000000000000000000000000081525061542c565b80156141c957506000809054906101000a900473ffffffffffffffffffffffffffffffffffffffff1673ffffffffffffffffffffffffffffffffffffffff1663bd02d0f5848460405160200180807f6c61622e736572766963652e70726963650000000000000000000000000000008152506011018373ffffffffffffffffffffffffffffffffffffffff1673ffffffffffffffffffffffffffffffffffffffff1660601b815260140182805190602001908083835b6020831061411257805182526020820191506020810190506020830392506140ef565b6001836020036101000a03801982511681845116808217855250505050505090500192505050604051602081830303815290604052805190602001206040518263ffffffff1660e01b81526004018082815260200191505060206040518083038186803b15801561418257600080fd5b505afa158015614196573d6000803e3d6000fd5b505050506040513d60208110156141ac57600080fd5b81019080805190602001909291905050506141c686615966565b10155b15614207576040518060400160405280600481526020017f506169640000000000000000000000000000000000000000000000000000000081525090505b8383838393509350935093509193509193565b3373ffffffffffffffffffffffffffffffffffffffff166000809054906101000a900473ffffffffffffffffffffffffffffffffffffffff1673ffffffffffffffffffffffffffffffffffffffff166321f8a72160405160200180807f636f6e74726163742e6164647265737300000000000000000000000000000000815250601001807f446567656e6963730000000000000000000000000000000000000000000000008152506008019050604051602081830303815290604052805190602001206040518263ffffffff1660e01b81526004018082815260200191505060206040518083038186803b15801561431157600080fd5b505afa158015614325573d6000803e3d6000fd5b505050506040513d602081101561433b57600080fd5b810190808051906020019092919050505073ffffffffffffffffffffffffffffffffffffffff16146143d5576040517f08c379a00000000000000000000000000000000000000000000000000000000081526004018080602001828103825260178152602001807f4f6e6c792072656769737472656420636f6e747261637400000000000000000081525060200191505060405180910390fd5b3273ffffffffffffffffffffffffffffffffffffffff166000809054906101000a900473ffffffffffffffffffffffffffffffffffffffff1673ffffffffffffffffffffffffffffffffffffffff166321f8a7218460405160200180807f53706563696d656e2e6f776e6572000000000000000000000000000000000000815250600e01828152602001915050604051602081830303815290604052805190602001206040518263ffffffff1660e01b81526004018082815260200191505060206040518083038186803b1580156144ac57600080fd5b505afa1580156144c0573d6000803e3d6000fd5b505050506040513d60208110156144d657600080fd5b810190808051906020019092919050505073ffffffffffffffffffffffffffffffffffffffff1614614570576040517f08c379a00000000000000000000000000000000000000000000000000000000081526004018080602001828103825260138152602001807f4f6e6c792073706563696d656e206f776e65720000000000000000000000000081525060200191505060405180910390fd5b6145b761457c8361526a565b6040518060400160405280600381526020017f4e6577000000000000000000000000000000000000000000000000000000000081525061542c565b80156145d357506145c78261552e565b6145d083615966565b10155b614645576040517f08c379a000000000000000000000000000000000000000000000000000000000815260040180806020018281038252600e8152602001807f4f6e6c792070616964207465737400000000000000000000000000000000000081525060200191505060405180910390fd5b6000809054906101000a900473ffffffffffffffffffffffffffffffffffffffff1673ffffffffffffffffffffffffffffffffffffffff16636e8995508360405160200180807f53706563696d656e2e7374617475730000000000000000000000000000000000815250600f01828152602001915050604051602081830303815290604052805190602001206040518263ffffffff1660e01b81526004018082815260200180602001828103825260078152602001807f53656e64696e670000000000000000000000000000000000000000000000000081525060200192505050600060405180830381600087803b15801561474057600080fd5b505af1158015614754573d6000803e3d6000fd5b50505050600160009054906101000a900473ffffffffffffffffffffffffffffffffffffffff1673ffffffffffffffffffffffffffffffffffffffff166372b01cc083836040518363ffffffff1660e01b8152600401808381526020018060200180602001838103835260048152602001807f73656e6400000000000000000000000000000000000000000000000000000000815250602001838103825284818151815260200191508051906020019080838360005b8381101561482557808201518184015260208101905061480a565b50505050905090810190601f1680156148525780820380516001836020036101000a031916815260200191505b50945050505050600060405180830381600087803b15801561487357600080fd5b505af1158015614887573d6000803e3d6000fd5b505050505050565b3373ffffffffffffffffffffffffffffffffffffffff166000809054906101000a900473ffffffffffffffffffffffffffffffffffffffff1673ffffffffffffffffffffffffffffffffffffffff166321f8a72160405160200180807f636f6e74726163742e6164647265737300000000000000000000000000000000815250601001807f446567656e6963730000000000000000000000000000000000000000000000008152506008019050604051602081830303815290604052805190602001206040518263ffffffff1660e01b81526004018082815260200191505060206040518083038186803b15801561498657600080fd5b505afa15801561499a573d6000803e3d6000fd5b505050506040513d60208110156149b057600080fd5b810190808051906020019092919050505073ffffffffffffffffffffffffffffffffffffffff1614614a4a576040517f08c379a00000000000000000000000000000000000000000000000000000000081526004018080602001828103825260178152602001807f4f6e6c792072656769737472656420636f6e747261637400000000000000000081525060200191505060405180910390fd5b82614a8a6040518060400160405280600381526020017f6c61620000000000000000000000000000000000000000000000000000000000815250326150e3565b614afc576040517f08c379a00000000000000000000000000000000000000000000000000000000081526004018080602001828103825260088152602001807f4f6e6c79206c616200000000000000000000000000000000000000000000000081525060200191505060405180910390fd5b3273ffffffffffffffffffffffffffffffffffffffff166000809054906101000a900473ffffffffffffffffffffffffffffffffffffffff1673ffffffffffffffffffffffffffffffffffffffff166321f8a7218360405160200180807f53706563696d656e2e6c61620000000000000000000000000000000000000000815250600c01828152602001915050604051602081830303815290604052805190602001206040518263ffffffff1660e01b81526004018082815260200191505060206040518083038186803b158015614bd357600080fd5b505afa158015614be7573d6000803e3d6000fd5b505050506040513d6020811015614bfd57600080fd5b810190808051906020019092919050505073ffffffffffffffffffffffffffffffffffffffff1614614c97576040517f08c379a00000000000000000000000000000000000000000000000000000000081526004018080602001828103825260088152602001807f4f6e6c79204c616200000000000000000000000000000000000000000000000081525060200191505060405180910390fd5b614cde614ca38561526a565b6040518060400160405280600881526020017f526563656976656400000000000000000000000000000000000000000000000081525061542c565b614d50576040517f08c379a00000000000000000000000000000000000000000000000000000000081526004018080602001828103825260168152602001807f4f6e6c792052656365697665642073706563696d656e0000000000000000000081525060200191505060405180910390fd5b6000809054906101000a900473ffffffffffffffffffffffffffffffffffffffff1673ffffffffffffffffffffffffffffffffffffffff16636e8995508560405160200180807f53706563696d656e2e7374617475730000000000000000000000000000000000815250600f01828152602001915050604051602081830303815290604052805190602001206040518263ffffffff1660e01b81526004018082815260200180602001828103825260068152602001807f537563636573000000000000000000000000000000000000000000000000000081525060200192505050600060405180830381600087803b158015614e4b57600080fd5b505af1158015614e5f573d6000803e3d6000fd5b50505050600160009054906101000a900473ffffffffffffffffffffffffffffffffffffffff1673ffffffffffffffffffffffffffffffffffffffff166372b01cc085846040518363ffffffff1660e01b8152600401808381526020018060200180602001838103835260068152602001807f7375636365730000000000000000000000000000000000000000000000000000815250602001838103825284818151815260200191508051906020019080838360005b83811015614f30578082015181840152602081019050614f15565b50505050905090810190601f168015614f5d5780820380516001836020036101000a031916815260200191505b50945050505050600060405180830381600087803b158015614f7e57600080fd5b505af1158015614f92573d6000803e3d6000fd5b505050506000809054906101000a900473ffffffffffffffffffffffffffffffffffffffff1673ffffffffffffffffffffffffffffffffffffffff16636e8995508560405160200180807f53706563696d656e2e66696c6500000000000000000000000000000000000000815250600d0182815260200191505060405160208183030381529060405280519060200120856040518363ffffffff1660e01b81526004018083815260200180602001828103825283818151815260200191508051906020019080838360005b8381101561507857808201518184015260208101905061505d565b50505050905090810190601f1680156150a55780820380516001836020036101000a031916815260200191505b509350505050600060405180830381600087803b1580156150c557600080fd5b505af11580156150d9573d6000803e3d6000fd5b5050505050505050565b60008060009054906101000a900473ffffffffffffffffffffffffffffffffffffffff1673ffffffffffffffffffffffffffffffffffffffff16637ae1cfca848460405160200180807f6163636573732e726f6c65000000000000000000000000000000000000000000815250600b0183805190602001908083835b60208310615182578051825260208201915060208101905060208303925061515f565b6001836020036101000a0380198251168184511680821785525050505050509050018273ffffffffffffffffffffffffffffffffffffffff1673ffffffffffffffffffffffffffffffffffffffff1660601b815260140192505050604051602081830303815290604052805190602001206040518263ffffffff1660e01b81526004018082815260200191505060206040518083038186803b15801561522757600080fd5b505afa15801561523b573d6000803e3d6000fd5b505050506040513d602081101561525157600080fd5b8101908080519060200190929190505050905092915050565b60606000809054906101000a900473ffffffffffffffffffffffffffffffffffffffff1673ffffffffffffffffffffffffffffffffffffffff1663986e791a8360405160200180807f53706563696d656e2e7374617475730000000000000000000000000000000000815250600f01828152602001915050604051602081830303815290604052805190602001206040518263ffffffff1660e01b81526004018082815260200191505060006040518083038186803b15801561532c57600080fd5b505afa158015615340573d6000803e3d6000fd5b505050506040513d6000823e3d601f19601f82011682018060405250602081101561536a57600080fd5b810190808051604051939291908464010000000082111561538a57600080fd5b838201915060208201858111156153a057600080fd5b82518660018202830111640100000000821117156153bd57600080fd5b8083526020830192505050908051906020019080838360005b838110156153f15780820151818401526020810190506153d6565b50505050905090810190601f16801561541e5780820380516001836020036101000a031916815260200191505b506040525050509050919050565b600081518351146154405760009050615528565b816040516020018082805190602001908083835b602083106154775780518252602082019150602081019050602083039250615454565b6001836020036101000a03801982511681845116808217855250505050505090500191505060405160208183030381529060405280519060200120836040516020018082805190602001908083835b602083106154e957805182526020820191506020810190506020830392506154c6565b6001836020036101000a038019825116818451168082178552505050505050905001915050604051602081830303815290604052805190602001201490505b92915050565b60008060009054906101000a900473ffffffffffffffffffffffffffffffffffffffff1673ffffffffffffffffffffffffffffffffffffffff1663bd02d0f56000809054906101000a900473ffffffffffffffffffffffffffffffffffffffff1673ffffffffffffffffffffffffffffffffffffffff166321f8a7218560405160200180807f53706563696d656e2e6c61620000000000000000000000000000000000000000815250600c01828152602001915050604051602081830303815290604052805190602001206040518263ffffffff1660e01b81526004018082815260200191505060206040518083038186803b15801561562d57600080fd5b505afa158015615641573d6000803e3d6000fd5b505050506040513d602081101561565757600080fd5b81019080805190602001909291905050506000809054906101000a900473ffffffffffffffffffffffffffffffffffffffff1673ffffffffffffffffffffffffffffffffffffffff1663986e791a8660405160200180807f53706563696d656e2e73657276696365436f6465000000000000000000000000815250601401828152602001915050604051602081830303815290604052805190602001206040518263ffffffff1660e01b81526004018082815260200191505060006040518083038186803b15801561572857600080fd5b505afa15801561573c573d6000803e3d6000fd5b505050506040513d6000823e3d601f19601f82011682018060405250602081101561576657600080fd5b810190808051604051939291908464010000000082111561578657600080fd5b8382019150602082018581111561579c57600080fd5b82518660018202830111640100000000821117156157b957600080fd5b8083526020830192505050908051906020019080838360005b838110156157ed5780820151818401526020810190506157d2565b50505050905090810190601f16801561581a5780820380516001836020036101000a031916815260200191505b5060405250505060405160200180807f6c61622e736572766963652e70726963650000000000000000000000000000008152506011018373ffffffffffffffffffffffffffffffffffffffff1673ffffffffffffffffffffffffffffffffffffffff1660601b815260140182805190602001908083835b602083106158b45780518252602082019150602081019050602083039250615891565b6001836020036101000a03801982511681845116808217855250505050505090500192505050604051602081830303815290604052805190602001206040518263ffffffff1660e01b81526004018082815260200191505060206040518083038186803b15801561592457600080fd5b505afa158015615938573d6000803e3d6000fd5b505050506040513d602081101561594e57600080fd5b81019080805190602001909291905050509050919050565b6000806000809054906101000a900473ffffffffffffffffffffffffffffffffffffffff1673ffffffffffffffffffffffffffffffffffffffff166321f8a7218460405160200180807f53706563696d656e2e657363726f770000000000000000000000000000000000815250600f01828152602001915050604051602081830303815290604052805190602001206040518263ffffffff1660e01b81526004018082815260200191505060206040518083038186803b158015615a2957600080fd5b505afa158015615a3d573d6000803e3d6000fd5b505050506040513d6020811015615a5357600080fd5b810190808051906020019092919050505090508073ffffffffffffffffffffffffffffffffffffffff163191505091905056fea265627a7a723158202c7f8c5e42ee2da4d36002ebc8a1543e87336ece869c93bf0c73988d37b6aaa464736f6c63430005100032",
  "source": "pragma solidity ^0.5.16;\r\n\r\n\r\nimport \"./common/Base.sol\";\r\nimport \"./DegenicsLog.sol\";\r\n\r\ncontract Specimen is Base {\r\n\r\n    DegenicsLog degenicsLog;\r\n\r\n     modifier onlyDegenicsContract() {\r\n        require(eternalStorage.getAddress(keccak256(abi.encodePacked(\"contract.address\", \"Degenics\"))) == msg.sender, \"Only registred contract\" );\r\n        _;\r\n    }\r\n\r\n    modifier onlyLab(bytes32 number){\r\n        require(roleHas(\"lab\", tx.origin), \"Only lab\");\r\n        require(eternalStorage.getAddress(keccak256(abi.encodePacked( \"Specimen.lab\",number ))) == tx.origin, \"Only Lab\");\r\n        _;\r\n    }\r\n    \r\n    constructor(address _storage, address _degenicsLog ) public Base(_storage) {\r\n        degenicsLog = DegenicsLog(_degenicsLog);\r\n    }   \r\n\r\n\r\n    function registerSpecimen(address ownerSpecimen, address labAccount, string memory serviceCode) public onlyDegenicsContract returns(bytes32){\r\n        bytes32 number = keccak256(abi.encodePacked(\"Specimen\", ownerSpecimen, labAccount, serviceCode, block.timestamp ));\r\n        eternalStorage.setUint(keccak256(abi.encodePacked( \"Specimen.registered\",number )),block.timestamp );\r\n        eternalStorage.setAddress(keccak256(abi.encodePacked( \"Specimen.owner\",number )),ownerSpecimen);\r\n        eternalStorage.setAddress(keccak256(abi.encodePacked( \"Specimen.lab\",number )),labAccount);\r\n        eternalStorage.setString(keccak256(abi.encodePacked( \"Specimen.serviceCode\",number )),serviceCode);\r\n        eternalStorage.setString(keccak256(abi.encodePacked( \"Specimen.status\",number )),\"New\");\r\n        \r\n        uint index = eternalStorage.addUint(keccak256(abi.encodePacked(\"Specimen.count\", ownerSpecimen)), 1);\r\n        eternalStorage.setBytes32(keccak256(abi.encodePacked(\"Specimen\",ownerSpecimen, index )), number);\r\n        index = eternalStorage.addUint(keccak256(abi.encodePacked(\"Specimen.count\",labAccount)), 1);\r\n        eternalStorage.setBytes32(keccak256(abi.encodePacked(\"Specimen\",labAccount, index )), number);\r\n\r\n        eternalStorage.setBytes32(keccak256(abi.encodePacked(\"Specimen.lastNumber\",ownerSpecimen)), number);\r\n        degenicsLog.addSpecimenLog(number, \"created\", \"-\");\r\n        return number;  \r\n    }\r\n\r\n    function specimenCount(address sender) public view onlyDegenicsContract returns(uint){\r\n        return eternalStorage.getUint(keccak256(abi.encodePacked(\"Specimen.count\",sender)));\r\n    }\r\n\r\n    function specimenByNumber(bytes32 number) public view onlyDegenicsContract returns(\r\n        address owner, address labAccount, string memory serviceCode, string memory status){        \r\n        owner = eternalStorage.getAddress(keccak256(abi.encodePacked( \"Specimen.owner\",number )));\r\n        labAccount = eternalStorage.getAddress(keccak256(abi.encodePacked( \"Specimen.lab\",number )));\r\n        serviceCode = eternalStorage.getString(keccak256(abi.encodePacked( \"Specimen.serviceCode\",number )));\r\n        status =getStatus(number); \r\n        if(compareString(status, \"New\") && \r\n            escrowBalance(number) >=  eternalStorage.getUint(keccak256(abi.encodePacked(\"lab.service.price\", labAccount, serviceCode))) ){\r\n            status = \"Paid\";\r\n        }\r\n        return(owner, labAccount, serviceCode, status);\r\n    }\r\n\r\n    function specimenByIndex(address sender, uint index) public view onlyDegenicsContract returns(\r\n        address owner, address labAccount, string memory serviceCode, string memory status){        \r\n        return specimenByNumber( eternalStorage.getBytes32(keccak256(abi.encodePacked(\"Specimen\",sender, index ))));\r\n    }\r\n\r\n    function escrowBalance(bytes32 number) internal view returns(uint){\r\n        address escrow = eternalStorage.getAddress(keccak256(abi.encodePacked(\"Specimen.escrow\", number)));\r\n        return escrow.balance;\r\n    }\r\n\r\n    function sendSpecimen(bytes32  number, string memory remark) public onlyDegenicsContract {\r\n        require(eternalStorage.getAddress(keccak256(abi.encodePacked( \"Specimen.owner\",number ))) == tx.origin, \"Only specimen owner\");\r\n        require(compareString(getStatus(number), \"New\") && \r\n            escrowBalance(number) >=  checkPrice(number), \"Only paid test\");        \r\n        eternalStorage.setString(keccak256(abi.encodePacked( \"Specimen.status\",number )), \"Sending\"); \r\n        degenicsLog.addSpecimenLog(number, \"send\", remark);\r\n    }\r\n\r\n    function receiveSpecimen(bytes32  number, string memory remark) public onlyDegenicsContract onlyLab(number) {\r\n        require(compareString(getStatus(number), \"Sending\") || (compareString(getStatus(number), \"New\") &&   escrowBalance(number) >=  checkPrice(number)) , \"Only sending specimen\" );\r\n        eternalStorage.setString(keccak256(abi.encodePacked( \"Specimen.status\",number )), \"Received\");\r\n        degenicsLog.addSpecimenLog(number, \"receive\", remark);\r\n    }\r\n\r\n    function rejectSpecimen(bytes32  number, string memory remark) public onlyDegenicsContract onlyLab(number) {\r\n        require(compareString(getStatus(number), \"Sending\") || (compareString(getStatus(number), \"New\") &&   escrowBalance(number) >=  checkPrice(number)) , \"Only sending specimen\" );\r\n        eternalStorage.setString(keccak256(abi.encodePacked( \"Specimen.status\",number )), \"Reject\");\r\n        degenicsLog.addSpecimenLog(number, \"reject\", remark);\r\n    }\r\n\r\n    function analysisSucces(bytes32  number, string memory file, string memory remark) public onlyDegenicsContract onlyLab(number) {\r\n        require(compareString(getStatus(number), \"Received\"), \"Only Received specimen\" );\r\n        eternalStorage.setString(keccak256(abi.encodePacked( \"Specimen.status\",number )), \"Succes\");\r\n        degenicsLog.addSpecimenLog(number, \"succes\", remark);\r\n        eternalStorage.setString(keccak256(abi.encodePacked( \"Specimen.file\",number)), file);\r\n    }\r\n\r\n    function analysisFail(bytes32  number, string memory remark) public onlyDegenicsContract onlyLab(number) {\r\n        // string memory status = eternalStorage.getString(keccak256(abi.encodePacked( \"Specimen.status\",number ))); \r\n        require(compareString(getStatus(number), \"Received\"), \"Only Received specimen\" );\r\n        degenicsLog.addSpecimenLog(number, \"fail\", remark);\r\n        eternalStorage.setString(keccak256(abi.encodePacked( \"Specimen.remark\",number, \"Failed\" )), remark);\r\n    }\r\n\r\n    function checkPrice(bytes32  number) internal returns(uint){\r\n        return eternalStorage.getUint(keccak256(abi.encodePacked(\"lab.service.price\", \r\n            eternalStorage.getAddress(keccak256(abi.encodePacked( \"Specimen.lab\",number ))), \r\n            eternalStorage.getString(keccak256(abi.encodePacked( \"Specimen.serviceCode\",number )))\r\n        )));\r\n    }\r\n\r\n    function logByIndex(bytes32 number, uint _index)public onlyDegenicsContract returns(uint index, uint time, \r\n        string memory logType, string memory log){\r\n        return degenicsLog.specimenLogByIndex(number, _index);\r\n    }\r\n\r\n    function getStatus(bytes32 number) internal view returns(string memory){\r\n        return eternalStorage.getString(keccak256(abi.encodePacked( \"Specimen.status\",number )));       \r\n    }\r\n\r\n}",
  "sourcePath": "D:\\projects\\degenics\\degenics-smart-contract\\contracts\\Specimen.sol",
  "compiler": {
    "name": "solc",
    "version": "0.5.16+commit.9c3226ce.Emscripten.clang"
  },
  "schemaVersion": "3.0.23",
  "updatedAt": "2020-12-30T10:53:28.162Z",
  "networkType": "ethereum",
  "devdoc": {
    "methods": {}
  },
  "userdoc": {
    "methods": {}
  }
}