{
  "contractName": "SpecimenTracking",
  "abi": [
    {
      "inputs": [
        {
          "internalType": "address",
          "name": "_storage",
          "type": "address"
        },
        {
          "internalType": "address",
          "name": "_degenicsLog",
          "type": "address"
        }
      ],
      "payable": false,
      "stateMutability": "nonpayable",
      "type": "constructor"
    },
    {
      "constant": true,
      "inputs": [],
      "name": "eternalStorage",
      "outputs": [
        {
          "internalType": "contract EternalStorageInterface",
          "name": "",
          "type": "address"
        }
      ],
      "payable": false,
      "stateMutability": "view",
      "type": "function"
    },
    {
      "constant": false,
      "inputs": [
        {
          "internalType": "string",
          "name": "number",
          "type": "string"
        },
        {
          "internalType": "string",
          "name": "remark",
          "type": "string"
        }
      ],
      "name": "sendSpecimen",
      "outputs": [],
      "payable": false,
      "stateMutability": "nonpayable",
      "type": "function"
    },
    {
      "constant": false,
      "inputs": [
        {
          "internalType": "string",
          "name": "number",
          "type": "string"
        },
        {
          "internalType": "string",
          "name": "remark",
          "type": "string"
        }
      ],
      "name": "receiveSpecimen",
      "outputs": [],
      "payable": false,
      "stateMutability": "nonpayable",
      "type": "function"
    },
    {
      "constant": false,
      "inputs": [
        {
          "internalType": "string",
          "name": "number",
          "type": "string"
        },
        {
          "internalType": "string",
          "name": "remark",
          "type": "string"
        }
      ],
      "name": "rejectSpecimen",
      "outputs": [],
      "payable": false,
      "stateMutability": "nonpayable",
      "type": "function"
    },
    {
      "constant": false,
      "inputs": [
        {
          "internalType": "string",
          "name": "number",
          "type": "string"
        },
        {
          "internalType": "string",
          "name": "file",
          "type": "string"
        },
        {
          "internalType": "string",
          "name": "remark",
          "type": "string"
        }
      ],
      "name": "analysisSucces",
      "outputs": [],
      "payable": false,
      "stateMutability": "nonpayable",
      "type": "function"
    },
    {
      "constant": false,
      "inputs": [
        {
          "internalType": "string",
          "name": "number",
          "type": "string"
        },
        {
          "internalType": "string",
          "name": "remark",
          "type": "string"
        }
      ],
      "name": "analysisFail",
      "outputs": [],
      "payable": false,
      "stateMutability": "nonpayable",
      "type": "function"
    },
    {
      "constant": false,
      "inputs": [
        {
          "internalType": "string",
          "name": "number",
          "type": "string"
        },
        {
          "internalType": "uint256",
          "name": "_index",
          "type": "uint256"
        }
      ],
      "name": "logByIndex",
      "outputs": [
        {
          "internalType": "uint256",
          "name": "index",
          "type": "uint256"
        },
        {
          "internalType": "uint256",
          "name": "time",
          "type": "uint256"
        },
        {
          "internalType": "string",
          "name": "logType",
          "type": "string"
        },
        {
          "internalType": "string",
          "name": "log",
          "type": "string"
        }
      ],
      "payable": false,
      "stateMutability": "nonpayable",
      "type": "function"
    },
    {
      "constant": false,
      "inputs": [
        {
          "internalType": "string",
          "name": "number",
          "type": "string"
        },
        {
          "internalType": "string",
          "name": "status",
          "type": "string"
        }
      ],
      "name": "setStatus",
      "outputs": [],
      "payable": false,
      "stateMutability": "nonpayable",
      "type": "function"
    },
    {
      "constant": true,
      "inputs": [
        {
          "internalType": "string",
          "name": "number",
          "type": "string"
        }
      ],
      "name": "getStatus",
      "outputs": [
        {
          "internalType": "string",
          "name": "",
          "type": "string"
        }
      ],
      "payable": false,
      "stateMutability": "view",
      "type": "function"
    },
    {
      "constant": true,
      "inputs": [
        {
          "internalType": "string",
          "name": "number",
          "type": "string"
        },
        {
          "internalType": "string",
          "name": "status",
          "type": "string"
        }
      ],
      "name": "checkStatus",
      "outputs": [
        {
          "internalType": "bool",
          "name": "",
          "type": "bool"
        }
      ],
      "payable": false,
      "stateMutability": "view",
      "type": "function"
    },
    {
      "constant": true,
      "inputs": [
        {
          "internalType": "string",
          "name": "number",
          "type": "string"
        }
      ],
      "name": "getFile",
      "outputs": [
        {
          "internalType": "string",
          "name": "file",
          "type": "string"
        }
      ],
      "payable": false,
      "stateMutability": "view",
      "type": "function"
    },
    {
      "constant": true,
      "inputs": [
        {
          "internalType": "string",
          "name": "number",
          "type": "string"
        }
      ],
      "name": "checkPayment",
      "outputs": [
        {
          "internalType": "bool",
          "name": "",
          "type": "bool"
        }
      ],
      "payable": false,
      "stateMutability": "view",
      "type": "function"
    }
  ],
  "bytecode": "0x608060405260008060006101000a81548173ffffffffffffffffffffffffffffffffffffffff021916908373ffffffffffffffffffffffffffffffffffffffff1602179055503480156200005257600080fd5b5060405162005ead38038062005ead833981810160405260408110156200007857600080fd5b81019080805190602001909291908051906020019092919050505081806000806101000a81548173ffffffffffffffffffffffffffffffffffffffff021916908373ffffffffffffffffffffffffffffffffffffffff1602179055505080600160006101000a81548173ffffffffffffffffffffffffffffffffffffffff021916908373ffffffffffffffffffffffffffffffffffffffff1602179055505050615d8580620001286000396000f3fe608060405234801561001057600080fd5b50600436106100b45760003560e01c8063aa08893711610071578063aa0889371461077e578063c5590033146108d0578063ca15e24a14610a22578063dddae88414610c0b578063e0876aa814610d5d578063ed3468f714610e91576100b4565b806322b05ed2146100b957806363a88bcf146101ed57806394837cea1461035757806398ff9c541461042a5780639cd8f25614610474578063a2ed91e2146105c6575b600080fd5b610172600480360360208110156100cf57600080fd5b81019080803590602001906401000000008111156100ec57600080fd5b8201836020820111156100fe57600080fd5b8035906020019184600183028401116401000000008311171561012057600080fd5b91908080601f016020809104026020016040519081016040528093929190818152602001838380828437600081840152601f19601f820116905080830192505050505050509192919290505050610fe3565b6040518080602001828103825283818151815260200191508051906020019080838360005b838110156101b2578082015181840152602081019050610197565b50505050905090810190601f1680156101df5780820380516001836020036101000a031916815260200191505b509250505060405180910390f35b61033d6004803603604081101561020357600080fd5b810190808035906020019064010000000081111561022057600080fd5b82018360208201111561023257600080fd5b8035906020019184600183028401116401000000008311171561025457600080fd5b91908080601f016020809104026020016040519081016040528093929190818152602001838380828437600081840152601f19601f820116905080830192505050505050509192919290803590602001906401000000008111156102b757600080fd5b8201836020820111156102c957600080fd5b803590602001918460018302840111640100000000831117156102eb57600080fd5b91908080601f016020809104026020016040519081016040528093929190818152602001838380828437600081840152601f19601f8201169050808301925050505050505091929192905050506114fb565b604051808215151515815260200191505060405180910390f35b6104106004803603602081101561036d57600080fd5b810190808035906020019064010000000081111561038a57600080fd5b82018360208201111561039c57600080fd5b803590602001918460018302840111640100000000831117156103be57600080fd5b91908080601f016020809104026020016040519081016040528093929190818152602001838380828437600081840152601f19601f820116905080830192505050505050509192919290505050611822565b604051808215151515815260200191505060405180910390f35b610432611b4a565b604051808273ffffffffffffffffffffffffffffffffffffffff1673ffffffffffffffffffffffffffffffffffffffff16815260200191505060405180910390f35b6105c46004803603604081101561048a57600080fd5b81019080803590602001906401000000008111156104a757600080fd5b8201836020820111156104b957600080fd5b803590602001918460018302840111640100000000831117156104db57600080fd5b91908080601f016020809104026020016040519081016040528093929190818152602001838380828437600081840152601f19601f8201169050808301925050505050505091929192908035906020019064010000000081111561053e57600080fd5b82018360208201111561055057600080fd5b8035906020019184600183028401116401000000008311171561057257600080fd5b91908080601f016020809104026020016040519081016040528093929190818152602001838380828437600081840152601f19601f820116905080830192505050505050509192919290505050611b6f565b005b610689600480360360408110156105dc57600080fd5b81019080803590602001906401000000008111156105f957600080fd5b82018360208201111561060b57600080fd5b8035906020019184600183028401116401000000008311171561062d57600080fd5b91908080601f016020809104026020016040519081016040528093929190818152602001838380828437600081840152601f19601f820116905080830192505050505050509192919290803590602001909291905050506122ff565b604051808581526020018481526020018060200180602001838103835285818151815260200191508051906020019080838360005b838110156106d95780820151818401526020810190506106be565b50505050905090810190601f1680156107065780820380516001836020036101000a031916815260200191505b50838103825284818151815260200191508051906020019080838360005b8381101561073f578082015181840152602081019050610724565b50505050905090810190601f16801561076c5780820380516001836020036101000a031916815260200191505b50965050505050505060405180910390f35b6108ce6004803603604081101561079457600080fd5b81019080803590602001906401000000008111156107b157600080fd5b8201836020820111156107c357600080fd5b803590602001918460018302840111640100000000831117156107e557600080fd5b91908080601f016020809104026020016040519081016040528093929190818152602001838380828437600081840152601f19601f8201169050808301925050505050505091929192908035906020019064010000000081111561084857600080fd5b82018360208201111561085a57600080fd5b8035906020019184600183028401116401000000008311171561087c57600080fd5b91908080601f016020809104026020016040519081016040528093929190818152602001838380828437600081840152601f19601f8201169050808301925050505050505091929192905050506128c7565b005b610a20600480360360408110156108e657600080fd5b810190808035906020019064010000000081111561090357600080fd5b82018360208201111561091557600080fd5b8035906020019184600183028401116401000000008311171561093757600080fd5b91908080601f016020809104026020016040519081016040528093929190818152602001838380828437600081840152601f19601f8201169050808301925050505050505091929192908035906020019064010000000081111561099a57600080fd5b8201836020820111156109ac57600080fd5b803590602001918460018302840111640100000000831117156109ce57600080fd5b91908080601f016020809104026020016040519081016040528093929190818152602001838380828437600081840152601f19601f82011690508083019250505050505050919291929050505061300f565b005b610c0960048036036060811015610a3857600080fd5b8101908080359060200190640100000000811115610a5557600080fd5b820183602082011115610a6757600080fd5b80359060200191846001830284011164010000000083111715610a8957600080fd5b91908080601f016020809104026020016040519081016040528093929190818152602001838380828437600081840152601f19601f82011690508083019250505050505050919291929080359060200190640100000000811115610aec57600080fd5b820183602082011115610afe57600080fd5b80359060200191846001830284011164010000000083111715610b2057600080fd5b91908080601f016020809104026020016040519081016040528093929190818152602001838380828437600081840152601f19601f82011690508083019250505050505050919291929080359060200190640100000000811115610b8357600080fd5b820183602082011115610b9557600080fd5b80359060200191846001830284011164010000000083111715610bb757600080fd5b91908080601f016020809104026020016040519081016040528093929190818152602001838380828437600081840152601f19601f8201169050808301925050505050505091929192905050506134b0565b005b610d5b60048036036040811015610c2157600080fd5b8101908080359060200190640100000000811115610c3e57600080fd5b820183602082011115610c5057600080fd5b80359060200191846001830284011164010000000083111715610c7257600080fd5b91908080601f016020809104026020016040519081016040528093929190818152602001838380828437600081840152601f19601f82011690508083019250505050505050919291929080359060200190640100000000811115610cd557600080fd5b820183602082011115610ce757600080fd5b80359060200191846001830284011164010000000083111715610d0957600080fd5b91908080601f016020809104026020016040519081016040528093929190818152602001838380828437600081840152601f19601f820116905080830192505050505050509192919290505050613dc2565b005b610e1660048036036020811015610d7357600080fd5b8101908080359060200190640100000000811115610d9057600080fd5b820183602082011115610da257600080fd5b80359060200191846001830284011164010000000083111715610dc457600080fd5b91908080601f016020809104026020016040519081016040528093929190818152602001838380828437600081840152601f19601f8201169050808301925050505050505091929192905050506145de565b6040518080602001828103825283818151815260200191508051906020019080838360005b83811015610e56578082015181840152602081019050610e3b565b50505050905090810190601f168015610e835780820380516001836020036101000a031916815260200191505b509250505060405180910390f35b610fe160048036036040811015610ea757600080fd5b8101908080359060200190640100000000811115610ec457600080fd5b820183602082011115610ed657600080fd5b80359060200191846001830284011164010000000083111715610ef857600080fd5b91908080601f016020809104026020016040519081016040528093929190818152602001838380828437600081840152601f19601f82011690508083019250505050505050919291929080359060200190640100000000811115610f5b57600080fd5b820183602082011115610f6d57600080fd5b80359060200191846001830284011164010000000083111715610f8f57600080fd5b91908080601f016020809104026020016040519081016040528093929190818152602001838380828437600081840152601f19601f820116905080830192505050505050509192919290505050614e57565b005b60603373ffffffffffffffffffffffffffffffffffffffff166000809054906101000a900473ffffffffffffffffffffffffffffffffffffffff1673ffffffffffffffffffffffffffffffffffffffff166321f8a72160405160200180807f636f6e74726163742e6164647265737300000000000000000000000000000000815250601001807f446567656e6963730000000000000000000000000000000000000000000000008152506008019050604051602081830303815290604052805190602001206040518263ffffffff1660e01b81526004018082815260200191505060206040518083038186803b1580156110dc57600080fd5b505afa1580156110f0573d6000803e3d6000fd5b505050506040513d602081101561110657600080fd5b810190808051906020019092919050505073ffffffffffffffffffffffffffffffffffffffff16148061127e57503373ffffffffffffffffffffffffffffffffffffffff166000809054906101000a900473ffffffffffffffffffffffffffffffffffffffff1673ffffffffffffffffffffffffffffffffffffffff166321f8a72160405160200180807f636f6e74726163742e6164647265737300000000000000000000000000000000815250601001807f53706563696d656e0000000000000000000000000000000000000000000000008152506008019050604051602081830303815290604052805190602001206040518263ffffffff1660e01b81526004018082815260200191505060206040518083038186803b15801561122b57600080fd5b505afa15801561123f573d6000803e3d6000fd5b505050506040513d602081101561125557600080fd5b810190808051906020019092919050505073ffffffffffffffffffffffffffffffffffffffff16145b6112f0576040517f08c379a00000000000000000000000000000000000000000000000000000000081526004018080602001828103825260178152602001807f4f6e6c792072656769737472656420636f6e747261637400000000000000000081525060200191505060405180910390fd5b6000809054906101000a900473ffffffffffffffffffffffffffffffffffffffff1673ffffffffffffffffffffffffffffffffffffffff1663986e791a8360405160200180807f53706563696d656e2e7374617475730000000000000000000000000000000000815250600f0182805190602001908083835b6020831061138c5780518252602082019150602081019050602083039250611369565b6001836020036101000a038019825116818451168082178552505050505050905001915050604051602081830303815290604052805190602001206040518263ffffffff1660e01b81526004018082815260200191505060006040518083038186803b1580156113fb57600080fd5b505afa15801561140f573d6000803e3d6000fd5b505050506040513d6000823e3d601f19601f82011682018060405250602081101561143957600080fd5b810190808051604051939291908464010000000082111561145957600080fd5b8382019150602082018581111561146f57600080fd5b825186600182028301116401000000008211171561148c57600080fd5b8083526020830192505050908051906020019080838360005b838110156114c05780820151818401526020810190506114a5565b50505050905090810190601f1680156114ed5780820380516001836020036101000a031916815260200191505b506040525050509050919050565b60003373ffffffffffffffffffffffffffffffffffffffff166000809054906101000a900473ffffffffffffffffffffffffffffffffffffffff1673ffffffffffffffffffffffffffffffffffffffff166321f8a72160405160200180807f636f6e74726163742e6164647265737300000000000000000000000000000000815250601001807f446567656e6963730000000000000000000000000000000000000000000000008152506008019050604051602081830303815290604052805190602001206040518263ffffffff1660e01b81526004018082815260200191505060206040518083038186803b1580156115f457600080fd5b505afa158015611608573d6000803e3d6000fd5b505050506040513d602081101561161e57600080fd5b810190808051906020019092919050505073ffffffffffffffffffffffffffffffffffffffff16148061179657503373ffffffffffffffffffffffffffffffffffffffff166000809054906101000a900473ffffffffffffffffffffffffffffffffffffffff1673ffffffffffffffffffffffffffffffffffffffff166321f8a72160405160200180807f636f6e74726163742e6164647265737300000000000000000000000000000000815250601001807f53706563696d656e0000000000000000000000000000000000000000000000008152506008019050604051602081830303815290604052805190602001206040518263ffffffff1660e01b81526004018082815260200191505060206040518083038186803b15801561174357600080fd5b505afa158015611757573d6000803e3d6000fd5b505050506040513d602081101561176d57600080fd5b810190808051906020019092919050505073ffffffffffffffffffffffffffffffffffffffff16145b611808576040517f08c379a00000000000000000000000000000000000000000000000000000000081526004018080602001828103825260178152602001807f4f6e6c792072656769737472656420636f6e747261637400000000000000000081525060200191505060405180910390fd5b61181a61181484610fe3565b8361562d565b905092915050565b60003373ffffffffffffffffffffffffffffffffffffffff166000809054906101000a900473ffffffffffffffffffffffffffffffffffffffff1673ffffffffffffffffffffffffffffffffffffffff166321f8a72160405160200180807f636f6e74726163742e6164647265737300000000000000000000000000000000815250601001807f446567656e6963730000000000000000000000000000000000000000000000008152506008019050604051602081830303815290604052805190602001206040518263ffffffff1660e01b81526004018082815260200191505060206040518083038186803b15801561191b57600080fd5b505afa15801561192f573d6000803e3d6000fd5b505050506040513d602081101561194557600080fd5b810190808051906020019092919050505073ffffffffffffffffffffffffffffffffffffffff161480611abd57503373ffffffffffffffffffffffffffffffffffffffff166000809054906101000a900473ffffffffffffffffffffffffffffffffffffffff1673ffffffffffffffffffffffffffffffffffffffff166321f8a72160405160200180807f636f6e74726163742e6164647265737300000000000000000000000000000000815250601001807f53706563696d656e0000000000000000000000000000000000000000000000008152506008019050604051602081830303815290604052805190602001206040518263ffffffff1660e01b81526004018082815260200191505060206040518083038186803b158015611a6a57600080fd5b505afa158015611a7e573d6000803e3d6000fd5b505050506040513d6020811015611a9457600080fd5b810190808051906020019092919050505073ffffffffffffffffffffffffffffffffffffffff16145b611b2f576040517f08c379a00000000000000000000000000000000000000000000000000000000081526004018080602001828103825260178152602001807f4f6e6c792072656769737472656420636f6e747261637400000000000000000081525060200191505060405180910390fd5b611b388261571c565b611b4183615bea565b10159050919050565b6000809054906101000a900473ffffffffffffffffffffffffffffffffffffffff1681565b3373ffffffffffffffffffffffffffffffffffffffff166000809054906101000a900473ffffffffffffffffffffffffffffffffffffffff1673ffffffffffffffffffffffffffffffffffffffff166321f8a72160405160200180807f636f6e74726163742e6164647265737300000000000000000000000000000000815250601001807f446567656e6963730000000000000000000000000000000000000000000000008152506008019050604051602081830303815290604052805190602001206040518263ffffffff1660e01b81526004018082815260200191505060206040518083038186803b158015611c6657600080fd5b505afa158015611c7a573d6000803e3d6000fd5b505050506040513d6020811015611c9057600080fd5b810190808051906020019092919050505073ffffffffffffffffffffffffffffffffffffffff161480611e0857503373ffffffffffffffffffffffffffffffffffffffff166000809054906101000a900473ffffffffffffffffffffffffffffffffffffffff1673ffffffffffffffffffffffffffffffffffffffff166321f8a72160405160200180807f636f6e74726163742e6164647265737300000000000000000000000000000000815250601001807f53706563696d656e0000000000000000000000000000000000000000000000008152506008019050604051602081830303815290604052805190602001206040518263ffffffff1660e01b81526004018082815260200191505060206040518083038186803b158015611db557600080fd5b505afa158015611dc9573d6000803e3d6000fd5b505050506040513d6020811015611ddf57600080fd5b810190808051906020019092919050505073ffffffffffffffffffffffffffffffffffffffff16145b611e7a576040517f08c379a00000000000000000000000000000000000000000000000000000000081526004018080602001828103825260178152602001807f4f6e6c792072656769737472656420636f6e747261637400000000000000000081525060200191505060405180910390fd5b813273ffffffffffffffffffffffffffffffffffffffff166000809054906101000a900473ffffffffffffffffffffffffffffffffffffffff1673ffffffffffffffffffffffffffffffffffffffff166321f8a7218360405160200180807f53706563696d656e2e6f776e6572000000000000000000000000000000000000815250600e0182805190602001908083835b60208310611f2e5780518252602082019150602081019050602083039250611f0b565b6001836020036101000a038019825116818451168082178552505050505050905001915050604051602081830303815290604052805190602001206040518263ffffffff1660e01b81526004018082815260200191505060206040518083038186803b158015611f9d57600080fd5b505afa158015611fb1573d6000803e3d6000fd5b505050506040513d6020811015611fc757600080fd5b810190808051906020019092919050505073ffffffffffffffffffffffffffffffffffffffff1614612061576040517f08c379a00000000000000000000000000000000000000000000000000000000081526004018080602001828103825260138152602001807f4f6e6c79204f776e65722073706563696d656e0000000000000000000000000081525060200191505060405180910390fd5b6120a0836040518060400160405280600381526020017f4e657700000000000000000000000000000000000000000000000000000000008152506114fb565b80156120b157506120b083611822565b5b612123576040517f08c379a000000000000000000000000000000000000000000000000000000000815260040180806020018281038252600e8152602001807f4f6e6c792070616964207465737400000000000000000000000000000000000081525060200191505060405180910390fd5b612162836040518060400160405280600781526020017f53656e64696e670000000000000000000000000000000000000000000000000081525061300f565b600160009054906101000a900473ffffffffffffffffffffffffffffffffffffffff1673ffffffffffffffffffffffffffffffffffffffff1663f609cabd84846040518363ffffffff1660e01b815260040180806020018060200180602001848103845286818151815260200191508051906020019080838360005b838110156121f95780820151818401526020810190506121de565b50505050905090810190601f1680156122265780820380516001836020036101000a031916815260200191505b50848103835260048152602001807f73656e6400000000000000000000000000000000000000000000000000000000815250602001848103825285818151815260200191508051906020019080838360005b83811015612293578082015181840152602081019050612278565b50505050905090810190601f1680156122c05780820380516001836020036101000a031916815260200191505b5095505050505050600060405180830381600087803b1580156122e257600080fd5b505af11580156122f6573d6000803e3d6000fd5b50505050505050565b6000806060803373ffffffffffffffffffffffffffffffffffffffff166000809054906101000a900473ffffffffffffffffffffffffffffffffffffffff1673ffffffffffffffffffffffffffffffffffffffff166321f8a72160405160200180807f636f6e74726163742e6164647265737300000000000000000000000000000000815250601001807f446567656e6963730000000000000000000000000000000000000000000000008152506008019050604051602081830303815290604052805190602001206040518263ffffffff1660e01b81526004018082815260200191505060206040518083038186803b1580156123fc57600080fd5b505afa158015612410573d6000803e3d6000fd5b505050506040513d602081101561242657600080fd5b810190808051906020019092919050505073ffffffffffffffffffffffffffffffffffffffff16148061259e57503373ffffffffffffffffffffffffffffffffffffffff166000809054906101000a900473ffffffffffffffffffffffffffffffffffffffff1673ffffffffffffffffffffffffffffffffffffffff166321f8a72160405160200180807f636f6e74726163742e6164647265737300000000000000000000000000000000815250601001807f53706563696d656e0000000000000000000000000000000000000000000000008152506008019050604051602081830303815290604052805190602001206040518263ffffffff1660e01b81526004018082815260200191505060206040518083038186803b15801561254b57600080fd5b505afa15801561255f573d6000803e3d6000fd5b505050506040513d602081101561257557600080fd5b810190808051906020019092919050505073ffffffffffffffffffffffffffffffffffffffff16145b612610576040517f08c379a00000000000000000000000000000000000000000000000000000000081526004018080602001828103825260178152602001807f4f6e6c792072656769737472656420636f6e747261637400000000000000000081525060200191505060405180910390fd5b600160009054906101000a900473ffffffffffffffffffffffffffffffffffffffff1673ffffffffffffffffffffffffffffffffffffffff16630e2eb2a187876040518363ffffffff1660e01b81526004018080602001838152602001828103825284818151815260200191508051906020019080838360005b838110156126a557808201518184015260208101905061268a565b50505050905090810190601f1680156126d25780820380516001836020036101000a031916815260200191505b509350505050600060405180830381600087803b1580156126f257600080fd5b505af1158015612706573d6000803e3d6000fd5b505050506040513d6000823e3d601f19601f82011682018060405250608081101561273057600080fd5b8101908080519060200190929190805190602001909291908051604051939291908464010000000082111561276457600080fd5b8382019150602082018581111561277a57600080fd5b825186600182028301116401000000008211171561279757600080fd5b8083526020830192505050908051906020019080838360005b838110156127cb5780820151818401526020810190506127b0565b50505050905090810190601f1680156127f85780820380516001836020036101000a031916815260200191505b506040526020018051604051939291908464010000000082111561281b57600080fd5b8382019150602082018581111561283157600080fd5b825186600182028301116401000000008211171561284e57600080fd5b8083526020830192505050908051906020019080838360005b83811015612882578082015181840152602081019050612867565b50505050905090810190601f1680156128af5780820380516001836020036101000a031916815260200191505b50604052505050935093509350935092959194509250565b3373ffffffffffffffffffffffffffffffffffffffff166000809054906101000a900473ffffffffffffffffffffffffffffffffffffffff1673ffffffffffffffffffffffffffffffffffffffff166321f8a72160405160200180807f636f6e74726163742e6164647265737300000000000000000000000000000000815250601001807f446567656e6963730000000000000000000000000000000000000000000000008152506008019050604051602081830303815290604052805190602001206040518263ffffffff1660e01b81526004018082815260200191505060206040518083038186803b1580156129be57600080fd5b505afa1580156129d2573d6000803e3d6000fd5b505050506040513d60208110156129e857600080fd5b810190808051906020019092919050505073ffffffffffffffffffffffffffffffffffffffff161480612b6057503373ffffffffffffffffffffffffffffffffffffffff166000809054906101000a900473ffffffffffffffffffffffffffffffffffffffff1673ffffffffffffffffffffffffffffffffffffffff166321f8a72160405160200180807f636f6e74726163742e6164647265737300000000000000000000000000000000815250601001807f53706563696d656e0000000000000000000000000000000000000000000000008152506008019050604051602081830303815290604052805190602001206040518263ffffffff1660e01b81526004018082815260200191505060206040518083038186803b158015612b0d57600080fd5b505afa158015612b21573d6000803e3d6000fd5b505050506040513d6020811015612b3757600080fd5b810190808051906020019092919050505073ffffffffffffffffffffffffffffffffffffffff16145b612bd2576040517f08c379a00000000000000000000000000000000000000000000000000000000081526004018080602001828103825260178152602001807f4f6e6c792072656769737472656420636f6e747261637400000000000000000081525060200191505060405180910390fd5b813273ffffffffffffffffffffffffffffffffffffffff166000809054906101000a900473ffffffffffffffffffffffffffffffffffffffff1673ffffffffffffffffffffffffffffffffffffffff166321f8a7218360405160200180807f53706563696d656e2e6c61620000000000000000000000000000000000000000815250600c0182805190602001908083835b60208310612c865780518252602082019150602081019050602083039250612c63565b6001836020036101000a038019825116818451168082178552505050505050905001915050604051602081830303815290604052805190602001206040518263ffffffff1660e01b81526004018082815260200191505060206040518083038186803b158015612cf557600080fd5b505afa158015612d09573d6000803e3d6000fd5b505050506040513d6020811015612d1f57600080fd5b810190808051906020019092919050505073ffffffffffffffffffffffffffffffffffffffff1614612db9576040517f08c379a00000000000000000000000000000000000000000000000000000000081526004018080602001828103825260088152602001807f4f6e6c79206c616200000000000000000000000000000000000000000000000081525060200191505060405180910390fd5b612e00612dc584610fe3565b6040518060400160405280600881526020017f526563656976656400000000000000000000000000000000000000000000000081525061562d565b612e72576040517f08c379a00000000000000000000000000000000000000000000000000000000081526004018080602001828103825260168152602001807f4f6e6c792052656365697665642073706563696d656e0000000000000000000081525060200191505060405180910390fd5b600160009054906101000a900473ffffffffffffffffffffffffffffffffffffffff1673ffffffffffffffffffffffffffffffffffffffff1663f609cabd84846040518363ffffffff1660e01b815260040180806020018060200180602001848103845286818151815260200191508051906020019080838360005b83811015612f09578082015181840152602081019050612eee565b50505050905090810190601f168015612f365780820380516001836020036101000a031916815260200191505b50848103835260048152602001807f6661696c00000000000000000000000000000000000000000000000000000000815250602001848103825285818151815260200191508051906020019080838360005b83811015612fa3578082015181840152602081019050612f88565b50505050905090810190601f168015612fd05780820380516001836020036101000a031916815260200191505b5095505050505050600060405180830381600087803b158015612ff257600080fd5b505af1158015613006573d6000803e3d6000fd5b50505050505050565b3373ffffffffffffffffffffffffffffffffffffffff166000809054906101000a900473ffffffffffffffffffffffffffffffffffffffff1673ffffffffffffffffffffffffffffffffffffffff166321f8a72160405160200180807f636f6e74726163742e6164647265737300000000000000000000000000000000815250601001807f446567656e6963730000000000000000000000000000000000000000000000008152506008019050604051602081830303815290604052805190602001206040518263ffffffff1660e01b81526004018082815260200191505060206040518083038186803b15801561310657600080fd5b505afa15801561311a573d6000803e3d6000fd5b505050506040513d602081101561313057600080fd5b810190808051906020019092919050505073ffffffffffffffffffffffffffffffffffffffff1614806132a857503373ffffffffffffffffffffffffffffffffffffffff166000809054906101000a900473ffffffffffffffffffffffffffffffffffffffff1673ffffffffffffffffffffffffffffffffffffffff166321f8a72160405160200180807f636f6e74726163742e6164647265737300000000000000000000000000000000815250601001807f53706563696d656e0000000000000000000000000000000000000000000000008152506008019050604051602081830303815290604052805190602001206040518263ffffffff1660e01b81526004018082815260200191505060206040518083038186803b15801561325557600080fd5b505afa158015613269573d6000803e3d6000fd5b505050506040513d602081101561327f57600080fd5b810190808051906020019092919050505073ffffffffffffffffffffffffffffffffffffffff16145b61331a576040517f08c379a00000000000000000000000000000000000000000000000000000000081526004018080602001828103825260178152602001807f4f6e6c792072656769737472656420636f6e747261637400000000000000000081525060200191505060405180910390fd5b6000809054906101000a900473ffffffffffffffffffffffffffffffffffffffff1673ffffffffffffffffffffffffffffffffffffffff16636e8995508360405160200180807f53706563696d656e2e7374617475730000000000000000000000000000000000815250600f0182805190602001908083835b602083106133b65780518252602082019150602081019050602083039250613393565b6001836020036101000a03801982511681845116808217855250505050505090500191505060405160208183030381529060405280519060200120836040518363ffffffff1660e01b81526004018083815260200180602001828103825283818151815260200191508051906020019080838360005b8381101561344757808201518184015260208101905061342c565b50505050905090810190601f1680156134745780820380516001836020036101000a031916815260200191505b509350505050600060405180830381600087803b15801561349457600080fd5b505af11580156134a8573d6000803e3d6000fd5b505050505050565b3373ffffffffffffffffffffffffffffffffffffffff166000809054906101000a900473ffffffffffffffffffffffffffffffffffffffff1673ffffffffffffffffffffffffffffffffffffffff166321f8a72160405160200180807f636f6e74726163742e6164647265737300000000000000000000000000000000815250601001807f446567656e6963730000000000000000000000000000000000000000000000008152506008019050604051602081830303815290604052805190602001206040518263ffffffff1660e01b81526004018082815260200191505060206040518083038186803b1580156135a757600080fd5b505afa1580156135bb573d6000803e3d6000fd5b505050506040513d60208110156135d157600080fd5b810190808051906020019092919050505073ffffffffffffffffffffffffffffffffffffffff16148061374957503373ffffffffffffffffffffffffffffffffffffffff166000809054906101000a900473ffffffffffffffffffffffffffffffffffffffff1673ffffffffffffffffffffffffffffffffffffffff166321f8a72160405160200180807f636f6e74726163742e6164647265737300000000000000000000000000000000815250601001807f53706563696d656e0000000000000000000000000000000000000000000000008152506008019050604051602081830303815290604052805190602001206040518263ffffffff1660e01b81526004018082815260200191505060206040518083038186803b1580156136f657600080fd5b505afa15801561370a573d6000803e3d6000fd5b505050506040513d602081101561372057600080fd5b810190808051906020019092919050505073ffffffffffffffffffffffffffffffffffffffff16145b6137bb576040517f08c379a00000000000000000000000000000000000000000000000000000000081526004018080602001828103825260178152602001807f4f6e6c792072656769737472656420636f6e747261637400000000000000000081525060200191505060405180910390fd5b823273ffffffffffffffffffffffffffffffffffffffff166000809054906101000a900473ffffffffffffffffffffffffffffffffffffffff1673ffffffffffffffffffffffffffffffffffffffff166321f8a7218360405160200180807f53706563696d656e2e6c61620000000000000000000000000000000000000000815250600c0182805190602001908083835b6020831061386f578051825260208201915060208101905060208303925061384c565b6001836020036101000a038019825116818451168082178552505050505050905001915050604051602081830303815290604052805190602001206040518263ffffffff1660e01b81526004018082815260200191505060206040518083038186803b1580156138de57600080fd5b505afa1580156138f2573d6000803e3d6000fd5b505050506040513d602081101561390857600080fd5b810190808051906020019092919050505073ffffffffffffffffffffffffffffffffffffffff16146139a2576040517f08c379a00000000000000000000000000000000000000000000000000000000081526004018080602001828103825260088152602001807f4f6e6c79206c616200000000000000000000000000000000000000000000000081525060200191505060405180910390fd5b6139e1846040518060400160405280600881526020017f52656365697665640000000000000000000000000000000000000000000000008152506114fb565b613a53576040517f08c379a00000000000000000000000000000000000000000000000000000000081526004018080602001828103825260168152602001807f4f6e6c792052656365697665642073706563696d656e0000000000000000000081525060200191505060405180910390fd5b613a92846040518060400160405280600681526020017f537563636573000000000000000000000000000000000000000000000000000081525061300f565b600160009054906101000a900473ffffffffffffffffffffffffffffffffffffffff1673ffffffffffffffffffffffffffffffffffffffff1663f609cabd85846040518363ffffffff1660e01b815260040180806020018060200180602001848103845286818151815260200191508051906020019080838360005b83811015613b29578082015181840152602081019050613b0e565b50505050905090810190601f168015613b565780820380516001836020036101000a031916815260200191505b50848103835260068152602001807f7375636365730000000000000000000000000000000000000000000000000000815250602001848103825285818151815260200191508051906020019080838360005b83811015613bc3578082015181840152602081019050613ba8565b50505050905090810190601f168015613bf05780820380516001836020036101000a031916815260200191505b5095505050505050600060405180830381600087803b158015613c1257600080fd5b505af1158015613c26573d6000803e3d6000fd5b505050506000809054906101000a900473ffffffffffffffffffffffffffffffffffffffff1673ffffffffffffffffffffffffffffffffffffffff16636e8995508560405160200180807f53706563696d656e2e66696c6500000000000000000000000000000000000000815250600d0182805190602001908083835b60208310613cc65780518252602082019150602081019050602083039250613ca3565b6001836020036101000a03801982511681845116808217855250505050505090500191505060405160208183030381529060405280519060200120856040518363ffffffff1660e01b81526004018083815260200180602001828103825283818151815260200191508051906020019080838360005b83811015613d57578082015181840152602081019050613d3c565b50505050905090810190601f168015613d845780820380516001836020036101000a031916815260200191505b509350505050600060405180830381600087803b158015613da457600080fd5b505af1158015613db8573d6000803e3d6000fd5b5050505050505050565b3373ffffffffffffffffffffffffffffffffffffffff166000809054906101000a900473ffffffffffffffffffffffffffffffffffffffff1673ffffffffffffffffffffffffffffffffffffffff166321f8a72160405160200180807f636f6e74726163742e6164647265737300000000000000000000000000000000815250601001807f446567656e6963730000000000000000000000000000000000000000000000008152506008019050604051602081830303815290604052805190602001206040518263ffffffff1660e01b81526004018082815260200191505060206040518083038186803b158015613eb957600080fd5b505afa158015613ecd573d6000803e3d6000fd5b505050506040513d6020811015613ee357600080fd5b810190808051906020019092919050505073ffffffffffffffffffffffffffffffffffffffff16148061405b57503373ffffffffffffffffffffffffffffffffffffffff166000809054906101000a900473ffffffffffffffffffffffffffffffffffffffff1673ffffffffffffffffffffffffffffffffffffffff166321f8a72160405160200180807f636f6e74726163742e6164647265737300000000000000000000000000000000815250601001807f53706563696d656e0000000000000000000000000000000000000000000000008152506008019050604051602081830303815290604052805190602001206040518263ffffffff1660e01b81526004018082815260200191505060206040518083038186803b15801561400857600080fd5b505afa15801561401c573d6000803e3d6000fd5b505050506040513d602081101561403257600080fd5b810190808051906020019092919050505073ffffffffffffffffffffffffffffffffffffffff16145b6140cd576040517f08c379a00000000000000000000000000000000000000000000000000000000081526004018080602001828103825260178152602001807f4f6e6c792072656769737472656420636f6e747261637400000000000000000081525060200191505060405180910390fd5b813273ffffffffffffffffffffffffffffffffffffffff166000809054906101000a900473ffffffffffffffffffffffffffffffffffffffff1673ffffffffffffffffffffffffffffffffffffffff166321f8a7218360405160200180807f53706563696d656e2e6c61620000000000000000000000000000000000000000815250600c0182805190602001908083835b60208310614181578051825260208201915060208101905060208303925061415e565b6001836020036101000a038019825116818451168082178552505050505050905001915050604051602081830303815290604052805190602001206040518263ffffffff1660e01b81526004018082815260200191505060206040518083038186803b1580156141f057600080fd5b505afa158015614204573d6000803e3d6000fd5b505050506040513d602081101561421a57600080fd5b810190808051906020019092919050505073ffffffffffffffffffffffffffffffffffffffff16146142b4576040517f08c379a00000000000000000000000000000000000000000000000000000000081526004018080602001828103825260088152602001807f4f6e6c79206c616200000000000000000000000000000000000000000000000081525060200191505060405180910390fd5b6142f3836040518060400160405280600781526020017f53656e64696e67000000000000000000000000000000000000000000000000008152506114fb565b806143395750614338836040518060400160405280600881526020017f52656365697665640000000000000000000000000000000000000000000000008152506114fb565b5b80614390575061437e836040518060400160405280600381526020017f4e657700000000000000000000000000000000000000000000000000000000008152506114fb565b801561438f575061438e83611822565b5b5b614402576040517f08c379a00000000000000000000000000000000000000000000000000000000081526004018080602001828103825260158152602001807f4f6e6c792073656e64696e672073706563696d656e000000000000000000000081525060200191505060405180910390fd5b614441836040518060400160405280600681526020017f52656a656374000000000000000000000000000000000000000000000000000081525061300f565b600160009054906101000a900473ffffffffffffffffffffffffffffffffffffffff1673ffffffffffffffffffffffffffffffffffffffff1663f609cabd84846040518363ffffffff1660e01b815260040180806020018060200180602001848103845286818151815260200191508051906020019080838360005b838110156144d85780820151818401526020810190506144bd565b50505050905090810190601f1680156145055780820380516001836020036101000a031916815260200191505b50848103835260068152602001807f72656a6563740000000000000000000000000000000000000000000000000000815250602001848103825285818151815260200191508051906020019080838360005b83811015614572578082015181840152602081019050614557565b50505050905090810190601f16801561459f5780820380516001836020036101000a031916815260200191505b5095505050505050600060405180830381600087803b1580156145c157600080fd5b505af11580156145d5573d6000803e3d6000fd5b50505050505050565b60603373ffffffffffffffffffffffffffffffffffffffff166000809054906101000a900473ffffffffffffffffffffffffffffffffffffffff1673ffffffffffffffffffffffffffffffffffffffff166321f8a72160405160200180807f636f6e74726163742e6164647265737300000000000000000000000000000000815250601001807f446567656e6963730000000000000000000000000000000000000000000000008152506008019050604051602081830303815290604052805190602001206040518263ffffffff1660e01b81526004018082815260200191505060206040518083038186803b1580156146d757600080fd5b505afa1580156146eb573d6000803e3d6000fd5b505050506040513d602081101561470157600080fd5b810190808051906020019092919050505073ffffffffffffffffffffffffffffffffffffffff16148061487957503373ffffffffffffffffffffffffffffffffffffffff166000809054906101000a900473ffffffffffffffffffffffffffffffffffffffff1673ffffffffffffffffffffffffffffffffffffffff166321f8a72160405160200180807f636f6e74726163742e6164647265737300000000000000000000000000000000815250601001807f53706563696d656e0000000000000000000000000000000000000000000000008152506008019050604051602081830303815290604052805190602001206040518263ffffffff1660e01b81526004018082815260200191505060206040518083038186803b15801561482657600080fd5b505afa15801561483a573d6000803e3d6000fd5b505050506040513d602081101561485057600080fd5b810190808051906020019092919050505073ffffffffffffffffffffffffffffffffffffffff16145b6148eb576040517f08c379a00000000000000000000000000000000000000000000000000000000081526004018080602001828103825260178152602001807f4f6e6c792072656769737472656420636f6e747261637400000000000000000081525060200191505060405180910390fd5b3273ffffffffffffffffffffffffffffffffffffffff166000809054906101000a900473ffffffffffffffffffffffffffffffffffffffff1673ffffffffffffffffffffffffffffffffffffffff166321f8a7218460405160200180807f53706563696d656e2e6c61620000000000000000000000000000000000000000815250600c0182805190602001908083835b6020831061499e578051825260208201915060208101905060208303925061497b565b6001836020036101000a038019825116818451168082178552505050505050905001915050604051602081830303815290604052805190602001206040518263ffffffff1660e01b81526004018082815260200191505060206040518083038186803b158015614a0d57600080fd5b505afa158015614a21573d6000803e3d6000fd5b505050506040513d6020811015614a3757600080fd5b810190808051906020019092919050505073ffffffffffffffffffffffffffffffffffffffff161480614bda57503273ffffffffffffffffffffffffffffffffffffffff166000809054906101000a900473ffffffffffffffffffffffffffffffffffffffff1673ffffffffffffffffffffffffffffffffffffffff166321f8a7218460405160200180807f53706563696d656e2e6f776e6572000000000000000000000000000000000000815250600e0182805190602001908083835b60208310614b185780518252602082019150602081019050602083039250614af5565b6001836020036101000a038019825116818451168082178552505050505050905001915050604051602081830303815290604052805190602001206040518263ffffffff1660e01b81526004018082815260200191505060206040518083038186803b158015614b8757600080fd5b505afa158015614b9b573d6000803e3d6000fd5b505050506040513d6020811015614bb157600080fd5b810190808051906020019092919050505073ffffffffffffffffffffffffffffffffffffffff16145b614c4c576040517f08c379a00000000000000000000000000000000000000000000000000000000081526004018080602001828103825260128152602001807f4f6e6c79206f776e657220616e64206c6162000000000000000000000000000081525060200191505060405180910390fd5b6000809054906101000a900473ffffffffffffffffffffffffffffffffffffffff1673ffffffffffffffffffffffffffffffffffffffff1663986e791a8360405160200180807f53706563696d656e2e66696c6500000000000000000000000000000000000000815250600d0182805190602001908083835b60208310614ce85780518252602082019150602081019050602083039250614cc5565b6001836020036101000a038019825116818451168082178552505050505050905001915050604051602081830303815290604052805190602001206040518263ffffffff1660e01b81526004018082815260200191505060006040518083038186803b158015614d5757600080fd5b505afa158015614d6b573d6000803e3d6000fd5b505050506040513d6000823e3d601f19601f820116820180604052506020811015614d9557600080fd5b8101908080516040519392919084640100000000821115614db557600080fd5b83820191506020820185811115614dcb57600080fd5b8251866001820283011164010000000082111715614de857600080fd5b8083526020830192505050908051906020019080838360005b83811015614e1c578082015181840152602081019050614e01565b50505050905090810190601f168015614e495780820380516001836020036101000a031916815260200191505b506040525050509050919050565b3373ffffffffffffffffffffffffffffffffffffffff166000809054906101000a900473ffffffffffffffffffffffffffffffffffffffff1673ffffffffffffffffffffffffffffffffffffffff166321f8a72160405160200180807f636f6e74726163742e6164647265737300000000000000000000000000000000815250601001807f446567656e6963730000000000000000000000000000000000000000000000008152506008019050604051602081830303815290604052805190602001206040518263ffffffff1660e01b81526004018082815260200191505060206040518083038186803b158015614f4e57600080fd5b505afa158015614f62573d6000803e3d6000fd5b505050506040513d6020811015614f7857600080fd5b810190808051906020019092919050505073ffffffffffffffffffffffffffffffffffffffff1614806150f057503373ffffffffffffffffffffffffffffffffffffffff166000809054906101000a900473ffffffffffffffffffffffffffffffffffffffff1673ffffffffffffffffffffffffffffffffffffffff166321f8a72160405160200180807f636f6e74726163742e6164647265737300000000000000000000000000000000815250601001807f53706563696d656e0000000000000000000000000000000000000000000000008152506008019050604051602081830303815290604052805190602001206040518263ffffffff1660e01b81526004018082815260200191505060206040518083038186803b15801561509d57600080fd5b505afa1580156150b1573d6000803e3d6000fd5b505050506040513d60208110156150c757600080fd5b810190808051906020019092919050505073ffffffffffffffffffffffffffffffffffffffff16145b615162576040517f08c379a00000000000000000000000000000000000000000000000000000000081526004018080602001828103825260178152602001807f4f6e6c792072656769737472656420636f6e747261637400000000000000000081525060200191505060405180910390fd5b813273ffffffffffffffffffffffffffffffffffffffff166000809054906101000a900473ffffffffffffffffffffffffffffffffffffffff1673ffffffffffffffffffffffffffffffffffffffff166321f8a7218360405160200180807f53706563696d656e2e6c61620000000000000000000000000000000000000000815250600c0182805190602001908083835b6020831061521657805182526020820191506020810190506020830392506151f3565b6001836020036101000a038019825116818451168082178552505050505050905001915050604051602081830303815290604052805190602001206040518263ffffffff1660e01b81526004018082815260200191505060206040518083038186803b15801561528557600080fd5b505afa158015615299573d6000803e3d6000fd5b505050506040513d60208110156152af57600080fd5b810190808051906020019092919050505073ffffffffffffffffffffffffffffffffffffffff1614615349576040517f08c379a00000000000000000000000000000000000000000000000000000000081526004018080602001828103825260088152602001807f4f6e6c79206c616200000000000000000000000000000000000000000000000081525060200191505060405180910390fd5b615388836040518060400160405280600781526020017f53656e64696e67000000000000000000000000000000000000000000000000008152506114fb565b806153df57506153cd836040518060400160405280600381526020017f4e657700000000000000000000000000000000000000000000000000000000008152506114fb565b80156153de57506153dd83611822565b5b5b615451576040517f08c379a00000000000000000000000000000000000000000000000000000000081526004018080602001828103825260158152602001807f4f6e6c792073656e64696e672073706563696d656e000000000000000000000081525060200191505060405180910390fd5b615490836040518060400160405280600881526020017f526563656976656400000000000000000000000000000000000000000000000081525061300f565b600160009054906101000a900473ffffffffffffffffffffffffffffffffffffffff1673ffffffffffffffffffffffffffffffffffffffff1663f609cabd84846040518363ffffffff1660e01b815260040180806020018060200180602001848103845286818151815260200191508051906020019080838360005b8381101561552757808201518184015260208101905061550c565b50505050905090810190601f1680156155545780820380516001836020036101000a031916815260200191505b50848103835260078152602001807f7265636569766500000000000000000000000000000000000000000000000000815250602001848103825285818151815260200191508051906020019080838360005b838110156155c15780820151818401526020810190506155a6565b50505050905090810190601f1680156155ee5780820380516001836020036101000a031916815260200191505b5095505050505050600060405180830381600087803b15801561561057600080fd5b505af1158015615624573d6000803e3d6000fd5b50505050505050565b6000816040516020018082805190602001908083835b602083106156665780518252602082019150602081019050602083039250615643565b6001836020036101000a03801982511681845116808217855250505050505090500191505060405160208183030381529060405280519060200120836040516020018082805190602001908083835b602083106156d857805182526020820191506020810190506020830392506156b5565b6001836020036101000a0380198251168184511680821785525050505050509050019150506040516020818303038152906040528051906020012014905092915050565b60008060009054906101000a900473ffffffffffffffffffffffffffffffffffffffff1673ffffffffffffffffffffffffffffffffffffffff1663bd02d0f56000809054906101000a900473ffffffffffffffffffffffffffffffffffffffff1673ffffffffffffffffffffffffffffffffffffffff166321f8a7218560405160200180807f53706563696d656e2e6c61620000000000000000000000000000000000000000815250600c0182805190602001908083835b602083106157f757805182526020820191506020810190506020830392506157d4565b6001836020036101000a038019825116818451168082178552505050505050905001915050604051602081830303815290604052805190602001206040518263ffffffff1660e01b81526004018082815260200191505060206040518083038186803b15801561586657600080fd5b505afa15801561587a573d6000803e3d6000fd5b505050506040513d602081101561589057600080fd5b81019080805190602001909291905050506000809054906101000a900473ffffffffffffffffffffffffffffffffffffffff1673ffffffffffffffffffffffffffffffffffffffff1663986e791a8660405160200180807f53706563696d656e2e73657276696365436f646500000000000000000000000081525060140182805190602001908083835b6020831061593d578051825260208201915060208101905060208303925061591a565b6001836020036101000a038019825116818451168082178552505050505050905001915050604051602081830303815290604052805190602001206040518263ffffffff1660e01b81526004018082815260200191505060006040518083038186803b1580156159ac57600080fd5b505afa1580156159c0573d6000803e3d6000fd5b505050506040513d6000823e3d601f19601f8201168201806040525060208110156159ea57600080fd5b8101908080516040519392919084640100000000821115615a0a57600080fd5b83820191506020820185811115615a2057600080fd5b8251866001820283011164010000000082111715615a3d57600080fd5b8083526020830192505050908051906020019080838360005b83811015615a71578082015181840152602081019050615a56565b50505050905090810190601f168015615a9e5780820380516001836020036101000a031916815260200191505b5060405250505060405160200180807f6c61622e736572766963652e70726963650000000000000000000000000000008152506011018373ffffffffffffffffffffffffffffffffffffffff1673ffffffffffffffffffffffffffffffffffffffff1660601b815260140182805190602001908083835b60208310615b385780518252602082019150602081019050602083039250615b15565b6001836020036101000a03801982511681845116808217855250505050505090500192505050604051602081830303815290604052805190602001206040518263ffffffff1660e01b81526004018082815260200191505060206040518083038186803b158015615ba857600080fd5b505afa158015615bbc573d6000803e3d6000fd5b505050506040513d6020811015615bd257600080fd5b81019080805190602001909291905050509050919050565b60008060009054906101000a900473ffffffffffffffffffffffffffffffffffffffff1673ffffffffffffffffffffffffffffffffffffffff166321f8a7218360405160200180807f53706563696d656e2e657363726f770000000000000000000000000000000000815250600f0182805190602001908083835b60208310615c885780518252602082019150602081019050602083039250615c65565b6001836020036101000a038019825116818451168082178552505050505050905001915050604051602081830303815290604052805190602001206040518263ffffffff1660e01b81526004018082815260200191505060206040518083038186803b158015615cf757600080fd5b505afa158015615d0b573d6000803e3d6000fd5b505050506040513d6020811015615d2157600080fd5b810190808051906020019092919050505073ffffffffffffffffffffffffffffffffffffffff1631905091905056fea265627a7a72315820305adc1512137212086c9ec69462bb5f3dcddd4e7794de994999902ef008eaf164736f6c63430005100032",
  "source": "pragma solidity ^0.5.16;\r\n\r\n\r\nimport \"./common/Base.sol\";\r\nimport \"./DegenicsLog.sol\";\r\n\r\ncontract SpecimenTracking is Base {\r\n\r\n    DegenicsLog degenicsLog;\r\n    \r\n    modifier onlyAllowContract() {\r\n        require(eternalStorage.getAddress(keccak256(abi.encodePacked(\"contract.address\", \"Degenics\"))) == msg.sender ||\r\n                eternalStorage.getAddress(keccak256(abi.encodePacked(\"contract.address\", \"Specimen\"))) == msg.sender\r\n        , \"Only registred contract\" );\r\n        _;\r\n    }\r\n\r\n    modifier onlyLab(string memory number){\r\n        require(eternalStorage.getAddress(keccak256(abi.encodePacked( \"Specimen.lab\",number ))) == tx.origin,\r\n            \"Only lab\");\r\n        _;\r\n    }\r\n\r\n    modifier onlySpecimenOwner(string memory number){\r\n        require(eternalStorage.getAddress(keccak256(abi.encodePacked( \"Specimen.owner\",number ))) == tx.origin, \"Only Owner specimen\");\r\n        _;\r\n    }\r\n    \r\n    constructor(address _storage, address _degenicsLog ) public Base(_storage) {\r\n        degenicsLog = DegenicsLog(_degenicsLog);\r\n    }\r\n\r\n    function escrowBalance(string memory number) internal view returns(uint){\r\n        return (eternalStorage.getAddress(keccak256(abi.encodePacked(\"Specimen.escrow\", number)))).balance;\r\n    }\r\n\r\n    function sendSpecimen(string memory number, string memory remark) public onlyAllowContract onlySpecimenOwner(number) {\r\n       require(checkStatus(number, \"New\") && \r\n            checkPayment(number), \"Only paid test\");  \r\n        setStatus(number, \"Sending\");\r\n        degenicsLog.addSpecimenLog(number, \"send\", remark);\r\n    }\r\n\r\n    function receiveSpecimen(string memory number, string memory remark) public onlyAllowContract onlyLab(number) {\r\n        require(checkStatus(number, \"Sending\")  || (checkStatus(number, \"New\") && checkPayment(number)) , \r\n            \"Only sending specimen\" );\r\n        setStatus(number, \"Received\");\r\n        degenicsLog.addSpecimenLog(number, \"receive\", remark);\r\n    }\r\n\r\n    function rejectSpecimen(string memory number, string memory remark) public onlyAllowContract onlyLab(number) {\r\n        require(checkStatus(number, \"Sending\") ||  checkStatus(number, \"Received\") || (checkStatus(number, \"New\") && checkPayment(number)) , \r\n            \"Only sending specimen\" );\r\n        setStatus(number, \"Reject\");\r\n        degenicsLog.addSpecimenLog(number, \"reject\", remark);\r\n    }\r\n\r\n    function analysisSucces(string memory number, string memory file, string memory remark) public onlyAllowContract onlyLab(number) {\r\n        require(checkStatus(number, \"Received\"), \"Only Received specimen\" );\r\n        setStatus(number, \"Succes\");\r\n        degenicsLog.addSpecimenLog(number, \"succes\", remark);\r\n        eternalStorage.setString(keccak256(abi.encodePacked( \"Specimen.file\",number)), file);\r\n    }\r\n\r\n    function analysisFail(string memory number, string memory remark) public onlyAllowContract onlyLab(number) {\r\n        require(compareString(getStatus(number), \"Received\"), \"Only Received specimen\" );\r\n        degenicsLog.addSpecimenLog(number, \"fail\", remark);\r\n    }\r\n\r\n    function checkPrice(string memory number) internal view returns(uint){\r\n        return eternalStorage.getUint(keccak256(abi.encodePacked(\"lab.service.price\", \r\n            eternalStorage.getAddress(keccak256(abi.encodePacked( \"Specimen.lab\",number ))), \r\n            eternalStorage.getString(keccak256(abi.encodePacked( \"Specimen.serviceCode\",number )))\r\n        )));\r\n    }\r\n\r\n    function logByIndex(string memory number, uint _index)public onlyAllowContract returns(uint index, uint time, \r\n        string memory logType, string memory log){\r\n        return degenicsLog.specimenLogByIndex(number, _index);\r\n    }\r\n\r\n    function setStatus(string memory number, string memory status) public  onlyAllowContract{\r\n        eternalStorage.setString(keccak256(abi.encodePacked( \"Specimen.status\",number )), status);\r\n    }\r\n\r\n    function getStatus(string memory number) public view onlyAllowContract returns(string memory){\r\n        return eternalStorage.getString(keccak256(abi.encodePacked( \"Specimen.status\",number )));       \r\n    }\r\n\r\n    function checkStatus(string memory number, string memory status) public view onlyAllowContract returns(bool){\r\n        return compareString(getStatus(number), status);\r\n    }\r\n\r\n    function getFile(string memory number) public view onlyAllowContract  returns(string memory file){\r\n        require(eternalStorage.getAddress(keccak256(abi.encodePacked( \"Specimen.lab\",number ))) == tx.origin || \r\n    eternalStorage.getAddress(keccak256(abi.encodePacked( \"Specimen.owner\",number ))) == tx.origin, \"Only owner and lab\");  \r\n        return eternalStorage.getString(keccak256(abi.encodePacked(\"Specimen.file\",number)));\r\n    }\r\n    \r\n    function checkPayment(string memory number) public view onlyAllowContract returns(bool){\r\n        return escrowBalance(number) >=  checkPrice(number);\r\n    }\r\n}",
  "sourcePath": "D:\\projects\\degenics\\degenics-smart-contract\\contracts\\SpecimenTracking.sol",
  "compiler": {
    "name": "solc",
    "version": "0.5.16+commit.9c3226ce.Emscripten.clang"
  },
  "schemaVersion": "3.0.23",
  "updatedAt": "2021-01-18T05:39:05.975Z",
  "networkType": "ethereum",
  "devdoc": {
    "methods": {}
  },
  "userdoc": {
    "methods": {}
  }
}