{
  "contractName": "SpecimenTracking",
  "abi": [
    {
      "inputs": [
        {
          "internalType": "address",
          "name": "_storage",
          "type": "address"
        },
        {
          "internalType": "address",
          "name": "_degenicsLog",
          "type": "address"
        }
      ],
      "payable": false,
      "stateMutability": "nonpayable",
      "type": "constructor"
    },
    {
      "constant": true,
      "inputs": [],
      "name": "eternalStorage",
      "outputs": [
        {
          "internalType": "contract EternalStorageInterface",
          "name": "",
          "type": "address"
        }
      ],
      "payable": false,
      "stateMutability": "view",
      "type": "function"
    },
    {
      "constant": false,
      "inputs": [
        {
          "internalType": "string",
          "name": "number",
          "type": "string"
        },
        {
          "internalType": "string",
          "name": "remark",
          "type": "string"
        }
      ],
      "name": "sendSpecimen",
      "outputs": [],
      "payable": false,
      "stateMutability": "nonpayable",
      "type": "function"
    },
    {
      "constant": false,
      "inputs": [
        {
          "internalType": "string",
          "name": "number",
          "type": "string"
        },
        {
          "internalType": "string",
          "name": "remark",
          "type": "string"
        }
      ],
      "name": "receiveSpecimen",
      "outputs": [],
      "payable": false,
      "stateMutability": "nonpayable",
      "type": "function"
    },
    {
      "constant": false,
      "inputs": [
        {
          "internalType": "string",
          "name": "number",
          "type": "string"
        },
        {
          "internalType": "string",
          "name": "remark",
          "type": "string"
        }
      ],
      "name": "rejectSpecimen",
      "outputs": [],
      "payable": false,
      "stateMutability": "nonpayable",
      "type": "function"
    },
    {
      "constant": false,
      "inputs": [
        {
          "internalType": "string",
          "name": "number",
          "type": "string"
        },
        {
          "internalType": "string",
          "name": "file",
          "type": "string"
        },
        {
          "internalType": "string",
          "name": "remark",
          "type": "string"
        }
      ],
      "name": "analysisSucces",
      "outputs": [],
      "payable": false,
      "stateMutability": "nonpayable",
      "type": "function"
    },
    {
      "constant": false,
      "inputs": [
        {
          "internalType": "string",
          "name": "number",
          "type": "string"
        },
        {
          "internalType": "string",
          "name": "remark",
          "type": "string"
        }
      ],
      "name": "analysisFail",
      "outputs": [],
      "payable": false,
      "stateMutability": "nonpayable",
      "type": "function"
    },
    {
      "constant": false,
      "inputs": [
        {
          "internalType": "string",
          "name": "number",
          "type": "string"
        },
        {
          "internalType": "uint256",
          "name": "_index",
          "type": "uint256"
        }
      ],
      "name": "logByIndex",
      "outputs": [
        {
          "internalType": "uint256",
          "name": "index",
          "type": "uint256"
        },
        {
          "internalType": "uint256",
          "name": "time",
          "type": "uint256"
        },
        {
          "internalType": "string",
          "name": "logType",
          "type": "string"
        },
        {
          "internalType": "string",
          "name": "log",
          "type": "string"
        }
      ],
      "payable": false,
      "stateMutability": "nonpayable",
      "type": "function"
    },
    {
      "constant": false,
      "inputs": [
        {
          "internalType": "string",
          "name": "number",
          "type": "string"
        },
        {
          "internalType": "string",
          "name": "status",
          "type": "string"
        }
      ],
      "name": "setStatus",
      "outputs": [],
      "payable": false,
      "stateMutability": "nonpayable",
      "type": "function"
    },
    {
      "constant": true,
      "inputs": [
        {
          "internalType": "string",
          "name": "number",
          "type": "string"
        }
      ],
      "name": "getStatus",
      "outputs": [
        {
          "internalType": "string",
          "name": "",
          "type": "string"
        }
      ],
      "payable": false,
      "stateMutability": "view",
      "type": "function"
    },
    {
      "constant": true,
      "inputs": [
        {
          "internalType": "string",
          "name": "number",
          "type": "string"
        },
        {
          "internalType": "string",
          "name": "status",
          "type": "string"
        }
      ],
      "name": "checkStatus",
      "outputs": [
        {
          "internalType": "bool",
          "name": "",
          "type": "bool"
        }
      ],
      "payable": false,
      "stateMutability": "view",
      "type": "function"
    },
    {
      "constant": true,
      "inputs": [
        {
          "internalType": "string",
          "name": "number",
          "type": "string"
        }
      ],
      "name": "getFile",
      "outputs": [
        {
          "internalType": "string",
          "name": "file",
          "type": "string"
        }
      ],
      "payable": false,
      "stateMutability": "view",
      "type": "function"
    }
  ],
  "bytecode": "0x608060405260008060006101000a81548173ffffffffffffffffffffffffffffffffffffffff021916908373ffffffffffffffffffffffffffffffffffffffff1602179055503480156200005257600080fd5b5060405162005bbb38038062005bbb833981810160405260408110156200007857600080fd5b81019080805190602001909291908051906020019092919050505081806000806101000a81548173ffffffffffffffffffffffffffffffffffffffff021916908373ffffffffffffffffffffffffffffffffffffffff1602179055505080600160006101000a81548173ffffffffffffffffffffffffffffffffffffffff021916908373ffffffffffffffffffffffffffffffffffffffff1602179055505050615a9380620001286000396000f3fe608060405234801561001057600080fd5b50600436106100a95760003560e01c8063aa08893711610071578063aa088937146106a0578063c5590033146107f2578063ca15e24a14610944578063dddae88414610b2d578063e0876aa814610c7f578063ed3468f714610db3576100a9565b806322b05ed2146100ae57806363a88bcf146101e257806398ff9c541461034c5780639cd8f25614610396578063a2ed91e2146104e8575b600080fd5b610167600480360360208110156100c457600080fd5b81019080803590602001906401000000008111156100e157600080fd5b8201836020820111156100f357600080fd5b8035906020019184600183028401116401000000008311171561011557600080fd5b91908080601f016020809104026020016040519081016040528093929190818152602001838380828437600081840152601f19601f820116905080830192505050505050509192919290505050610f05565b6040518080602001828103825283818151815260200191508051906020019080838360005b838110156101a757808201518184015260208101905061018c565b50505050905090810190601f1680156101d45780820380516001836020036101000a031916815260200191505b509250505060405180910390f35b610332600480360360408110156101f857600080fd5b810190808035906020019064010000000081111561021557600080fd5b82018360208201111561022757600080fd5b8035906020019184600183028401116401000000008311171561024957600080fd5b91908080601f016020809104026020016040519081016040528093929190818152602001838380828437600081840152601f19601f820116905080830192505050505050509192919290803590602001906401000000008111156102ac57600080fd5b8201836020820111156102be57600080fd5b803590602001918460018302840111640100000000831117156102e057600080fd5b91908080601f016020809104026020016040519081016040528093929190818152602001838380828437600081840152601f19601f82011690508083019250505050505050919291929050505061141d565b604051808215151515815260200191505060405180910390f35b610354611744565b604051808273ffffffffffffffffffffffffffffffffffffffff1673ffffffffffffffffffffffffffffffffffffffff16815260200191505060405180910390f35b6104e6600480360360408110156103ac57600080fd5b81019080803590602001906401000000008111156103c957600080fd5b8201836020820111156103db57600080fd5b803590602001918460018302840111640100000000831117156103fd57600080fd5b91908080601f016020809104026020016040519081016040528093929190818152602001838380828437600081840152601f19601f8201169050808301925050505050505091929192908035906020019064010000000081111561046057600080fd5b82018360208201111561047257600080fd5b8035906020019184600183028401116401000000008311171561049457600080fd5b91908080601f016020809104026020016040519081016040528093929190818152602001838380828437600081840152601f19601f820116905080830192505050505050509192919290505050611769565b005b6105ab600480360360408110156104fe57600080fd5b810190808035906020019064010000000081111561051b57600080fd5b82018360208201111561052d57600080fd5b8035906020019184600183028401116401000000008311171561054f57600080fd5b91908080601f016020809104026020016040519081016040528093929190818152602001838380828437600081840152601f19601f82011690508083019250505050505050919291929080359060200190929190505050611ef9565b604051808581526020018481526020018060200180602001838103835285818151815260200191508051906020019080838360005b838110156105fb5780820151818401526020810190506105e0565b50505050905090810190601f1680156106285780820380516001836020036101000a031916815260200191505b50838103825284818151815260200191508051906020019080838360005b83811015610661578082015181840152602081019050610646565b50505050905090810190601f16801561068e5780820380516001836020036101000a031916815260200191505b50965050505050505060405180910390f35b6107f0600480360360408110156106b657600080fd5b81019080803590602001906401000000008111156106d357600080fd5b8201836020820111156106e557600080fd5b8035906020019184600183028401116401000000008311171561070757600080fd5b91908080601f016020809104026020016040519081016040528093929190818152602001838380828437600081840152601f19601f8201169050808301925050505050505091929192908035906020019064010000000081111561076a57600080fd5b82018360208201111561077c57600080fd5b8035906020019184600183028401116401000000008311171561079e57600080fd5b91908080601f016020809104026020016040519081016040528093929190818152602001838380828437600081840152601f19601f8201169050808301925050505050505091929192905050506124c1565b005b6109426004803603604081101561080857600080fd5b810190808035906020019064010000000081111561082557600080fd5b82018360208201111561083757600080fd5b8035906020019184600183028401116401000000008311171561085957600080fd5b91908080601f016020809104026020016040519081016040528093929190818152602001838380828437600081840152601f19601f820116905080830192505050505050509192919290803590602001906401000000008111156108bc57600080fd5b8201836020820111156108ce57600080fd5b803590602001918460018302840111640100000000831117156108f057600080fd5b91908080601f016020809104026020016040519081016040528093929190818152602001838380828437600081840152601f19601f820116905080830192505050505050509192919290505050612c50565b005b610b2b6004803603606081101561095a57600080fd5b810190808035906020019064010000000081111561097757600080fd5b82018360208201111561098957600080fd5b803590602001918460018302840111640100000000831117156109ab57600080fd5b91908080601f016020809104026020016040519081016040528093929190818152602001838380828437600081840152601f19601f82011690508083019250505050505050919291929080359060200190640100000000811115610a0e57600080fd5b820183602082011115610a2057600080fd5b80359060200191846001830284011164010000000083111715610a4257600080fd5b91908080601f016020809104026020016040519081016040528093929190818152602001838380828437600081840152601f19601f82011690508083019250505050505050919291929080359060200190640100000000811115610aa557600080fd5b820183602082011115610ab757600080fd5b80359060200191846001830284011164010000000083111715610ad957600080fd5b91908080601f016020809104026020016040519081016040528093929190818152602001838380828437600081840152601f19601f8201169050808301925050505050505091929192905050506130f1565b005b610c7d60048036036040811015610b4357600080fd5b8101908080359060200190640100000000811115610b6057600080fd5b820183602082011115610b7257600080fd5b80359060200191846001830284011164010000000083111715610b9457600080fd5b91908080601f016020809104026020016040519081016040528093929190818152602001838380828437600081840152601f19601f82011690508083019250505050505050919291929080359060200190640100000000811115610bf757600080fd5b820183602082011115610c0957600080fd5b80359060200191846001830284011164010000000083111715610c2b57600080fd5b91908080601f016020809104026020016040519081016040528093929190818152602001838380828437600081840152601f19601f820116905080830192505050505050509192919290505050613a4a565b005b610d3860048036036020811015610c9557600080fd5b8101908080359060200190640100000000811115610cb257600080fd5b820183602082011115610cc457600080fd5b80359060200191846001830284011164010000000083111715610ce657600080fd5b91908080601f016020809104026020016040519081016040528093929190818152602001838380828437600081840152601f19601f820116905080830192505050505050509192919290505050614267565b6040518080602001828103825283818151815260200191508051906020019080838360005b83811015610d78578082015181840152602081019050610d5d565b50505050905090810190601f168015610da55780820380516001836020036101000a031916815260200191505b509250505060405180910390f35b610f0360048036036040811015610dc957600080fd5b8101908080359060200190640100000000811115610de657600080fd5b820183602082011115610df857600080fd5b80359060200191846001830284011164010000000083111715610e1a57600080fd5b91908080601f016020809104026020016040519081016040528093929190818152602001838380828437600081840152601f19601f82011690508083019250505050505050919291929080359060200190640100000000811115610e7d57600080fd5b820183602082011115610e8f57600080fd5b80359060200191846001830284011164010000000083111715610eb157600080fd5b91908080601f016020809104026020016040519081016040528093929190818152602001838380828437600081840152601f19601f820116905080830192505050505050509192919290505050614967565b005b60603373ffffffffffffffffffffffffffffffffffffffff166000809054906101000a900473ffffffffffffffffffffffffffffffffffffffff1673ffffffffffffffffffffffffffffffffffffffff166321f8a72160405160200180807f636f6e74726163742e6164647265737300000000000000000000000000000000815250601001807f446567656e6963730000000000000000000000000000000000000000000000008152506008019050604051602081830303815290604052805190602001206040518263ffffffff1660e01b81526004018082815260200191505060206040518083038186803b158015610ffe57600080fd5b505afa158015611012573d6000803e3d6000fd5b505050506040513d602081101561102857600080fd5b810190808051906020019092919050505073ffffffffffffffffffffffffffffffffffffffff1614806111a057503373ffffffffffffffffffffffffffffffffffffffff166000809054906101000a900473ffffffffffffffffffffffffffffffffffffffff1673ffffffffffffffffffffffffffffffffffffffff166321f8a72160405160200180807f636f6e74726163742e6164647265737300000000000000000000000000000000815250601001807f53706563696d656e0000000000000000000000000000000000000000000000008152506008019050604051602081830303815290604052805190602001206040518263ffffffff1660e01b81526004018082815260200191505060206040518083038186803b15801561114d57600080fd5b505afa158015611161573d6000803e3d6000fd5b505050506040513d602081101561117757600080fd5b810190808051906020019092919050505073ffffffffffffffffffffffffffffffffffffffff16145b611212576040517f08c379a00000000000000000000000000000000000000000000000000000000081526004018080602001828103825260178152602001807f4f6e6c792072656769737472656420636f6e747261637400000000000000000081525060200191505060405180910390fd5b6000809054906101000a900473ffffffffffffffffffffffffffffffffffffffff1673ffffffffffffffffffffffffffffffffffffffff1663986e791a8360405160200180807f53706563696d656e2e7374617475730000000000000000000000000000000000815250600f0182805190602001908083835b602083106112ae578051825260208201915060208101905060208303925061128b565b6001836020036101000a038019825116818451168082178552505050505050905001915050604051602081830303815290604052805190602001206040518263ffffffff1660e01b81526004018082815260200191505060006040518083038186803b15801561131d57600080fd5b505afa158015611331573d6000803e3d6000fd5b505050506040513d6000823e3d601f19601f82011682018060405250602081101561135b57600080fd5b810190808051604051939291908464010000000082111561137b57600080fd5b8382019150602082018581111561139157600080fd5b82518660018202830111640100000000821117156113ae57600080fd5b8083526020830192505050908051906020019080838360005b838110156113e25780820151818401526020810190506113c7565b50505050905090810190601f16801561140f5780820380516001836020036101000a031916815260200191505b506040525050509050919050565b60003373ffffffffffffffffffffffffffffffffffffffff166000809054906101000a900473ffffffffffffffffffffffffffffffffffffffff1673ffffffffffffffffffffffffffffffffffffffff166321f8a72160405160200180807f636f6e74726163742e6164647265737300000000000000000000000000000000815250601001807f446567656e6963730000000000000000000000000000000000000000000000008152506008019050604051602081830303815290604052805190602001206040518263ffffffff1660e01b81526004018082815260200191505060206040518083038186803b15801561151657600080fd5b505afa15801561152a573d6000803e3d6000fd5b505050506040513d602081101561154057600080fd5b810190808051906020019092919050505073ffffffffffffffffffffffffffffffffffffffff1614806116b857503373ffffffffffffffffffffffffffffffffffffffff166000809054906101000a900473ffffffffffffffffffffffffffffffffffffffff1673ffffffffffffffffffffffffffffffffffffffff166321f8a72160405160200180807f636f6e74726163742e6164647265737300000000000000000000000000000000815250601001807f53706563696d656e0000000000000000000000000000000000000000000000008152506008019050604051602081830303815290604052805190602001206040518263ffffffff1660e01b81526004018082815260200191505060206040518083038186803b15801561166557600080fd5b505afa158015611679573d6000803e3d6000fd5b505050506040513d602081101561168f57600080fd5b810190808051906020019092919050505073ffffffffffffffffffffffffffffffffffffffff16145b61172a576040517f08c379a00000000000000000000000000000000000000000000000000000000081526004018080602001828103825260178152602001807f4f6e6c792072656769737472656420636f6e747261637400000000000000000081525060200191505060405180910390fd5b61173c61173684610f05565b83615184565b905092915050565b6000809054906101000a900473ffffffffffffffffffffffffffffffffffffffff1681565b3373ffffffffffffffffffffffffffffffffffffffff166000809054906101000a900473ffffffffffffffffffffffffffffffffffffffff1673ffffffffffffffffffffffffffffffffffffffff166321f8a72160405160200180807f636f6e74726163742e6164647265737300000000000000000000000000000000815250601001807f446567656e6963730000000000000000000000000000000000000000000000008152506008019050604051602081830303815290604052805190602001206040518263ffffffff1660e01b81526004018082815260200191505060206040518083038186803b15801561186057600080fd5b505afa158015611874573d6000803e3d6000fd5b505050506040513d602081101561188a57600080fd5b810190808051906020019092919050505073ffffffffffffffffffffffffffffffffffffffff161480611a0257503373ffffffffffffffffffffffffffffffffffffffff166000809054906101000a900473ffffffffffffffffffffffffffffffffffffffff1673ffffffffffffffffffffffffffffffffffffffff166321f8a72160405160200180807f636f6e74726163742e6164647265737300000000000000000000000000000000815250601001807f53706563696d656e0000000000000000000000000000000000000000000000008152506008019050604051602081830303815290604052805190602001206040518263ffffffff1660e01b81526004018082815260200191505060206040518083038186803b1580156119af57600080fd5b505afa1580156119c3573d6000803e3d6000fd5b505050506040513d60208110156119d957600080fd5b810190808051906020019092919050505073ffffffffffffffffffffffffffffffffffffffff16145b611a74576040517f08c379a00000000000000000000000000000000000000000000000000000000081526004018080602001828103825260178152602001807f4f6e6c792072656769737472656420636f6e747261637400000000000000000081525060200191505060405180910390fd5b813273ffffffffffffffffffffffffffffffffffffffff166000809054906101000a900473ffffffffffffffffffffffffffffffffffffffff1673ffffffffffffffffffffffffffffffffffffffff166321f8a7218360405160200180807f53706563696d656e2e6f776e6572000000000000000000000000000000000000815250600e0182805190602001908083835b60208310611b285780518252602082019150602081019050602083039250611b05565b6001836020036101000a038019825116818451168082178552505050505050905001915050604051602081830303815290604052805190602001206040518263ffffffff1660e01b81526004018082815260200191505060206040518083038186803b158015611b9757600080fd5b505afa158015611bab573d6000803e3d6000fd5b505050506040513d6020811015611bc157600080fd5b810190808051906020019092919050505073ffffffffffffffffffffffffffffffffffffffff1614611c5b576040517f08c379a00000000000000000000000000000000000000000000000000000000081526004018080602001828103825260138152602001807f4f6e6c79204f776e65722073706563696d656e0000000000000000000000000081525060200191505060405180910390fd5b611c9a836040518060400160405280600381526020017f4e6577000000000000000000000000000000000000000000000000000000000081525061141d565b8015611cab5750611caa83615286565b5b611d1d576040517f08c379a000000000000000000000000000000000000000000000000000000000815260040180806020018281038252600e8152602001807f4f6e6c792070616964207465737400000000000000000000000000000000000081525060200191505060405180910390fd5b611d5c836040518060400160405280600781526020017f53656e64696e6700000000000000000000000000000000000000000000000000815250612c50565b600160009054906101000a900473ffffffffffffffffffffffffffffffffffffffff1673ffffffffffffffffffffffffffffffffffffffff1663f609cabd84846040518363ffffffff1660e01b815260040180806020018060200180602001848103845286818151815260200191508051906020019080838360005b83811015611df3578082015181840152602081019050611dd8565b50505050905090810190601f168015611e205780820380516001836020036101000a031916815260200191505b50848103835260048152602001807f73656e6400000000000000000000000000000000000000000000000000000000815250602001848103825285818151815260200191508051906020019080838360005b83811015611e8d578082015181840152602081019050611e72565b50505050905090810190601f168015611eba5780820380516001836020036101000a031916815260200191505b5095505050505050600060405180830381600087803b158015611edc57600080fd5b505af1158015611ef0573d6000803e3d6000fd5b50505050505050565b6000806060803373ffffffffffffffffffffffffffffffffffffffff166000809054906101000a900473ffffffffffffffffffffffffffffffffffffffff1673ffffffffffffffffffffffffffffffffffffffff166321f8a72160405160200180807f636f6e74726163742e6164647265737300000000000000000000000000000000815250601001807f446567656e6963730000000000000000000000000000000000000000000000008152506008019050604051602081830303815290604052805190602001206040518263ffffffff1660e01b81526004018082815260200191505060206040518083038186803b158015611ff657600080fd5b505afa15801561200a573d6000803e3d6000fd5b505050506040513d602081101561202057600080fd5b810190808051906020019092919050505073ffffffffffffffffffffffffffffffffffffffff16148061219857503373ffffffffffffffffffffffffffffffffffffffff166000809054906101000a900473ffffffffffffffffffffffffffffffffffffffff1673ffffffffffffffffffffffffffffffffffffffff166321f8a72160405160200180807f636f6e74726163742e6164647265737300000000000000000000000000000000815250601001807f53706563696d656e0000000000000000000000000000000000000000000000008152506008019050604051602081830303815290604052805190602001206040518263ffffffff1660e01b81526004018082815260200191505060206040518083038186803b15801561214557600080fd5b505afa158015612159573d6000803e3d6000fd5b505050506040513d602081101561216f57600080fd5b810190808051906020019092919050505073ffffffffffffffffffffffffffffffffffffffff16145b61220a576040517f08c379a00000000000000000000000000000000000000000000000000000000081526004018080602001828103825260178152602001807f4f6e6c792072656769737472656420636f6e747261637400000000000000000081525060200191505060405180910390fd5b600160009054906101000a900473ffffffffffffffffffffffffffffffffffffffff1673ffffffffffffffffffffffffffffffffffffffff16630e2eb2a187876040518363ffffffff1660e01b81526004018080602001838152602001828103825284818151815260200191508051906020019080838360005b8381101561229f578082015181840152602081019050612284565b50505050905090810190601f1680156122cc5780820380516001836020036101000a031916815260200191505b509350505050600060405180830381600087803b1580156122ec57600080fd5b505af1158015612300573d6000803e3d6000fd5b505050506040513d6000823e3d601f19601f82011682018060405250608081101561232a57600080fd5b8101908080519060200190929190805190602001909291908051604051939291908464010000000082111561235e57600080fd5b8382019150602082018581111561237457600080fd5b825186600182028301116401000000008211171561239157600080fd5b8083526020830192505050908051906020019080838360005b838110156123c55780820151818401526020810190506123aa565b50505050905090810190601f1680156123f25780820380516001836020036101000a031916815260200191505b506040526020018051604051939291908464010000000082111561241557600080fd5b8382019150602082018581111561242b57600080fd5b825186600182028301116401000000008211171561244857600080fd5b8083526020830192505050908051906020019080838360005b8381101561247c578082015181840152602081019050612461565b50505050905090810190601f1680156124a95780820380516001836020036101000a031916815260200191505b50604052505050935093509350935092959194509250565b3373ffffffffffffffffffffffffffffffffffffffff166000809054906101000a900473ffffffffffffffffffffffffffffffffffffffff1673ffffffffffffffffffffffffffffffffffffffff166321f8a72160405160200180807f636f6e74726163742e6164647265737300000000000000000000000000000000815250601001807f446567656e6963730000000000000000000000000000000000000000000000008152506008019050604051602081830303815290604052805190602001206040518263ffffffff1660e01b81526004018082815260200191505060206040518083038186803b1580156125b857600080fd5b505afa1580156125cc573d6000803e3d6000fd5b505050506040513d60208110156125e257600080fd5b810190808051906020019092919050505073ffffffffffffffffffffffffffffffffffffffff16148061275a57503373ffffffffffffffffffffffffffffffffffffffff166000809054906101000a900473ffffffffffffffffffffffffffffffffffffffff1673ffffffffffffffffffffffffffffffffffffffff166321f8a72160405160200180807f636f6e74726163742e6164647265737300000000000000000000000000000000815250601001807f53706563696d656e0000000000000000000000000000000000000000000000008152506008019050604051602081830303815290604052805190602001206040518263ffffffff1660e01b81526004018082815260200191505060206040518083038186803b15801561270757600080fd5b505afa15801561271b573d6000803e3d6000fd5b505050506040513d602081101561273157600080fd5b810190808051906020019092919050505073ffffffffffffffffffffffffffffffffffffffff16145b6127cc576040517f08c379a00000000000000000000000000000000000000000000000000000000081526004018080602001828103825260178152602001807f4f6e6c792072656769737472656420636f6e747261637400000000000000000081525060200191505060405180910390fd5b8161280c6040518060400160405280600381526020017f6c61620000000000000000000000000000000000000000000000000000000000815250326152a3565b801561298857503273ffffffffffffffffffffffffffffffffffffffff166000809054906101000a900473ffffffffffffffffffffffffffffffffffffffff1673ffffffffffffffffffffffffffffffffffffffff166321f8a7218360405160200180807f53706563696d656e2e6c61620000000000000000000000000000000000000000815250600c0182805190602001908083835b602083106128c657805182526020820191506020810190506020830392506128a3565b6001836020036101000a038019825116818451168082178552505050505050905001915050604051602081830303815290604052805190602001206040518263ffffffff1660e01b81526004018082815260200191505060206040518083038186803b15801561293557600080fd5b505afa158015612949573d6000803e3d6000fd5b505050506040513d602081101561295f57600080fd5b810190808051906020019092919050505073ffffffffffffffffffffffffffffffffffffffff16145b6129fa576040517f08c379a00000000000000000000000000000000000000000000000000000000081526004018080602001828103825260088152602001807f4f6e6c79206c616200000000000000000000000000000000000000000000000081525060200191505060405180910390fd5b612a41612a0684610f05565b6040518060400160405280600881526020017f5265636569766564000000000000000000000000000000000000000000000000815250615184565b612ab3576040517f08c379a00000000000000000000000000000000000000000000000000000000081526004018080602001828103825260168152602001807f4f6e6c792052656365697665642073706563696d656e0000000000000000000081525060200191505060405180910390fd5b600160009054906101000a900473ffffffffffffffffffffffffffffffffffffffff1673ffffffffffffffffffffffffffffffffffffffff1663f609cabd84846040518363ffffffff1660e01b815260040180806020018060200180602001848103845286818151815260200191508051906020019080838360005b83811015612b4a578082015181840152602081019050612b2f565b50505050905090810190601f168015612b775780820380516001836020036101000a031916815260200191505b50848103835260048152602001807f6661696c00000000000000000000000000000000000000000000000000000000815250602001848103825285818151815260200191508051906020019080838360005b83811015612be4578082015181840152602081019050612bc9565b50505050905090810190601f168015612c115780820380516001836020036101000a031916815260200191505b5095505050505050600060405180830381600087803b158015612c3357600080fd5b505af1158015612c47573d6000803e3d6000fd5b50505050505050565b3373ffffffffffffffffffffffffffffffffffffffff166000809054906101000a900473ffffffffffffffffffffffffffffffffffffffff1673ffffffffffffffffffffffffffffffffffffffff166321f8a72160405160200180807f636f6e74726163742e6164647265737300000000000000000000000000000000815250601001807f446567656e6963730000000000000000000000000000000000000000000000008152506008019050604051602081830303815290604052805190602001206040518263ffffffff1660e01b81526004018082815260200191505060206040518083038186803b158015612d4757600080fd5b505afa158015612d5b573d6000803e3d6000fd5b505050506040513d6020811015612d7157600080fd5b810190808051906020019092919050505073ffffffffffffffffffffffffffffffffffffffff161480612ee957503373ffffffffffffffffffffffffffffffffffffffff166000809054906101000a900473ffffffffffffffffffffffffffffffffffffffff1673ffffffffffffffffffffffffffffffffffffffff166321f8a72160405160200180807f636f6e74726163742e6164647265737300000000000000000000000000000000815250601001807f53706563696d656e0000000000000000000000000000000000000000000000008152506008019050604051602081830303815290604052805190602001206040518263ffffffff1660e01b81526004018082815260200191505060206040518083038186803b158015612e9657600080fd5b505afa158015612eaa573d6000803e3d6000fd5b505050506040513d6020811015612ec057600080fd5b810190808051906020019092919050505073ffffffffffffffffffffffffffffffffffffffff16145b612f5b576040517f08c379a00000000000000000000000000000000000000000000000000000000081526004018080602001828103825260178152602001807f4f6e6c792072656769737472656420636f6e747261637400000000000000000081525060200191505060405180910390fd5b6000809054906101000a900473ffffffffffffffffffffffffffffffffffffffff1673ffffffffffffffffffffffffffffffffffffffff16636e8995508360405160200180807f53706563696d656e2e7374617475730000000000000000000000000000000000815250600f0182805190602001908083835b60208310612ff75780518252602082019150602081019050602083039250612fd4565b6001836020036101000a03801982511681845116808217855250505050505090500191505060405160208183030381529060405280519060200120836040518363ffffffff1660e01b81526004018083815260200180602001828103825283818151815260200191508051906020019080838360005b8381101561308857808201518184015260208101905061306d565b50505050905090810190601f1680156130b55780820380516001836020036101000a031916815260200191505b509350505050600060405180830381600087803b1580156130d557600080fd5b505af11580156130e9573d6000803e3d6000fd5b505050505050565b3373ffffffffffffffffffffffffffffffffffffffff166000809054906101000a900473ffffffffffffffffffffffffffffffffffffffff1673ffffffffffffffffffffffffffffffffffffffff166321f8a72160405160200180807f636f6e74726163742e6164647265737300000000000000000000000000000000815250601001807f446567656e6963730000000000000000000000000000000000000000000000008152506008019050604051602081830303815290604052805190602001206040518263ffffffff1660e01b81526004018082815260200191505060206040518083038186803b1580156131e857600080fd5b505afa1580156131fc573d6000803e3d6000fd5b505050506040513d602081101561321257600080fd5b810190808051906020019092919050505073ffffffffffffffffffffffffffffffffffffffff16148061338a57503373ffffffffffffffffffffffffffffffffffffffff166000809054906101000a900473ffffffffffffffffffffffffffffffffffffffff1673ffffffffffffffffffffffffffffffffffffffff166321f8a72160405160200180807f636f6e74726163742e6164647265737300000000000000000000000000000000815250601001807f53706563696d656e0000000000000000000000000000000000000000000000008152506008019050604051602081830303815290604052805190602001206040518263ffffffff1660e01b81526004018082815260200191505060206040518083038186803b15801561333757600080fd5b505afa15801561334b573d6000803e3d6000fd5b505050506040513d602081101561336157600080fd5b810190808051906020019092919050505073ffffffffffffffffffffffffffffffffffffffff16145b6133fc576040517f08c379a00000000000000000000000000000000000000000000000000000000081526004018080602001828103825260178152602001807f4f6e6c792072656769737472656420636f6e747261637400000000000000000081525060200191505060405180910390fd5b8261343c6040518060400160405280600381526020017f6c61620000000000000000000000000000000000000000000000000000000000815250326152a3565b80156135b857503273ffffffffffffffffffffffffffffffffffffffff166000809054906101000a900473ffffffffffffffffffffffffffffffffffffffff1673ffffffffffffffffffffffffffffffffffffffff166321f8a7218360405160200180807f53706563696d656e2e6c61620000000000000000000000000000000000000000815250600c0182805190602001908083835b602083106134f657805182526020820191506020810190506020830392506134d3565b6001836020036101000a038019825116818451168082178552505050505050905001915050604051602081830303815290604052805190602001206040518263ffffffff1660e01b81526004018082815260200191505060206040518083038186803b15801561356557600080fd5b505afa158015613579573d6000803e3d6000fd5b505050506040513d602081101561358f57600080fd5b810190808051906020019092919050505073ffffffffffffffffffffffffffffffffffffffff16145b61362a576040517f08c379a00000000000000000000000000000000000000000000000000000000081526004018080602001828103825260088152602001807f4f6e6c79206c616200000000000000000000000000000000000000000000000081525060200191505060405180910390fd5b613669846040518060400160405280600881526020017f526563656976656400000000000000000000000000000000000000000000000081525061141d565b6136db576040517f08c379a00000000000000000000000000000000000000000000000000000000081526004018080602001828103825260168152602001807f4f6e6c792052656365697665642073706563696d656e0000000000000000000081525060200191505060405180910390fd5b61371a846040518060400160405280600681526020017f5375636365730000000000000000000000000000000000000000000000000000815250612c50565b600160009054906101000a900473ffffffffffffffffffffffffffffffffffffffff1673ffffffffffffffffffffffffffffffffffffffff1663f609cabd85846040518363ffffffff1660e01b815260040180806020018060200180602001848103845286818151815260200191508051906020019080838360005b838110156137b1578082015181840152602081019050613796565b50505050905090810190601f1680156137de5780820380516001836020036101000a031916815260200191505b50848103835260068152602001807f7375636365730000000000000000000000000000000000000000000000000000815250602001848103825285818151815260200191508051906020019080838360005b8381101561384b578082015181840152602081019050613830565b50505050905090810190601f1680156138785780820380516001836020036101000a031916815260200191505b5095505050505050600060405180830381600087803b15801561389a57600080fd5b505af11580156138ae573d6000803e3d6000fd5b505050506000809054906101000a900473ffffffffffffffffffffffffffffffffffffffff1673ffffffffffffffffffffffffffffffffffffffff16636e8995508560405160200180807f53706563696d656e2e66696c6500000000000000000000000000000000000000815250600d0182805190602001908083835b6020831061394e578051825260208201915060208101905060208303925061392b565b6001836020036101000a03801982511681845116808217855250505050505090500191505060405160208183030381529060405280519060200120856040518363ffffffff1660e01b81526004018083815260200180602001828103825283818151815260200191508051906020019080838360005b838110156139df5780820151818401526020810190506139c4565b50505050905090810190601f168015613a0c5780820380516001836020036101000a031916815260200191505b509350505050600060405180830381600087803b158015613a2c57600080fd5b505af1158015613a40573d6000803e3d6000fd5b5050505050505050565b3373ffffffffffffffffffffffffffffffffffffffff166000809054906101000a900473ffffffffffffffffffffffffffffffffffffffff1673ffffffffffffffffffffffffffffffffffffffff166321f8a72160405160200180807f636f6e74726163742e6164647265737300000000000000000000000000000000815250601001807f446567656e6963730000000000000000000000000000000000000000000000008152506008019050604051602081830303815290604052805190602001206040518263ffffffff1660e01b81526004018082815260200191505060206040518083038186803b158015613b4157600080fd5b505afa158015613b55573d6000803e3d6000fd5b505050506040513d6020811015613b6b57600080fd5b810190808051906020019092919050505073ffffffffffffffffffffffffffffffffffffffff161480613ce357503373ffffffffffffffffffffffffffffffffffffffff166000809054906101000a900473ffffffffffffffffffffffffffffffffffffffff1673ffffffffffffffffffffffffffffffffffffffff166321f8a72160405160200180807f636f6e74726163742e6164647265737300000000000000000000000000000000815250601001807f53706563696d656e0000000000000000000000000000000000000000000000008152506008019050604051602081830303815290604052805190602001206040518263ffffffff1660e01b81526004018082815260200191505060206040518083038186803b158015613c9057600080fd5b505afa158015613ca4573d6000803e3d6000fd5b505050506040513d6020811015613cba57600080fd5b810190808051906020019092919050505073ffffffffffffffffffffffffffffffffffffffff16145b613d55576040517f08c379a00000000000000000000000000000000000000000000000000000000081526004018080602001828103825260178152602001807f4f6e6c792072656769737472656420636f6e747261637400000000000000000081525060200191505060405180910390fd5b81613d956040518060400160405280600381526020017f6c61620000000000000000000000000000000000000000000000000000000000815250326152a3565b8015613f1157503273ffffffffffffffffffffffffffffffffffffffff166000809054906101000a900473ffffffffffffffffffffffffffffffffffffffff1673ffffffffffffffffffffffffffffffffffffffff166321f8a7218360405160200180807f53706563696d656e2e6c61620000000000000000000000000000000000000000815250600c0182805190602001908083835b60208310613e4f5780518252602082019150602081019050602083039250613e2c565b6001836020036101000a038019825116818451168082178552505050505050905001915050604051602081830303815290604052805190602001206040518263ffffffff1660e01b81526004018082815260200191505060206040518083038186803b158015613ebe57600080fd5b505afa158015613ed2573d6000803e3d6000fd5b505050506040513d6020811015613ee857600080fd5b810190808051906020019092919050505073ffffffffffffffffffffffffffffffffffffffff16145b613f83576040517f08c379a00000000000000000000000000000000000000000000000000000000081526004018080602001828103825260088152602001807f4f6e6c79206c616200000000000000000000000000000000000000000000000081525060200191505060405180910390fd5b613fc2836040518060400160405280600781526020017f53656e64696e670000000000000000000000000000000000000000000000000081525061141d565b806140195750614007836040518060400160405280600381526020017f4e6577000000000000000000000000000000000000000000000000000000000081525061141d565b8015614018575061401783615286565b5b5b61408b576040517f08c379a00000000000000000000000000000000000000000000000000000000081526004018080602001828103825260158152602001807f4f6e6c792073656e64696e672073706563696d656e000000000000000000000081525060200191505060405180910390fd5b6140ca836040518060400160405280600681526020017f52656a6563740000000000000000000000000000000000000000000000000000815250612c50565b600160009054906101000a900473ffffffffffffffffffffffffffffffffffffffff1673ffffffffffffffffffffffffffffffffffffffff1663f609cabd84846040518363ffffffff1660e01b815260040180806020018060200180602001848103845286818151815260200191508051906020019080838360005b83811015614161578082015181840152602081019050614146565b50505050905090810190601f16801561418e5780820380516001836020036101000a031916815260200191505b50848103835260068152602001807f72656a6563740000000000000000000000000000000000000000000000000000815250602001848103825285818151815260200191508051906020019080838360005b838110156141fb5780820151818401526020810190506141e0565b50505050905090810190601f1680156142285780820380516001836020036101000a031916815260200191505b5095505050505050600060405180830381600087803b15801561424a57600080fd5b505af115801561425e573d6000803e3d6000fd5b50505050505050565b60603373ffffffffffffffffffffffffffffffffffffffff166000809054906101000a900473ffffffffffffffffffffffffffffffffffffffff1673ffffffffffffffffffffffffffffffffffffffff166321f8a72160405160200180807f636f6e74726163742e6164647265737300000000000000000000000000000000815250601001807f446567656e6963730000000000000000000000000000000000000000000000008152506008019050604051602081830303815290604052805190602001206040518263ffffffff1660e01b81526004018082815260200191505060206040518083038186803b15801561436057600080fd5b505afa158015614374573d6000803e3d6000fd5b505050506040513d602081101561438a57600080fd5b810190808051906020019092919050505073ffffffffffffffffffffffffffffffffffffffff16148061450257503373ffffffffffffffffffffffffffffffffffffffff166000809054906101000a900473ffffffffffffffffffffffffffffffffffffffff1673ffffffffffffffffffffffffffffffffffffffff166321f8a72160405160200180807f636f6e74726163742e6164647265737300000000000000000000000000000000815250601001807f53706563696d656e0000000000000000000000000000000000000000000000008152506008019050604051602081830303815290604052805190602001206040518263ffffffff1660e01b81526004018082815260200191505060206040518083038186803b1580156144af57600080fd5b505afa1580156144c3573d6000803e3d6000fd5b505050506040513d60208110156144d957600080fd5b810190808051906020019092919050505073ffffffffffffffffffffffffffffffffffffffff16145b614574576040517f08c379a00000000000000000000000000000000000000000000000000000000081526004018080602001828103825260178152602001807f4f6e6c792072656769737472656420636f6e747261637400000000000000000081525060200191505060405180910390fd5b813273ffffffffffffffffffffffffffffffffffffffff166000809054906101000a900473ffffffffffffffffffffffffffffffffffffffff1673ffffffffffffffffffffffffffffffffffffffff166321f8a7218360405160200180807f53706563696d656e2e6f776e6572000000000000000000000000000000000000815250600e0182805190602001908083835b602083106146285780518252602082019150602081019050602083039250614605565b6001836020036101000a038019825116818451168082178552505050505050905001915050604051602081830303815290604052805190602001206040518263ffffffff1660e01b81526004018082815260200191505060206040518083038186803b15801561469757600080fd5b505afa1580156146ab573d6000803e3d6000fd5b505050506040513d60208110156146c157600080fd5b810190808051906020019092919050505073ffffffffffffffffffffffffffffffffffffffff161461475b576040517f08c379a00000000000000000000000000000000000000000000000000000000081526004018080602001828103825260138152602001807f4f6e6c79204f776e65722073706563696d656e0000000000000000000000000081525060200191505060405180910390fd5b6000809054906101000a900473ffffffffffffffffffffffffffffffffffffffff1673ffffffffffffffffffffffffffffffffffffffff1663986e791a8460405160200180807f53706563696d656e2e66696c6500000000000000000000000000000000000000815250600d0182805190602001908083835b602083106147f757805182526020820191506020810190506020830392506147d4565b6001836020036101000a038019825116818451168082178552505050505050905001915050604051602081830303815290604052805190602001206040518263ffffffff1660e01b81526004018082815260200191505060006040518083038186803b15801561486657600080fd5b505afa15801561487a573d6000803e3d6000fd5b505050506040513d6000823e3d601f19601f8201168201806040525060208110156148a457600080fd5b81019080805160405193929190846401000000008211156148c457600080fd5b838201915060208201858111156148da57600080fd5b82518660018202830111640100000000821117156148f757600080fd5b8083526020830192505050908051906020019080838360005b8381101561492b578082015181840152602081019050614910565b50505050905090810190601f1680156149585780820380516001836020036101000a031916815260200191505b50604052505050915050919050565b3373ffffffffffffffffffffffffffffffffffffffff166000809054906101000a900473ffffffffffffffffffffffffffffffffffffffff1673ffffffffffffffffffffffffffffffffffffffff166321f8a72160405160200180807f636f6e74726163742e6164647265737300000000000000000000000000000000815250601001807f446567656e6963730000000000000000000000000000000000000000000000008152506008019050604051602081830303815290604052805190602001206040518263ffffffff1660e01b81526004018082815260200191505060206040518083038186803b158015614a5e57600080fd5b505afa158015614a72573d6000803e3d6000fd5b505050506040513d6020811015614a8857600080fd5b810190808051906020019092919050505073ffffffffffffffffffffffffffffffffffffffff161480614c0057503373ffffffffffffffffffffffffffffffffffffffff166000809054906101000a900473ffffffffffffffffffffffffffffffffffffffff1673ffffffffffffffffffffffffffffffffffffffff166321f8a72160405160200180807f636f6e74726163742e6164647265737300000000000000000000000000000000815250601001807f53706563696d656e0000000000000000000000000000000000000000000000008152506008019050604051602081830303815290604052805190602001206040518263ffffffff1660e01b81526004018082815260200191505060206040518083038186803b158015614bad57600080fd5b505afa158015614bc1573d6000803e3d6000fd5b505050506040513d6020811015614bd757600080fd5b810190808051906020019092919050505073ffffffffffffffffffffffffffffffffffffffff16145b614c72576040517f08c379a00000000000000000000000000000000000000000000000000000000081526004018080602001828103825260178152602001807f4f6e6c792072656769737472656420636f6e747261637400000000000000000081525060200191505060405180910390fd5b81614cb26040518060400160405280600381526020017f6c61620000000000000000000000000000000000000000000000000000000000815250326152a3565b8015614e2e57503273ffffffffffffffffffffffffffffffffffffffff166000809054906101000a900473ffffffffffffffffffffffffffffffffffffffff1673ffffffffffffffffffffffffffffffffffffffff166321f8a7218360405160200180807f53706563696d656e2e6c61620000000000000000000000000000000000000000815250600c0182805190602001908083835b60208310614d6c5780518252602082019150602081019050602083039250614d49565b6001836020036101000a038019825116818451168082178552505050505050905001915050604051602081830303815290604052805190602001206040518263ffffffff1660e01b81526004018082815260200191505060206040518083038186803b158015614ddb57600080fd5b505afa158015614def573d6000803e3d6000fd5b505050506040513d6020811015614e0557600080fd5b810190808051906020019092919050505073ffffffffffffffffffffffffffffffffffffffff16145b614ea0576040517f08c379a00000000000000000000000000000000000000000000000000000000081526004018080602001828103825260088152602001807f4f6e6c79206c616200000000000000000000000000000000000000000000000081525060200191505060405180910390fd5b614edf836040518060400160405280600781526020017f53656e64696e670000000000000000000000000000000000000000000000000081525061141d565b80614f365750614f24836040518060400160405280600381526020017f4e6577000000000000000000000000000000000000000000000000000000000081525061141d565b8015614f355750614f3483615286565b5b5b614fa8576040517f08c379a00000000000000000000000000000000000000000000000000000000081526004018080602001828103825260158152602001807f4f6e6c792073656e64696e672073706563696d656e000000000000000000000081525060200191505060405180910390fd5b614fe7836040518060400160405280600881526020017f5265636569766564000000000000000000000000000000000000000000000000815250612c50565b600160009054906101000a900473ffffffffffffffffffffffffffffffffffffffff1673ffffffffffffffffffffffffffffffffffffffff1663f609cabd84846040518363ffffffff1660e01b815260040180806020018060200180602001848103845286818151815260200191508051906020019080838360005b8381101561507e578082015181840152602081019050615063565b50505050905090810190601f1680156150ab5780820380516001836020036101000a031916815260200191505b50848103835260078152602001807f7265636569766500000000000000000000000000000000000000000000000000815250602001848103825285818151815260200191508051906020019080838360005b838110156151185780820151818401526020810190506150fd565b50505050905090810190601f1680156151455780820380516001836020036101000a031916815260200191505b5095505050505050600060405180830381600087803b15801561516757600080fd5b505af115801561517b573d6000803e3d6000fd5b50505050505050565b600081518351146151985760009050615280565b816040516020018082805190602001908083835b602083106151cf57805182526020820191506020810190506020830392506151ac565b6001836020036101000a03801982511681845116808217855250505050505090500191505060405160208183030381529060405280519060200120836040516020018082805190602001908083835b60208310615241578051825260208201915060208101905060208303925061521e565b6001836020036101000a038019825116818451168082178552505050505050905001915050604051602081830303815290604052805190602001201490505b92915050565b60006152918261542a565b61529a836158f8565b10159050919050565b60008060009054906101000a900473ffffffffffffffffffffffffffffffffffffffff1673ffffffffffffffffffffffffffffffffffffffff16637ae1cfca848460405160200180807f6163636573732e726f6c65000000000000000000000000000000000000000000815250600b0183805190602001908083835b60208310615342578051825260208201915060208101905060208303925061531f565b6001836020036101000a0380198251168184511680821785525050505050509050018273ffffffffffffffffffffffffffffffffffffffff1673ffffffffffffffffffffffffffffffffffffffff1660601b815260140192505050604051602081830303815290604052805190602001206040518263ffffffff1660e01b81526004018082815260200191505060206040518083038186803b1580156153e757600080fd5b505afa1580156153fb573d6000803e3d6000fd5b505050506040513d602081101561541157600080fd5b8101908080519060200190929190505050905092915050565b60008060009054906101000a900473ffffffffffffffffffffffffffffffffffffffff1673ffffffffffffffffffffffffffffffffffffffff1663bd02d0f56000809054906101000a900473ffffffffffffffffffffffffffffffffffffffff1673ffffffffffffffffffffffffffffffffffffffff166321f8a7218560405160200180807f53706563696d656e2e6c61620000000000000000000000000000000000000000815250600c0182805190602001908083835b6020831061550557805182526020820191506020810190506020830392506154e2565b6001836020036101000a038019825116818451168082178552505050505050905001915050604051602081830303815290604052805190602001206040518263ffffffff1660e01b81526004018082815260200191505060206040518083038186803b15801561557457600080fd5b505afa158015615588573d6000803e3d6000fd5b505050506040513d602081101561559e57600080fd5b81019080805190602001909291905050506000809054906101000a900473ffffffffffffffffffffffffffffffffffffffff1673ffffffffffffffffffffffffffffffffffffffff1663986e791a8660405160200180807f53706563696d656e2e73657276696365436f646500000000000000000000000081525060140182805190602001908083835b6020831061564b5780518252602082019150602081019050602083039250615628565b6001836020036101000a038019825116818451168082178552505050505050905001915050604051602081830303815290604052805190602001206040518263ffffffff1660e01b81526004018082815260200191505060006040518083038186803b1580156156ba57600080fd5b505afa1580156156ce573d6000803e3d6000fd5b505050506040513d6000823e3d601f19601f8201168201806040525060208110156156f857600080fd5b810190808051604051939291908464010000000082111561571857600080fd5b8382019150602082018581111561572e57600080fd5b825186600182028301116401000000008211171561574b57600080fd5b8083526020830192505050908051906020019080838360005b8381101561577f578082015181840152602081019050615764565b50505050905090810190601f1680156157ac5780820380516001836020036101000a031916815260200191505b5060405250505060405160200180807f6c61622e736572766963652e70726963650000000000000000000000000000008152506011018373ffffffffffffffffffffffffffffffffffffffff1673ffffffffffffffffffffffffffffffffffffffff1660601b815260140182805190602001908083835b602083106158465780518252602082019150602081019050602083039250615823565b6001836020036101000a03801982511681845116808217855250505050505090500192505050604051602081830303815290604052805190602001206040518263ffffffff1660e01b81526004018082815260200191505060206040518083038186803b1580156158b657600080fd5b505afa1580156158ca573d6000803e3d6000fd5b505050506040513d60208110156158e057600080fd5b81019080805190602001909291905050509050919050565b60008060009054906101000a900473ffffffffffffffffffffffffffffffffffffffff1673ffffffffffffffffffffffffffffffffffffffff166321f8a7218360405160200180807f53706563696d656e2e657363726f770000000000000000000000000000000000815250600f0182805190602001908083835b602083106159965780518252602082019150602081019050602083039250615973565b6001836020036101000a038019825116818451168082178552505050505050905001915050604051602081830303815290604052805190602001206040518263ffffffff1660e01b81526004018082815260200191505060206040518083038186803b158015615a0557600080fd5b505afa158015615a19573d6000803e3d6000fd5b505050506040513d6020811015615a2f57600080fd5b810190808051906020019092919050505073ffffffffffffffffffffffffffffffffffffffff1631905091905056fea265627a7a7231582001e1f2069342d3dfa53d9a44379ccb090f29634b53fff6afd215217ecbe2587a64736f6c63430005100032",
  "source": "pragma solidity ^0.5.16;\r\n\r\n\r\nimport \"./common/Base.sol\";\r\nimport \"./DegenicsLog.sol\";\r\n\r\ncontract SpecimenTracking is Base {\r\n\r\n    DegenicsLog degenicsLog;\r\n    \r\n    modifier onlyAllowContract() {\r\n        require(eternalStorage.getAddress(keccak256(abi.encodePacked(\"contract.address\", \"Degenics\"))) == msg.sender ||\r\n                eternalStorage.getAddress(keccak256(abi.encodePacked(\"contract.address\", \"Specimen\"))) == msg.sender\r\n        , \"Only registred contract\" );\r\n        _;\r\n    }\r\n\r\n    modifier onlyLab(string memory number){\r\n        require(roleHas(\"lab\", tx.origin) && \r\n            eternalStorage.getAddress(keccak256(abi.encodePacked( \"Specimen.lab\",number ))) == tx.origin,\r\n            \"Only lab\");\r\n        _;\r\n    }\r\n\r\n    modifier onlySpecimenOwner(string memory number){\r\n        require(eternalStorage.getAddress(keccak256(abi.encodePacked( \"Specimen.owner\",number ))) == tx.origin, \"Only Owner specimen\");\r\n        _;\r\n    }\r\n    \r\n    constructor(address _storage, address _degenicsLog ) public Base(_storage) {\r\n        degenicsLog = DegenicsLog(_degenicsLog);\r\n    }\r\n\r\n    function escrowBalance(string memory number) internal view returns(uint){\r\n        return (eternalStorage.getAddress(keccak256(abi.encodePacked(\"Specimen.escrow\", number)))).balance;\r\n    }\r\n\r\n    function sendSpecimen(string memory number, string memory remark) public onlyAllowContract onlySpecimenOwner(number) {\r\n       require(checkStatus(number, \"New\") && \r\n            checkPayment(number), \"Only paid test\");  \r\n        setStatus(number, \"Sending\");\r\n        degenicsLog.addSpecimenLog(number, \"send\", remark);\r\n    }\r\n\r\n    function receiveSpecimen(string memory number, string memory remark) public onlyAllowContract onlyLab(number) {\r\n        require(checkStatus(number, \"Sending\") || (checkStatus(number, \"New\") && checkPayment(number) ) , \"Only sending specimen\" );\r\n        setStatus(number, \"Received\");\r\n        degenicsLog.addSpecimenLog(number, \"receive\", remark);\r\n    }\r\n\r\n    function rejectSpecimen(string memory number, string memory remark) public onlyAllowContract onlyLab(number) {\r\n        require(checkStatus(number, \"Sending\") || (checkStatus(number, \"New\") &&   checkPayment(number)) , \"Only sending specimen\" );\r\n        setStatus(number, \"Reject\");\r\n        degenicsLog.addSpecimenLog(number, \"reject\", remark);\r\n    }\r\n\r\n    function analysisSucces(string memory number, string memory file, string memory remark) public onlyAllowContract onlyLab(number) {\r\n        require(checkStatus(number, \"Received\"), \"Only Received specimen\" );\r\n        setStatus(number, \"Succes\");\r\n        degenicsLog.addSpecimenLog(number, \"succes\", remark);\r\n        eternalStorage.setString(keccak256(abi.encodePacked( \"Specimen.file\",number)), file);\r\n    }\r\n\r\n    function analysisFail(string memory number, string memory remark) public onlyAllowContract onlyLab(number) {\r\n        require(compareString(getStatus(number), \"Received\"), \"Only Received specimen\" );\r\n        degenicsLog.addSpecimenLog(number, \"fail\", remark);\r\n    }\r\n\r\n    function checkPrice(string memory number) internal returns(uint){\r\n        return eternalStorage.getUint(keccak256(abi.encodePacked(\"lab.service.price\", \r\n            eternalStorage.getAddress(keccak256(abi.encodePacked( \"Specimen.lab\",number ))), \r\n            eternalStorage.getString(keccak256(abi.encodePacked( \"Specimen.serviceCode\",number )))\r\n        )));\r\n    }\r\n\r\n    function logByIndex(string memory number, uint _index)public onlyAllowContract returns(uint index, uint time, \r\n        string memory logType, string memory log){\r\n        return degenicsLog.specimenLogByIndex(number, _index);\r\n    }\r\n\r\n    function setStatus(string memory number, string memory status) public  onlyAllowContract{\r\n        eternalStorage.setString(keccak256(abi.encodePacked( \"Specimen.status\",number )), status);\r\n    }\r\n\r\n    function getStatus(string memory number) public view onlyAllowContract returns(string memory){\r\n        return eternalStorage.getString(keccak256(abi.encodePacked( \"Specimen.status\",number )));       \r\n    }\r\n\r\n    function checkStatus(string memory number, string memory status) public view onlyAllowContract returns(bool){\r\n        return compareString(getStatus(number), status);\r\n    }\r\n\r\n    function getFile(string memory number) public view onlyAllowContract onlySpecimenOwner(number)  returns(string memory file){\r\n        return eternalStorage.getString(keccak256(abi.encodePacked( \"Specimen.file\",number)));\r\n    }\r\n    \r\n    function checkPayment(string memory number) internal returns(bool){\r\n        return escrowBalance(number) >=  checkPrice(number);\r\n    }\r\n}",
  "sourcePath": "D:\\projects\\degenics\\degenics-smart-contract\\contracts\\SpecimenTracking.sol",
  "compiler": {
    "name": "solc",
    "version": "0.5.16+commit.9c3226ce.Emscripten.clang"
  },
  "schemaVersion": "3.0.23",
  "updatedAt": "2021-01-03T07:42:05.139Z",
  "networkType": "ethereum",
  "devdoc": {
    "methods": {}
  },
  "userdoc": {
    "methods": {}
  }
}