{
  "contractName": "Specimen",
  "abi": [
    {
      "inputs": [
        {
          "internalType": "address",
          "name": "_storage",
          "type": "address"
        },
        {
          "internalType": "address",
          "name": "_degenicsLog",
          "type": "address"
        },
        {
          "internalType": "address",
          "name": "_specimenTracking",
          "type": "address"
        }
      ],
      "payable": false,
      "stateMutability": "nonpayable",
      "type": "constructor"
    },
    {
      "constant": true,
      "inputs": [],
      "name": "eternalStorage",
      "outputs": [
        {
          "internalType": "contract EternalStorageInterface",
          "name": "",
          "type": "address"
        }
      ],
      "payable": false,
      "stateMutability": "view",
      "type": "function"
    },
    {
      "constant": false,
      "inputs": [
        {
          "internalType": "address",
          "name": "ownerSpecimen",
          "type": "address"
        },
        {
          "internalType": "address",
          "name": "labAccount",
          "type": "address"
        },
        {
          "internalType": "string",
          "name": "serviceCode",
          "type": "string"
        }
      ],
      "name": "registerSpecimen",
      "outputs": [
        {
          "internalType": "string",
          "name": "",
          "type": "string"
        }
      ],
      "payable": false,
      "stateMutability": "nonpayable",
      "type": "function"
    },
    {
      "constant": true,
      "inputs": [
        {
          "internalType": "address",
          "name": "sender",
          "type": "address"
        }
      ],
      "name": "specimenCount",
      "outputs": [
        {
          "internalType": "uint256",
          "name": "",
          "type": "uint256"
        }
      ],
      "payable": false,
      "stateMutability": "view",
      "type": "function"
    },
    {
      "constant": true,
      "inputs": [
        {
          "internalType": "string",
          "name": "_number",
          "type": "string"
        }
      ],
      "name": "specimenByNumber",
      "outputs": [
        {
          "internalType": "string",
          "name": "number",
          "type": "string"
        },
        {
          "internalType": "address",
          "name": "owner",
          "type": "address"
        },
        {
          "internalType": "address",
          "name": "labAccount",
          "type": "address"
        },
        {
          "internalType": "string",
          "name": "serviceCode",
          "type": "string"
        },
        {
          "internalType": "uint256",
          "name": "timestamp",
          "type": "uint256"
        },
        {
          "internalType": "string",
          "name": "status",
          "type": "string"
        }
      ],
      "payable": false,
      "stateMutability": "view",
      "type": "function"
    },
    {
      "constant": true,
      "inputs": [
        {
          "internalType": "address",
          "name": "sender",
          "type": "address"
        },
        {
          "internalType": "uint256",
          "name": "index",
          "type": "uint256"
        }
      ],
      "name": "specimenByIndex",
      "outputs": [
        {
          "internalType": "string",
          "name": "number",
          "type": "string"
        },
        {
          "internalType": "address",
          "name": "owner",
          "type": "address"
        },
        {
          "internalType": "address",
          "name": "labAccount",
          "type": "address"
        },
        {
          "internalType": "string",
          "name": "serviceCode",
          "type": "string"
        },
        {
          "internalType": "uint256",
          "name": "timestamp",
          "type": "uint256"
        },
        {
          "internalType": "string",
          "name": "status",
          "type": "string"
        }
      ],
      "payable": false,
      "stateMutability": "view",
      "type": "function"
    }
  ],
  "bytecode": "0x608060405260008060006101000a81548173ffffffffffffffffffffffffffffffffffffffff021916908373ffffffffffffffffffffffffffffffffffffffff160217905550600060035534801561005657600080fd5b5060405161303e38038061303e8339818101604052606081101561007957600080fd5b8101908080519060200190929190805190602001909291908051906020019092919050505082806000806101000a81548173ffffffffffffffffffffffffffffffffffffffff021916908373ffffffffffffffffffffffffffffffffffffffff1602179055505081600160006101000a81548173ffffffffffffffffffffffffffffffffffffffff021916908373ffffffffffffffffffffffffffffffffffffffff16021790555080600260006101000a81548173ffffffffffffffffffffffffffffffffffffffff021916908373ffffffffffffffffffffffffffffffffffffffff160217905550505050612eca806101746000396000f3fe608060405234801561001057600080fd5b50600436106100575760003560e01c8063103ed5b31461005c5780634fcbb723146102d55780635803d619146104e157806398ff9c5414610539578063a250156c14610583575b600080fd5b6101156004803603602081101561007257600080fd5b810190808035906020019064010000000081111561008f57600080fd5b8201836020820111156100a157600080fd5b803590602001918460018302840111640100000000831117156100c357600080fd5b91908080601f016020809104026020016040519081016040528093929190818152602001838380828437600081840152601f19601f8201169050808301925050505050505091929192905050506106f7565b60405180806020018773ffffffffffffffffffffffffffffffffffffffff1673ffffffffffffffffffffffffffffffffffffffff1681526020018673ffffffffffffffffffffffffffffffffffffffff1673ffffffffffffffffffffffffffffffffffffffff168152602001806020018581526020018060200184810384528a818151815260200191508051906020019080838360005b838110156101c75780820151818401526020810190506101ac565b50505050905090810190601f1680156101f45780820380516001836020036101000a031916815260200191505b50848103835287818151815260200191508051906020019080838360005b8381101561022d578082015181840152602081019050610212565b50505050905090810190601f16801561025a5780820380516001836020036101000a031916815260200191505b50848103825285818151815260200191508051906020019080838360005b83811015610293578082015181840152602081019050610278565b50505050905090810190601f1680156102c05780820380516001836020036101000a031916815260200191505b50995050505050505050505060405180910390f35b610321600480360360408110156102eb57600080fd5b81019080803573ffffffffffffffffffffffffffffffffffffffff16906020019092919080359060200190929190505050611322565b60405180806020018773ffffffffffffffffffffffffffffffffffffffff1673ffffffffffffffffffffffffffffffffffffffff1681526020018673ffffffffffffffffffffffffffffffffffffffff1673ffffffffffffffffffffffffffffffffffffffff168152602001806020018581526020018060200184810384528a818151815260200191508051906020019080838360005b838110156103d35780820151818401526020810190506103b8565b50505050905090810190601f1680156104005780820380516001836020036101000a031916815260200191505b50848103835287818151815260200191508051906020019080838360005b8381101561043957808201518184015260208101905061041e565b50505050905090810190601f1680156104665780820380516001836020036101000a031916815260200191505b50848103825285818151815260200191508051906020019080838360005b8381101561049f578082015181840152602081019050610484565b50505050905090810190601f1680156104cc5780820380516001836020036101000a031916815260200191505b50995050505050505050505060405180910390f35b610523600480360360208110156104f757600080fd5b81019080803573ffffffffffffffffffffffffffffffffffffffff1690602001909291905050506116f6565b6040518082815260200191505060405180910390f35b6105416119e4565b604051808273ffffffffffffffffffffffffffffffffffffffff1673ffffffffffffffffffffffffffffffffffffffff16815260200191505060405180910390f35b61067c6004803603606081101561059957600080fd5b81019080803573ffffffffffffffffffffffffffffffffffffffff169060200190929190803573ffffffffffffffffffffffffffffffffffffffff169060200190929190803590602001906401000000008111156105f657600080fd5b82018360208201111561060857600080fd5b8035906020019184600183028401116401000000008311171561062a57600080fd5b91908080601f016020809104026020016040519081016040528093929190818152602001838380828437600081840152601f19601f820116905080830192505050505050509192919290505050611a09565b6040518080602001828103825283818151815260200191508051906020019080838360005b838110156106bc5780820151818401526020810190506106a1565b50505050905090810190601f1680156106e95780820380516001836020036101000a031916815260200191505b509250505060405180910390f35b60606000806060600060603373ffffffffffffffffffffffffffffffffffffffff166000809054906101000a900473ffffffffffffffffffffffffffffffffffffffff1673ffffffffffffffffffffffffffffffffffffffff166321f8a72160405160200180807f636f6e74726163742e6164647265737300000000000000000000000000000000815250601001807f446567656e6963730000000000000000000000000000000000000000000000008152506008019050604051602081830303815290604052805190602001206040518263ffffffff1660e01b81526004018082815260200191505060206040518083038186803b1580156107f957600080fd5b505afa15801561080d573d6000803e3d6000fd5b505050506040513d602081101561082357600080fd5b810190808051906020019092919050505073ffffffffffffffffffffffffffffffffffffffff16146108bd576040517f08c379a00000000000000000000000000000000000000000000000000000000081526004018080602001828103825260178152602001807f4f6e6c792072656769737472656420636f6e747261637400000000000000000081525060200191505060405180910390fd5b600260009054906101000a900473ffffffffffffffffffffffffffffffffffffffff1673ffffffffffffffffffffffffffffffffffffffff166322b05ed2886040518263ffffffff1660e01b81526004018080602001828103825283818151815260200191508051906020019080838360005b8381101561094b578082015181840152602081019050610930565b50505050905090810190601f1680156109785780820380516001836020036101000a031916815260200191505b509250505060006040518083038186803b15801561099557600080fd5b505afa1580156109a9573d6000803e3d6000fd5b505050506040513d6000823e3d601f19601f8201168201806040525060208110156109d357600080fd5b81019080805160405193929190846401000000008211156109f357600080fd5b83820191506020820185811115610a0957600080fd5b8251866001820283011164010000000082111715610a2657600080fd5b8083526020830192505050908051906020019080838360005b83811015610a5a578082015181840152602081019050610a3f565b50505050905090810190601f168015610a875780820380516001836020036101000a031916815260200191505b506040525050509050600260009054906101000a900473ffffffffffffffffffffffffffffffffffffffff1673ffffffffffffffffffffffffffffffffffffffff166363a88bcf886040518263ffffffff1660e01b8152600401808060200180602001838103835284818151815260200191508051906020019080838360005b83811015610b22578082015181840152602081019050610b07565b50505050905090810190601f168015610b4f5780820380516001836020036101000a031916815260200191505b50838103825260038152602001807f4e65770000000000000000000000000000000000000000000000000000000000815250602001935050505060206040518083038186803b158015610ba157600080fd5b505afa158015610bb5573d6000803e3d6000fd5b505050506040513d6020811015610bcb57600080fd5b81019080805190602001909291905050508015610cf75750600260009054906101000a900473ffffffffffffffffffffffffffffffffffffffff1673ffffffffffffffffffffffffffffffffffffffff166394837cea886040518263ffffffff1660e01b81526004018080602001828103825283818151815260200191508051906020019080838360005b83811015610c71578082015181840152602081019050610c56565b50505050905090810190601f168015610c9e5780820380516001836020036101000a031916815260200191505b509250505060206040518083038186803b158015610cbb57600080fd5b505afa158015610ccf573d6000803e3d6000fd5b505050506040513d6020811015610ce557600080fd5b81019080805190602001909291905050505b15610d35576040518060400160405280600481526020017f506169640000000000000000000000000000000000000000000000000000000081525090505b866000809054906101000a900473ffffffffffffffffffffffffffffffffffffffff1673ffffffffffffffffffffffffffffffffffffffff166321f8a7218960405160200180807f53706563696d656e2e6f776e6572000000000000000000000000000000000000815250600e0182805190602001908083835b60208310610dd25780518252602082019150602081019050602083039250610daf565b6001836020036101000a038019825116818451168082178552505050505050905001915050604051602081830303815290604052805190602001206040518263ffffffff1660e01b81526004018082815260200191505060206040518083038186803b158015610e4157600080fd5b505afa158015610e55573d6000803e3d6000fd5b505050506040513d6020811015610e6b57600080fd5b81019080805190602001909291905050506000809054906101000a900473ffffffffffffffffffffffffffffffffffffffff1673ffffffffffffffffffffffffffffffffffffffff166321f8a7218a60405160200180807f53706563696d656e2e6c61620000000000000000000000000000000000000000815250600c0182805190602001908083835b60208310610f185780518252602082019150602081019050602083039250610ef5565b6001836020036101000a038019825116818451168082178552505050505050905001915050604051602081830303815290604052805190602001206040518263ffffffff1660e01b81526004018082815260200191505060206040518083038186803b158015610f8757600080fd5b505afa158015610f9b573d6000803e3d6000fd5b505050506040513d6020811015610fb157600080fd5b81019080805190602001909291905050506000809054906101000a900473ffffffffffffffffffffffffffffffffffffffff1673ffffffffffffffffffffffffffffffffffffffff1663986e791a8b60405160200180807f53706563696d656e2e73657276696365436f646500000000000000000000000081525060140182805190602001908083835b6020831061105e578051825260208201915060208101905060208303925061103b565b6001836020036101000a038019825116818451168082178552505050505050905001915050604051602081830303815290604052805190602001206040518263ffffffff1660e01b81526004018082815260200191505060006040518083038186803b1580156110cd57600080fd5b505afa1580156110e1573d6000803e3d6000fd5b505050506040513d6000823e3d601f19601f82011682018060405250602081101561110b57600080fd5b810190808051604051939291908464010000000082111561112b57600080fd5b8382019150602082018581111561114157600080fd5b825186600182028301116401000000008211171561115e57600080fd5b8083526020830192505050908051906020019080838360005b83811015611192578082015181840152602081019050611177565b50505050905090810190601f1680156111bf5780820380516001836020036101000a031916815260200191505b506040525050506000809054906101000a900473ffffffffffffffffffffffffffffffffffffffff1673ffffffffffffffffffffffffffffffffffffffff1663bd02d0f58c60405160200180807f53706563696d656e2e726567697374657265640000000000000000000000000081525060130182805190602001908083835b60208310611262578051825260208201915060208101905060208303925061123f565b6001836020036101000a038019825116818451168082178552505050505050905001915050604051602081830303815290604052805190602001206040518263ffffffff1660e01b81526004018082815260200191505060206040518083038186803b1580156112d157600080fd5b505afa1580156112e5573d6000803e3d6000fd5b505050506040513d60208110156112fb57600080fd5b81019080805190602001909291905050508595509550955095509550955091939550919395565b60606000806060600060603373ffffffffffffffffffffffffffffffffffffffff166000809054906101000a900473ffffffffffffffffffffffffffffffffffffffff1673ffffffffffffffffffffffffffffffffffffffff166321f8a72160405160200180807f636f6e74726163742e6164647265737300000000000000000000000000000000815250601001807f446567656e6963730000000000000000000000000000000000000000000000008152506008019050604051602081830303815290604052805190602001206040518263ffffffff1660e01b81526004018082815260200191505060206040518083038186803b15801561142457600080fd5b505afa158015611438573d6000803e3d6000fd5b505050506040513d602081101561144e57600080fd5b810190808051906020019092919050505073ffffffffffffffffffffffffffffffffffffffff16146114e8576040517f08c379a00000000000000000000000000000000000000000000000000000000081526004018080602001828103825260178152602001807f4f6e6c792072656769737472656420636f6e747261637400000000000000000081525060200191505060405180910390fd5b6116e06000809054906101000a900473ffffffffffffffffffffffffffffffffffffffff1673ffffffffffffffffffffffffffffffffffffffff1663986e791a8a8a60405160200180807f53706563696d656e0000000000000000000000000000000000000000000000008152506008018373ffffffffffffffffffffffffffffffffffffffff1673ffffffffffffffffffffffffffffffffffffffff1660601b815260140182815260200192505050604051602081830303815290604052805190602001206040518263ffffffff1660e01b81526004018082815260200191505060006040518083038186803b1580156115e257600080fd5b505afa1580156115f6573d6000803e3d6000fd5b505050506040513d6000823e3d601f19601f82011682018060405250602081101561162057600080fd5b810190808051604051939291908464010000000082111561164057600080fd5b8382019150602082018581111561165657600080fd5b825186600182028301116401000000008211171561167357600080fd5b8083526020830192505050908051906020019080838360005b838110156116a757808201518184015260208101905061168c565b50505050905090810190601f1680156116d45780820380516001836020036101000a031916815260200191505b506040525050506106f7565b9550955095509550955095509295509295509295565b60003373ffffffffffffffffffffffffffffffffffffffff166000809054906101000a900473ffffffffffffffffffffffffffffffffffffffff1673ffffffffffffffffffffffffffffffffffffffff166321f8a72160405160200180807f636f6e74726163742e6164647265737300000000000000000000000000000000815250601001807f446567656e6963730000000000000000000000000000000000000000000000008152506008019050604051602081830303815290604052805190602001206040518263ffffffff1660e01b81526004018082815260200191505060206040518083038186803b1580156117ef57600080fd5b505afa158015611803573d6000803e3d6000fd5b505050506040513d602081101561181957600080fd5b810190808051906020019092919050505073ffffffffffffffffffffffffffffffffffffffff16146118b3576040517f08c379a00000000000000000000000000000000000000000000000000000000081526004018080602001828103825260178152602001807f4f6e6c792072656769737472656420636f6e747261637400000000000000000081525060200191505060405180910390fd5b6000809054906101000a900473ffffffffffffffffffffffffffffffffffffffff1673ffffffffffffffffffffffffffffffffffffffff1663bd02d0f58360405160200180807f53706563696d656e2e636f756e74000000000000000000000000000000000000815250600e018273ffffffffffffffffffffffffffffffffffffffff1673ffffffffffffffffffffffffffffffffffffffff1660601b8152601401915050604051602081830303815290604052805190602001206040518263ffffffff1660e01b81526004018082815260200191505060206040518083038186803b1580156119a257600080fd5b505afa1580156119b6573d6000803e3d6000fd5b505050506040513d60208110156119cc57600080fd5b81019080805190602001909291905050509050919050565b6000809054906101000a900473ffffffffffffffffffffffffffffffffffffffff1681565b60603373ffffffffffffffffffffffffffffffffffffffff166000809054906101000a900473ffffffffffffffffffffffffffffffffffffffff1673ffffffffffffffffffffffffffffffffffffffff166321f8a72160405160200180807f636f6e74726163742e6164647265737300000000000000000000000000000000815250601001807f446567656e6963730000000000000000000000000000000000000000000000008152506008019050604051602081830303815290604052805190602001206040518263ffffffff1660e01b81526004018082815260200191505060206040518083038186803b158015611b0257600080fd5b505afa158015611b16573d6000803e3d6000fd5b505050506040513d6020811015611b2c57600080fd5b810190808051906020019092919050505073ffffffffffffffffffffffffffffffffffffffff1614611bc6576040517f08c379a00000000000000000000000000000000000000000000000000000000081526004018080602001828103825260178152602001807f4f6e6c792072656769737472656420636f6e747261637400000000000000000081525060200191505060405180910390fd5b6060611c72834260405160200180807f53706563696d656e2e6e756d6265720000000000000000000000000000000000815250600f0183805190602001908083835b60208310611c2b5780518252602082019150602081019050602083039250611c08565b6001836020036101000a03801982511681845116808217855250505050505090500182815260200192505050604051602081830303815290604052805190602001206129f5565b90506003600081548092919060010191905055506000809054906101000a900473ffffffffffffffffffffffffffffffffffffffff1673ffffffffffffffffffffffffffffffffffffffff1663e2a4853a8260405160200180807f53706563696d656e2e726567697374657265640000000000000000000000000081525060130182805190602001908083835b60208310611d225780518252602082019150602081019050602083039250611cff565b6001836020036101000a03801982511681845116808217855250505050505090500191505060405160208183030381529060405280519060200120426040518363ffffffff1660e01b81526004018083815260200182815260200192505050600060405180830381600087803b158015611d9b57600080fd5b505af1158015611daf573d6000803e3d6000fd5b505050506000809054906101000a900473ffffffffffffffffffffffffffffffffffffffff1673ffffffffffffffffffffffffffffffffffffffff1663ca446dd98260405160200180807f53706563696d656e2e6f776e6572000000000000000000000000000000000000815250600e0182805190602001908083835b60208310611e4f5780518252602082019150602081019050602083039250611e2c565b6001836020036101000a03801982511681845116808217855250505050505090500191505060405160208183030381529060405280519060200120876040518363ffffffff1660e01b8152600401808381526020018273ffffffffffffffffffffffffffffffffffffffff1673ffffffffffffffffffffffffffffffffffffffff16815260200192505050600060405180830381600087803b158015611ef457600080fd5b505af1158015611f08573d6000803e3d6000fd5b505050506000809054906101000a900473ffffffffffffffffffffffffffffffffffffffff1673ffffffffffffffffffffffffffffffffffffffff1663ca446dd98260405160200180807f53706563696d656e2e6c61620000000000000000000000000000000000000000815250600c0182805190602001908083835b60208310611fa85780518252602082019150602081019050602083039250611f85565b6001836020036101000a03801982511681845116808217855250505050505090500191505060405160208183030381529060405280519060200120866040518363ffffffff1660e01b8152600401808381526020018273ffffffffffffffffffffffffffffffffffffffff1673ffffffffffffffffffffffffffffffffffffffff16815260200192505050600060405180830381600087803b15801561204d57600080fd5b505af1158015612061573d6000803e3d6000fd5b505050506000809054906101000a900473ffffffffffffffffffffffffffffffffffffffff1673ffffffffffffffffffffffffffffffffffffffff16636e8995508260405160200180807f53706563696d656e2e73657276696365436f646500000000000000000000000081525060140182805190602001908083835b6020831061210157805182526020820191506020810190506020830392506120de565b6001836020036101000a03801982511681845116808217855250505050505090500191505060405160208183030381529060405280519060200120856040518363ffffffff1660e01b81526004018083815260200180602001828103825283818151815260200191508051906020019080838360005b83811015612192578082015181840152602081019050612177565b50505050905090810190601f1680156121bf5780820380516001836020036101000a031916815260200191505b509350505050600060405180830381600087803b1580156121df57600080fd5b505af11580156121f3573d6000803e3d6000fd5b50505050600260009054906101000a900473ffffffffffffffffffffffffffffffffffffffff1673ffffffffffffffffffffffffffffffffffffffff1663c5590033826040518263ffffffff1660e01b8152600401808060200180602001838103835284818151815260200191508051906020019080838360005b8381101561228957808201518184015260208101905061226e565b50505050905090810190601f1680156122b65780820380516001836020036101000a031916815260200191505b50838103825260038152602001807f4e657700000000000000000000000000000000000000000000000000000000008152506020019350505050600060405180830381600087803b15801561230a57600080fd5b505af115801561231e573d6000803e3d6000fd5b505050506000809054906101000a900473ffffffffffffffffffffffffffffffffffffffff1673ffffffffffffffffffffffffffffffffffffffff16636e899550866000809054906101000a900473ffffffffffffffffffffffffffffffffffffffff1673ffffffffffffffffffffffffffffffffffffffff1663adb353dc8960405160200180807f53706563696d656e2e636f756e74000000000000000000000000000000000000815250600e018273ffffffffffffffffffffffffffffffffffffffff1673ffffffffffffffffffffffffffffffffffffffff1660601b81526014019150506040516020818303038152906040528051906020012060016040518363ffffffff1660e01b81526004018083815260200182815260200192505050602060405180830381600087803b15801561245a57600080fd5b505af115801561246e573d6000803e3d6000fd5b505050506040513d602081101561248457600080fd5b810190808051906020019092919050505060405160200180807f53706563696d656e0000000000000000000000000000000000000000000000008152506008018373ffffffffffffffffffffffffffffffffffffffff1673ffffffffffffffffffffffffffffffffffffffff1660601b81526014018281526020019250505060405160208183030381529060405280519060200120836040518363ffffffff1660e01b81526004018083815260200180602001828103825283818151815260200191508051906020019080838360005b8381101561256f578082015181840152602081019050612554565b50505050905090810190601f16801561259c5780820380516001836020036101000a031916815260200191505b509350505050600060405180830381600087803b1580156125bc57600080fd5b505af11580156125d0573d6000803e3d6000fd5b505050506000809054906101000a900473ffffffffffffffffffffffffffffffffffffffff1673ffffffffffffffffffffffffffffffffffffffff16636e899550856000809054906101000a900473ffffffffffffffffffffffffffffffffffffffff1673ffffffffffffffffffffffffffffffffffffffff1663adb353dc8860405160200180807f53706563696d656e2e636f756e74000000000000000000000000000000000000815250600e018273ffffffffffffffffffffffffffffffffffffffff1673ffffffffffffffffffffffffffffffffffffffff1660601b81526014019150506040516020818303038152906040528051906020012060016040518363ffffffff1660e01b81526004018083815260200182815260200192505050602060405180830381600087803b15801561270c57600080fd5b505af1158015612720573d6000803e3d6000fd5b505050506040513d602081101561273657600080fd5b810190808051906020019092919050505060405160200180807f53706563696d656e0000000000000000000000000000000000000000000000008152506008018373ffffffffffffffffffffffffffffffffffffffff1673ffffffffffffffffffffffffffffffffffffffff1660601b81526014018281526020019250505060405160208183030381529060405280519060200120836040518363ffffffff1660e01b81526004018083815260200180602001828103825283818151815260200191508051906020019080838360005b83811015612821578082015181840152602081019050612806565b50505050905090810190601f16801561284e5780820380516001836020036101000a031916815260200191505b509350505050600060405180830381600087803b15801561286e57600080fd5b505af1158015612882573d6000803e3d6000fd5b50505050600160009054906101000a900473ffffffffffffffffffffffffffffffffffffffff1673ffffffffffffffffffffffffffffffffffffffff1663f609cabd826040518263ffffffff1660e01b815260040180806020018060200180602001848103845285818151815260200191508051906020019080838360005b8381101561291c578082015181840152602081019050612901565b50505050905090810190601f1680156129495780820380516001836020036101000a031916815260200191505b50848103835260078152602001807f6372656174656400000000000000000000000000000000000000000000000000815250602001848103825260018152602001807f2d00000000000000000000000000000000000000000000000000000000000000815250602001945050505050600060405180830381600087803b1580156129d257600080fd5b505af11580156129e6573d6000803e3d6000fd5b50505050809150509392505050565b60608060006001905060008090505b818015612a11575060ff81105b15612b8a57612a1f85612d3b565b92506000809054906101000a900473ffffffffffffffffffffffffffffffffffffffff1673ffffffffffffffffffffffffffffffffffffffff16637ae1cfca8460405160200180807f53706563696d656e2e6e756d6265720000000000000000000000000000000000815250600f0182805190602001908083835b60208310612abd5780518252602082019150602081019050602083039250612a9a565b6001836020036101000a038019825116818451168082178552505050505050905001915050604051602081830303815290604052805190602001206040518263ffffffff1660e01b81526004018082815260200191505060206040518083038186803b158015612b2c57600080fd5b505afa158015612b40573d6000803e3d6000fd5b505050506040513d6020811015612b5657600080fd5b810190808051906020019092919050505015612b8057600185901c94508080600101915050612b85565b600091505b612a04565b8115612bfe576040517f08c379a00000000000000000000000000000000000000000000000000000000081526004018080602001828103825260158152602001807f63616e27742067656e6572617465206e756d626572000000000000000000000081525060200191505060405180910390fd5b6000809054906101000a900473ffffffffffffffffffffffffffffffffffffffff1673ffffffffffffffffffffffffffffffffffffffff1663abfdcced8460405160200180807f53706563696d656e2e6e756d6265720000000000000000000000000000000000815250600f0182805190602001908083835b60208310612c9a5780518252602082019150602081019050602083039250612c77565b6001836020036101000a0380198251168184511680821785525050505050509050019150506040516020818303038152906040528051906020012060016040518363ffffffff1660e01b8152600401808381526020018215151515815260200192505050600060405180830381600087803b158015612d1857600080fd5b505af1158015612d2c573d6000803e3d6000fd5b50505050829350505050919050565b606080604051806060016040528060228152602001612e7460229139905060608190506000601f60f81b85601f60208110612d7257fe5b1a60f81b1690506000600c9050600060018203905060608260ff166040519080825280601f01601f191660200182016040528015612dbf5781602001600182028038833980820191505090505b50905060008090505b8360ff16811015612e6457858560f81c60ff1681518110612de557fe5b602001015160f81c60f81b828460ff1681518110612dff57fe5b60200101907effffffffffffffffffffffffffffffffffffffffffffffffffffffffffffff1916908160001a905350600589901c9850601f60f81b89601f60208110612e4757fe5b1a60f81b1694508280600190039350508080600101915050612dc8565b5080965050505050505091905056fe3031323334353637383941424344454647484a4b4c4d4e4f5051525354555658595aa265627a7a72315820d9579eb1deb7951e9a607c7ca97fade23fcb7998a30048153742b7db502f5e7964736f6c63430005100032",
  "source": "pragma solidity ^0.5.16;\r\n\r\n\r\nimport \"./common/Base.sol\";\r\nimport \"./DegenicsLog.sol\";\r\nimport \"./SpecimenTracking.sol\";\r\n\r\ncontract Specimen is Base {\r\n\r\n    DegenicsLog degenicsLog;\r\n    SpecimenTracking specimenTracking;\r\n\r\n    uint private num = 0;\r\n\r\n    modifier onlyDegenicsContract() {\r\n        require(eternalStorage.getAddress(keccak256(abi.encodePacked(\"contract.address\", \"Degenics\"))) == msg.sender, \"Only registred contract\" );\r\n        _;\r\n    }\r\n\r\n    modifier onlyLab(string memory number){\r\n        require(roleHas(\"lab\", tx.origin) && \r\n            eternalStorage.getAddress(keccak256(abi.encodePacked( \"Specimen.lab\",number ))) == tx.origin,\r\n            \"Only lab\");\r\n        _;\r\n    }\r\n\r\n    modifier onlySpecimenOwner(string memory number){\r\n        require(eternalStorage.getAddress(keccak256(abi.encodePacked( \"Specimen.owner\",number ))) == tx.origin, \"Only Owner specimen\");\r\n        _;\r\n    }    \r\n    \r\n    constructor(address _storage, address _degenicsLog, address _specimenTracking ) public Base(_storage) {\r\n        degenicsLog = DegenicsLog(_degenicsLog);\r\n        specimenTracking = SpecimenTracking(_specimenTracking);\r\n    }   \r\n\r\n\r\n    function registerSpecimen(address ownerSpecimen, address labAccount, string memory serviceCode) public onlyDegenicsContract returns(string memory){\r\n        string memory number = getNumber(keccak256(abi.encodePacked(\"Specimen.number\", serviceCode, block.timestamp)));\r\n        num++;\r\n        eternalStorage.setUint(keccak256(abi.encodePacked( \"Specimen.registered\",number )),block.timestamp );\r\n        eternalStorage.setAddress(keccak256(abi.encodePacked( \"Specimen.owner\",number )),ownerSpecimen);\r\n        eternalStorage.setAddress(keccak256(abi.encodePacked( \"Specimen.lab\",number )),labAccount);\r\n        eternalStorage.setString(keccak256(abi.encodePacked( \"Specimen.serviceCode\",number )),serviceCode);\r\n        specimenTracking.setStatus(number, \"New\");\r\n        eternalStorage.setString(keccak256(abi.encodePacked(\"Specimen\",ownerSpecimen, \r\n            eternalStorage.addUint(keccak256(abi.encodePacked(\"Specimen.count\", ownerSpecimen)), 1))), number);\r\n        eternalStorage.setString(keccak256(abi.encodePacked(\"Specimen\",labAccount, \r\n            eternalStorage.addUint(keccak256(abi.encodePacked(\"Specimen.count\",labAccount)), 1))), number);\r\n        \r\n        degenicsLog.addSpecimenLog(number, \"created\", \"-\");\r\n        return number;  \r\n    }\r\n\r\n    function specimenCount(address sender) public view onlyDegenicsContract returns(uint){\r\n        return eternalStorage.getUint(keccak256(abi.encodePacked(\"Specimen.count\",sender)));\r\n    }\r\n\r\n    function specimenByNumber(string memory _number) public view onlyDegenicsContract returns(\r\n        string memory number, address owner, address labAccount, string memory serviceCode, \r\n        uint timestamp, string memory status){      \r\n        status =specimenTracking.getStatus(_number); \r\n        if(specimenTracking.checkStatus(_number, \"New\") && specimenTracking.checkPayment(_number)){\r\n            status = \"Paid\";\r\n        }\r\n        return(\r\n            _number,\r\n            eternalStorage.getAddress(keccak256(abi.encodePacked( \"Specimen.owner\",_number ))),\r\n            eternalStorage.getAddress(keccak256(abi.encodePacked( \"Specimen.lab\",_number ))),\r\n            eternalStorage.getString(keccak256(abi.encodePacked( \"Specimen.serviceCode\",_number ))),\r\n            eternalStorage.getUint(keccak256(abi.encodePacked( \"Specimen.registered\",_number ))),\r\n            status\r\n        );\r\n    }\r\n\r\n    function specimenByIndex(address sender, uint index) public view onlyDegenicsContract returns(\r\n         string memory number, address owner, address labAccount, string memory serviceCode, \r\n         uint timestamp, string memory status){        \r\n        \r\n        return specimenByNumber( eternalStorage.getString(keccak256(abi.encodePacked(\"Specimen\",sender, index ))));\r\n    }\r\n\r\n    function escrowBalance(string memory number) internal view returns(uint){\r\n        return (eternalStorage.getAddress(keccak256(abi.encodePacked(\"Specimen.escrow\", number)))).balance;\r\n    }\r\n\r\n    function getNumber(bytes32 seed) internal returns(string memory){\r\n        string memory res;\r\n        bool repeat = true;\r\n        uint i = 0;\r\n        while(repeat && (i < 255)){\r\n            res = generateNumber(seed);\r\n            if(eternalStorage.getBool(keccak256(abi.encodePacked(\"Specimen.number\", res)))) {\r\n                seed = seed>>1;\r\n                i++;\r\n            } else repeat = false;            \r\n        }\r\n        require(!repeat, \"can't generate number\");\r\n        eternalStorage.setBool(keccak256(abi.encodePacked(\"Specimen.number\", res)), true);\r\n        return res;\r\n    }\r\n\r\n    function generateNumber(bytes32 val) internal view returns(string memory){\r\n        string memory letters = \"0123456789ABCDEFGHJKLMNOPQRSTUVXYZ\";\r\n        bytes memory alphabet = bytes(letters);\r\n        byte temp = val[31] & 0x1f;\r\n        uint8 len = 12;\r\n        uint8 j = len -1;\r\n        bytes memory result = new bytes(len);\r\n        for(uint i = 0; i < len; i++) {\r\n            result[j] = alphabet[uint8(temp)];\r\n            val = val>>5;\r\n            temp = val[31] & 0x1f;\r\n            j--;\r\n        }\r\n        return string(result);\r\n    }\r\n\r\n\r\n}\r\n\r\n//97J05EE1B531",
  "sourcePath": "D:\\projects\\degenics\\degenics-smart-contract\\contracts\\Specimen.sol",
  "compiler": {
    "name": "solc",
    "version": "0.5.16+commit.9c3226ce.Emscripten.clang"
  },
  "schemaVersion": "3.0.23",
  "updatedAt": "2021-01-17T15:21:11.659Z",
  "networkType": "ethereum",
  "devdoc": {
    "methods": {}
  },
  "userdoc": {
    "methods": {}
  }
}