{
  "contractName": "SpecimenTracking",
  "abi": [
    {
      "inputs": [
        {
          "internalType": "address",
          "name": "_storage",
          "type": "address"
        },
        {
          "internalType": "address",
          "name": "_degenicsLog",
          "type": "address"
        }
      ],
      "payable": false,
      "stateMutability": "nonpayable",
      "type": "constructor"
    },
    {
      "constant": true,
      "inputs": [],
      "name": "eternalStorage",
      "outputs": [
        {
          "internalType": "contract EternalStorageInterface",
          "name": "",
          "type": "address"
        }
      ],
      "payable": false,
      "stateMutability": "view",
      "type": "function"
    },
    {
      "constant": false,
      "inputs": [
        {
          "internalType": "string",
          "name": "number",
          "type": "string"
        },
        {
          "internalType": "string",
          "name": "remark",
          "type": "string"
        }
      ],
      "name": "sendSpecimen",
      "outputs": [],
      "payable": false,
      "stateMutability": "nonpayable",
      "type": "function"
    },
    {
      "constant": false,
      "inputs": [
        {
          "internalType": "string",
          "name": "number",
          "type": "string"
        },
        {
          "internalType": "string",
          "name": "remark",
          "type": "string"
        }
      ],
      "name": "receiveSpecimen",
      "outputs": [],
      "payable": false,
      "stateMutability": "nonpayable",
      "type": "function"
    },
    {
      "constant": false,
      "inputs": [
        {
          "internalType": "string",
          "name": "number",
          "type": "string"
        },
        {
          "internalType": "string",
          "name": "remark",
          "type": "string"
        }
      ],
      "name": "rejectSpecimen",
      "outputs": [],
      "payable": false,
      "stateMutability": "nonpayable",
      "type": "function"
    },
    {
      "constant": false,
      "inputs": [
        {
          "internalType": "string",
          "name": "number",
          "type": "string"
        },
        {
          "internalType": "string",
          "name": "file",
          "type": "string"
        },
        {
          "internalType": "string",
          "name": "remark",
          "type": "string"
        }
      ],
      "name": "analysisSucces",
      "outputs": [],
      "payable": false,
      "stateMutability": "nonpayable",
      "type": "function"
    },
    {
      "constant": false,
      "inputs": [
        {
          "internalType": "string",
          "name": "number",
          "type": "string"
        }
      ],
      "name": "refund",
      "outputs": [],
      "payable": false,
      "stateMutability": "nonpayable",
      "type": "function"
    },
    {
      "constant": false,
      "inputs": [
        {
          "internalType": "string",
          "name": "number",
          "type": "string"
        },
        {
          "internalType": "uint256",
          "name": "_index",
          "type": "uint256"
        }
      ],
      "name": "logByIndex",
      "outputs": [
        {
          "internalType": "uint256",
          "name": "index",
          "type": "uint256"
        },
        {
          "internalType": "uint256",
          "name": "time",
          "type": "uint256"
        },
        {
          "internalType": "string",
          "name": "logType",
          "type": "string"
        },
        {
          "internalType": "string",
          "name": "log",
          "type": "string"
        }
      ],
      "payable": false,
      "stateMutability": "nonpayable",
      "type": "function"
    },
    {
      "constant": false,
      "inputs": [
        {
          "internalType": "string",
          "name": "number",
          "type": "string"
        },
        {
          "internalType": "string",
          "name": "status",
          "type": "string"
        }
      ],
      "name": "setStatus",
      "outputs": [],
      "payable": false,
      "stateMutability": "nonpayable",
      "type": "function"
    },
    {
      "constant": true,
      "inputs": [
        {
          "internalType": "string",
          "name": "number",
          "type": "string"
        }
      ],
      "name": "getStatus",
      "outputs": [
        {
          "internalType": "string",
          "name": "",
          "type": "string"
        }
      ],
      "payable": false,
      "stateMutability": "view",
      "type": "function"
    },
    {
      "constant": true,
      "inputs": [
        {
          "internalType": "string",
          "name": "number",
          "type": "string"
        },
        {
          "internalType": "string",
          "name": "status",
          "type": "string"
        }
      ],
      "name": "checkStatus",
      "outputs": [
        {
          "internalType": "bool",
          "name": "",
          "type": "bool"
        }
      ],
      "payable": false,
      "stateMutability": "view",
      "type": "function"
    },
    {
      "constant": true,
      "inputs": [
        {
          "internalType": "string",
          "name": "number",
          "type": "string"
        }
      ],
      "name": "getFile",
      "outputs": [
        {
          "internalType": "string",
          "name": "file",
          "type": "string"
        }
      ],
      "payable": false,
      "stateMutability": "view",
      "type": "function"
    },
    {
      "constant": true,
      "inputs": [
        {
          "internalType": "string",
          "name": "number",
          "type": "string"
        }
      ],
      "name": "checkPayment",
      "outputs": [
        {
          "internalType": "bool",
          "name": "",
          "type": "bool"
        }
      ],
      "payable": false,
      "stateMutability": "view",
      "type": "function"
    }
  ],
  "bytecode": "0x608060405260008060006101000a81548173ffffffffffffffffffffffffffffffffffffffff021916908373ffffffffffffffffffffffffffffffffffffffff1602179055503480156200005257600080fd5b5060405162005e3238038062005e32833981810160405260408110156200007857600080fd5b81019080805190602001909291908051906020019092919050505081806000806101000a81548173ffffffffffffffffffffffffffffffffffffffff021916908373ffffffffffffffffffffffffffffffffffffffff1602179055505080600160006101000a81548173ffffffffffffffffffffffffffffffffffffffff021916908373ffffffffffffffffffffffffffffffffffffffff1602179055505050615d0a80620001286000396000f3fe608060405234801561001057600080fd5b50600436106100b45760003560e01c8063c559003311610071578063c55900331461077e578063ca15e24a146108d0578063dddae88414610ab9578063e0876aa814610c0b578063ed3468f714610d3f578063fe5f2e8814610e91576100b4565b806322b05ed2146100b957806363a88bcf146101ed57806394837cea1461035757806398ff9c541461042a5780639cd8f25614610474578063a2ed91e2146105c6575b600080fd5b610172600480360360208110156100cf57600080fd5b81019080803590602001906401000000008111156100ec57600080fd5b8201836020820111156100fe57600080fd5b8035906020019184600183028401116401000000008311171561012057600080fd5b91908080601f016020809104026020016040519081016040528093929190818152602001838380828437600081840152601f19601f820116905080830192505050505050509192919290505050610f4c565b6040518080602001828103825283818151815260200191508051906020019080838360005b838110156101b2578082015181840152602081019050610197565b50505050905090810190601f1680156101df5780820380516001836020036101000a031916815260200191505b509250505060405180910390f35b61033d6004803603604081101561020357600080fd5b810190808035906020019064010000000081111561022057600080fd5b82018360208201111561023257600080fd5b8035906020019184600183028401116401000000008311171561025457600080fd5b91908080601f016020809104026020016040519081016040528093929190818152602001838380828437600081840152601f19601f820116905080830192505050505050509192919290803590602001906401000000008111156102b757600080fd5b8201836020820111156102c957600080fd5b803590602001918460018302840111640100000000831117156102eb57600080fd5b91908080601f016020809104026020016040519081016040528093929190818152602001838380828437600081840152601f19601f820116905080830192505050505050509192919290505050611464565b604051808215151515815260200191505060405180910390f35b6104106004803603602081101561036d57600080fd5b810190808035906020019064010000000081111561038a57600080fd5b82018360208201111561039c57600080fd5b803590602001918460018302840111640100000000831117156103be57600080fd5b91908080601f016020809104026020016040519081016040528093929190818152602001838380828437600081840152601f19601f82011690508083019250505050505050919291929050505061178b565b604051808215151515815260200191505060405180910390f35b610432611ab3565b604051808273ffffffffffffffffffffffffffffffffffffffff1673ffffffffffffffffffffffffffffffffffffffff16815260200191505060405180910390f35b6105c46004803603604081101561048a57600080fd5b81019080803590602001906401000000008111156104a757600080fd5b8201836020820111156104b957600080fd5b803590602001918460018302840111640100000000831117156104db57600080fd5b91908080601f016020809104026020016040519081016040528093929190818152602001838380828437600081840152601f19601f8201169050808301925050505050505091929192908035906020019064010000000081111561053e57600080fd5b82018360208201111561055057600080fd5b8035906020019184600183028401116401000000008311171561057257600080fd5b91908080601f016020809104026020016040519081016040528093929190818152602001838380828437600081840152601f19601f820116905080830192505050505050509192919290505050611ad8565b005b610689600480360360408110156105dc57600080fd5b81019080803590602001906401000000008111156105f957600080fd5b82018360208201111561060b57600080fd5b8035906020019184600183028401116401000000008311171561062d57600080fd5b91908080601f016020809104026020016040519081016040528093929190818152602001838380828437600081840152601f19601f82011690508083019250505050505050919291929080359060200190929190505050612268565b604051808581526020018481526020018060200180602001838103835285818151815260200191508051906020019080838360005b838110156106d95780820151818401526020810190506106be565b50505050905090810190601f1680156107065780820380516001836020036101000a031916815260200191505b50838103825284818151815260200191508051906020019080838360005b8381101561073f578082015181840152602081019050610724565b50505050905090810190601f16801561076c5780820380516001836020036101000a031916815260200191505b50965050505050505060405180910390f35b6108ce6004803603604081101561079457600080fd5b81019080803590602001906401000000008111156107b157600080fd5b8201836020820111156107c357600080fd5b803590602001918460018302840111640100000000831117156107e557600080fd5b91908080601f016020809104026020016040519081016040528093929190818152602001838380828437600081840152601f19601f8201169050808301925050505050505091929192908035906020019064010000000081111561084857600080fd5b82018360208201111561085a57600080fd5b8035906020019184600183028401116401000000008311171561087c57600080fd5b91908080601f016020809104026020016040519081016040528093929190818152602001838380828437600081840152601f19601f82011690508083019250505050505050919291929050505061282e565b005b610ab7600480360360608110156108e657600080fd5b810190808035906020019064010000000081111561090357600080fd5b82018360208201111561091557600080fd5b8035906020019184600183028401116401000000008311171561093757600080fd5b91908080601f016020809104026020016040519081016040528093929190818152602001838380828437600081840152601f19601f8201169050808301925050505050505091929192908035906020019064010000000081111561099a57600080fd5b8201836020820111156109ac57600080fd5b803590602001918460018302840111640100000000831117156109ce57600080fd5b91908080601f016020809104026020016040519081016040528093929190818152602001838380828437600081840152601f19601f82011690508083019250505050505050919291929080359060200190640100000000811115610a3157600080fd5b820183602082011115610a4357600080fd5b80359060200191846001830284011164010000000083111715610a6557600080fd5b91908080601f016020809104026020016040519081016040528093929190818152602001838380828437600081840152601f19601f820116905080830192505050505050509192919290505050612ccf565b005b610c0960048036036040811015610acf57600080fd5b8101908080359060200190640100000000811115610aec57600080fd5b820183602082011115610afe57600080fd5b80359060200191846001830284011164010000000083111715610b2057600080fd5b91908080601f016020809104026020016040519081016040528093929190818152602001838380828437600081840152601f19601f82011690508083019250505050505050919291929080359060200190640100000000811115610b8357600080fd5b820183602082011115610b9557600080fd5b80359060200191846001830284011164010000000083111715610bb757600080fd5b91908080601f016020809104026020016040519081016040528093929190818152602001838380828437600081840152601f19601f8201169050808301925050505050505091929192905050506135e1565b005b610cc460048036036020811015610c2157600080fd5b8101908080359060200190640100000000811115610c3e57600080fd5b820183602082011115610c5057600080fd5b80359060200191846001830284011164010000000083111715610c7257600080fd5b91908080601f016020809104026020016040519081016040528093929190818152602001838380828437600081840152601f19601f820116905080830192505050505050509192919290505050613dfd565b6040518080602001828103825283818151815260200191508051906020019080838360005b83811015610d04578082015181840152602081019050610ce9565b50505050905090810190601f168015610d315780820380516001836020036101000a031916815260200191505b509250505060405180910390f35b610e8f60048036036040811015610d5557600080fd5b8101908080359060200190640100000000811115610d7257600080fd5b820183602082011115610d8457600080fd5b80359060200191846001830284011164010000000083111715610da657600080fd5b91908080601f016020809104026020016040519081016040528093929190818152602001838380828437600081840152601f19601f82011690508083019250505050505050919291929080359060200190640100000000811115610e0957600080fd5b820183602082011115610e1b57600080fd5b80359060200191846001830284011164010000000083111715610e3d57600080fd5b91908080601f016020809104026020016040519081016040528093929190818152602001838380828437600081840152601f19601f820116905080830192505050505050509192919290505050614676565b005b610f4a60048036036020811015610ea757600080fd5b8101908080359060200190640100000000811115610ec457600080fd5b820183602082011115610ed657600080fd5b80359060200191846001830284011164010000000083111715610ef857600080fd5b91908080601f016020809104026020016040519081016040528093929190818152602001838380828437600081840152601f19601f820116905080830192505050505050509192919290505050614e4c565b005b60603373ffffffffffffffffffffffffffffffffffffffff166000809054906101000a900473ffffffffffffffffffffffffffffffffffffffff1673ffffffffffffffffffffffffffffffffffffffff166321f8a72160405160200180807f636f6e74726163742e6164647265737300000000000000000000000000000000815250601001807f446567656e6963730000000000000000000000000000000000000000000000008152506008019050604051602081830303815290604052805190602001206040518263ffffffff1660e01b81526004018082815260200191505060206040518083038186803b15801561104557600080fd5b505afa158015611059573d6000803e3d6000fd5b505050506040513d602081101561106f57600080fd5b810190808051906020019092919050505073ffffffffffffffffffffffffffffffffffffffff1614806111e757503373ffffffffffffffffffffffffffffffffffffffff166000809054906101000a900473ffffffffffffffffffffffffffffffffffffffff1673ffffffffffffffffffffffffffffffffffffffff166321f8a72160405160200180807f636f6e74726163742e6164647265737300000000000000000000000000000000815250601001807f53706563696d656e0000000000000000000000000000000000000000000000008152506008019050604051602081830303815290604052805190602001206040518263ffffffff1660e01b81526004018082815260200191505060206040518083038186803b15801561119457600080fd5b505afa1580156111a8573d6000803e3d6000fd5b505050506040513d60208110156111be57600080fd5b810190808051906020019092919050505073ffffffffffffffffffffffffffffffffffffffff16145b611259576040517f08c379a00000000000000000000000000000000000000000000000000000000081526004018080602001828103825260178152602001807f4f6e6c792072656769737472656420636f6e747261637400000000000000000081525060200191505060405180910390fd5b6000809054906101000a900473ffffffffffffffffffffffffffffffffffffffff1673ffffffffffffffffffffffffffffffffffffffff1663986e791a8360405160200180807f53706563696d656e2e7374617475730000000000000000000000000000000000815250600f0182805190602001908083835b602083106112f557805182526020820191506020810190506020830392506112d2565b6001836020036101000a038019825116818451168082178552505050505050905001915050604051602081830303815290604052805190602001206040518263ffffffff1660e01b81526004018082815260200191505060006040518083038186803b15801561136457600080fd5b505afa158015611378573d6000803e3d6000fd5b505050506040513d6000823e3d601f19601f8201168201806040525060208110156113a257600080fd5b81019080805160405193929190846401000000008211156113c257600080fd5b838201915060208201858111156113d857600080fd5b82518660018202830111640100000000821117156113f557600080fd5b8083526020830192505050908051906020019080838360005b8381101561142957808201518184015260208101905061140e565b50505050905090810190601f1680156114565780820380516001836020036101000a031916815260200191505b506040525050509050919050565b60003373ffffffffffffffffffffffffffffffffffffffff166000809054906101000a900473ffffffffffffffffffffffffffffffffffffffff1673ffffffffffffffffffffffffffffffffffffffff166321f8a72160405160200180807f636f6e74726163742e6164647265737300000000000000000000000000000000815250601001807f446567656e6963730000000000000000000000000000000000000000000000008152506008019050604051602081830303815290604052805190602001206040518263ffffffff1660e01b81526004018082815260200191505060206040518083038186803b15801561155d57600080fd5b505afa158015611571573d6000803e3d6000fd5b505050506040513d602081101561158757600080fd5b810190808051906020019092919050505073ffffffffffffffffffffffffffffffffffffffff1614806116ff57503373ffffffffffffffffffffffffffffffffffffffff166000809054906101000a900473ffffffffffffffffffffffffffffffffffffffff1673ffffffffffffffffffffffffffffffffffffffff166321f8a72160405160200180807f636f6e74726163742e6164647265737300000000000000000000000000000000815250601001807f53706563696d656e0000000000000000000000000000000000000000000000008152506008019050604051602081830303815290604052805190602001206040518263ffffffff1660e01b81526004018082815260200191505060206040518083038186803b1580156116ac57600080fd5b505afa1580156116c0573d6000803e3d6000fd5b505050506040513d60208110156116d657600080fd5b810190808051906020019092919050505073ffffffffffffffffffffffffffffffffffffffff16145b611771576040517f08c379a00000000000000000000000000000000000000000000000000000000081526004018080602001828103825260178152602001807f4f6e6c792072656769737472656420636f6e747261637400000000000000000081525060200191505060405180910390fd5b61178361177d84610f4c565b83615581565b905092915050565b60003373ffffffffffffffffffffffffffffffffffffffff166000809054906101000a900473ffffffffffffffffffffffffffffffffffffffff1673ffffffffffffffffffffffffffffffffffffffff166321f8a72160405160200180807f636f6e74726163742e6164647265737300000000000000000000000000000000815250601001807f446567656e6963730000000000000000000000000000000000000000000000008152506008019050604051602081830303815290604052805190602001206040518263ffffffff1660e01b81526004018082815260200191505060206040518083038186803b15801561188457600080fd5b505afa158015611898573d6000803e3d6000fd5b505050506040513d60208110156118ae57600080fd5b810190808051906020019092919050505073ffffffffffffffffffffffffffffffffffffffff161480611a2657503373ffffffffffffffffffffffffffffffffffffffff166000809054906101000a900473ffffffffffffffffffffffffffffffffffffffff1673ffffffffffffffffffffffffffffffffffffffff166321f8a72160405160200180807f636f6e74726163742e6164647265737300000000000000000000000000000000815250601001807f53706563696d656e0000000000000000000000000000000000000000000000008152506008019050604051602081830303815290604052805190602001206040518263ffffffff1660e01b81526004018082815260200191505060206040518083038186803b1580156119d357600080fd5b505afa1580156119e7573d6000803e3d6000fd5b505050506040513d60208110156119fd57600080fd5b810190808051906020019092919050505073ffffffffffffffffffffffffffffffffffffffff16145b611a98576040517f08c379a00000000000000000000000000000000000000000000000000000000081526004018080602001828103825260178152602001807f4f6e6c792072656769737472656420636f6e747261637400000000000000000081525060200191505060405180910390fd5b611aa182615670565b611aaa83615b3e565b10159050919050565b6000809054906101000a900473ffffffffffffffffffffffffffffffffffffffff1681565b3373ffffffffffffffffffffffffffffffffffffffff166000809054906101000a900473ffffffffffffffffffffffffffffffffffffffff1673ffffffffffffffffffffffffffffffffffffffff166321f8a72160405160200180807f636f6e74726163742e6164647265737300000000000000000000000000000000815250601001807f446567656e6963730000000000000000000000000000000000000000000000008152506008019050604051602081830303815290604052805190602001206040518263ffffffff1660e01b81526004018082815260200191505060206040518083038186803b158015611bcf57600080fd5b505afa158015611be3573d6000803e3d6000fd5b505050506040513d6020811015611bf957600080fd5b810190808051906020019092919050505073ffffffffffffffffffffffffffffffffffffffff161480611d7157503373ffffffffffffffffffffffffffffffffffffffff166000809054906101000a900473ffffffffffffffffffffffffffffffffffffffff1673ffffffffffffffffffffffffffffffffffffffff166321f8a72160405160200180807f636f6e74726163742e6164647265737300000000000000000000000000000000815250601001807f53706563696d656e0000000000000000000000000000000000000000000000008152506008019050604051602081830303815290604052805190602001206040518263ffffffff1660e01b81526004018082815260200191505060206040518083038186803b158015611d1e57600080fd5b505afa158015611d32573d6000803e3d6000fd5b505050506040513d6020811015611d4857600080fd5b810190808051906020019092919050505073ffffffffffffffffffffffffffffffffffffffff16145b611de3576040517f08c379a00000000000000000000000000000000000000000000000000000000081526004018080602001828103825260178152602001807f4f6e6c792072656769737472656420636f6e747261637400000000000000000081525060200191505060405180910390fd5b813273ffffffffffffffffffffffffffffffffffffffff166000809054906101000a900473ffffffffffffffffffffffffffffffffffffffff1673ffffffffffffffffffffffffffffffffffffffff166321f8a7218360405160200180807f53706563696d656e2e6f776e6572000000000000000000000000000000000000815250600e0182805190602001908083835b60208310611e975780518252602082019150602081019050602083039250611e74565b6001836020036101000a038019825116818451168082178552505050505050905001915050604051602081830303815290604052805190602001206040518263ffffffff1660e01b81526004018082815260200191505060206040518083038186803b158015611f0657600080fd5b505afa158015611f1a573d6000803e3d6000fd5b505050506040513d6020811015611f3057600080fd5b810190808051906020019092919050505073ffffffffffffffffffffffffffffffffffffffff1614611fca576040517f08c379a00000000000000000000000000000000000000000000000000000000081526004018080602001828103825260138152602001807f4f6e6c79204f776e65722073706563696d656e0000000000000000000000000081525060200191505060405180910390fd5b612009836040518060400160405280600381526020017f4e65770000000000000000000000000000000000000000000000000000000000815250611464565b801561201a57506120198361178b565b5b61208c576040517f08c379a000000000000000000000000000000000000000000000000000000000815260040180806020018281038252600e8152602001807f4f6e6c792070616964207465737400000000000000000000000000000000000081525060200191505060405180910390fd5b6120cb836040518060400160405280600781526020017f53656e64696e670000000000000000000000000000000000000000000000000081525061282e565b600160009054906101000a900473ffffffffffffffffffffffffffffffffffffffff1673ffffffffffffffffffffffffffffffffffffffff1663f609cabd84846040518363ffffffff1660e01b815260040180806020018060200180602001848103845286818151815260200191508051906020019080838360005b83811015612162578082015181840152602081019050612147565b50505050905090810190601f16801561218f5780820380516001836020036101000a031916815260200191505b50848103835260048152602001807f73656e6400000000000000000000000000000000000000000000000000000000815250602001848103825285818151815260200191508051906020019080838360005b838110156121fc5780820151818401526020810190506121e1565b50505050905090810190601f1680156122295780820380516001836020036101000a031916815260200191505b5095505050505050600060405180830381600087803b15801561224b57600080fd5b505af115801561225f573d6000803e3d6000fd5b50505050505050565b6000806060803373ffffffffffffffffffffffffffffffffffffffff166000809054906101000a900473ffffffffffffffffffffffffffffffffffffffff1673ffffffffffffffffffffffffffffffffffffffff166321f8a72160405160200180807f636f6e74726163742e6164647265737300000000000000000000000000000000815250601001807f446567656e6963730000000000000000000000000000000000000000000000008152506008019050604051602081830303815290604052805190602001206040518263ffffffff1660e01b81526004018082815260200191505060206040518083038186803b15801561236557600080fd5b505afa158015612379573d6000803e3d6000fd5b505050506040513d602081101561238f57600080fd5b810190808051906020019092919050505073ffffffffffffffffffffffffffffffffffffffff16148061250757503373ffffffffffffffffffffffffffffffffffffffff166000809054906101000a900473ffffffffffffffffffffffffffffffffffffffff1673ffffffffffffffffffffffffffffffffffffffff166321f8a72160405160200180807f636f6e74726163742e6164647265737300000000000000000000000000000000815250601001807f53706563696d656e0000000000000000000000000000000000000000000000008152506008019050604051602081830303815290604052805190602001206040518263ffffffff1660e01b81526004018082815260200191505060206040518083038186803b1580156124b457600080fd5b505afa1580156124c8573d6000803e3d6000fd5b505050506040513d60208110156124de57600080fd5b810190808051906020019092919050505073ffffffffffffffffffffffffffffffffffffffff16145b612579576040517f08c379a00000000000000000000000000000000000000000000000000000000081526004018080602001828103825260178152602001807f4f6e6c792072656769737472656420636f6e747261637400000000000000000081525060200191505060405180910390fd5b600160009054906101000a900473ffffffffffffffffffffffffffffffffffffffff1673ffffffffffffffffffffffffffffffffffffffff16630e2eb2a187876040518363ffffffff1660e01b81526004018080602001838152602001828103825284818151815260200191508051906020019080838360005b8381101561260e5780820151818401526020810190506125f3565b50505050905090810190601f16801561263b5780820380516001836020036101000a031916815260200191505b50935050505060006040518083038186803b15801561265957600080fd5b505afa15801561266d573d6000803e3d6000fd5b505050506040513d6000823e3d601f19601f82011682018060405250608081101561269757600080fd5b810190808051906020019092919080519060200190929190805160405193929190846401000000008211156126cb57600080fd5b838201915060208201858111156126e157600080fd5b82518660018202830111640100000000821117156126fe57600080fd5b8083526020830192505050908051906020019080838360005b83811015612732578082015181840152602081019050612717565b50505050905090810190601f16801561275f5780820380516001836020036101000a031916815260200191505b506040526020018051604051939291908464010000000082111561278257600080fd5b8382019150602082018581111561279857600080fd5b82518660018202830111640100000000821117156127b557600080fd5b8083526020830192505050908051906020019080838360005b838110156127e95780820151818401526020810190506127ce565b50505050905090810190601f1680156128165780820380516001836020036101000a031916815260200191505b50604052505050935093509350935092959194509250565b3373ffffffffffffffffffffffffffffffffffffffff166000809054906101000a900473ffffffffffffffffffffffffffffffffffffffff1673ffffffffffffffffffffffffffffffffffffffff166321f8a72160405160200180807f636f6e74726163742e6164647265737300000000000000000000000000000000815250601001807f446567656e6963730000000000000000000000000000000000000000000000008152506008019050604051602081830303815290604052805190602001206040518263ffffffff1660e01b81526004018082815260200191505060206040518083038186803b15801561292557600080fd5b505afa158015612939573d6000803e3d6000fd5b505050506040513d602081101561294f57600080fd5b810190808051906020019092919050505073ffffffffffffffffffffffffffffffffffffffff161480612ac757503373ffffffffffffffffffffffffffffffffffffffff166000809054906101000a900473ffffffffffffffffffffffffffffffffffffffff1673ffffffffffffffffffffffffffffffffffffffff166321f8a72160405160200180807f636f6e74726163742e6164647265737300000000000000000000000000000000815250601001807f53706563696d656e0000000000000000000000000000000000000000000000008152506008019050604051602081830303815290604052805190602001206040518263ffffffff1660e01b81526004018082815260200191505060206040518083038186803b158015612a7457600080fd5b505afa158015612a88573d6000803e3d6000fd5b505050506040513d6020811015612a9e57600080fd5b810190808051906020019092919050505073ffffffffffffffffffffffffffffffffffffffff16145b612b39576040517f08c379a00000000000000000000000000000000000000000000000000000000081526004018080602001828103825260178152602001807f4f6e6c792072656769737472656420636f6e747261637400000000000000000081525060200191505060405180910390fd5b6000809054906101000a900473ffffffffffffffffffffffffffffffffffffffff1673ffffffffffffffffffffffffffffffffffffffff16636e8995508360405160200180807f53706563696d656e2e7374617475730000000000000000000000000000000000815250600f0182805190602001908083835b60208310612bd55780518252602082019150602081019050602083039250612bb2565b6001836020036101000a03801982511681845116808217855250505050505090500191505060405160208183030381529060405280519060200120836040518363ffffffff1660e01b81526004018083815260200180602001828103825283818151815260200191508051906020019080838360005b83811015612c66578082015181840152602081019050612c4b565b50505050905090810190601f168015612c935780820380516001836020036101000a031916815260200191505b509350505050600060405180830381600087803b158015612cb357600080fd5b505af1158015612cc7573d6000803e3d6000fd5b505050505050565b3373ffffffffffffffffffffffffffffffffffffffff166000809054906101000a900473ffffffffffffffffffffffffffffffffffffffff1673ffffffffffffffffffffffffffffffffffffffff166321f8a72160405160200180807f636f6e74726163742e6164647265737300000000000000000000000000000000815250601001807f446567656e6963730000000000000000000000000000000000000000000000008152506008019050604051602081830303815290604052805190602001206040518263ffffffff1660e01b81526004018082815260200191505060206040518083038186803b158015612dc657600080fd5b505afa158015612dda573d6000803e3d6000fd5b505050506040513d6020811015612df057600080fd5b810190808051906020019092919050505073ffffffffffffffffffffffffffffffffffffffff161480612f6857503373ffffffffffffffffffffffffffffffffffffffff166000809054906101000a900473ffffffffffffffffffffffffffffffffffffffff1673ffffffffffffffffffffffffffffffffffffffff166321f8a72160405160200180807f636f6e74726163742e6164647265737300000000000000000000000000000000815250601001807f53706563696d656e0000000000000000000000000000000000000000000000008152506008019050604051602081830303815290604052805190602001206040518263ffffffff1660e01b81526004018082815260200191505060206040518083038186803b158015612f1557600080fd5b505afa158015612f29573d6000803e3d6000fd5b505050506040513d6020811015612f3f57600080fd5b810190808051906020019092919050505073ffffffffffffffffffffffffffffffffffffffff16145b612fda576040517f08c379a00000000000000000000000000000000000000000000000000000000081526004018080602001828103825260178152602001807f4f6e6c792072656769737472656420636f6e747261637400000000000000000081525060200191505060405180910390fd5b823273ffffffffffffffffffffffffffffffffffffffff166000809054906101000a900473ffffffffffffffffffffffffffffffffffffffff1673ffffffffffffffffffffffffffffffffffffffff166321f8a7218360405160200180807f53706563696d656e2e6c61620000000000000000000000000000000000000000815250600c0182805190602001908083835b6020831061308e578051825260208201915060208101905060208303925061306b565b6001836020036101000a038019825116818451168082178552505050505050905001915050604051602081830303815290604052805190602001206040518263ffffffff1660e01b81526004018082815260200191505060206040518083038186803b1580156130fd57600080fd5b505afa158015613111573d6000803e3d6000fd5b505050506040513d602081101561312757600080fd5b810190808051906020019092919050505073ffffffffffffffffffffffffffffffffffffffff16146131c1576040517f08c379a00000000000000000000000000000000000000000000000000000000081526004018080602001828103825260088152602001807f4f6e6c79206c616200000000000000000000000000000000000000000000000081525060200191505060405180910390fd5b613200846040518060400160405280600881526020017f5265636569766564000000000000000000000000000000000000000000000000815250611464565b613272576040517f08c379a00000000000000000000000000000000000000000000000000000000081526004018080602001828103825260168152602001807f4f6e6c792052656365697665642073706563696d656e0000000000000000000081525060200191505060405180910390fd5b6132b1846040518060400160405280600781526020017f537563636573730000000000000000000000000000000000000000000000000081525061282e565b600160009054906101000a900473ffffffffffffffffffffffffffffffffffffffff1673ffffffffffffffffffffffffffffffffffffffff1663f609cabd85846040518363ffffffff1660e01b815260040180806020018060200180602001848103845286818151815260200191508051906020019080838360005b8381101561334857808201518184015260208101905061332d565b50505050905090810190601f1680156133755780820380516001836020036101000a031916815260200191505b50848103835260078152602001807f7375636365737300000000000000000000000000000000000000000000000000815250602001848103825285818151815260200191508051906020019080838360005b838110156133e25780820151818401526020810190506133c7565b50505050905090810190601f16801561340f5780820380516001836020036101000a031916815260200191505b5095505050505050600060405180830381600087803b15801561343157600080fd5b505af1158015613445573d6000803e3d6000fd5b505050506000809054906101000a900473ffffffffffffffffffffffffffffffffffffffff1673ffffffffffffffffffffffffffffffffffffffff16636e8995508560405160200180807f53706563696d656e2e66696c6500000000000000000000000000000000000000815250600d0182805190602001908083835b602083106134e557805182526020820191506020810190506020830392506134c2565b6001836020036101000a03801982511681845116808217855250505050505090500191505060405160208183030381529060405280519060200120856040518363ffffffff1660e01b81526004018083815260200180602001828103825283818151815260200191508051906020019080838360005b8381101561357657808201518184015260208101905061355b565b50505050905090810190601f1680156135a35780820380516001836020036101000a031916815260200191505b509350505050600060405180830381600087803b1580156135c357600080fd5b505af11580156135d7573d6000803e3d6000fd5b5050505050505050565b3373ffffffffffffffffffffffffffffffffffffffff166000809054906101000a900473ffffffffffffffffffffffffffffffffffffffff1673ffffffffffffffffffffffffffffffffffffffff166321f8a72160405160200180807f636f6e74726163742e6164647265737300000000000000000000000000000000815250601001807f446567656e6963730000000000000000000000000000000000000000000000008152506008019050604051602081830303815290604052805190602001206040518263ffffffff1660e01b81526004018082815260200191505060206040518083038186803b1580156136d857600080fd5b505afa1580156136ec573d6000803e3d6000fd5b505050506040513d602081101561370257600080fd5b810190808051906020019092919050505073ffffffffffffffffffffffffffffffffffffffff16148061387a57503373ffffffffffffffffffffffffffffffffffffffff166000809054906101000a900473ffffffffffffffffffffffffffffffffffffffff1673ffffffffffffffffffffffffffffffffffffffff166321f8a72160405160200180807f636f6e74726163742e6164647265737300000000000000000000000000000000815250601001807f53706563696d656e0000000000000000000000000000000000000000000000008152506008019050604051602081830303815290604052805190602001206040518263ffffffff1660e01b81526004018082815260200191505060206040518083038186803b15801561382757600080fd5b505afa15801561383b573d6000803e3d6000fd5b505050506040513d602081101561385157600080fd5b810190808051906020019092919050505073ffffffffffffffffffffffffffffffffffffffff16145b6138ec576040517f08c379a00000000000000000000000000000000000000000000000000000000081526004018080602001828103825260178152602001807f4f6e6c792072656769737472656420636f6e747261637400000000000000000081525060200191505060405180910390fd5b813273ffffffffffffffffffffffffffffffffffffffff166000809054906101000a900473ffffffffffffffffffffffffffffffffffffffff1673ffffffffffffffffffffffffffffffffffffffff166321f8a7218360405160200180807f53706563696d656e2e6c61620000000000000000000000000000000000000000815250600c0182805190602001908083835b602083106139a0578051825260208201915060208101905060208303925061397d565b6001836020036101000a038019825116818451168082178552505050505050905001915050604051602081830303815290604052805190602001206040518263ffffffff1660e01b81526004018082815260200191505060206040518083038186803b158015613a0f57600080fd5b505afa158015613a23573d6000803e3d6000fd5b505050506040513d6020811015613a3957600080fd5b810190808051906020019092919050505073ffffffffffffffffffffffffffffffffffffffff1614613ad3576040517f08c379a00000000000000000000000000000000000000000000000000000000081526004018080602001828103825260088152602001807f4f6e6c79206c616200000000000000000000000000000000000000000000000081525060200191505060405180910390fd5b613b12836040518060400160405280600781526020017f53656e64696e6700000000000000000000000000000000000000000000000000815250611464565b80613b585750613b57836040518060400160405280600881526020017f5265636569766564000000000000000000000000000000000000000000000000815250611464565b5b80613baf5750613b9d836040518060400160405280600381526020017f4e65770000000000000000000000000000000000000000000000000000000000815250611464565b8015613bae5750613bad8361178b565b5b5b613c21576040517f08c379a00000000000000000000000000000000000000000000000000000000081526004018080602001828103825260158152602001807f4f6e6c792073656e64696e672073706563696d656e000000000000000000000081525060200191505060405180910390fd5b613c60836040518060400160405280600881526020017f52656a656374656400000000000000000000000000000000000000000000000081525061282e565b600160009054906101000a900473ffffffffffffffffffffffffffffffffffffffff1673ffffffffffffffffffffffffffffffffffffffff1663f609cabd84846040518363ffffffff1660e01b815260040180806020018060200180602001848103845286818151815260200191508051906020019080838360005b83811015613cf7578082015181840152602081019050613cdc565b50505050905090810190601f168015613d245780820380516001836020036101000a031916815260200191505b50848103835260088152602001807f72656a6563746564000000000000000000000000000000000000000000000000815250602001848103825285818151815260200191508051906020019080838360005b83811015613d91578082015181840152602081019050613d76565b50505050905090810190601f168015613dbe5780820380516001836020036101000a031916815260200191505b5095505050505050600060405180830381600087803b158015613de057600080fd5b505af1158015613df4573d6000803e3d6000fd5b50505050505050565b60603373ffffffffffffffffffffffffffffffffffffffff166000809054906101000a900473ffffffffffffffffffffffffffffffffffffffff1673ffffffffffffffffffffffffffffffffffffffff166321f8a72160405160200180807f636f6e74726163742e6164647265737300000000000000000000000000000000815250601001807f446567656e6963730000000000000000000000000000000000000000000000008152506008019050604051602081830303815290604052805190602001206040518263ffffffff1660e01b81526004018082815260200191505060206040518083038186803b158015613ef657600080fd5b505afa158015613f0a573d6000803e3d6000fd5b505050506040513d6020811015613f2057600080fd5b810190808051906020019092919050505073ffffffffffffffffffffffffffffffffffffffff16148061409857503373ffffffffffffffffffffffffffffffffffffffff166000809054906101000a900473ffffffffffffffffffffffffffffffffffffffff1673ffffffffffffffffffffffffffffffffffffffff166321f8a72160405160200180807f636f6e74726163742e6164647265737300000000000000000000000000000000815250601001807f53706563696d656e0000000000000000000000000000000000000000000000008152506008019050604051602081830303815290604052805190602001206040518263ffffffff1660e01b81526004018082815260200191505060206040518083038186803b15801561404557600080fd5b505afa158015614059573d6000803e3d6000fd5b505050506040513d602081101561406f57600080fd5b810190808051906020019092919050505073ffffffffffffffffffffffffffffffffffffffff16145b61410a576040517f08c379a00000000000000000000000000000000000000000000000000000000081526004018080602001828103825260178152602001807f4f6e6c792072656769737472656420636f6e747261637400000000000000000081525060200191505060405180910390fd5b3273ffffffffffffffffffffffffffffffffffffffff166000809054906101000a900473ffffffffffffffffffffffffffffffffffffffff1673ffffffffffffffffffffffffffffffffffffffff166321f8a7218460405160200180807f53706563696d656e2e6c61620000000000000000000000000000000000000000815250600c0182805190602001908083835b602083106141bd578051825260208201915060208101905060208303925061419a565b6001836020036101000a038019825116818451168082178552505050505050905001915050604051602081830303815290604052805190602001206040518263ffffffff1660e01b81526004018082815260200191505060206040518083038186803b15801561422c57600080fd5b505afa158015614240573d6000803e3d6000fd5b505050506040513d602081101561425657600080fd5b810190808051906020019092919050505073ffffffffffffffffffffffffffffffffffffffff1614806143f957503273ffffffffffffffffffffffffffffffffffffffff166000809054906101000a900473ffffffffffffffffffffffffffffffffffffffff1673ffffffffffffffffffffffffffffffffffffffff166321f8a7218460405160200180807f53706563696d656e2e6f776e6572000000000000000000000000000000000000815250600e0182805190602001908083835b602083106143375780518252602082019150602081019050602083039250614314565b6001836020036101000a038019825116818451168082178552505050505050905001915050604051602081830303815290604052805190602001206040518263ffffffff1660e01b81526004018082815260200191505060206040518083038186803b1580156143a657600080fd5b505afa1580156143ba573d6000803e3d6000fd5b505050506040513d60208110156143d057600080fd5b810190808051906020019092919050505073ffffffffffffffffffffffffffffffffffffffff16145b61446b576040517f08c379a00000000000000000000000000000000000000000000000000000000081526004018080602001828103825260128152602001807f4f6e6c79206f776e657220616e64206c6162000000000000000000000000000081525060200191505060405180910390fd5b6000809054906101000a900473ffffffffffffffffffffffffffffffffffffffff1673ffffffffffffffffffffffffffffffffffffffff1663986e791a8360405160200180807f53706563696d656e2e66696c6500000000000000000000000000000000000000815250600d0182805190602001908083835b6020831061450757805182526020820191506020810190506020830392506144e4565b6001836020036101000a038019825116818451168082178552505050505050905001915050604051602081830303815290604052805190602001206040518263ffffffff1660e01b81526004018082815260200191505060006040518083038186803b15801561457657600080fd5b505afa15801561458a573d6000803e3d6000fd5b505050506040513d6000823e3d601f19601f8201168201806040525060208110156145b457600080fd5b81019080805160405193929190846401000000008211156145d457600080fd5b838201915060208201858111156145ea57600080fd5b825186600182028301116401000000008211171561460757600080fd5b8083526020830192505050908051906020019080838360005b8381101561463b578082015181840152602081019050614620565b50505050905090810190601f1680156146685780820380516001836020036101000a031916815260200191505b506040525050509050919050565b3373ffffffffffffffffffffffffffffffffffffffff166000809054906101000a900473ffffffffffffffffffffffffffffffffffffffff1673ffffffffffffffffffffffffffffffffffffffff166321f8a72160405160200180807f636f6e74726163742e6164647265737300000000000000000000000000000000815250601001807f446567656e6963730000000000000000000000000000000000000000000000008152506008019050604051602081830303815290604052805190602001206040518263ffffffff1660e01b81526004018082815260200191505060206040518083038186803b15801561476d57600080fd5b505afa158015614781573d6000803e3d6000fd5b505050506040513d602081101561479757600080fd5b810190808051906020019092919050505073ffffffffffffffffffffffffffffffffffffffff16148061490f57503373ffffffffffffffffffffffffffffffffffffffff166000809054906101000a900473ffffffffffffffffffffffffffffffffffffffff1673ffffffffffffffffffffffffffffffffffffffff166321f8a72160405160200180807f636f6e74726163742e6164647265737300000000000000000000000000000000815250601001807f53706563696d656e0000000000000000000000000000000000000000000000008152506008019050604051602081830303815290604052805190602001206040518263ffffffff1660e01b81526004018082815260200191505060206040518083038186803b1580156148bc57600080fd5b505afa1580156148d0573d6000803e3d6000fd5b505050506040513d60208110156148e657600080fd5b810190808051906020019092919050505073ffffffffffffffffffffffffffffffffffffffff16145b614981576040517f08c379a00000000000000000000000000000000000000000000000000000000081526004018080602001828103825260178152602001807f4f6e6c792072656769737472656420636f6e747261637400000000000000000081525060200191505060405180910390fd5b813273ffffffffffffffffffffffffffffffffffffffff166000809054906101000a900473ffffffffffffffffffffffffffffffffffffffff1673ffffffffffffffffffffffffffffffffffffffff166321f8a7218360405160200180807f53706563696d656e2e6c61620000000000000000000000000000000000000000815250600c0182805190602001908083835b60208310614a355780518252602082019150602081019050602083039250614a12565b6001836020036101000a038019825116818451168082178552505050505050905001915050604051602081830303815290604052805190602001206040518263ffffffff1660e01b81526004018082815260200191505060206040518083038186803b158015614aa457600080fd5b505afa158015614ab8573d6000803e3d6000fd5b505050506040513d6020811015614ace57600080fd5b810190808051906020019092919050505073ffffffffffffffffffffffffffffffffffffffff1614614b68576040517f08c379a00000000000000000000000000000000000000000000000000000000081526004018080602001828103825260088152602001807f4f6e6c79206c616200000000000000000000000000000000000000000000000081525060200191505060405180910390fd5b614ba7836040518060400160405280600781526020017f53656e64696e6700000000000000000000000000000000000000000000000000815250611464565b80614bfe5750614bec836040518060400160405280600381526020017f4e65770000000000000000000000000000000000000000000000000000000000815250611464565b8015614bfd5750614bfc8361178b565b5b5b614c70576040517f08c379a00000000000000000000000000000000000000000000000000000000081526004018080602001828103825260158152602001807f4f6e6c792073656e64696e672073706563696d656e000000000000000000000081525060200191505060405180910390fd5b614caf836040518060400160405280600881526020017f526563656976656400000000000000000000000000000000000000000000000081525061282e565b600160009054906101000a900473ffffffffffffffffffffffffffffffffffffffff1673ffffffffffffffffffffffffffffffffffffffff1663f609cabd84846040518363ffffffff1660e01b815260040180806020018060200180602001848103845286818151815260200191508051906020019080838360005b83811015614d46578082015181840152602081019050614d2b565b50505050905090810190601f168015614d735780820380516001836020036101000a031916815260200191505b50848103835260078152602001807f7265636569766500000000000000000000000000000000000000000000000000815250602001848103825285818151815260200191508051906020019080838360005b83811015614de0578082015181840152602081019050614dc5565b50505050905090810190601f168015614e0d5780820380516001836020036101000a031916815260200191505b5095505050505050600060405180830381600087803b158015614e2f57600080fd5b505af1158015614e43573d6000803e3d6000fd5b50505050505050565b3373ffffffffffffffffffffffffffffffffffffffff166000809054906101000a900473ffffffffffffffffffffffffffffffffffffffff1673ffffffffffffffffffffffffffffffffffffffff166321f8a72160405160200180807f636f6e74726163742e6164647265737300000000000000000000000000000000815250601001807f446567656e6963730000000000000000000000000000000000000000000000008152506008019050604051602081830303815290604052805190602001206040518263ffffffff1660e01b81526004018082815260200191505060206040518083038186803b158015614f4357600080fd5b505afa158015614f57573d6000803e3d6000fd5b505050506040513d6020811015614f6d57600080fd5b810190808051906020019092919050505073ffffffffffffffffffffffffffffffffffffffff1614806150e557503373ffffffffffffffffffffffffffffffffffffffff166000809054906101000a900473ffffffffffffffffffffffffffffffffffffffff1673ffffffffffffffffffffffffffffffffffffffff166321f8a72160405160200180807f636f6e74726163742e6164647265737300000000000000000000000000000000815250601001807f53706563696d656e0000000000000000000000000000000000000000000000008152506008019050604051602081830303815290604052805190602001206040518263ffffffff1660e01b81526004018082815260200191505060206040518083038186803b15801561509257600080fd5b505afa1580156150a6573d6000803e3d6000fd5b505050506040513d60208110156150bc57600080fd5b810190808051906020019092919050505073ffffffffffffffffffffffffffffffffffffffff16145b615157576040517f08c379a00000000000000000000000000000000000000000000000000000000081526004018080602001828103825260178152602001807f4f6e6c792072656769737472656420636f6e747261637400000000000000000081525060200191505060405180910390fd5b803273ffffffffffffffffffffffffffffffffffffffff166000809054906101000a900473ffffffffffffffffffffffffffffffffffffffff1673ffffffffffffffffffffffffffffffffffffffff166321f8a7218360405160200180807f53706563696d656e2e6c61620000000000000000000000000000000000000000815250600c0182805190602001908083835b6020831061520b57805182526020820191506020810190506020830392506151e8565b6001836020036101000a038019825116818451168082178552505050505050905001915050604051602081830303815290604052805190602001206040518263ffffffff1660e01b81526004018082815260200191505060206040518083038186803b15801561527a57600080fd5b505afa15801561528e573d6000803e3d6000fd5b505050506040513d60208110156152a457600080fd5b810190808051906020019092919050505073ffffffffffffffffffffffffffffffffffffffff161461533e576040517f08c379a00000000000000000000000000000000000000000000000000000000081526004018080602001828103825260088152602001807f4f6e6c79206c616200000000000000000000000000000000000000000000000081525060200191505060405180910390fd5b61538561534a83610f4c565b6040518060400160405280600881526020017f5265636569766564000000000000000000000000000000000000000000000000815250615581565b6153f7576040517f08c379a00000000000000000000000000000000000000000000000000000000081526004018080602001828103825260168152602001807f4f6e6c792052656365697665642073706563696d656e0000000000000000000081525060200191505060405180910390fd5b615436826040518060400160405280600881526020017f526566756e64656400000000000000000000000000000000000000000000000081525061282e565b600160009054906101000a900473ffffffffffffffffffffffffffffffffffffffff1673ffffffffffffffffffffffffffffffffffffffff1663f609cabd836040518263ffffffff1660e01b815260040180806020018060200180602001848103845285818151815260200191508051906020019080838360005b838110156154cc5780820151818401526020810190506154b1565b50505050905090810190601f1680156154f95780820380516001836020036101000a031916815260200191505b50848103835260088152602001807f726566756e64656400000000000000000000000000000000000000000000000081525060200184810382526031815260200180615ca560319139604001945050505050600060405180830381600087803b15801561556557600080fd5b505af1158015615579573d6000803e3d6000fd5b505050505050565b6000816040516020018082805190602001908083835b602083106155ba5780518252602082019150602081019050602083039250615597565b6001836020036101000a03801982511681845116808217855250505050505090500191505060405160208183030381529060405280519060200120836040516020018082805190602001908083835b6020831061562c5780518252602082019150602081019050602083039250615609565b6001836020036101000a0380198251168184511680821785525050505050509050019150506040516020818303038152906040528051906020012014905092915050565b60008060009054906101000a900473ffffffffffffffffffffffffffffffffffffffff1673ffffffffffffffffffffffffffffffffffffffff1663bd02d0f56000809054906101000a900473ffffffffffffffffffffffffffffffffffffffff1673ffffffffffffffffffffffffffffffffffffffff166321f8a7218560405160200180807f53706563696d656e2e6c61620000000000000000000000000000000000000000815250600c0182805190602001908083835b6020831061574b5780518252602082019150602081019050602083039250615728565b6001836020036101000a038019825116818451168082178552505050505050905001915050604051602081830303815290604052805190602001206040518263ffffffff1660e01b81526004018082815260200191505060206040518083038186803b1580156157ba57600080fd5b505afa1580156157ce573d6000803e3d6000fd5b505050506040513d60208110156157e457600080fd5b81019080805190602001909291905050506000809054906101000a900473ffffffffffffffffffffffffffffffffffffffff1673ffffffffffffffffffffffffffffffffffffffff1663986e791a8660405160200180807f53706563696d656e2e73657276696365436f646500000000000000000000000081525060140182805190602001908083835b60208310615891578051825260208201915060208101905060208303925061586e565b6001836020036101000a038019825116818451168082178552505050505050905001915050604051602081830303815290604052805190602001206040518263ffffffff1660e01b81526004018082815260200191505060006040518083038186803b15801561590057600080fd5b505afa158015615914573d6000803e3d6000fd5b505050506040513d6000823e3d601f19601f82011682018060405250602081101561593e57600080fd5b810190808051604051939291908464010000000082111561595e57600080fd5b8382019150602082018581111561597457600080fd5b825186600182028301116401000000008211171561599157600080fd5b8083526020830192505050908051906020019080838360005b838110156159c55780820151818401526020810190506159aa565b50505050905090810190601f1680156159f25780820380516001836020036101000a031916815260200191505b5060405250505060405160200180807f6c61622e736572766963652e70726963650000000000000000000000000000008152506011018373ffffffffffffffffffffffffffffffffffffffff1673ffffffffffffffffffffffffffffffffffffffff1660601b815260140182805190602001908083835b60208310615a8c5780518252602082019150602081019050602083039250615a69565b6001836020036101000a03801982511681845116808217855250505050505090500192505050604051602081830303815290604052805190602001206040518263ffffffff1660e01b81526004018082815260200191505060206040518083038186803b158015615afc57600080fd5b505afa158015615b10573d6000803e3d6000fd5b505050506040513d6020811015615b2657600080fd5b81019080805190602001909291905050509050919050565b60008060009054906101000a900473ffffffffffffffffffffffffffffffffffffffff1673ffffffffffffffffffffffffffffffffffffffff166321f8a7218360405160200180807f53706563696d656e2e657363726f770000000000000000000000000000000000815250600f0182805190602001908083835b60208310615bdc5780518252602082019150602081019050602083039250615bb9565b6001836020036101000a038019825116818451168082178552505050505050905001915050604051602081830303815290604052805190602001206040518263ffffffff1660e01b81526004018082815260200191505060206040518083038186803b158015615c4b57600080fd5b505afa158015615c5f573d6000803e3d6000fd5b505050506040513d6020811015615c7557600080fd5b810190808051906020019092919050505073ffffffffffffffffffffffffffffffffffffffff1631905091905056fe616e616c7973697320736f206c6f6e672c20726566756e642061667465722037206461797320627920637573746f6d6572a265627a7a723158208218979082cc1d71e06d794747e066b85130b66952a05591f2310a8fe6d0070064736f6c63430005100032",
  "source": "pragma solidity ^0.5.16;\r\n\r\n\r\nimport \"./common/Base.sol\";\r\nimport \"./DegenicsLog.sol\";\r\n\r\ncontract SpecimenTracking is Base {\r\n\r\n    DegenicsLog degenicsLog;\r\n    \r\n    modifier onlyAllowContract() {\r\n        require(eternalStorage.getAddress(keccak256(abi.encodePacked(\"contract.address\", \"Degenics\"))) == msg.sender ||\r\n                eternalStorage.getAddress(keccak256(abi.encodePacked(\"contract.address\", \"Specimen\"))) == msg.sender\r\n        , \"Only registred contract\" );\r\n        _;\r\n    }\r\n\r\n    modifier onlyLab(string memory number){\r\n        require(eternalStorage.getAddress(keccak256(abi.encodePacked( \"Specimen.lab\",number ))) == tx.origin,\r\n            \"Only lab\");\r\n        _;\r\n    }\r\n\r\n    modifier onlySpecimenOwner(string memory number){\r\n        require(eternalStorage.getAddress(keccak256(abi.encodePacked( \"Specimen.owner\",number ))) == tx.origin, \"Only Owner specimen\");\r\n        _;\r\n    }\r\n    \r\n    constructor(address _storage, address _degenicsLog ) public Base(_storage) {\r\n        degenicsLog = DegenicsLog(_degenicsLog);\r\n    }\r\n\r\n    function escrowBalance(string memory number) internal view returns(uint){\r\n        return (eternalStorage.getAddress(keccak256(abi.encodePacked(\"Specimen.escrow\", number)))).balance;\r\n    }\r\n\r\n    function sendSpecimen(string memory number, string memory remark) public onlyAllowContract onlySpecimenOwner(number) {\r\n       require(checkStatus(number, \"New\") && \r\n            checkPayment(number), \"Only paid test\");  \r\n        setStatus(number, \"Sending\");\r\n        degenicsLog.addSpecimenLog(number, \"send\", remark);\r\n    }\r\n\r\n    function receiveSpecimen(string memory number, string memory remark) public onlyAllowContract onlyLab(number) {\r\n        require(checkStatus(number, \"Sending\")  || (checkStatus(number, \"New\") && checkPayment(number)) , \r\n            \"Only sending specimen\" );\r\n        setStatus(number, \"Received\");\r\n        degenicsLog.addSpecimenLog(number, \"receive\", remark);\r\n    }\r\n\r\n    function rejectSpecimen(string memory number, string memory remark) public onlyAllowContract onlyLab(number) {\r\n        require(checkStatus(number, \"Sending\") ||  checkStatus(number, \"Received\") || (checkStatus(number, \"New\") && checkPayment(number)) , \r\n            \"Only sending specimen\" );\r\n        setStatus(number, \"Rejected\");\r\n        degenicsLog.addSpecimenLog(number, \"rejected\", remark);\r\n    }\r\n\r\n    function analysisSucces(string memory number, string memory file, string memory remark) public onlyAllowContract onlyLab(number) {\r\n        require(checkStatus(number, \"Received\"), \"Only Received specimen\" );\r\n        setStatus(number, \"Success\");\r\n        degenicsLog.addSpecimenLog(number, \"success\", remark);\r\n        eternalStorage.setString(keccak256(abi.encodePacked( \"Specimen.file\",number)), file);\r\n    }\r\n\r\n    function refund(string memory number) public onlyAllowContract onlyLab(number) {\r\n        require(compareString(getStatus(number), \"Received\"), \"Only Received specimen\" );\r\n        setStatus(number, \"Refunded\");\r\n        degenicsLog.addSpecimenLog(number, \"refunded\",  \"analysis so long, refund after 7 days by customer\");\r\n    }\r\n\r\n    function checkPrice(string memory number) internal view returns(uint){\r\n        return eternalStorage.getUint(keccak256(abi.encodePacked(\"lab.service.price\", \r\n            eternalStorage.getAddress(keccak256(abi.encodePacked( \"Specimen.lab\",number ))), \r\n            eternalStorage.getString(keccak256(abi.encodePacked( \"Specimen.serviceCode\",number )))\r\n        )));\r\n    }\r\n\r\n    function logByIndex(string memory number, uint _index)public onlyAllowContract returns(uint index, uint time, \r\n        string memory logType, string memory log){\r\n        return degenicsLog.specimenLogByIndex(number, _index);\r\n    }\r\n\r\n    function setStatus(string memory number, string memory status) public  onlyAllowContract{\r\n        eternalStorage.setString(keccak256(abi.encodePacked( \"Specimen.status\",number )), status);\r\n    }\r\n\r\n    function getStatus(string memory number) public view onlyAllowContract returns(string memory){\r\n        return eternalStorage.getString(keccak256(abi.encodePacked( \"Specimen.status\",number )));       \r\n    }\r\n\r\n    function checkStatus(string memory number, string memory status) public view onlyAllowContract returns(bool){\r\n        return compareString(getStatus(number), status);\r\n    }\r\n\r\n    function getFile(string memory number) public view onlyAllowContract  returns(string memory file){\r\n        require(eternalStorage.getAddress(keccak256(abi.encodePacked( \"Specimen.lab\",number ))) == tx.origin || \r\n    eternalStorage.getAddress(keccak256(abi.encodePacked( \"Specimen.owner\",number ))) == tx.origin, \"Only owner and lab\");  \r\n        return eternalStorage.getString(keccak256(abi.encodePacked(\"Specimen.file\",number)));\r\n    }\r\n    \r\n    function checkPayment(string memory number) public view onlyAllowContract returns(bool){\r\n        return escrowBalance(number) >=  checkPrice(number);\r\n    }\r\n}",
  "sourcePath": "D:\\projects\\degenics\\degenics-smart-contract\\contracts\\SpecimenTracking.sol",
  "compiler": {
    "name": "solc",
    "version": "0.5.16+commit.9c3226ce.Emscripten.clang"
  },
  "schemaVersion": "3.0.23",
  "updatedAt": "2021-02-04T06:43:23.750Z",
  "networkType": "ethereum",
  "devdoc": {
    "methods": {}
  },
  "userdoc": {
    "methods": {}
  }
}