{
  "contractName": "Specimen",
  "abi": [
    {
      "inputs": [
        {
          "internalType": "address",
          "name": "_storage",
          "type": "address"
        },
        {
          "internalType": "address",
          "name": "_degenicsLog",
          "type": "address"
        },
        {
          "internalType": "address",
          "name": "_specimenTracking",
          "type": "address"
        }
      ],
      "payable": false,
      "stateMutability": "nonpayable",
      "type": "constructor"
    },
    {
      "constant": true,
      "inputs": [],
      "name": "eternalStorage",
      "outputs": [
        {
          "internalType": "contract EternalStorageInterface",
          "name": "",
          "type": "address"
        }
      ],
      "payable": false,
      "stateMutability": "view",
      "type": "function"
    },
    {
      "constant": false,
      "inputs": [
        {
          "internalType": "address",
          "name": "ownerSpecimen",
          "type": "address"
        },
        {
          "internalType": "address",
          "name": "labAccount",
          "type": "address"
        },
        {
          "internalType": "string",
          "name": "serviceCode",
          "type": "string"
        }
      ],
      "name": "registerSpecimen",
      "outputs": [
        {
          "internalType": "string",
          "name": "",
          "type": "string"
        }
      ],
      "payable": false,
      "stateMutability": "nonpayable",
      "type": "function"
    },
    {
      "constant": true,
      "inputs": [
        {
          "internalType": "address",
          "name": "sender",
          "type": "address"
        }
      ],
      "name": "specimenCount",
      "outputs": [
        {
          "internalType": "uint256",
          "name": "",
          "type": "uint256"
        }
      ],
      "payable": false,
      "stateMutability": "view",
      "type": "function"
    },
    {
      "constant": true,
      "inputs": [
        {
          "internalType": "string",
          "name": "_number",
          "type": "string"
        }
      ],
      "name": "specimenByNumber",
      "outputs": [
        {
          "internalType": "string",
          "name": "number",
          "type": "string"
        },
        {
          "internalType": "address",
          "name": "owner",
          "type": "address"
        },
        {
          "internalType": "address",
          "name": "labAccount",
          "type": "address"
        },
        {
          "internalType": "string",
          "name": "serviceCode",
          "type": "string"
        },
        {
          "internalType": "string",
          "name": "status",
          "type": "string"
        }
      ],
      "payable": false,
      "stateMutability": "view",
      "type": "function"
    },
    {
      "constant": true,
      "inputs": [
        {
          "internalType": "address",
          "name": "sender",
          "type": "address"
        },
        {
          "internalType": "uint256",
          "name": "index",
          "type": "uint256"
        }
      ],
      "name": "specimenByIndex",
      "outputs": [
        {
          "internalType": "string",
          "name": "number",
          "type": "string"
        },
        {
          "internalType": "address",
          "name": "owner",
          "type": "address"
        },
        {
          "internalType": "address",
          "name": "labAccount",
          "type": "address"
        },
        {
          "internalType": "string",
          "name": "serviceCode",
          "type": "string"
        },
        {
          "internalType": "string",
          "name": "status",
          "type": "string"
        }
      ],
      "payable": false,
      "stateMutability": "view",
      "type": "function"
    }
  ],
  "bytecode": "0x608060405260008060006101000a81548173ffffffffffffffffffffffffffffffffffffffff021916908373ffffffffffffffffffffffffffffffffffffffff160217905550600060035534801561005657600080fd5b50604051612ee0380380612ee08339818101604052606081101561007957600080fd5b8101908080519060200190929190805190602001909291908051906020019092919050505082806000806101000a81548173ffffffffffffffffffffffffffffffffffffffff021916908373ffffffffffffffffffffffffffffffffffffffff1602179055505081600160006101000a81548173ffffffffffffffffffffffffffffffffffffffff021916908373ffffffffffffffffffffffffffffffffffffffff16021790555080600260006101000a81548173ffffffffffffffffffffffffffffffffffffffff021916908373ffffffffffffffffffffffffffffffffffffffff160217905550505050612d6c806101746000396000f3fe608060405234801561001057600080fd5b50600436106100575760003560e01c8063103ed5b31461005c5780634fcbb723146102ce5780635803d619146104d357806398ff9c541461052b578063a250156c14610575575b600080fd5b6101156004803603602081101561007257600080fd5b810190808035906020019064010000000081111561008f57600080fd5b8201836020820111156100a157600080fd5b803590602001918460018302840111640100000000831117156100c357600080fd5b91908080601f016020809104026020016040519081016040528093929190818152602001838380828437600081840152601f19601f8201169050808301925050505050505091929192905050506106e9565b60405180806020018673ffffffffffffffffffffffffffffffffffffffff1673ffffffffffffffffffffffffffffffffffffffff1681526020018573ffffffffffffffffffffffffffffffffffffffff1673ffffffffffffffffffffffffffffffffffffffff1681526020018060200180602001848103845289818151815260200191508051906020019080838360005b838110156101c15780820151818401526020810190506101a6565b50505050905090810190601f1680156101ee5780820380516001836020036101000a031916815260200191505b50848103835286818151815260200191508051906020019080838360005b8381101561022757808201518184015260208101905061020c565b50505050905090810190601f1680156102545780820380516001836020036101000a031916815260200191505b50848103825285818151815260200191508051906020019080838360005b8381101561028d578082015181840152602081019050610272565b50505050905090810190601f1680156102ba5780820380516001836020036101000a031916815260200191505b509850505050505050505060405180910390f35b61031a600480360360408110156102e457600080fd5b81019080803573ffffffffffffffffffffffffffffffffffffffff169060200190929190803590602001909291905050506111c9565b60405180806020018673ffffffffffffffffffffffffffffffffffffffff1673ffffffffffffffffffffffffffffffffffffffff1681526020018573ffffffffffffffffffffffffffffffffffffffff1673ffffffffffffffffffffffffffffffffffffffff1681526020018060200180602001848103845289818151815260200191508051906020019080838360005b838110156103c65780820151818401526020810190506103ab565b50505050905090810190601f1680156103f35780820380516001836020036101000a031916815260200191505b50848103835286818151815260200191508051906020019080838360005b8381101561042c578082015181840152602081019050610411565b50505050905090810190601f1680156104595780820380516001836020036101000a031916815260200191505b50848103825285818151815260200191508051906020019080838360005b83811015610492578082015181840152602081019050610477565b50505050905090810190601f1680156104bf5780820380516001836020036101000a031916815260200191505b509850505050505050505060405180910390f35b610515600480360360208110156104e957600080fd5b81019080803573ffffffffffffffffffffffffffffffffffffffff169060200190929190505050611598565b6040518082815260200191505060405180910390f35b610533611886565b604051808273ffffffffffffffffffffffffffffffffffffffff1673ffffffffffffffffffffffffffffffffffffffff16815260200191505060405180910390f35b61066e6004803603606081101561058b57600080fd5b81019080803573ffffffffffffffffffffffffffffffffffffffff169060200190929190803573ffffffffffffffffffffffffffffffffffffffff169060200190929190803590602001906401000000008111156105e857600080fd5b8201836020820111156105fa57600080fd5b8035906020019184600183028401116401000000008311171561061c57600080fd5b91908080601f016020809104026020016040519081016040528093929190818152602001838380828437600081840152601f19601f8201169050808301925050505050505091929192905050506118ab565b6040518080602001828103825283818151815260200191508051906020019080838360005b838110156106ae578082015181840152602081019050610693565b50505050905090810190601f1680156106db5780820380516001836020036101000a031916815260200191505b509250505060405180910390f35b60606000806060803373ffffffffffffffffffffffffffffffffffffffff166000809054906101000a900473ffffffffffffffffffffffffffffffffffffffff1673ffffffffffffffffffffffffffffffffffffffff166321f8a72160405160200180807f636f6e74726163742e6164647265737300000000000000000000000000000000815250601001807f446567656e6963730000000000000000000000000000000000000000000000008152506008019050604051602081830303815290604052805190602001206040518263ffffffff1660e01b81526004018082815260200191505060206040518083038186803b1580156107e857600080fd5b505afa1580156107fc573d6000803e3d6000fd5b505050506040513d602081101561081257600080fd5b810190808051906020019092919050505073ffffffffffffffffffffffffffffffffffffffff16146108ac576040517f08c379a00000000000000000000000000000000000000000000000000000000081526004018080602001828103825260178152602001807f4f6e6c792072656769737472656420636f6e747261637400000000000000000081525060200191505060405180910390fd5b600260009054906101000a900473ffffffffffffffffffffffffffffffffffffffff1673ffffffffffffffffffffffffffffffffffffffff166322b05ed2876040518263ffffffff1660e01b81526004018080602001828103825283818151815260200191508051906020019080838360005b8381101561093a57808201518184015260208101905061091f565b50505050905090810190601f1680156109675780820380516001836020036101000a031916815260200191505b509250505060006040518083038186803b15801561098457600080fd5b505afa158015610998573d6000803e3d6000fd5b505050506040513d6000823e3d601f19601f8201168201806040525060208110156109c257600080fd5b81019080805160405193929190846401000000008211156109e257600080fd5b838201915060208201858111156109f857600080fd5b8251866001820283011164010000000082111715610a1557600080fd5b8083526020830192505050908051906020019080838360005b83811015610a49578082015181840152602081019050610a2e565b50505050905090810190601f168015610a765780820380516001836020036101000a031916815260200191505b506040525050509050600260009054906101000a900473ffffffffffffffffffffffffffffffffffffffff1673ffffffffffffffffffffffffffffffffffffffff166363a88bcf876040518263ffffffff1660e01b8152600401808060200180602001838103835284818151815260200191508051906020019080838360005b83811015610b11578082015181840152602081019050610af6565b50505050905090810190601f168015610b3e5780820380516001836020036101000a031916815260200191505b50838103825260038152602001807f4e65770000000000000000000000000000000000000000000000000000000000815250602001935050505060206040518083038186803b158015610b9057600080fd5b505afa158015610ba4573d6000803e3d6000fd5b505050506040513d6020811015610bba57600080fd5b81019080805190602001909291905050508015610ce65750600260009054906101000a900473ffffffffffffffffffffffffffffffffffffffff1673ffffffffffffffffffffffffffffffffffffffff166394837cea876040518263ffffffff1660e01b81526004018080602001828103825283818151815260200191508051906020019080838360005b83811015610c60578082015181840152602081019050610c45565b50505050905090810190601f168015610c8d5780820380516001836020036101000a031916815260200191505b509250505060206040518083038186803b158015610caa57600080fd5b505afa158015610cbe573d6000803e3d6000fd5b505050506040513d6020811015610cd457600080fd5b81019080805190602001909291905050505b15610d24576040518060400160405280600481526020017f506169640000000000000000000000000000000000000000000000000000000081525090505b856000809054906101000a900473ffffffffffffffffffffffffffffffffffffffff1673ffffffffffffffffffffffffffffffffffffffff166321f8a7218860405160200180807f53706563696d656e2e6f776e6572000000000000000000000000000000000000815250600e0182805190602001908083835b60208310610dc15780518252602082019150602081019050602083039250610d9e565b6001836020036101000a038019825116818451168082178552505050505050905001915050604051602081830303815290604052805190602001206040518263ffffffff1660e01b81526004018082815260200191505060206040518083038186803b158015610e3057600080fd5b505afa158015610e44573d6000803e3d6000fd5b505050506040513d6020811015610e5a57600080fd5b81019080805190602001909291905050506000809054906101000a900473ffffffffffffffffffffffffffffffffffffffff1673ffffffffffffffffffffffffffffffffffffffff166321f8a7218960405160200180807f53706563696d656e2e6c61620000000000000000000000000000000000000000815250600c0182805190602001908083835b60208310610f075780518252602082019150602081019050602083039250610ee4565b6001836020036101000a038019825116818451168082178552505050505050905001915050604051602081830303815290604052805190602001206040518263ffffffff1660e01b81526004018082815260200191505060206040518083038186803b158015610f7657600080fd5b505afa158015610f8a573d6000803e3d6000fd5b505050506040513d6020811015610fa057600080fd5b81019080805190602001909291905050506000809054906101000a900473ffffffffffffffffffffffffffffffffffffffff1673ffffffffffffffffffffffffffffffffffffffff1663986e791a8a60405160200180807f53706563696d656e2e73657276696365436f646500000000000000000000000081525060140182805190602001908083835b6020831061104d578051825260208201915060208101905060208303925061102a565b6001836020036101000a038019825116818451168082178552505050505050905001915050604051602081830303815290604052805190602001206040518263ffffffff1660e01b81526004018082815260200191505060006040518083038186803b1580156110bc57600080fd5b505afa1580156110d0573d6000803e3d6000fd5b505050506040513d6000823e3d601f19601f8201168201806040525060208110156110fa57600080fd5b810190808051604051939291908464010000000082111561111a57600080fd5b8382019150602082018581111561113057600080fd5b825186600182028301116401000000008211171561114d57600080fd5b8083526020830192505050908051906020019080838360005b83811015611181578082015181840152602081019050611166565b50505050905090810190601f1680156111ae5780820380516001836020036101000a031916815260200191505b50604052505050849450945094509450945091939590929450565b60606000806060803373ffffffffffffffffffffffffffffffffffffffff166000809054906101000a900473ffffffffffffffffffffffffffffffffffffffff1673ffffffffffffffffffffffffffffffffffffffff166321f8a72160405160200180807f636f6e74726163742e6164647265737300000000000000000000000000000000815250601001807f446567656e6963730000000000000000000000000000000000000000000000008152506008019050604051602081830303815290604052805190602001206040518263ffffffff1660e01b81526004018082815260200191505060206040518083038186803b1580156112c857600080fd5b505afa1580156112dc573d6000803e3d6000fd5b505050506040513d60208110156112f257600080fd5b810190808051906020019092919050505073ffffffffffffffffffffffffffffffffffffffff161461138c576040517f08c379a00000000000000000000000000000000000000000000000000000000081526004018080602001828103825260178152602001807f4f6e6c792072656769737472656420636f6e747261637400000000000000000081525060200191505060405180910390fd5b6115846000809054906101000a900473ffffffffffffffffffffffffffffffffffffffff1673ffffffffffffffffffffffffffffffffffffffff1663986e791a898960405160200180807f53706563696d656e0000000000000000000000000000000000000000000000008152506008018373ffffffffffffffffffffffffffffffffffffffff1673ffffffffffffffffffffffffffffffffffffffff1660601b815260140182815260200192505050604051602081830303815290604052805190602001206040518263ffffffff1660e01b81526004018082815260200191505060006040518083038186803b15801561148657600080fd5b505afa15801561149a573d6000803e3d6000fd5b505050506040513d6000823e3d601f19601f8201168201806040525060208110156114c457600080fd5b81019080805160405193929190846401000000008211156114e457600080fd5b838201915060208201858111156114fa57600080fd5b825186600182028301116401000000008211171561151757600080fd5b8083526020830192505050908051906020019080838360005b8381101561154b578082015181840152602081019050611530565b50505050905090810190601f1680156115785780820380516001836020036101000a031916815260200191505b506040525050506106e9565b945094509450945094509295509295909350565b60003373ffffffffffffffffffffffffffffffffffffffff166000809054906101000a900473ffffffffffffffffffffffffffffffffffffffff1673ffffffffffffffffffffffffffffffffffffffff166321f8a72160405160200180807f636f6e74726163742e6164647265737300000000000000000000000000000000815250601001807f446567656e6963730000000000000000000000000000000000000000000000008152506008019050604051602081830303815290604052805190602001206040518263ffffffff1660e01b81526004018082815260200191505060206040518083038186803b15801561169157600080fd5b505afa1580156116a5573d6000803e3d6000fd5b505050506040513d60208110156116bb57600080fd5b810190808051906020019092919050505073ffffffffffffffffffffffffffffffffffffffff1614611755576040517f08c379a00000000000000000000000000000000000000000000000000000000081526004018080602001828103825260178152602001807f4f6e6c792072656769737472656420636f6e747261637400000000000000000081525060200191505060405180910390fd5b6000809054906101000a900473ffffffffffffffffffffffffffffffffffffffff1673ffffffffffffffffffffffffffffffffffffffff1663bd02d0f58360405160200180807f53706563696d656e2e636f756e74000000000000000000000000000000000000815250600e018273ffffffffffffffffffffffffffffffffffffffff1673ffffffffffffffffffffffffffffffffffffffff1660601b8152601401915050604051602081830303815290604052805190602001206040518263ffffffff1660e01b81526004018082815260200191505060206040518083038186803b15801561184457600080fd5b505afa158015611858573d6000803e3d6000fd5b505050506040513d602081101561186e57600080fd5b81019080805190602001909291905050509050919050565b6000809054906101000a900473ffffffffffffffffffffffffffffffffffffffff1681565b60603373ffffffffffffffffffffffffffffffffffffffff166000809054906101000a900473ffffffffffffffffffffffffffffffffffffffff1673ffffffffffffffffffffffffffffffffffffffff166321f8a72160405160200180807f636f6e74726163742e6164647265737300000000000000000000000000000000815250601001807f446567656e6963730000000000000000000000000000000000000000000000008152506008019050604051602081830303815290604052805190602001206040518263ffffffff1660e01b81526004018082815260200191505060206040518083038186803b1580156119a457600080fd5b505afa1580156119b8573d6000803e3d6000fd5b505050506040513d60208110156119ce57600080fd5b810190808051906020019092919050505073ffffffffffffffffffffffffffffffffffffffff1614611a68576040517f08c379a00000000000000000000000000000000000000000000000000000000081526004018080602001828103825260178152602001807f4f6e6c792072656769737472656420636f6e747261637400000000000000000081525060200191505060405180910390fd5b6060611b14834260405160200180807f53706563696d656e2e6e756d6265720000000000000000000000000000000000815250600f0183805190602001908083835b60208310611acd5780518252602082019150602081019050602083039250611aaa565b6001836020036101000a0380198251168184511680821785525050505050509050018281526020019250505060405160208183030381529060405280519060200120612897565b90506003600081548092919060010191905055506000809054906101000a900473ffffffffffffffffffffffffffffffffffffffff1673ffffffffffffffffffffffffffffffffffffffff1663e2a4853a8260405160200180807f53706563696d656e2e726567697374657265640000000000000000000000000081525060130182805190602001908083835b60208310611bc45780518252602082019150602081019050602083039250611ba1565b6001836020036101000a03801982511681845116808217855250505050505090500191505060405160208183030381529060405280519060200120426040518363ffffffff1660e01b81526004018083815260200182815260200192505050600060405180830381600087803b158015611c3d57600080fd5b505af1158015611c51573d6000803e3d6000fd5b505050506000809054906101000a900473ffffffffffffffffffffffffffffffffffffffff1673ffffffffffffffffffffffffffffffffffffffff1663ca446dd98260405160200180807f53706563696d656e2e6f776e6572000000000000000000000000000000000000815250600e0182805190602001908083835b60208310611cf15780518252602082019150602081019050602083039250611cce565b6001836020036101000a03801982511681845116808217855250505050505090500191505060405160208183030381529060405280519060200120876040518363ffffffff1660e01b8152600401808381526020018273ffffffffffffffffffffffffffffffffffffffff1673ffffffffffffffffffffffffffffffffffffffff16815260200192505050600060405180830381600087803b158015611d9657600080fd5b505af1158015611daa573d6000803e3d6000fd5b505050506000809054906101000a900473ffffffffffffffffffffffffffffffffffffffff1673ffffffffffffffffffffffffffffffffffffffff1663ca446dd98260405160200180807f53706563696d656e2e6c61620000000000000000000000000000000000000000815250600c0182805190602001908083835b60208310611e4a5780518252602082019150602081019050602083039250611e27565b6001836020036101000a03801982511681845116808217855250505050505090500191505060405160208183030381529060405280519060200120866040518363ffffffff1660e01b8152600401808381526020018273ffffffffffffffffffffffffffffffffffffffff1673ffffffffffffffffffffffffffffffffffffffff16815260200192505050600060405180830381600087803b158015611eef57600080fd5b505af1158015611f03573d6000803e3d6000fd5b505050506000809054906101000a900473ffffffffffffffffffffffffffffffffffffffff1673ffffffffffffffffffffffffffffffffffffffff16636e8995508260405160200180807f53706563696d656e2e73657276696365436f646500000000000000000000000081525060140182805190602001908083835b60208310611fa35780518252602082019150602081019050602083039250611f80565b6001836020036101000a03801982511681845116808217855250505050505090500191505060405160208183030381529060405280519060200120856040518363ffffffff1660e01b81526004018083815260200180602001828103825283818151815260200191508051906020019080838360005b83811015612034578082015181840152602081019050612019565b50505050905090810190601f1680156120615780820380516001836020036101000a031916815260200191505b509350505050600060405180830381600087803b15801561208157600080fd5b505af1158015612095573d6000803e3d6000fd5b50505050600260009054906101000a900473ffffffffffffffffffffffffffffffffffffffff1673ffffffffffffffffffffffffffffffffffffffff1663c5590033826040518263ffffffff1660e01b8152600401808060200180602001838103835284818151815260200191508051906020019080838360005b8381101561212b578082015181840152602081019050612110565b50505050905090810190601f1680156121585780820380516001836020036101000a031916815260200191505b50838103825260038152602001807f4e657700000000000000000000000000000000000000000000000000000000008152506020019350505050600060405180830381600087803b1580156121ac57600080fd5b505af11580156121c0573d6000803e3d6000fd5b505050506000809054906101000a900473ffffffffffffffffffffffffffffffffffffffff1673ffffffffffffffffffffffffffffffffffffffff16636e899550866000809054906101000a900473ffffffffffffffffffffffffffffffffffffffff1673ffffffffffffffffffffffffffffffffffffffff1663adb353dc8960405160200180807f53706563696d656e2e636f756e74000000000000000000000000000000000000815250600e018273ffffffffffffffffffffffffffffffffffffffff1673ffffffffffffffffffffffffffffffffffffffff1660601b81526014019150506040516020818303038152906040528051906020012060016040518363ffffffff1660e01b81526004018083815260200182815260200192505050602060405180830381600087803b1580156122fc57600080fd5b505af1158015612310573d6000803e3d6000fd5b505050506040513d602081101561232657600080fd5b810190808051906020019092919050505060405160200180807f53706563696d656e0000000000000000000000000000000000000000000000008152506008018373ffffffffffffffffffffffffffffffffffffffff1673ffffffffffffffffffffffffffffffffffffffff1660601b81526014018281526020019250505060405160208183030381529060405280519060200120836040518363ffffffff1660e01b81526004018083815260200180602001828103825283818151815260200191508051906020019080838360005b838110156124115780820151818401526020810190506123f6565b50505050905090810190601f16801561243e5780820380516001836020036101000a031916815260200191505b509350505050600060405180830381600087803b15801561245e57600080fd5b505af1158015612472573d6000803e3d6000fd5b505050506000809054906101000a900473ffffffffffffffffffffffffffffffffffffffff1673ffffffffffffffffffffffffffffffffffffffff16636e899550856000809054906101000a900473ffffffffffffffffffffffffffffffffffffffff1673ffffffffffffffffffffffffffffffffffffffff1663adb353dc8860405160200180807f53706563696d656e2e636f756e74000000000000000000000000000000000000815250600e018273ffffffffffffffffffffffffffffffffffffffff1673ffffffffffffffffffffffffffffffffffffffff1660601b81526014019150506040516020818303038152906040528051906020012060016040518363ffffffff1660e01b81526004018083815260200182815260200192505050602060405180830381600087803b1580156125ae57600080fd5b505af11580156125c2573d6000803e3d6000fd5b505050506040513d60208110156125d857600080fd5b810190808051906020019092919050505060405160200180807f53706563696d656e0000000000000000000000000000000000000000000000008152506008018373ffffffffffffffffffffffffffffffffffffffff1673ffffffffffffffffffffffffffffffffffffffff1660601b81526014018281526020019250505060405160208183030381529060405280519060200120836040518363ffffffff1660e01b81526004018083815260200180602001828103825283818151815260200191508051906020019080838360005b838110156126c35780820151818401526020810190506126a8565b50505050905090810190601f1680156126f05780820380516001836020036101000a031916815260200191505b509350505050600060405180830381600087803b15801561271057600080fd5b505af1158015612724573d6000803e3d6000fd5b50505050600160009054906101000a900473ffffffffffffffffffffffffffffffffffffffff1673ffffffffffffffffffffffffffffffffffffffff1663f609cabd826040518263ffffffff1660e01b815260040180806020018060200180602001848103845285818151815260200191508051906020019080838360005b838110156127be5780820151818401526020810190506127a3565b50505050905090810190601f1680156127eb5780820380516001836020036101000a031916815260200191505b50848103835260078152602001807f6372656174656400000000000000000000000000000000000000000000000000815250602001848103825260018152602001807f2d00000000000000000000000000000000000000000000000000000000000000815250602001945050505050600060405180830381600087803b15801561287457600080fd5b505af1158015612888573d6000803e3d6000fd5b50505050809150509392505050565b60608060006001905060008090505b8180156128b3575060ff81105b15612a2c576128c185612bdd565b92506000809054906101000a900473ffffffffffffffffffffffffffffffffffffffff1673ffffffffffffffffffffffffffffffffffffffff16637ae1cfca8460405160200180807f53706563696d656e2e6e756d6265720000000000000000000000000000000000815250600f0182805190602001908083835b6020831061295f578051825260208201915060208101905060208303925061293c565b6001836020036101000a038019825116818451168082178552505050505050905001915050604051602081830303815290604052805190602001206040518263ffffffff1660e01b81526004018082815260200191505060206040518083038186803b1580156129ce57600080fd5b505afa1580156129e2573d6000803e3d6000fd5b505050506040513d60208110156129f857600080fd5b810190808051906020019092919050505015612a2257600185901c94508080600101915050612a27565b600091505b6128a6565b8115612aa0576040517f08c379a00000000000000000000000000000000000000000000000000000000081526004018080602001828103825260158152602001807f63616e27742067656e6572617465206e756d626572000000000000000000000081525060200191505060405180910390fd5b6000809054906101000a900473ffffffffffffffffffffffffffffffffffffffff1673ffffffffffffffffffffffffffffffffffffffff1663abfdcced8460405160200180807f53706563696d656e2e6e756d6265720000000000000000000000000000000000815250600f0182805190602001908083835b60208310612b3c5780518252602082019150602081019050602083039250612b19565b6001836020036101000a0380198251168184511680821785525050505050509050019150506040516020818303038152906040528051906020012060016040518363ffffffff1660e01b8152600401808381526020018215151515815260200192505050600060405180830381600087803b158015612bba57600080fd5b505af1158015612bce573d6000803e3d6000fd5b50505050829350505050919050565b606080604051806060016040528060228152602001612d1660229139905060608190506000601f60f81b85601f60208110612c1457fe5b1a60f81b1690506000600c9050600060018203905060608260ff166040519080825280601f01601f191660200182016040528015612c615781602001600182028038833980820191505090505b50905060008090505b8360ff16811015612d0657858560f81c60ff1681518110612c8757fe5b602001015160f81c60f81b828460ff1681518110612ca157fe5b60200101907effffffffffffffffffffffffffffffffffffffffffffffffffffffffffffff1916908160001a905350600589901c9850601f60f81b89601f60208110612ce957fe5b1a60f81b1694508280600190039350508080600101915050612c6a565b5080965050505050505091905056fe3031323334353637383941424344454647484a4b4c4d4e4f5051525354555658595aa265627a7a72315820c2120340c96d01b28b3ad8c42c1fc6f2ef93c9ba4f0fc30acb852a3cf7d16c4164736f6c63430005100032",
  "source": "pragma solidity ^0.5.16;\r\n\r\n\r\nimport \"./common/Base.sol\";\r\nimport \"./DegenicsLog.sol\";\r\nimport \"./SpecimenTracking.sol\";\r\n\r\ncontract Specimen is Base {\r\n\r\n    DegenicsLog degenicsLog;\r\n    SpecimenTracking specimenTracking;\r\n\r\n    uint private num = 0;\r\n\r\n    modifier onlyDegenicsContract() {\r\n        require(eternalStorage.getAddress(keccak256(abi.encodePacked(\"contract.address\", \"Degenics\"))) == msg.sender, \"Only registred contract\" );\r\n        _;\r\n    }\r\n\r\n    modifier onlyLab(string memory number){\r\n        require(roleHas(\"lab\", tx.origin) && \r\n            eternalStorage.getAddress(keccak256(abi.encodePacked( \"Specimen.lab\",number ))) == tx.origin,\r\n            \"Only lab\");\r\n        _;\r\n    }\r\n\r\n    modifier onlySpecimenOwner(string memory number){\r\n        require(eternalStorage.getAddress(keccak256(abi.encodePacked( \"Specimen.owner\",number ))) == tx.origin, \"Only Owner specimen\");\r\n        _;\r\n    }    \r\n    \r\n    constructor(address _storage, address _degenicsLog, address _specimenTracking ) public Base(_storage) {\r\n        degenicsLog = DegenicsLog(_degenicsLog);\r\n        specimenTracking = SpecimenTracking(_specimenTracking);\r\n    }   \r\n\r\n\r\n    function registerSpecimen(address ownerSpecimen, address labAccount, string memory serviceCode) public onlyDegenicsContract returns(string memory){\r\n        string memory number = getNumber(keccak256(abi.encodePacked(\"Specimen.number\", serviceCode, block.timestamp)));\r\n        num++;\r\n        eternalStorage.setUint(keccak256(abi.encodePacked( \"Specimen.registered\",number )),block.timestamp );\r\n        eternalStorage.setAddress(keccak256(abi.encodePacked( \"Specimen.owner\",number )),ownerSpecimen);\r\n        eternalStorage.setAddress(keccak256(abi.encodePacked( \"Specimen.lab\",number )),labAccount);\r\n        eternalStorage.setString(keccak256(abi.encodePacked( \"Specimen.serviceCode\",number )),serviceCode);\r\n        specimenTracking.setStatus(number, \"New\");\r\n        eternalStorage.setString(keccak256(abi.encodePacked(\"Specimen\",ownerSpecimen, \r\n            eternalStorage.addUint(keccak256(abi.encodePacked(\"Specimen.count\", ownerSpecimen)), 1))), number);\r\n        eternalStorage.setString(keccak256(abi.encodePacked(\"Specimen\",labAccount, \r\n            eternalStorage.addUint(keccak256(abi.encodePacked(\"Specimen.count\",labAccount)), 1))), number);\r\n        \r\n        degenicsLog.addSpecimenLog(number, \"created\", \"-\");\r\n        return number;  \r\n    }\r\n\r\n    function specimenCount(address sender) public view onlyDegenicsContract returns(uint){\r\n        return eternalStorage.getUint(keccak256(abi.encodePacked(\"Specimen.count\",sender)));\r\n    }\r\n\r\n    function specimenByNumber(string memory _number) public view onlyDegenicsContract returns(\r\n        string memory number, address owner, address labAccount, string memory serviceCode, string memory status){      \r\n        status =specimenTracking.getStatus(_number); \r\n        if(specimenTracking.checkStatus(_number, \"New\") && specimenTracking.checkPayment(_number)){\r\n            status = \"Paid\";\r\n        }\r\n        return(\r\n            _number,\r\n            eternalStorage.getAddress(keccak256(abi.encodePacked( \"Specimen.owner\",_number ))),\r\n            eternalStorage.getAddress(keccak256(abi.encodePacked( \"Specimen.lab\",_number ))),\r\n            eternalStorage.getString(keccak256(abi.encodePacked( \"Specimen.serviceCode\",_number ))),\r\n            status\r\n        );\r\n    }\r\n\r\n    function specimenByIndex(address sender, uint index) public view onlyDegenicsContract returns(\r\n         string memory number, address owner, address labAccount, string memory serviceCode, string memory status){        \r\n        \r\n        return specimenByNumber( eternalStorage.getString(keccak256(abi.encodePacked(\"Specimen\",sender, index ))));\r\n    }\r\n\r\n    function escrowBalance(string memory number) internal view returns(uint){\r\n        return (eternalStorage.getAddress(keccak256(abi.encodePacked(\"Specimen.escrow\", number)))).balance;\r\n    }\r\n\r\n    function getNumber(bytes32 seed) internal returns(string memory){\r\n        string memory res;\r\n        bool repeat = true;\r\n        uint i = 0;\r\n        while(repeat && (i < 255)){\r\n            res = generateNumber(seed);\r\n            if(eternalStorage.getBool(keccak256(abi.encodePacked(\"Specimen.number\", res)))) {\r\n                seed = seed>>1;\r\n                i++;\r\n            } else repeat = false;            \r\n        }\r\n        require(!repeat, \"can't generate number\");\r\n        eternalStorage.setBool(keccak256(abi.encodePacked(\"Specimen.number\", res)), true);\r\n        return res;\r\n    }\r\n\r\n    function generateNumber(bytes32 val) internal view returns(string memory){\r\n        string memory letters = \"0123456789ABCDEFGHJKLMNOPQRSTUVXYZ\";\r\n        bytes memory alphabet = bytes(letters);\r\n        byte temp = val[31] & 0x1f;\r\n        uint8 len = 12;\r\n        uint8 j = len -1;\r\n        bytes memory result = new bytes(len);\r\n        for(uint i = 0; i < len; i++) {\r\n            result[j] = alphabet[uint8(temp)];\r\n            val = val>>5;\r\n            temp = val[31] & 0x1f;\r\n            j--;\r\n        }\r\n        return string(result);\r\n    }\r\n\r\n\r\n}\r\n\r\n//97J05EE1B531",
  "sourcePath": "D:\\projects\\degenics\\degenics-smart-contract\\contracts\\Specimen.sol",
  "compiler": {
    "name": "solc",
    "version": "0.5.16+commit.9c3226ce.Emscripten.clang"
  },
  "schemaVersion": "3.0.23",
  "updatedAt": "2021-01-03T15:40:44.730Z",
  "networkType": "ethereum",
  "devdoc": {
    "methods": {}
  },
  "userdoc": {
    "methods": {}
  }
}